{
  "contractName": "FreedomUnlimited",
  "abi": [
    {
      "inputs": [],
      "stateMutability": "nonpayable",
      "type": "constructor"
    },
    {
      "anonymous": false,
      "inputs": [
        {
          "indexed": true,
          "internalType": "address",
          "name": "_user",
          "type": "address"
        },
        {
          "indexed": false,
          "internalType": "uint256",
          "name": "_level",
          "type": "uint256"
        },
        {
          "indexed": false,
          "internalType": "uint256",
          "name": "_time",
          "type": "uint256"
        }
      ],
      "name": "buyLevelEvent",
      "type": "event"
    },
    {
      "anonymous": false,
      "inputs": [
        {
          "indexed": true,
          "internalType": "address",
          "name": "_user",
          "type": "address"
        },
        {
          "indexed": true,
          "internalType": "address",
          "name": "_referral",
          "type": "address"
        },
        {
          "indexed": false,
          "internalType": "uint256",
          "name": "_level",
          "type": "uint256"
        },
        {
          "indexed": false,
          "internalType": "uint256",
          "name": "_time",
          "type": "uint256"
        }
      ],
      "name": "getMoneyForLevelEvent",
      "type": "event"
    },
    {
      "anonymous": false,
      "inputs": [
        {
          "indexed": true,
          "internalType": "address",
          "name": "_user",
          "type": "address"
        },
        {
          "indexed": true,
          "internalType": "address",
          "name": "_referral",
          "type": "address"
        },
        {
          "indexed": false,
          "internalType": "uint256",
          "name": "_level",
          "type": "uint256"
        },
        {
          "indexed": false,
          "internalType": "uint256",
          "name": "_time",
          "type": "uint256"
        }
      ],
      "name": "lostMoneyForLevelEvent",
      "type": "event"
    },
    {
      "anonymous": false,
      "inputs": [
        {
          "indexed": true,
          "internalType": "address",
          "name": "_user",
          "type": "address"
        },
        {
          "indexed": false,
          "internalType": "uint256",
          "name": "_level",
          "type": "uint256"
        },
        {
          "indexed": false,
          "internalType": "uint256",
          "name": "_time",
          "type": "uint256"
        }
      ],
      "name": "prolongateLevelEvent",
      "type": "event"
    },
    {
      "anonymous": false,
      "inputs": [
        {
          "indexed": true,
          "internalType": "address",
          "name": "_user",
          "type": "address"
        },
        {
          "indexed": true,
          "internalType": "address",
          "name": "_referrer",
          "type": "address"
        },
        {
          "indexed": false,
          "internalType": "uint256",
          "name": "_time",
          "type": "uint256"
        }
      ],
      "name": "regLevelEvent",
      "type": "event"
    },
    {
      "inputs": [
        {
          "internalType": "uint256",
          "name": "",
          "type": "uint256"
        }
      ],
      "name": "LEVEL_PRICE",
      "outputs": [
        {
          "internalType": "uint256",
          "name": "",
          "type": "uint256"
        }
      ],
      "stateMutability": "view",
      "type": "function",
      "constant": true
    },
    {
      "inputs": [],
      "name": "adminFee",
      "outputs": [
        {
          "internalType": "uint256",
          "name": "",
          "type": "uint256"
        }
      ],
      "stateMutability": "view",
      "type": "function",
      "constant": true
    },
    {
      "inputs": [],
      "name": "currUserID",
      "outputs": [
        {
          "internalType": "uint256",
          "name": "",
          "type": "uint256"
        }
      ],
      "stateMutability": "view",
      "type": "function",
      "constant": true
    },
    {
      "inputs": [
        {
          "internalType": "address",
          "name": "",
          "type": "address"
        },
        {
          "internalType": "uint256",
          "name": "",
          "type": "uint256"
        }
      ],
      "name": "levelExpired",
      "outputs": [
        {
          "internalType": "uint256",
          "name": "",
          "type": "uint256"
        }
      ],
      "stateMutability": "view",
      "type": "function",
      "constant": true
    },
    {
      "inputs": [],
      "name": "lockStatus",
      "outputs": [
        {
          "internalType": "bool",
          "name": "",
          "type": "bool"
        }
      ],
      "stateMutability": "view",
      "type": "function",
      "constant": true
    },
    {
      "inputs": [],
      "name": "manager",
      "outputs": [
        {
          "internalType": "address",
          "name": "",
          "type": "address"
        }
      ],
      "stateMutability": "view",
      "type": "function",
      "constant": true
    },
    {
      "inputs": [],
      "name": "owner",
      "outputs": [
        {
          "internalType": "address",
          "name": "",
          "type": "address"
        }
      ],
      "stateMutability": "view",
      "type": "function",
      "constant": true
    },
    {
      "inputs": [],
      "name": "ownerWallet",
      "outputs": [
        {
          "internalType": "address",
          "name": "",
          "type": "address"
        }
      ],
      "stateMutability": "view",
      "type": "function",
      "constant": true
    },
    {
      "inputs": [
        {
          "internalType": "address",
          "name": "_manager",
          "type": "address"
        }
      ],
      "name": "setManager",
      "outputs": [],
      "stateMutability": "nonpayable",
      "type": "function"
    },
    {
      "inputs": [
        {
          "internalType": "address",
          "name": "newOwner",
          "type": "address"
        }
      ],
      "name": "transferOwnership",
      "outputs": [],
      "stateMutability": "nonpayable",
      "type": "function"
    },
    {
      "inputs": [
        {
          "internalType": "uint256",
          "name": "",
          "type": "uint256"
        }
      ],
      "name": "userList",
      "outputs": [
        {
          "internalType": "address",
          "name": "",
          "type": "address"
        }
      ],
      "stateMutability": "view",
      "type": "function",
      "constant": true
    },
    {
      "inputs": [
        {
          "internalType": "address",
          "name": "",
          "type": "address"
        }
      ],
      "name": "users",
      "outputs": [
        {
          "internalType": "bool",
          "name": "isExist",
          "type": "bool"
        },
        {
          "internalType": "uint256",
          "name": "id",
          "type": "uint256"
        },
        {
          "internalType": "uint256",
          "name": "referrerID",
          "type": "uint256"
        },
        {
          "internalType": "uint256",
          "name": "currentLevel",
          "type": "uint256"
        },
        {
          "internalType": "uint256",
          "name": "totalEarningEth",
          "type": "uint256"
        }
      ],
      "stateMutability": "view",
      "type": "function",
      "constant": true
    },
    {
      "stateMutability": "payable",
      "type": "receive",
      "payable": true
    },
    {
      "inputs": [],
      "name": "receiveFunds",
      "outputs": [],
      "stateMutability": "payable",
      "type": "function",
      "payable": true
    },
    {
      "inputs": [
        {
          "internalType": "uint256",
          "name": "_referrerID",
          "type": "uint256"
        }
      ],
      "name": "regUser",
      "outputs": [],
      "stateMutability": "payable",
      "type": "function",
      "payable": true
    },
    {
      "inputs": [
        {
          "internalType": "uint256",
          "name": "_level",
          "type": "uint256"
        }
      ],
      "name": "buyLevel",
      "outputs": [],
      "stateMutability": "payable",
      "type": "function",
      "payable": true
    },
    {
      "inputs": [
        {
          "internalType": "address",
          "name": "_user",
          "type": "address"
        }
      ],
      "name": "findFreeReferrer",
      "outputs": [
        {
          "internalType": "address",
          "name": "",
          "type": "address"
        }
      ],
      "stateMutability": "view",
      "type": "function",
      "constant": true
    },
    {
      "inputs": [
        {
          "internalType": "address",
          "name": "_user",
          "type": "address"
        }
      ],
      "name": "viewUserReferral",
      "outputs": [
        {
          "internalType": "address[]",
          "name": "",
          "type": "address[]"
        }
      ],
      "stateMutability": "view",
      "type": "function",
      "constant": true
    },
    {
      "inputs": [
        {
          "internalType": "address",
          "name": "_user",
          "type": "address"
        },
        {
          "internalType": "uint256",
          "name": "_level",
          "type": "uint256"
        }
      ],
      "name": "viewUserLevelExpired",
      "outputs": [
        {
          "internalType": "uint256",
          "name": "",
          "type": "uint256"
        }
      ],
      "stateMutability": "view",
      "type": "function",
      "constant": true
    },
    {
      "inputs": [
        {
          "internalType": "address payable",
          "name": "_toUser",
          "type": "address"
        },
        {
          "internalType": "uint256",
          "name": "_amount",
          "type": "uint256"
        }
      ],
      "name": "failSafe",
      "outputs": [
        {
          "internalType": "bool",
          "name": "",
          "type": "bool"
        }
      ],
      "stateMutability": "nonpayable",
      "type": "function"
    },
    {
      "inputs": [
        {
          "internalType": "uint256",
          "name": "_level",
          "type": "uint256"
        },
        {
          "internalType": "uint256",
          "name": "_price",
          "type": "uint256"
        }
      ],
      "name": "updatePrice",
      "outputs": [
        {
          "internalType": "bool",
          "name": "",
          "type": "bool"
        }
      ],
      "stateMutability": "nonpayable",
      "type": "function"
    },
    {
      "inputs": [
        {
          "internalType": "bool",
          "name": "_lockStatus",
          "type": "bool"
        }
      ],
      "name": "contractLock",
      "outputs": [
        {
          "internalType": "bool",
          "name": "",
          "type": "bool"
        }
      ],
      "stateMutability": "nonpayable",
      "type": "function"
    },
    {
      "inputs": [],
      "name": "getTotalEarnedEther",
      "outputs": [
        {
          "internalType": "uint256",
          "name": "",
          "type": "uint256"
        }
      ],
      "stateMutability": "view",
      "type": "function",
      "constant": true
    },
    {
      "inputs": [
        {
          "internalType": "address",
          "name": "_user",
          "type": "address"
        }
      ],
      "name": "getUser",
      "outputs": [
        {
          "internalType": "bool",
          "name": "",
          "type": "bool"
        },
        {
          "internalType": "uint256",
          "name": "",
          "type": "uint256"
        },
        {
          "internalType": "uint256",
          "name": "",
          "type": "uint256"
        },
        {
          "internalType": "uint256",
          "name": "",
          "type": "uint256"
        },
        {
          "internalType": "uint256",
          "name": "",
          "type": "uint256"
        }
      ],
      "stateMutability": "view",
      "type": "function",
      "constant": true
    }
  ],
  "bytecode": "0x6080604052600060075567de0b6b3a76400000600855600360095562278d00600a553480156200002e57600080fd5b50336000806101000a81548173ffffffffffffffffffffffffffffffffffffffff021916908373ffffffffffffffffffffffffffffffffffffffff16021790555033600160006101000a81548173ffffffffffffffffffffffffffffffffffffffff021916908373ffffffffffffffffffffffffffffffffffffffff16021790555033600260006101000a81548173ffffffffffffffffffffffffffffffffffffffff021916908373ffffffffffffffffffffffffffffffffffffffff16021790555066b1a2bc2ec50000600360006001815260200190815260200160002081905550670214e8348c4f000060036000600281526020019081526020016000208190555067063eb89da4ed00006003600060038152602001908152602001600020819055506712bc29d8eec700006003600060048152602001908152602001600020819055506738347d8acc55000060036000600581526020019081526020016000208190555067a89d78a064ff00006003600060068152602001908152602001600020819055506801f9d869e12efd00006003600060078152602001908152602001600020819055506805ed893da38cf7000060036000600881526020019081526020016000208190555062000204620007f7565b600760008154809291906200021990620008e7565b91905055506040518060c001604052806001151581526020016007548152602001600081526020016008815260200160008152602001600067ffffffffffffffff81111562000291577f4e487b7100000000000000000000000000000000000000000000000000000000600052604160045260246000fd5b604051908082528060200260200182016040528015620002c05781602001602082028036833780820191505090505b5081525090508060056000600260009054906101000a900473ffffffffffffffffffffffffffffffffffffffff1673ffffffffffffffffffffffffffffffffffffffff1673ffffffffffffffffffffffffffffffffffffffff16815260200190815260200160002060008201518160000160006101000a81548160ff0219169083151502179055506020820151816001015560408201518160020155606082015181600301556080820151816004015560a08201518160050190805190602001906200038e9291906200082f565b50905050600260009054906101000a900473ffffffffffffffffffffffffffffffffffffffff1660066000600754815260200190815260200160002060006101000a81548173ffffffffffffffffffffffffffffffffffffffff021916908373ffffffffffffffffffffffffffffffffffffffff16021790555064121beab47160046000600260009054906101000a900473ffffffffffffffffffffffffffffffffffffffff1673ffffffffffffffffffffffffffffffffffffffff1673ffffffffffffffffffffffffffffffffffffffff1681526020019081526020016000206000600181526020019081526020016000208190555064121beab47160046000600260009054906101000a900473ffffffffffffffffffffffffffffffffffffffff1673ffffffffffffffffffffffffffffffffffffffff1673ffffffffffffffffffffffffffffffffffffffff1681526020019081526020016000206000600281526020019081526020016000208190555064121beab47160046000600260009054906101000a900473ffffffffffffffffffffffffffffffffffffffff1673ffffffffffffffffffffffffffffffffffffffff1673ffffffffffffffffffffffffffffffffffffffff1681526020019081526020016000206000600381526020019081526020016000208190555064121beab47160046000600260009054906101000a900473ffffffffffffffffffffffffffffffffffffffff1673ffffffffffffffffffffffffffffffffffffffff1673ffffffffffffffffffffffffffffffffffffffff1681526020019081526020016000206000600481526020019081526020016000208190555064121beab47160046000600260009054906101000a900473ffffffffffffffffffffffffffffffffffffffff1673ffffffffffffffffffffffffffffffffffffffff1673ffffffffffffffffffffffffffffffffffffffff1681526020019081526020016000206000600581526020019081526020016000208190555064121beab47160046000600260009054906101000a900473ffffffffffffffffffffffffffffffffffffffff1673ffffffffffffffffffffffffffffffffffffffff1673ffffffffffffffffffffffffffffffffffffffff1681526020019081526020016000206000600681526020019081526020016000208190555064121beab47160046000600260009054906101000a900473ffffffffffffffffffffffffffffffffffffffff1673ffffffffffffffffffffffffffffffffffffffff1673ffffffffffffffffffffffffffffffffffffffff1681526020019081526020016000206000600781526020019081526020016000208190555064121beab47160046000600260009054906101000a900473ffffffffffffffffffffffffffffffffffffffff1673ffffffffffffffffffffffffffffffffffffffff1673ffffffffffffffffffffffffffffffffffffffff168152602001908152602001600020600060088152602001908152602001600020819055505062000964565b6040518060c0016040528060001515815260200160008152602001600081526020016000815260200160008152602001606081525090565b828054828255906000526020600020908101928215620008ab579160200282015b82811115620008aa5782518260006101000a81548173ffffffffffffffffffffffffffffffffffffffff021916908373ffffffffffffffffffffffffffffffffffffffff1602179055509160200191906001019062000850565b5b509050620008ba9190620008be565b5090565b5b80821115620008d9576000816000905550600101620008bf565b5090565b6000819050919050565b6000620008f482620008dd565b91507fffffffffffffffffffffffffffffffffffffffffffffffffffffffffffffffff8214156200092a576200092962000935565b5b600182019050919050565b7f4e487b7100000000000000000000000000000000000000000000000000000000600052601160045260246000fd5b61439a80620009746000396000f3fe6080604052600436106101435760003560e01c80638da5cb5b116100b6578063a87430ba1161006f578063a87430ba14610496578063d0ebdbe7146104d7578063d284007314610500578063dbd7d37f1461053d578063f2fde38b1461057a578063f6838a72146105a357610152565b80638da5cb5b146103705780639335dcb71461039b5780639f4216e8146103c6578063a0be06f914610403578063a478656b1461042e578063a4bb170d1461046b57610152565b80634a4baa8f116101085780634a4baa8f1461021f57806352fd9f131461025c5780636f77926b1461029957806379378e30146102da57806382367b2d146103175780638853b53e1461035457610152565b80625c33e114610157578063132c8c9b146101615780631e97ec941461019e5780633e89340f146101c9578063481c6a75146101f457610152565b36610152576101506105bf565b005b600080fd5b61015f6105bf565b005b34801561016d57600080fd5b5061018860048036038101906101839190613668565b610913565b6040516101959190613d2f565b60405180910390f35b3480156101aa57600080fd5b506101b36112f9565b6040516101c0919061403a565b60405180910390f35b3480156101d557600080fd5b506101de6113b1565b6040516101eb9190613d6c565b60405180910390f35b34801561020057600080fd5b506102096113c4565b6040516102169190613d2f565b60405180910390f35b34801561022b57600080fd5b5061024660048036038101906102419190613668565b6113ea565b6040516102539190613d4a565b60405180910390f35b34801561026857600080fd5b50610283600480360381019061027e9190613691565b6114ba565b6040516102909190613d6c565b60405180910390f35b3480156102a557600080fd5b506102c060048036038101906102bb9190613668565b6116df565b6040516102d1959493929190613d87565b60405180910390f35b3480156102e657600080fd5b5061030160048036038101906102fc9190613732565b6118cb565b60405161030e919061403a565b60405180910390f35b34801561032357600080fd5b5061033e6004803603810190610339919061375b565b6118e3565b60405161034b9190613d6c565b60405180910390f35b61036e60048036038101906103699190613732565b611a26565b005b34801561037c57600080fd5b506103856122b7565b6040516103929190613d2f565b60405180910390f35b3480156103a757600080fd5b506103b06122db565b6040516103bd9190613d2f565b60405180910390f35b3480156103d257600080fd5b506103ed60048036038101906103e89190613732565b612301565b6040516103fa9190613d2f565b60405180910390f35b34801561040f57600080fd5b50610418612334565b604051610425919061403a565b60405180910390f35b34801561043a57600080fd5b5061045560048036038101906104509190613709565b61233a565b6040516104629190613d6c565b60405180910390f35b34801561047757600080fd5b5061048061247e565b60405161048d919061403a565b60405180910390f35b3480156104a257600080fd5b506104bd60048036038101906104b89190613668565b612484565b6040516104ce959493929190613d87565b60405180910390f35b3480156104e357600080fd5b506104fe60048036038101906104f99190613668565b6124c7565b005b34801561050c57600080fd5b50610527600480360381019061052291906136cd565b6125f1565b604051610534919061403a565b60405180910390f35b34801561054957600080fd5b50610564600480360381019061055f91906136cd565b61264c565b604051610571919061403a565b60405180910390f35b34801561058657600080fd5b506105a1600480360381019061059c9190613668565b612671565b005b6105bd60048036038101906105b89190613732565b612742565b005b60006003600060018152602001908152602001600020543414156105e6576001905061072b565b60036000600281526020019081526020016000205434141561060b576002905061072a565b6003600060038152602001908152602001600020543414156106305760039050610729565b6003600060048152602001908152602001600020543414156106555760049050610728565b60036000600581526020019081526020016000205434141561067a5760059050610727565b60036000600681526020019081526020016000205434141561069f5760069050610726565b6003600060078152602001908152602001600020543414156106c45760079050610725565b6003600060088152602001908152602001600020543414156106e95760089050610724565b6040517f08c379a000000000000000000000000000000000000000000000000000000000815260040161071b90613f1a565b60405180910390fd5b5b5b5b5b5b5b5b600560003373ffffffffffffffffffffffffffffffffffffffff1673ffffffffffffffffffffffffffffffffffffffff16815260200190815260200160002060000160009054906101000a900460ff161561078e5761078981612742565b610910565b60018114156108d4576000806107e86000368080601f016020809104026020016040519081016040528093929190818152602001838380828437600081840152601f19601f82011690508083019250505050505050612be4565b9050600560008273ffffffffffffffffffffffffffffffffffffffff1673ffffffffffffffffffffffffffffffffffffffff16815260200190815260200160002060000160009054906101000a900460ff161561088957600560008273ffffffffffffffffffffffffffffffffffffffff1673ffffffffffffffffffffffffffffffffffffffff1681526020019081526020016000206001015491506108c4565b6040517f08c379a00000000000000000000000000000000000000000000000000000000081526004016108bb90613f3a565b60405180910390fd5b6108cd82611a26565b505061090f565b6040517f08c379a000000000000000000000000000000000000000000000000000000000815260040161090690613eda565b60405180910390fd5b5b50565b6000600954600560008473ffffffffffffffffffffffffffffffffffffffff1673ffffffffffffffffffffffffffffffffffffffff16815260200190815260200160002060050180549050101561096c578190506112f4565b600061016b67ffffffffffffffff8111156109b0577f4e487b7100000000000000000000000000000000000000000000000000000000600052604160045260246000fd5b6040519080825280602002602001820160405280156109de5781602001602082028036833780820191505090505b509050600560008473ffffffffffffffffffffffffffffffffffffffff1673ffffffffffffffffffffffffffffffffffffffff168152602001908152602001600020600501600081548110610a5c577f4e487b7100000000000000000000000000000000000000000000000000000000600052603260045260246000fd5b9060005260206000200160009054906101000a900473ffffffffffffffffffffffffffffffffffffffff1681600081518110610ac1577f4e487b7100000000000000000000000000000000000000000000000000000000600052603260045260246000fd5b602002602001019073ffffffffffffffffffffffffffffffffffffffff16908173ffffffffffffffffffffffffffffffffffffffff1681525050600560008473ffffffffffffffffffffffffffffffffffffffff1673ffffffffffffffffffffffffffffffffffffffff168152602001908152602001600020600501600181548110610b76577f4e487b7100000000000000000000000000000000000000000000000000000000600052603260045260246000fd5b9060005260206000200160009054906101000a900473ffffffffffffffffffffffffffffffffffffffff1681600181518110610bdb577f4e487b7100000000000000000000000000000000000000000000000000000000600052603260045260246000fd5b602002602001019073ffffffffffffffffffffffffffffffffffffffff16908173ffffffffffffffffffffffffffffffffffffffff1681525050600560008473ffffffffffffffffffffffffffffffffffffffff1673ffffffffffffffffffffffffffffffffffffffff168152602001908152602001600020600501600281548110610c90577f4e487b7100000000000000000000000000000000000000000000000000000000600052603260045260246000fd5b9060005260206000200160009054906101000a900473ffffffffffffffffffffffffffffffffffffffff1681600281518110610cf5577f4e487b7100000000000000000000000000000000000000000000000000000000600052603260045260246000fd5b602002602001019073ffffffffffffffffffffffffffffffffffffffff16908173ffffffffffffffffffffffffffffffffffffffff16815250506000806001905060005b61016b8110156112ab5760095460056000868481518110610d83577f4e487b7100000000000000000000000000000000000000000000000000000000600052603260045260246000fd5b602002602001015173ffffffffffffffffffffffffffffffffffffffff1673ffffffffffffffffffffffffffffffffffffffff16815260200190815260200160002060050180549050141561124c5760788110156112475760056000858381518110610e18577f4e487b7100000000000000000000000000000000000000000000000000000000600052603260045260246000fd5b602002602001015173ffffffffffffffffffffffffffffffffffffffff1673ffffffffffffffffffffffffffffffffffffffff168152602001908152602001600020600501600081548110610e96577f4e487b7100000000000000000000000000000000000000000000000000000000600052603260045260246000fd5b9060005260206000200160009054906101000a900473ffffffffffffffffffffffffffffffffffffffff16846003600184610ed191906140c8565b610edb919061414f565b81518110610f12577f4e487b7100000000000000000000000000000000000000000000000000000000600052603260045260246000fd5b602002602001019073ffffffffffffffffffffffffffffffffffffffff16908173ffffffffffffffffffffffffffffffffffffffff168152505060056000858381518110610f89577f4e487b7100000000000000000000000000000000000000000000000000000000600052603260045260246000fd5b602002602001015173ffffffffffffffffffffffffffffffffffffffff1673ffffffffffffffffffffffffffffffffffffffff168152602001908152602001600020600501600181548110611007577f4e487b7100000000000000000000000000000000000000000000000000000000600052603260045260246000fd5b9060005260206000200160009054906101000a900473ffffffffffffffffffffffffffffffffffffffff16846001600360018561104491906140c8565b61104e919061414f565b61105891906140c8565b8151811061108f577f4e487b7100000000000000000000000000000000000000000000000000000000600052603260045260246000fd5b602002602001019073ffffffffffffffffffffffffffffffffffffffff16908173ffffffffffffffffffffffffffffffffffffffff168152505060056000858381518110611106577f4e487b7100000000000000000000000000000000000000000000000000000000600052603260045260246000fd5b602002602001015173ffffffffffffffffffffffffffffffffffffffff1673ffffffffffffffffffffffffffffffffffffffff168152602001908152602001600020600501600281548110611184577f4e487b7100000000000000000000000000000000000000000000000000000000600052603260045260246000fd5b9060005260206000200160009054906101000a900473ffffffffffffffffffffffffffffffffffffffff1684600260036001856111c191906140c8565b6111cb919061414f565b6111d591906140c8565b8151811061120c577f4e487b7100000000000000000000000000000000000000000000000000000000600052603260045260246000fd5b602002602001019073ffffffffffffffffffffffffffffffffffffffff16908173ffffffffffffffffffffffffffffffffffffffff16815250505b611298565b60009150838181518110611289577f4e487b7100000000000000000000000000000000000000000000000000000000600052603260045260246000fd5b602002602001015192506112ab565b80806112a390614261565b915050610d39565b5080156112ed576040517f08c379a00000000000000000000000000000000000000000000000000000000081526004016112e490613fda565b60405180910390fd5b8193505050505b919050565b6000806000600190505b60075481116113a957611394600560006006600085815260200190815260200160002060009054906101000a900473ffffffffffffffffffffffffffffffffffffffff1673ffffffffffffffffffffffffffffffffffffffff1673ffffffffffffffffffffffffffffffffffffffff1681526020019081526020016000206004015483612bf290919063ffffffff16565b915080806113a190614261565b915050611303565b508091505090565b600b60009054906101000a900460ff1681565b600160009054906101000a900473ffffffffffffffffffffffffffffffffffffffff1681565b6060600560008373ffffffffffffffffffffffffffffffffffffffff1673ffffffffffffffffffffffffffffffffffffffff1681526020019081526020016000206005018054806020026020016040519081016040528092919081815260200182805480156114ae57602002820191906000526020600020905b8160009054906101000a900473ffffffffffffffffffffffffffffffffffffffff1673ffffffffffffffffffffffffffffffffffffffff1681526020019060010190808311611464575b50505050509050919050565b60008060009054906101000a900473ffffffffffffffffffffffffffffffffffffffff1673ffffffffffffffffffffffffffffffffffffffff163373ffffffffffffffffffffffffffffffffffffffff161461154b576040517f08c379a000000000000000000000000000000000000000000000000000000000815260040161154290613e1a565b60405180910390fd5b600260009054906101000a900473ffffffffffffffffffffffffffffffffffffffff1673ffffffffffffffffffffffffffffffffffffffff163373ffffffffffffffffffffffffffffffffffffffff16146115db576040517f08c379a00000000000000000000000000000000000000000000000000000000081526004016115d290613ffa565b60405180910390fd5b600073ffffffffffffffffffffffffffffffffffffffff168373ffffffffffffffffffffffffffffffffffffffff16141561164b576040517f08c379a000000000000000000000000000000000000000000000000000000000815260040161164290613fba565b60405180910390fd5b8147101561168e576040517f08c379a000000000000000000000000000000000000000000000000000000000815260040161168590613e7a565b60405180910390fd5b8273ffffffffffffffffffffffffffffffffffffffff166108fc839081150290604051600060405180830381858888f193505050501580156116d4573d6000803e3d6000fd5b506001905092915050565b6000806000806000801515600560008873ffffffffffffffffffffffffffffffffffffffff1673ffffffffffffffffffffffffffffffffffffffff16815260200190815260200160002060000160009054906101000a900460ff161515141561175b5760006007546000806000945094509450945094506118c2565b600560008773ffffffffffffffffffffffffffffffffffffffff1673ffffffffffffffffffffffffffffffffffffffff16815260200190815260200160002060000160009054906101000a900460ff16600560008873ffffffffffffffffffffffffffffffffffffffff1673ffffffffffffffffffffffffffffffffffffffff16815260200190815260200160002060010154600560008973ffffffffffffffffffffffffffffffffffffffff1673ffffffffffffffffffffffffffffffffffffffff16815260200190815260200160002060020154600560008a73ffffffffffffffffffffffffffffffffffffffff1673ffffffffffffffffffffffffffffffffffffffff16815260200190815260200160002060030154600560008b73ffffffffffffffffffffffffffffffffffffffff1673ffffffffffffffffffffffffffffffffffffffff16815260200190815260200160002060040154945094509450945094505b91939590929450565b60036020528060005260406000206000915090505481565b60008060009054906101000a900473ffffffffffffffffffffffffffffffffffffffff1673ffffffffffffffffffffffffffffffffffffffff163373ffffffffffffffffffffffffffffffffffffffff1614611974576040517f08c379a000000000000000000000000000000000000000000000000000000000815260040161196b90613e1a565b60405180910390fd5b600260009054906101000a900473ffffffffffffffffffffffffffffffffffffffff1673ffffffffffffffffffffffffffffffffffffffff163373ffffffffffffffffffffffffffffffffffffffff1614611a04576040517f08c379a00000000000000000000000000000000000000000000000000000000081526004016119fb9061401a565b60405180910390fd5b8160036000858152602001908152602001600020819055506001905092915050565b600560003373ffffffffffffffffffffffffffffffffffffffff1673ffffffffffffffffffffffffffffffffffffffff16815260200190815260200160002060000160009054906101000a900460ff1615611ab6576040517f08c379a0000000000000000000000000000000000000000000000000000000008152600401611aad90613e3a565b60405180910390fd5b60001515600b60009054906101000a900460ff16151514611b0c576040517f08c379a0000000000000000000000000000000000000000000000000000000008152600401611b0390613efa565b60405180910390fd5b600081118015611b1e57506007548111155b611b5d576040517f08c379a0000000000000000000000000000000000000000000000000000000008152600401611b5490613dfa565b60405180910390fd5b6003600060018152602001908152602001600020543414611bb3576040517f08c379a0000000000000000000000000000000000000000000000000000000008152600401611baa90613dda565b60405180910390fd5b600954600560006006600085815260200190815260200160002060009054906101000a900473ffffffffffffffffffffffffffffffffffffffff1673ffffffffffffffffffffffffffffffffffffffff1673ffffffffffffffffffffffffffffffffffffffff1681526020019081526020016000206005018054905010611cb55760056000611c746006600085815260200190815260200160002060009054906101000a900473ffffffffffffffffffffffffffffffffffffffff16610913565b73ffffffffffffffffffffffffffffffffffffffff1673ffffffffffffffffffffffffffffffffffffffff1681526020019081526020016000206001015490505b611cbd613535565b60076000815480929190611cd090614261565b91905055506040518060c0016040528060011515815260200160075481526020018381526020016001815260200160008152602001600067ffffffffffffffff811115611d46577f4e487b7100000000000000000000000000000000000000000000000000000000600052604160045260246000fd5b604051908082528060200260200182016040528015611d745781602001602082028036833780820191505090505b50815250905080600560003373ffffffffffffffffffffffffffffffffffffffff1673ffffffffffffffffffffffffffffffffffffffff16815260200190815260200160002060008201518160000160006101000a81548160ff0219169083151502179055506020820151816001015560408201518160020155606082015181600301556080820151816004015560a0820151816005019080519060200190611e1e92919061356d565b509050503360066000600754815260200190815260200160002060006101000a81548173ffffffffffffffffffffffffffffffffffffffff021916908373ffffffffffffffffffffffffffffffffffffffff160217905550600a5442611e8491906140c8565b600460003373ffffffffffffffffffffffffffffffffffffffff1673ffffffffffffffffffffffffffffffffffffffff168152602001908152602001600020600060018152602001908152602001600020819055506000600460003373ffffffffffffffffffffffffffffffffffffffff1673ffffffffffffffffffffffffffffffffffffffff168152602001908152602001600020600060028152602001908152602001600020819055506000600460003373ffffffffffffffffffffffffffffffffffffffff1673ffffffffffffffffffffffffffffffffffffffff168152602001908152602001600020600060038152602001908152602001600020819055506000600460003373ffffffffffffffffffffffffffffffffffffffff1673ffffffffffffffffffffffffffffffffffffffff168152602001908152602001600020600060048152602001908152602001600020819055506000600460003373ffffffffffffffffffffffffffffffffffffffff1673ffffffffffffffffffffffffffffffffffffffff168152602001908152602001600020600060058152602001908152602001600020819055506000600460003373ffffffffffffffffffffffffffffffffffffffff1673ffffffffffffffffffffffffffffffffffffffff168152602001908152602001600020600060068152602001908152602001600020819055506000600460003373ffffffffffffffffffffffffffffffffffffffff1673ffffffffffffffffffffffffffffffffffffffff168152602001908152602001600020600060078152602001908152602001600020819055506000600460003373ffffffffffffffffffffffffffffffffffffffff1673ffffffffffffffffffffffffffffffffffffffff16815260200190815260200160002060006008815260200190815260200160002081905550600560006006600085815260200190815260200160002060009054906101000a900473ffffffffffffffffffffffffffffffffffffffff1673ffffffffffffffffffffffffffffffffffffffff1673ffffffffffffffffffffffffffffffffffffffff168152602001908152602001600020600501339080600181540180825580915050600190039060005260206000200160009091909190916101000a81548173ffffffffffffffffffffffffffffffffffffffff021916908373ffffffffffffffffffffffffffffffffffffffff16021790555061221b600133612c44565b6006600083815260200190815260200160002060009054906101000a900473ffffffffffffffffffffffffffffffffffffffff1673ffffffffffffffffffffffffffffffffffffffff163373ffffffffffffffffffffffffffffffffffffffff167f788c06d2405ae89dd3f0528d38be7691289474d72176408bc2c2406dc5e342f1426040516122ab919061403a565b60405180910390a35050565b60008054906101000a900473ffffffffffffffffffffffffffffffffffffffff1681565b600260009054906101000a900473ffffffffffffffffffffffffffffffffffffffff1681565b60066020528060005260406000206000915054906101000a900473ffffffffffffffffffffffffffffffffffffffff1681565b60085481565b60008060009054906101000a900473ffffffffffffffffffffffffffffffffffffffff1673ffffffffffffffffffffffffffffffffffffffff163373ffffffffffffffffffffffffffffffffffffffff16146123cb576040517f08c379a00000000000000000000000000000000000000000000000000000000081526004016123c290613e1a565b60405180910390fd5b600260009054906101000a900473ffffffffffffffffffffffffffffffffffffffff1673ffffffffffffffffffffffffffffffffffffffff163373ffffffffffffffffffffffffffffffffffffffff161461245b576040517f08c379a000000000000000000000000000000000000000000000000000000000815260040161245290613e5a565b60405180910390fd5b81600b60006101000a81548160ff02191690831515021790555060019050919050565b60075481565b60056020528060005260406000206000915090508060000160009054906101000a900460ff16908060010154908060020154908060030154908060040154905085565b60008054906101000a900473ffffffffffffffffffffffffffffffffffffffff1673ffffffffffffffffffffffffffffffffffffffff163373ffffffffffffffffffffffffffffffffffffffff16148061256e5750600160009054906101000a900473ffffffffffffffffffffffffffffffffffffffff1673ffffffffffffffffffffffffffffffffffffffff163373ffffffffffffffffffffffffffffffffffffffff16145b6125ad576040517f08c379a00000000000000000000000000000000000000000000000000000000081526004016125a490613f9a565b60405180910390fd5b80600160006101000a81548173ffffffffffffffffffffffffffffffffffffffff021916908373ffffffffffffffffffffffffffffffffffffffff16021790555050565b6000600460008473ffffffffffffffffffffffffffffffffffffffff1673ffffffffffffffffffffffffffffffffffffffff168152602001908152602001600020600083815260200190815260200160002054905092915050565b6004602052816000526040600020602052806000526040600020600091509150505481565b60008054906101000a900473ffffffffffffffffffffffffffffffffffffffff1673ffffffffffffffffffffffffffffffffffffffff163373ffffffffffffffffffffffffffffffffffffffff16146126ff576040517f08c379a00000000000000000000000000000000000000000000000000000000081526004016126f690613e1a565b60405180910390fd5b806000806101000a81548173ffffffffffffffffffffffffffffffffffffffff021916908373ffffffffffffffffffffffffffffffffffffffff16021790555050565b600560003373ffffffffffffffffffffffffffffffffffffffff1673ffffffffffffffffffffffffffffffffffffffff16815260200190815260200160002060000160009054906101000a900460ff166127d1576040517f08c379a00000000000000000000000000000000000000000000000000000000081526004016127c890613f5a565b60405180910390fd5b60001515600b60009054906101000a900460ff16151514612827576040517f08c379a000000000000000000000000000000000000000000000000000000000815260040161281e90613efa565b60405180910390fd5b600081118015612838575060088111155b612877576040517f08c379a000000000000000000000000000000000000000000000000000000000815260040161286e90613eba565b60405180910390fd5b60018114156129455760036000600181526020019081526020016000205434146128d6576040517f08c379a00000000000000000000000000000000000000000000000000000000081526004016128cd90613dda565b60405180910390fd5b600a54600460003373ffffffffffffffffffffffffffffffffffffffff1673ffffffffffffffffffffffffffffffffffffffff168152602001908152602001600020600060018152602001908152602001600020600082825461293991906140c8565b92505081905550612b87565b6003600082815260200190815260200160002054341461299a576040517f08c379a000000000000000000000000000000000000000000000000000000000815260040161299190613dda565b60405180910390fd5b60006001826129a991906141a9565b90505b6000811115612a5b5742600460003373ffffffffffffffffffffffffffffffffffffffff1673ffffffffffffffffffffffffffffffffffffffff1681526020019081526020016000206000838152602001908152602001600020541015612a48576040517f08c379a0000000000000000000000000000000000000000000000000000000008152600401612a3f90613e9a565b60405180910390fd5b8080612a5390614237565b9150506129ac565b506000600460003373ffffffffffffffffffffffffffffffffffffffff1673ffffffffffffffffffffffffffffffffffffffff1681526020019081526020016000206000838152602001908152602001600020541415612b1c57600a5442612ac391906140c8565b600460003373ffffffffffffffffffffffffffffffffffffffff1673ffffffffffffffffffffffffffffffffffffffff168152602001908152602001600020600083815260200190815260200160002081905550612b86565b600a54600460003373ffffffffffffffffffffffffffffffffffffffff1673ffffffffffffffffffffffffffffffffffffffff16815260200190815260200160002060008381526020019081526020016000206000828254612b7e91906140c8565b925050819055505b5b612b918133612c44565b3373ffffffffffffffffffffffffffffffffffffffff167f9ea70f0eb33d898c3336ecf2c0e3cf1c0195c13ad3fbcb34447777dbfd5ff2d08242604051612bd9929190614055565b60405180910390a250565b600060148201519050919050565b6000808284612c0191906140c8565b905083811015612c3a577f4e487b7100000000000000000000000000000000000000000000000000000000600052600160045260246000fd5b8091505092915050565b6000806000806001861480612c595750600586145b15612cdb5760066000600560008873ffffffffffffffffffffffffffffffffffffffff1673ffffffffffffffffffffffffffffffffffffffff16815260200190815260200160002060020154815260200190815260200160002060009054906101000a900473ffffffffffffffffffffffffffffffffffffffff16935061315d565b6002861480612cea5750600686145b15612de45760066000600560008873ffffffffffffffffffffffffffffffffffffffff1673ffffffffffffffffffffffffffffffffffffffff16815260200190815260200160002060020154815260200190815260200160002060009054906101000a900473ffffffffffffffffffffffffffffffffffffffff16925060066000600560008673ffffffffffffffffffffffffffffffffffffffff1673ffffffffffffffffffffffffffffffffffffffff16815260200190815260200160002060020154815260200190815260200160002060009054906101000a900473ffffffffffffffffffffffffffffffffffffffff16935061315c565b6003861480612df35750600786145b15612f655760066000600560008873ffffffffffffffffffffffffffffffffffffffff1673ffffffffffffffffffffffffffffffffffffffff16815260200190815260200160002060020154815260200190815260200160002060009054906101000a900473ffffffffffffffffffffffffffffffffffffffff16925060066000600560008673ffffffffffffffffffffffffffffffffffffffff1673ffffffffffffffffffffffffffffffffffffffff16815260200190815260200160002060020154815260200190815260200160002060009054906101000a900473ffffffffffffffffffffffffffffffffffffffff16915060066000600560008573ffffffffffffffffffffffffffffffffffffffff1673ffffffffffffffffffffffffffffffffffffffff16815260200190815260200160002060020154815260200190815260200160002060009054906101000a900473ffffffffffffffffffffffffffffffffffffffff16935061315b565b6004861480612f745750600886145b1561315a5760066000600560008873ffffffffffffffffffffffffffffffffffffffff1673ffffffffffffffffffffffffffffffffffffffff16815260200190815260200160002060020154815260200190815260200160002060009054906101000a900473ffffffffffffffffffffffffffffffffffffffff16925060066000600560008673ffffffffffffffffffffffffffffffffffffffff1673ffffffffffffffffffffffffffffffffffffffff16815260200190815260200160002060020154815260200190815260200160002060009054906101000a900473ffffffffffffffffffffffffffffffffffffffff16915060066000600560008573ffffffffffffffffffffffffffffffffffffffff1673ffffffffffffffffffffffffffffffffffffffff16815260200190815260200160002060020154815260200190815260200160002060009054906101000a900473ffffffffffffffffffffffffffffffffffffffff16905060066000600560008473ffffffffffffffffffffffffffffffffffffffff1673ffffffffffffffffffffffffffffffffffffffff16815260200190815260200160002060020154815260200190815260200160002060009054906101000a900473ffffffffffffffffffffffffffffffffffffffff1693505b5b5b5b600560008573ffffffffffffffffffffffffffffffffffffffff1673ffffffffffffffffffffffffffffffffffffffff16815260200190815260200160002060000160009054906101000a900460ff166131e957600660006001815260200190815260200160002060009054906101000a900473ffffffffffffffffffffffffffffffffffffffff1693505b42600460008673ffffffffffffffffffffffffffffffffffffffff1673ffffffffffffffffffffffffffffffffffffffff168152602001908152602001600020600088815260200190815260200160002054106133ec57600061328568056bc75e2d63100000613277600854600360008c81526020019081526020016000205461346690919063ffffffff16565b6134cd90919063ffffffff16565b90508473ffffffffffffffffffffffffffffffffffffffff166108fc6132c783600360008c8152602001908152602001600020546134e890919063ffffffff16565b9081150290604051600060405180830381858888f1935050505080156133405750600260009054906101000a900473ffffffffffffffffffffffffffffffffffffffff1673ffffffffffffffffffffffffffffffffffffffff166108fc829081150290604051600060405180830381858888f193505050505b61337f576040517f08c379a000000000000000000000000000000000000000000000000000000000815260040161337690613f7a565b60405180910390fd5b3373ffffffffffffffffffffffffffffffffffffffff168573ffffffffffffffffffffffffffffffffffffffff167fce7dc747411ac40191c5335943fcc79d8c2d8c01ca5ae83d9fed160409fa612089426040516133de929190614055565b60405180910390a35061345e565b3373ffffffffffffffffffffffffffffffffffffffff168473ffffffffffffffffffffffffffffffffffffffff167f7df0f6bac5c770af7783500bb7f1c0d073adb11316004ba6f9f6c704af1a1aea884260405161344b929190614055565b60405180910390a361345d8685612c44565b5b505050505050565b6000808284613475919061414f565b90506000841480613490575082848261348e919061411e565b145b6134c3577f4e487b7100000000000000000000000000000000000000000000000000000000600052600160045260246000fd5b8091505092915050565b60008082846134dc919061411e565b90508091505092915050565b600082821115613521577f4e487b7100000000000000000000000000000000000000000000000000000000600052600160045260246000fd5b818361352d91906141a9565b905092915050565b6040518060c0016040528060001515815260200160008152602001600081526020016000815260200160008152602001606081525090565b8280548282559060005260206000209081019282156135e6579160200282015b828111156135e55782518260006101000a81548173ffffffffffffffffffffffffffffffffffffffff021916908373ffffffffffffffffffffffffffffffffffffffff1602179055509160200191906001019061358d565b5b5090506135f391906135f7565b5090565b5b808211156136105760008160009055506001016135f8565b5090565b60008135905061362381614308565b92915050565b6000813590506136388161431f565b92915050565b60008135905061364d81614336565b92915050565b6000813590506136628161434d565b92915050565b60006020828403121561367a57600080fd5b600061368884828501613614565b91505092915050565b600080604083850312156136a457600080fd5b60006136b285828601613629565b92505060206136c385828601613653565b9150509250929050565b600080604083850312156136e057600080fd5b60006136ee85828601613614565b92505060206136ff85828601613653565b9150509250929050565b60006020828403121561371b57600080fd5b60006137298482850161363e565b91505092915050565b60006020828403121561374457600080fd5b600061375284828501613653565b91505092915050565b6000806040838503121561376e57600080fd5b600061377c85828601613653565b925050602061378d85828601613653565b9150509250929050565b60006137a383836137af565b60208301905092915050565b6137b8816141dd565b82525050565b6137c7816141dd565b82525050565b60006137d88261408e565b6137e281856140a6565b93506137ed8361407e565b8060005b8381101561381e5781516138058882613797565b975061381083614099565b9250506001810190506137f1565b5085935050505092915050565b61383481614201565b82525050565b6000613847600f836140b7565b91507f496e636f72726563742056616c756500000000000000000000000000000000006000830152602082019050919050565b60006138876015836140b7565b91507f496e636f727265637420726566657272657220496400000000000000000000006000830152602082019050919050565b60006138c7600e836140b7565b91507f6f6e6c7920666f72206f776e65720000000000000000000000000000000000006000830152602082019050919050565b6000613907600a836140b7565b91507f55736572206578697374000000000000000000000000000000000000000000006000830152602082019050919050565b6000613947600c836140b7565b91507f496e76616c6964205573657200000000000000000000000000000000000000006000830152602082019050919050565b60006139876014836140b7565b91507f496e73756666696369656e742062616c616e63650000000000000000000000006000830152602082019050919050565b60006139c76016836140b7565b91507f427579207468652070726576696f7573206c6576656c000000000000000000006000830152602082019050919050565b6000613a07600f836140b7565b91507f496e636f7272656374206c6576656c00000000000000000000000000000000006000830152602082019050919050565b6000613a476023836140b7565b91507f506c6561736520627579206669727374206c6576656c20666f7220302e30352060008301527f45544800000000000000000000000000000000000000000000000000000000006020830152604082019050919050565b6000613aad600f836140b7565b91507f436f6e7472616374204c6f636b656400000000000000000000000000000000006000830152602082019050919050565b6000613aed6014836140b7565b91507f496e636f72726563742056616c75652073656e640000000000000000000000006000830152602082019050919050565b6000613b2d6012836140b7565b91507f496e636f727265637420726566657272657200000000000000000000000000006000830152602082019050919050565b6000613b6d600e836140b7565b91507f55736572206e6f742065786973740000000000000000000000000000000000006000830152602082019050919050565b6000613bad6013836140b7565b91507f5472616e73616374696f6e204661696c757265000000000000000000000000006000830152602082019050919050565b6000613bed6019836140b7565b91507f6f6e6c7920666f72206f776e6572206f72206d616e61676572000000000000006000830152602082019050919050565b6000613c2d600f836140b7565b91507f496e76616c6964204164647265737300000000000000000000000000000000006000830152602082019050919050565b6000613c6d6010836140b7565b91507f4e6f2046726565205265666572726572000000000000000000000000000000006000830152602082019050919050565b6000613cad6011836140b7565b91507f6f6e6c79204f776e65722057616c6c65740000000000000000000000000000006000830152602082019050919050565b6000613ced6010836140b7565b91507f6f6e6c79204f776e657257616c6c6574000000000000000000000000000000006000830152602082019050919050565b613d298161422d565b82525050565b6000602082019050613d4460008301846137be565b92915050565b60006020820190508181036000830152613d6481846137cd565b905092915050565b6000602082019050613d81600083018461382b565b92915050565b600060a082019050613d9c600083018861382b565b613da96020830187613d20565b613db66040830186613d20565b613dc36060830185613d20565b613dd06080830184613d20565b9695505050505050565b60006020820190508181036000830152613df38161383a565b9050919050565b60006020820190508181036000830152613e138161387a565b9050919050565b60006020820190508181036000830152613e33816138ba565b9050919050565b60006020820190508181036000830152613e53816138fa565b9050919050565b60006020820190508181036000830152613e738161393a565b9050919050565b60006020820190508181036000830152613e938161397a565b9050919050565b60006020820190508181036000830152613eb3816139ba565b9050919050565b60006020820190508181036000830152613ed3816139fa565b9050919050565b60006020820190508181036000830152613ef381613a3a565b9050919050565b60006020820190508181036000830152613f1381613aa0565b9050919050565b60006020820190508181036000830152613f3381613ae0565b9050919050565b60006020820190508181036000830152613f5381613b20565b9050919050565b60006020820190508181036000830152613f7381613b60565b9050919050565b60006020820190508181036000830152613f9381613ba0565b9050919050565b60006020820190508181036000830152613fb381613be0565b9050919050565b60006020820190508181036000830152613fd381613c20565b9050919050565b60006020820190508181036000830152613ff381613c60565b9050919050565b6000602082019050818103600083015261401381613ca0565b9050919050565b6000602082019050818103600083015261403381613ce0565b9050919050565b600060208201905061404f6000830184613d20565b92915050565b600060408201905061406a6000830185613d20565b6140776020830184613d20565b9392505050565b6000819050602082019050919050565b600081519050919050565b6000602082019050919050565b600082825260208201905092915050565b600082825260208201905092915050565b60006140d38261422d565b91506140de8361422d565b9250827fffffffffffffffffffffffffffffffffffffffffffffffffffffffffffffffff03821115614113576141126142aa565b5b828201905092915050565b60006141298261422d565b91506141348361422d565b925082614144576141436142d9565b5b828204905092915050565b600061415a8261422d565b91506141658361422d565b9250817fffffffffffffffffffffffffffffffffffffffffffffffffffffffffffffffff048311821515161561419e5761419d6142aa565b5b828202905092915050565b60006141b48261422d565b91506141bf8361422d565b9250828210156141d2576141d16142aa565b5b828203905092915050565b60006141e88261420d565b9050919050565b60006141fa8261420d565b9050919050565b60008115159050919050565b600073ffffffffffffffffffffffffffffffffffffffff82169050919050565b6000819050919050565b60006142428261422d565b91506000821415614256576142556142aa565b5b600182039050919050565b600061426c8261422d565b91507fffffffffffffffffffffffffffffffffffffffffffffffffffffffffffffffff82141561429f5761429e6142aa565b5b600182019050919050565b7f4e487b7100000000000000000000000000000000000000000000000000000000600052601160045260246000fd5b7f4e487b7100000000000000000000000000000000000000000000000000000000600052601260045260246000fd5b614311816141dd565b811461431c57600080fd5b50565b614328816141ef565b811461433357600080fd5b50565b61433f81614201565b811461434a57600080fd5b50565b6143568161422d565b811461436157600080fd5b5056fea2646970667358221220d66ed6c764ca464cdc1081b8e5406aa6eff8f52e1b55ca7a0325a2207350775664736f6c63430008000033",
  "immutableReferences": {},
  "source": "// SPDX-License-Identifier: UNLICENSED\r\npragma solidity ^0.8.0;\r\n\r\n\r\nlibrary SafeMath {\r\n\r\n  function mul(uint256 a, uint256 b) internal pure returns (uint256) {\r\n    uint256 c = a * b;\r\n    assert(a == 0 || c / a == b);\r\n    return c;\r\n  }\r\n\r\n  function div(uint256 a, uint256 b) internal pure returns (uint256) {\r\n    uint256 c = a / b;\r\n    return c;\r\n  }\r\n\r\n  function sub(uint256 a, uint256 b) internal pure returns (uint256) {\r\n    assert(b <= a);\r\n    return a - b;\r\n  }\r\n\r\n  function add(uint256 a, uint256 b) internal pure returns (uint256) {\r\n    uint256 c = a + b;\r\n    assert(c >= a);\r\n    return c;\r\n  }\r\n\r\n}\r\n\r\n\r\ncontract Ownable {\r\n\r\n  address public owner;\r\n  address public manager;\r\n  address public ownerWallet;\r\n\r\n  constructor() {\r\n    owner = msg.sender;\r\n    manager = msg.sender;\r\n    ownerWallet = msg.sender;\r\n  }\r\n\r\n  modifier onlyOwner() {\r\n    require(msg.sender == owner, \"only for owner\");\r\n    _;\r\n  }\r\n\r\n  modifier onlyOwnerOrManager() {\r\n     require((msg.sender == owner)||(msg.sender == manager), \"only for owner or manager\");\r\n      _;\r\n  }\r\n\r\n  function transferOwnership(address newOwner) public onlyOwner {\r\n    owner = newOwner;\r\n  }\r\n\r\n  function setManager(address _manager) public onlyOwnerOrManager {\r\n      manager = _manager;\r\n  }\r\n}\r\n\r\n\r\ncontract FreedomUnlimited is Ownable {\r\n    using SafeMath for uint256;\r\n    \r\n    event regLevelEvent(address indexed _user, address indexed _referrer, uint _time);\r\n    event buyLevelEvent(address indexed _user, uint _level, uint _time);\r\n    event prolongateLevelEvent(address indexed _user, uint _level, uint _time);\r\n    event getMoneyForLevelEvent(address indexed _user, address indexed _referral, uint _level, uint _time);\r\n    event lostMoneyForLevelEvent(address indexed _user, address indexed _referral, uint _level, uint _time);\r\n\r\n    struct UserStruct {\r\n        bool isExist;\r\n        uint id;\r\n        uint referrerID;\r\n        uint currentLevel;\r\n        uint totalEarningEth;\r\n        address[] referral;\r\n    }\r\n\r\n    mapping (uint => uint) public LEVEL_PRICE;\r\n    mapping (address => mapping(uint => uint)) public levelExpired;\r\n    mapping (address => UserStruct) public users;\r\n    mapping (uint => address) public userList;\r\n    uint public currUserID = 0;\r\n    uint public adminFee = 16 ether;\r\n    uint REFERRER_1_LEVEL_LIMIT = 3;\r\n    uint PERIOD_LENGTH = 30 days;\r\n    bool public lockStatus;\r\n\r\n    constructor() {\r\n\r\n        LEVEL_PRICE[1] = 0.05 ether;\r\n        LEVEL_PRICE[2] = 0.15 ether;\r\n        LEVEL_PRICE[3] = 0.45 ether;\r\n        LEVEL_PRICE[4] = 1.35 ether;\r\n        LEVEL_PRICE[5] = 4.05 ether;\r\n        LEVEL_PRICE[6] = 12.15 ether;\r\n        LEVEL_PRICE[7] = 36.45 ether;\r\n        LEVEL_PRICE[8] = 109.35 ether;\r\n\r\n        UserStruct memory userStruct;\r\n        currUserID++;\r\n\r\n        userStruct = UserStruct({\r\n            isExist : true,\r\n            id : currUserID,\r\n            referrerID : 0,\r\n            currentLevel : 8,\r\n            totalEarningEth : 0,\r\n            referral : new address[](0)\r\n        });\r\n        users[ownerWallet] = userStruct;\r\n        userList[currUserID] = ownerWallet;\r\n\r\n        levelExpired[ownerWallet][1] = 77777777777;\r\n        levelExpired[ownerWallet][2] = 77777777777;\r\n        levelExpired[ownerWallet][3] = 77777777777;\r\n        levelExpired[ownerWallet][4] = 77777777777;\r\n        levelExpired[ownerWallet][5] = 77777777777;\r\n        levelExpired[ownerWallet][6] = 77777777777;\r\n        levelExpired[ownerWallet][7] = 77777777777;\r\n        levelExpired[ownerWallet][8] = 77777777777;\r\n    }\r\n\r\n    receive () external payable {\r\n        receiveFunds();\r\n    }\r\n\r\n    /**\r\n     * @dev receive funds if not calling on regUser or buyLevel this is called when funds sent directly to contract. \r\n     */ \r\n    function receiveFunds() public payable {\r\n        uint level;\r\n\r\n        if(msg.value == LEVEL_PRICE[1]){\r\n            level = 1;\r\n        }else if(msg.value == LEVEL_PRICE[2]){\r\n            level = 2;\r\n        }else if(msg.value == LEVEL_PRICE[3]){\r\n            level = 3;\r\n        }else if(msg.value == LEVEL_PRICE[4]){\r\n            level = 4;\r\n        }else if(msg.value == LEVEL_PRICE[5]){\r\n            level = 5;\r\n        }else if(msg.value == LEVEL_PRICE[6]){\r\n            level = 6;\r\n        }else if(msg.value == LEVEL_PRICE[7]){\r\n            level = 7;\r\n        }else if(msg.value == LEVEL_PRICE[8]){\r\n            level = 8;\r\n        }else {\r\n            revert('Incorrect Value send');\r\n        }\r\n\r\n        if(users[msg.sender].isExist){\r\n            buyLevel(level);\r\n        } else if(level == 1) {\r\n            uint refId = 0;\r\n            address referrer = bytesToAddress(msg.data);\r\n\r\n            if (users[referrer].isExist){\r\n                refId = users[referrer].id;\r\n            } else {\r\n                revert('Incorrect referrer');\r\n            }\r\n\r\n            regUser(refId);\r\n        } else {\r\n            revert(\"Please buy first level for 0.05 ETH\");\r\n        }\r\n    }\r\n\r\n    /**\r\n     * @dev register new user into system\r\n     */ \r\n    function regUser(uint _referrerID) public payable {\r\n        require(!users[msg.sender].isExist, 'User exist');\r\n        require(lockStatus == false, \"Contract Locked\");\r\n        require(_referrerID > 0 && _referrerID <= currUserID, 'Incorrect referrer Id');\r\n\r\n        require(msg.value==LEVEL_PRICE[1], 'Incorrect Value');\r\n\r\n\r\n        if(users[userList[_referrerID]].referral.length >= REFERRER_1_LEVEL_LIMIT)\r\n        {\r\n            _referrerID = users[findFreeReferrer(userList[_referrerID])].id;\r\n        }\r\n\r\n\r\n        UserStruct memory userStruct;\r\n        currUserID++;\r\n\r\n        userStruct = UserStruct({\r\n            isExist : true,\r\n            id : currUserID,\r\n            referrerID : _referrerID,\r\n            currentLevel : 1,\r\n            totalEarningEth : 0,\r\n            referral : new address[](0)\r\n        });\r\n\r\n        users[msg.sender] = userStruct;\r\n        userList[currUserID] = msg.sender;\r\n\r\n        levelExpired[msg.sender][1] = block.timestamp + PERIOD_LENGTH;\r\n        levelExpired[msg.sender][2] = 0;\r\n        levelExpired[msg.sender][3] = 0;\r\n        levelExpired[msg.sender][4] = 0;\r\n        levelExpired[msg.sender][5] = 0;\r\n        levelExpired[msg.sender][6] = 0;\r\n        levelExpired[msg.sender][7] = 0;\r\n        levelExpired[msg.sender][8] = 0;\r\n\r\n        users[userList[_referrerID]].referral.push(msg.sender);\r\n\r\n        payForLevel(1, msg.sender);\r\n\r\n        emit regLevelEvent(msg.sender, userList[_referrerID], block.timestamp);\r\n    }\r\n\r\n    /**\r\n     * @dev buy into next level up\r\n     */ \r\n    function buyLevel(uint _level) public payable {\r\n        require(users[msg.sender].isExist, 'User not exist');\r\n        require(lockStatus == false, \"Contract Locked\");\r\n        require( _level>0 && _level<=8, 'Incorrect level');\r\n\r\n        if(_level == 1){\r\n            require(msg.value==LEVEL_PRICE[1], 'Incorrect Value');\r\n            levelExpired[msg.sender][1] += PERIOD_LENGTH;\r\n        } else {\r\n            require(msg.value==LEVEL_PRICE[_level], 'Incorrect Value');\r\n\r\n            for(uint l =_level-1; l>0; l-- ){\r\n                require(levelExpired[msg.sender][l] >= block.timestamp, 'Buy the previous level');\r\n            }\r\n\r\n            if(levelExpired[msg.sender][_level] == 0){\r\n                levelExpired[msg.sender][_level] = block.timestamp + PERIOD_LENGTH;\r\n            } else {\r\n                levelExpired[msg.sender][_level] += PERIOD_LENGTH;\r\n            }\r\n        }\r\n        payForLevel(_level, msg.sender);\r\n        emit buyLevelEvent(msg.sender, _level, block.timestamp);\r\n    }\r\n\r\n    /**\r\n     * @dev pay for level increase in inclusion\r\n     */ \r\n    function payForLevel(uint _level, address _user) internal {\r\n\r\n        address referer;\r\n        address referer1;\r\n        address referer2;\r\n        address referer3;\r\n        if(_level == 1 || _level == 5){\r\n            referer = userList[users[_user].referrerID];\r\n        } else if(_level == 2 || _level == 6){\r\n            referer1 = userList[users[_user].referrerID];\r\n            referer = userList[users[referer1].referrerID];\r\n        } else if(_level == 3 || _level == 7){\r\n            referer1 = userList[users[_user].referrerID];\r\n            referer2 = userList[users[referer1].referrerID];\r\n            referer = userList[users[referer2].referrerID];\r\n        } else if(_level == 4 || _level == 8){\r\n            referer1 = userList[users[_user].referrerID];\r\n            referer2 = userList[users[referer1].referrerID];\r\n            referer3 = userList[users[referer2].referrerID];\r\n            referer = userList[users[referer3].referrerID];\r\n        }\r\n\r\n        if(!users[referer].isExist){\r\n            referer = userList[1];\r\n        }\r\n\r\n        if(levelExpired[referer][_level] >= block.timestamp ){\r\n            uint _adminPrice = (LEVEL_PRICE[_level].mul(adminFee)).div(10**20);\r\n            require(payable(referer).send(LEVEL_PRICE[_level].sub(_adminPrice)) && \r\n                    payable(ownerWallet).send(_adminPrice), \"Transaction Failure\" );\r\n            emit getMoneyForLevelEvent(referer, msg.sender, _level, block.timestamp);\r\n        } else {\r\n            emit lostMoneyForLevelEvent(referer, msg.sender, _level, block.timestamp);\r\n            payForLevel(_level,referer);\r\n        }\r\n    }\r\n\r\n    /**\r\n     * @dev view free referrer address if available else return user address\r\n     */ \r\n    function findFreeReferrer(address _user) public view returns(address) {\r\n        if(users[_user].referral.length < REFERRER_1_LEVEL_LIMIT){\r\n            return _user;\r\n        }\r\n\r\n        address[] memory referrals = new address[](363);\r\n        referrals[0] = users[_user].referral[0]; \r\n        referrals[1] = users[_user].referral[1];\r\n        referrals[2] = users[_user].referral[2];\r\n\r\n        address freeReferrer;\r\n        bool noFreeReferrer = true;\r\n\r\n        for(uint i =0; i<363;i++){\r\n            if(users[referrals[i]].referral.length == REFERRER_1_LEVEL_LIMIT){\r\n                if(i<120){\r\n                    referrals[(i+1)*3] = users[referrals[i]].referral[0];\r\n                    referrals[(i+1)*3+1] = users[referrals[i]].referral[1];\r\n                    referrals[(i+1)*3+2] = users[referrals[i]].referral[2];\r\n                }\r\n            }else{\r\n                noFreeReferrer = false;\r\n                freeReferrer = referrals[i];\r\n                break;\r\n            }\r\n        }\r\n        require(!noFreeReferrer, 'No Free Referrer');\r\n        return freeReferrer;\r\n\r\n    }\r\n\r\n    /**\r\n     * @dev view referrals for user\r\n     */ \r\n    function viewUserReferral(address _user) public view returns(address[] memory) {\r\n        return users[_user].referral;\r\n    }\r\n\r\n    /**\r\n     * @dev view level expired at for address\r\n     */ \r\n    function viewUserLevelExpired(address _user, uint _level) public view returns(uint) {\r\n        return levelExpired[_user][_level];\r\n    }\r\n    \r\n    /**\r\n     * @dev convert byte to address\r\n     */ \r\n    function bytesToAddress(bytes memory bys) private pure returns (address  addr ) {\r\n        assembly {\r\n            addr := mload(add(bys, 20))\r\n        }\r\n    }\r\n    \r\n    /**\r\n     * @dev Contract balance withdraw\r\n     */ \r\n    function failSafe(address payable _toUser, uint _amount) public onlyOwner returns (bool) {\r\n        require(msg.sender == ownerWallet, \"only Owner Wallet\");\r\n        require(_toUser != address(0), \"Invalid Address\");\r\n        require(address(this).balance >= _amount, \"Insufficient balance\");\r\n\r\n        (_toUser).transfer(_amount);\r\n        return true;\r\n    }\r\n    \r\n    /**\r\n     * @dev Update level price\r\n     */ \r\n    function updatePrice(uint _level, uint _price) public onlyOwner returns (bool) {\r\n        require(msg.sender == ownerWallet, \"only OwnerWallet\");\r\n\r\n        LEVEL_PRICE[_level] = _price;\r\n        return true;\r\n    }\r\n\r\n    /**\r\n     * @dev Update contract status\r\n     */ \r\n    function contractLock(bool _lockStatus) public onlyOwner returns (bool) {\r\n        require(msg.sender == ownerWallet, \"Invalid User\");\r\n\r\n        lockStatus = _lockStatus;\r\n        return true;\r\n    }\r\n    \r\n    /**\r\n     * @dev Total earned ETH\r\n     */\r\n    function getTotalEarnedEther() public view returns (uint) {\r\n        uint totalEth;\r\n        for (uint i = 1; i <= currUserID; i++) {\r\n            totalEth = totalEth.add(users[userList[i]].totalEarningEth);\r\n        }\r\n        return totalEth;\r\n    }\r\n\r\n    /**\r\n     * @dev get user at address\r\n     */\r\n    function getUser(address _user) public view returns (bool, uint, uint, uint, uint) {\r\n        if(users[_user].isExist == false) {\r\n            return(false, currUserID, 0, 0, 0);\r\n        } else {\r\n            return(users[_user].isExist, users[_user].id, users[_user].referrerID, users[_user].currentLevel, users[_user].totalEarningEth);\r\n        }\r\n    }\r\n}",
  "sourcePath": "C:\\Users\\DUFRESA\\Documents\\Drew\\FreedomUnlimited\\f-u\\contracts\\FreedomUnlimited.sol",
  "compiler": {
    "name": "solc",
    "version": "0.8.0+commit.c7dfd78e.Emscripten.clang"
  },
  "schemaVersion": "3.4.3",
  "updatedAt": "2021-10-22T20:10:00.854Z",
  "networkType": "ethereum",
  "devdoc": {
    "kind": "dev",
    "methods": {
      "buyLevel(uint256)": {
        "details": "buy into next level up"
      },
      "contractLock(bool)": {
        "details": "Update contract status"
      },
      "failSafe(address,uint256)": {
        "details": "Contract balance withdraw"
      },
      "findFreeReferrer(address)": {
        "details": "view free referrer address if available else return user address"
      },
      "getTotalEarnedEther()": {
        "details": "Total earned ETH"
      },
      "getUser(address)": {
        "details": "get user at address"
      },
      "receiveFunds()": {
        "details": "receive funds if not calling on regUser or buyLevel this is called when funds sent directly to contract. "
      },
      "regUser(uint256)": {
        "details": "register new user into system"
      },
      "updatePrice(uint256,uint256)": {
        "details": "Update level price"
      },
      "viewUserLevelExpired(address,uint256)": {
        "details": "view level expired at for address"
      },
      "viewUserReferral(address)": {
        "details": "view referrals for user"
      }
    },
    "version": 1
  },
  "userdoc": {
    "kind": "user",
    "methods": {},
    "version": 1
  }
}