{
  "contractName": "FreedomUnlimited",
  "abi": [
    {
      "inputs": [],
      "stateMutability": "nonpayable",
      "type": "constructor"
    },
    {
      "anonymous": false,
      "inputs": [
        {
          "indexed": true,
          "internalType": "address",
          "name": "_user",
          "type": "address"
        },
        {
          "indexed": false,
          "internalType": "uint256",
          "name": "_level",
          "type": "uint256"
        },
        {
          "indexed": false,
          "internalType": "uint256",
          "name": "_time",
          "type": "uint256"
        }
      ],
      "name": "buyLevelEvent",
      "type": "event"
    },
    {
      "anonymous": false,
      "inputs": [
        {
          "indexed": true,
          "internalType": "address",
          "name": "_user",
          "type": "address"
        },
        {
          "indexed": true,
          "internalType": "address",
          "name": "_referral",
          "type": "address"
        },
        {
          "indexed": false,
          "internalType": "uint256",
          "name": "_level",
          "type": "uint256"
        },
        {
          "indexed": false,
          "internalType": "uint256",
          "name": "_time",
          "type": "uint256"
        }
      ],
      "name": "getMoneyForLevelEvent",
      "type": "event"
    },
    {
      "anonymous": false,
      "inputs": [
        {
          "indexed": true,
          "internalType": "address",
          "name": "_user",
          "type": "address"
        },
        {
          "indexed": true,
          "internalType": "address",
          "name": "_referral",
          "type": "address"
        },
        {
          "indexed": false,
          "internalType": "uint256",
          "name": "_level",
          "type": "uint256"
        },
        {
          "indexed": false,
          "internalType": "uint256",
          "name": "_time",
          "type": "uint256"
        }
      ],
      "name": "lostMoneyForLevelEvent",
      "type": "event"
    },
    {
      "anonymous": false,
      "inputs": [
        {
          "indexed": true,
          "internalType": "address",
          "name": "_user",
          "type": "address"
        },
        {
          "indexed": false,
          "internalType": "uint256",
          "name": "_level",
          "type": "uint256"
        },
        {
          "indexed": false,
          "internalType": "uint256",
          "name": "_time",
          "type": "uint256"
        }
      ],
      "name": "prolongateLevelEvent",
      "type": "event"
    },
    {
      "anonymous": false,
      "inputs": [
        {
          "indexed": true,
          "internalType": "address",
          "name": "_user",
          "type": "address"
        },
        {
          "indexed": true,
          "internalType": "address",
          "name": "_referrer",
          "type": "address"
        },
        {
          "indexed": false,
          "internalType": "uint256",
          "name": "_time",
          "type": "uint256"
        }
      ],
      "name": "regLevelEvent",
      "type": "event"
    },
    {
      "inputs": [
        {
          "internalType": "uint256",
          "name": "",
          "type": "uint256"
        }
      ],
      "name": "LEVEL_PRICE",
      "outputs": [
        {
          "internalType": "uint256",
          "name": "",
          "type": "uint256"
        }
      ],
      "stateMutability": "view",
      "type": "function",
      "constant": true
    },
    {
      "inputs": [],
      "name": "adminFee",
      "outputs": [
        {
          "internalType": "uint256",
          "name": "",
          "type": "uint256"
        }
      ],
      "stateMutability": "view",
      "type": "function",
      "constant": true
    },
    {
      "inputs": [],
      "name": "currUserID",
      "outputs": [
        {
          "internalType": "uint256",
          "name": "",
          "type": "uint256"
        }
      ],
      "stateMutability": "view",
      "type": "function",
      "constant": true
    },
    {
      "inputs": [
        {
          "internalType": "address",
          "name": "",
          "type": "address"
        },
        {
          "internalType": "uint256",
          "name": "",
          "type": "uint256"
        }
      ],
      "name": "levelExpired",
      "outputs": [
        {
          "internalType": "uint256",
          "name": "",
          "type": "uint256"
        }
      ],
      "stateMutability": "view",
      "type": "function",
      "constant": true
    },
    {
      "inputs": [],
      "name": "lockStatus",
      "outputs": [
        {
          "internalType": "bool",
          "name": "",
          "type": "bool"
        }
      ],
      "stateMutability": "view",
      "type": "function",
      "constant": true
    },
    {
      "inputs": [],
      "name": "manager",
      "outputs": [
        {
          "internalType": "address",
          "name": "",
          "type": "address"
        }
      ],
      "stateMutability": "view",
      "type": "function",
      "constant": true
    },
    {
      "inputs": [],
      "name": "owner",
      "outputs": [
        {
          "internalType": "address",
          "name": "",
          "type": "address"
        }
      ],
      "stateMutability": "view",
      "type": "function",
      "constant": true
    },
    {
      "inputs": [],
      "name": "ownerWallet",
      "outputs": [
        {
          "internalType": "address",
          "name": "",
          "type": "address"
        }
      ],
      "stateMutability": "view",
      "type": "function",
      "constant": true
    },
    {
      "inputs": [
        {
          "internalType": "address",
          "name": "_manager",
          "type": "address"
        }
      ],
      "name": "setManager",
      "outputs": [],
      "stateMutability": "nonpayable",
      "type": "function"
    },
    {
      "inputs": [
        {
          "internalType": "address",
          "name": "newOwner",
          "type": "address"
        }
      ],
      "name": "transferOwnership",
      "outputs": [],
      "stateMutability": "nonpayable",
      "type": "function"
    },
    {
      "inputs": [
        {
          "internalType": "uint256",
          "name": "",
          "type": "uint256"
        }
      ],
      "name": "userList",
      "outputs": [
        {
          "internalType": "address",
          "name": "",
          "type": "address"
        }
      ],
      "stateMutability": "view",
      "type": "function",
      "constant": true
    },
    {
      "inputs": [
        {
          "internalType": "address",
          "name": "",
          "type": "address"
        }
      ],
      "name": "users",
      "outputs": [
        {
          "internalType": "bool",
          "name": "isExist",
          "type": "bool"
        },
        {
          "internalType": "uint256",
          "name": "id",
          "type": "uint256"
        },
        {
          "internalType": "uint256",
          "name": "referrerID",
          "type": "uint256"
        },
        {
          "internalType": "uint256",
          "name": "currentLevel",
          "type": "uint256"
        },
        {
          "internalType": "uint256",
          "name": "totalEarningEth",
          "type": "uint256"
        }
      ],
      "stateMutability": "view",
      "type": "function",
      "constant": true
    },
    {
      "stateMutability": "payable",
      "type": "receive",
      "payable": true
    },
    {
      "inputs": [],
      "name": "receiveFunds",
      "outputs": [],
      "stateMutability": "payable",
      "type": "function",
      "payable": true
    },
    {
      "inputs": [
        {
          "internalType": "uint256",
          "name": "_referrerID",
          "type": "uint256"
        }
      ],
      "name": "regUser",
      "outputs": [],
      "stateMutability": "payable",
      "type": "function",
      "payable": true
    },
    {
      "inputs": [
        {
          "internalType": "uint256",
          "name": "_level",
          "type": "uint256"
        }
      ],
      "name": "buyLevel",
      "outputs": [],
      "stateMutability": "payable",
      "type": "function",
      "payable": true
    },
    {
      "inputs": [
        {
          "internalType": "address",
          "name": "_user",
          "type": "address"
        }
      ],
      "name": "findFreeReferrer",
      "outputs": [
        {
          "internalType": "address",
          "name": "",
          "type": "address"
        }
      ],
      "stateMutability": "view",
      "type": "function",
      "constant": true
    },
    {
      "inputs": [
        {
          "internalType": "address",
          "name": "_user",
          "type": "address"
        }
      ],
      "name": "viewUserReferral",
      "outputs": [
        {
          "internalType": "address[]",
          "name": "",
          "type": "address[]"
        }
      ],
      "stateMutability": "view",
      "type": "function",
      "constant": true
    },
    {
      "inputs": [
        {
          "internalType": "address",
          "name": "_user",
          "type": "address"
        },
        {
          "internalType": "uint256",
          "name": "_level",
          "type": "uint256"
        }
      ],
      "name": "viewUserLevelExpired",
      "outputs": [
        {
          "internalType": "uint256",
          "name": "",
          "type": "uint256"
        }
      ],
      "stateMutability": "view",
      "type": "function",
      "constant": true
    },
    {
      "inputs": [
        {
          "internalType": "address payable",
          "name": "_toUser",
          "type": "address"
        },
        {
          "internalType": "uint256",
          "name": "_amount",
          "type": "uint256"
        }
      ],
      "name": "failSafe",
      "outputs": [
        {
          "internalType": "bool",
          "name": "",
          "type": "bool"
        }
      ],
      "stateMutability": "nonpayable",
      "type": "function"
    },
    {
      "inputs": [
        {
          "internalType": "uint256",
          "name": "_level",
          "type": "uint256"
        },
        {
          "internalType": "uint256",
          "name": "_price",
          "type": "uint256"
        }
      ],
      "name": "updatePrice",
      "outputs": [
        {
          "internalType": "bool",
          "name": "",
          "type": "bool"
        }
      ],
      "stateMutability": "nonpayable",
      "type": "function"
    },
    {
      "inputs": [
        {
          "internalType": "bool",
          "name": "_lockStatus",
          "type": "bool"
        }
      ],
      "name": "contractLock",
      "outputs": [
        {
          "internalType": "bool",
          "name": "",
          "type": "bool"
        }
      ],
      "stateMutability": "nonpayable",
      "type": "function"
    },
    {
      "inputs": [],
      "name": "getTotalEarnedEther",
      "outputs": [
        {
          "internalType": "uint256",
          "name": "",
          "type": "uint256"
        }
      ],
      "stateMutability": "view",
      "type": "function",
      "constant": true
    }
  ],
  "bytecode": "0x6080604052600060075567de0b6b3a76400000600855600360095562278d00600a553480156200002e57600080fd5b50336000806101000a81548173ffffffffffffffffffffffffffffffffffffffff021916908373ffffffffffffffffffffffffffffffffffffffff16021790555033600160006101000a81548173ffffffffffffffffffffffffffffffffffffffff021916908373ffffffffffffffffffffffffffffffffffffffff16021790555033600260006101000a81548173ffffffffffffffffffffffffffffffffffffffff021916908373ffffffffffffffffffffffffffffffffffffffff16021790555066b1a2bc2ec50000600360006001815260200190815260200160002081905550670214e8348c4f000060036000600281526020019081526020016000208190555067063eb89da4ed00006003600060038152602001908152602001600020819055506712bc29d8eec700006003600060048152602001908152602001600020819055506738347d8acc55000060036000600581526020019081526020016000208190555067a89d78a064ff00006003600060068152602001908152602001600020819055506801f9d869e12efd00006003600060078152602001908152602001600020819055506805ed893da38cf7000060036000600881526020019081526020016000208190555062000204620007f7565b600760008154809291906200021990620008e7565b91905055506040518060c001604052806001151581526020016007548152602001600081526020016008815260200160008152602001600067ffffffffffffffff81111562000291577f4e487b7100000000000000000000000000000000000000000000000000000000600052604160045260246000fd5b604051908082528060200260200182016040528015620002c05781602001602082028036833780820191505090505b5081525090508060056000600260009054906101000a900473ffffffffffffffffffffffffffffffffffffffff1673ffffffffffffffffffffffffffffffffffffffff1673ffffffffffffffffffffffffffffffffffffffff16815260200190815260200160002060008201518160000160006101000a81548160ff0219169083151502179055506020820151816001015560408201518160020155606082015181600301556080820151816004015560a08201518160050190805190602001906200038e9291906200082f565b50905050600260009054906101000a900473ffffffffffffffffffffffffffffffffffffffff1660066000600754815260200190815260200160002060006101000a81548173ffffffffffffffffffffffffffffffffffffffff021916908373ffffffffffffffffffffffffffffffffffffffff16021790555064121beab47160046000600260009054906101000a900473ffffffffffffffffffffffffffffffffffffffff1673ffffffffffffffffffffffffffffffffffffffff1673ffffffffffffffffffffffffffffffffffffffff1681526020019081526020016000206000600181526020019081526020016000208190555064121beab47160046000600260009054906101000a900473ffffffffffffffffffffffffffffffffffffffff1673ffffffffffffffffffffffffffffffffffffffff1673ffffffffffffffffffffffffffffffffffffffff1681526020019081526020016000206000600281526020019081526020016000208190555064121beab47160046000600260009054906101000a900473ffffffffffffffffffffffffffffffffffffffff1673ffffffffffffffffffffffffffffffffffffffff1673ffffffffffffffffffffffffffffffffffffffff1681526020019081526020016000206000600381526020019081526020016000208190555064121beab47160046000600260009054906101000a900473ffffffffffffffffffffffffffffffffffffffff1673ffffffffffffffffffffffffffffffffffffffff1673ffffffffffffffffffffffffffffffffffffffff1681526020019081526020016000206000600481526020019081526020016000208190555064121beab47160046000600260009054906101000a900473ffffffffffffffffffffffffffffffffffffffff1673ffffffffffffffffffffffffffffffffffffffff1673ffffffffffffffffffffffffffffffffffffffff1681526020019081526020016000206000600581526020019081526020016000208190555064121beab47160046000600260009054906101000a900473ffffffffffffffffffffffffffffffffffffffff1673ffffffffffffffffffffffffffffffffffffffff1673ffffffffffffffffffffffffffffffffffffffff1681526020019081526020016000206000600681526020019081526020016000208190555064121beab47160046000600260009054906101000a900473ffffffffffffffffffffffffffffffffffffffff1673ffffffffffffffffffffffffffffffffffffffff1673ffffffffffffffffffffffffffffffffffffffff1681526020019081526020016000206000600781526020019081526020016000208190555064121beab47160046000600260009054906101000a900473ffffffffffffffffffffffffffffffffffffffff1673ffffffffffffffffffffffffffffffffffffffff1673ffffffffffffffffffffffffffffffffffffffff168152602001908152602001600020600060088152602001908152602001600020819055505062000964565b6040518060c0016040528060001515815260200160008152602001600081526020016000815260200160008152602001606081525090565b828054828255906000526020600020908101928215620008ab579160200282015b82811115620008aa5782518260006101000a81548173ffffffffffffffffffffffffffffffffffffffff021916908373ffffffffffffffffffffffffffffffffffffffff1602179055509160200191906001019062000850565b5b509050620008ba9190620008be565b5090565b5b80821115620008d9576000816000905550600101620008bf565b5090565b6000819050919050565b6000620008f482620008dd565b91507fffffffffffffffffffffffffffffffffffffffffffffffffffffffffffffffff8214156200092a576200092962000935565b5b600182019050919050565b7f4e487b7100000000000000000000000000000000000000000000000000000000600052601160045260246000fd5b61416280620009746000396000f3fe6080604052600436106101385760003560e01c80639335dcb7116100ab578063a87430ba1161006f578063a87430ba1461044a578063d0ebdbe71461048b578063d2840073146104b4578063dbd7d37f146104f1578063f2fde38b1461052e578063f6838a721461055757610147565b80639335dcb71461034f5780639f4216e81461037a578063a0be06f9146103b7578063a478656b146103e2578063a4bb170d1461041f57610147565b80634a4baa8f116100fd5780634a4baa8f1461021457806352fd9f131461025157806379378e301461028e57806382367b2d146102cb5780638853b53e146103085780638da5cb5b1461032457610147565b80625c33e11461014c578063132c8c9b146101565780631e97ec94146101935780633e89340f146101be578063481c6a75146101e957610147565b3661014757610145610573565b005b600080fd5b610154610573565b005b34801561016257600080fd5b5061017d60048036038101906101789190613430565b6108c7565b60405161018a9190613af7565b60405180910390f35b34801561019f57600080fd5b506101a86112ad565b6040516101b59190613e02565b60405180910390f35b3480156101ca57600080fd5b506101d3611365565b6040516101e09190613b34565b60405180910390f35b3480156101f557600080fd5b506101fe611378565b60405161020b9190613af7565b60405180910390f35b34801561022057600080fd5b5061023b60048036038101906102369190613430565b61139e565b6040516102489190613b12565b60405180910390f35b34801561025d57600080fd5b5061027860048036038101906102739190613459565b61146e565b6040516102859190613b34565b60405180910390f35b34801561029a57600080fd5b506102b560048036038101906102b091906134fa565b611693565b6040516102c29190613e02565b60405180910390f35b3480156102d757600080fd5b506102f260048036038101906102ed9190613523565b6116ab565b6040516102ff9190613b34565b60405180910390f35b610322600480360381019061031d91906134fa565b6117ee565b005b34801561033057600080fd5b5061033961207f565b6040516103469190613af7565b60405180910390f35b34801561035b57600080fd5b506103646120a3565b6040516103719190613af7565b60405180910390f35b34801561038657600080fd5b506103a1600480360381019061039c91906134fa565b6120c9565b6040516103ae9190613af7565b60405180910390f35b3480156103c357600080fd5b506103cc6120fc565b6040516103d99190613e02565b60405180910390f35b3480156103ee57600080fd5b50610409600480360381019061040491906134d1565b612102565b6040516104169190613b34565b60405180910390f35b34801561042b57600080fd5b50610434612246565b6040516104419190613e02565b60405180910390f35b34801561045657600080fd5b50610471600480360381019061046c9190613430565b61224c565b604051610482959493929190613b4f565b60405180910390f35b34801561049757600080fd5b506104b260048036038101906104ad9190613430565b61228f565b005b3480156104c057600080fd5b506104db60048036038101906104d69190613495565b6123b9565b6040516104e89190613e02565b60405180910390f35b3480156104fd57600080fd5b5061051860048036038101906105139190613495565b612414565b6040516105259190613e02565b60405180910390f35b34801561053a57600080fd5b5061055560048036038101906105509190613430565b612439565b005b610571600480360381019061056c91906134fa565b61250a565b005b600060036000600181526020019081526020016000205434141561059a57600190506106df565b6003600060028152602001908152602001600020543414156105bf57600290506106de565b6003600060038152602001908152602001600020543414156105e457600390506106dd565b60036000600481526020019081526020016000205434141561060957600490506106dc565b60036000600581526020019081526020016000205434141561062e57600590506106db565b60036000600681526020019081526020016000205434141561065357600690506106da565b60036000600781526020019081526020016000205434141561067857600790506106d9565b60036000600881526020019081526020016000205434141561069d57600890506106d8565b6040517f08c379a00000000000000000000000000000000000000000000000000000000081526004016106cf90613ce2565b60405180910390fd5b5b5b5b5b5b5b5b600560003373ffffffffffffffffffffffffffffffffffffffff1673ffffffffffffffffffffffffffffffffffffffff16815260200190815260200160002060000160009054906101000a900460ff16156107425761073d8161250a565b6108c4565b60018114156108885760008061079c6000368080601f016020809104026020016040519081016040528093929190818152602001838380828437600081840152601f19601f820116905080830192505050505050506129ac565b9050600560008273ffffffffffffffffffffffffffffffffffffffff1673ffffffffffffffffffffffffffffffffffffffff16815260200190815260200160002060000160009054906101000a900460ff161561083d57600560008273ffffffffffffffffffffffffffffffffffffffff1673ffffffffffffffffffffffffffffffffffffffff168152602001908152602001600020600101549150610878565b6040517f08c379a000000000000000000000000000000000000000000000000000000000815260040161086f90613d02565b60405180910390fd5b610881826117ee565b50506108c3565b6040517f08c379a00000000000000000000000000000000000000000000000000000000081526004016108ba90613ca2565b60405180910390fd5b5b50565b6000600954600560008473ffffffffffffffffffffffffffffffffffffffff1673ffffffffffffffffffffffffffffffffffffffff168152602001908152602001600020600501805490501015610920578190506112a8565b600061016b67ffffffffffffffff811115610964577f4e487b7100000000000000000000000000000000000000000000000000000000600052604160045260246000fd5b6040519080825280602002602001820160405280156109925781602001602082028036833780820191505090505b509050600560008473ffffffffffffffffffffffffffffffffffffffff1673ffffffffffffffffffffffffffffffffffffffff168152602001908152602001600020600501600081548110610a10577f4e487b7100000000000000000000000000000000000000000000000000000000600052603260045260246000fd5b9060005260206000200160009054906101000a900473ffffffffffffffffffffffffffffffffffffffff1681600081518110610a75577f4e487b7100000000000000000000000000000000000000000000000000000000600052603260045260246000fd5b602002602001019073ffffffffffffffffffffffffffffffffffffffff16908173ffffffffffffffffffffffffffffffffffffffff1681525050600560008473ffffffffffffffffffffffffffffffffffffffff1673ffffffffffffffffffffffffffffffffffffffff168152602001908152602001600020600501600181548110610b2a577f4e487b7100000000000000000000000000000000000000000000000000000000600052603260045260246000fd5b9060005260206000200160009054906101000a900473ffffffffffffffffffffffffffffffffffffffff1681600181518110610b8f577f4e487b7100000000000000000000000000000000000000000000000000000000600052603260045260246000fd5b602002602001019073ffffffffffffffffffffffffffffffffffffffff16908173ffffffffffffffffffffffffffffffffffffffff1681525050600560008473ffffffffffffffffffffffffffffffffffffffff1673ffffffffffffffffffffffffffffffffffffffff168152602001908152602001600020600501600281548110610c44577f4e487b7100000000000000000000000000000000000000000000000000000000600052603260045260246000fd5b9060005260206000200160009054906101000a900473ffffffffffffffffffffffffffffffffffffffff1681600281518110610ca9577f4e487b7100000000000000000000000000000000000000000000000000000000600052603260045260246000fd5b602002602001019073ffffffffffffffffffffffffffffffffffffffff16908173ffffffffffffffffffffffffffffffffffffffff16815250506000806001905060005b61016b81101561125f5760095460056000868481518110610d37577f4e487b7100000000000000000000000000000000000000000000000000000000600052603260045260246000fd5b602002602001015173ffffffffffffffffffffffffffffffffffffffff1673ffffffffffffffffffffffffffffffffffffffff1681526020019081526020016000206005018054905014156112005760788110156111fb5760056000858381518110610dcc577f4e487b7100000000000000000000000000000000000000000000000000000000600052603260045260246000fd5b602002602001015173ffffffffffffffffffffffffffffffffffffffff1673ffffffffffffffffffffffffffffffffffffffff168152602001908152602001600020600501600081548110610e4a577f4e487b7100000000000000000000000000000000000000000000000000000000600052603260045260246000fd5b9060005260206000200160009054906101000a900473ffffffffffffffffffffffffffffffffffffffff16846003600184610e859190613e90565b610e8f9190613f17565b81518110610ec6577f4e487b7100000000000000000000000000000000000000000000000000000000600052603260045260246000fd5b602002602001019073ffffffffffffffffffffffffffffffffffffffff16908173ffffffffffffffffffffffffffffffffffffffff168152505060056000858381518110610f3d577f4e487b7100000000000000000000000000000000000000000000000000000000600052603260045260246000fd5b602002602001015173ffffffffffffffffffffffffffffffffffffffff1673ffffffffffffffffffffffffffffffffffffffff168152602001908152602001600020600501600181548110610fbb577f4e487b7100000000000000000000000000000000000000000000000000000000600052603260045260246000fd5b9060005260206000200160009054906101000a900473ffffffffffffffffffffffffffffffffffffffff168460016003600185610ff89190613e90565b6110029190613f17565b61100c9190613e90565b81518110611043577f4e487b7100000000000000000000000000000000000000000000000000000000600052603260045260246000fd5b602002602001019073ffffffffffffffffffffffffffffffffffffffff16908173ffffffffffffffffffffffffffffffffffffffff1681525050600560008583815181106110ba577f4e487b7100000000000000000000000000000000000000000000000000000000600052603260045260246000fd5b602002602001015173ffffffffffffffffffffffffffffffffffffffff1673ffffffffffffffffffffffffffffffffffffffff168152602001908152602001600020600501600281548110611138577f4e487b7100000000000000000000000000000000000000000000000000000000600052603260045260246000fd5b9060005260206000200160009054906101000a900473ffffffffffffffffffffffffffffffffffffffff1684600260036001856111759190613e90565b61117f9190613f17565b6111899190613e90565b815181106111c0577f4e487b7100000000000000000000000000000000000000000000000000000000600052603260045260246000fd5b602002602001019073ffffffffffffffffffffffffffffffffffffffff16908173ffffffffffffffffffffffffffffffffffffffff16815250505b61124c565b6000915083818151811061123d577f4e487b7100000000000000000000000000000000000000000000000000000000600052603260045260246000fd5b6020026020010151925061125f565b808061125790614029565b915050610ced565b5080156112a1576040517f08c379a000000000000000000000000000000000000000000000000000000000815260040161129890613da2565b60405180910390fd5b8193505050505b919050565b6000806000600190505b600754811161135d57611348600560006006600085815260200190815260200160002060009054906101000a900473ffffffffffffffffffffffffffffffffffffffff1673ffffffffffffffffffffffffffffffffffffffff1673ffffffffffffffffffffffffffffffffffffffff16815260200190815260200160002060040154836129ba90919063ffffffff16565b9150808061135590614029565b9150506112b7565b508091505090565b600b60009054906101000a900460ff1681565b600160009054906101000a900473ffffffffffffffffffffffffffffffffffffffff1681565b6060600560008373ffffffffffffffffffffffffffffffffffffffff1673ffffffffffffffffffffffffffffffffffffffff16815260200190815260200160002060050180548060200260200160405190810160405280929190818152602001828054801561146257602002820191906000526020600020905b8160009054906101000a900473ffffffffffffffffffffffffffffffffffffffff1673ffffffffffffffffffffffffffffffffffffffff1681526020019060010190808311611418575b50505050509050919050565b60008060009054906101000a900473ffffffffffffffffffffffffffffffffffffffff1673ffffffffffffffffffffffffffffffffffffffff163373ffffffffffffffffffffffffffffffffffffffff16146114ff576040517f08c379a00000000000000000000000000000000000000000000000000000000081526004016114f690613be2565b60405180910390fd5b600260009054906101000a900473ffffffffffffffffffffffffffffffffffffffff1673ffffffffffffffffffffffffffffffffffffffff163373ffffffffffffffffffffffffffffffffffffffff161461158f576040517f08c379a000000000000000000000000000000000000000000000000000000000815260040161158690613dc2565b60405180910390fd5b600073ffffffffffffffffffffffffffffffffffffffff168373ffffffffffffffffffffffffffffffffffffffff1614156115ff576040517f08c379a00000000000000000000000000000000000000000000000000000000081526004016115f690613d82565b60405180910390fd5b81471015611642576040517f08c379a000000000000000000000000000000000000000000000000000000000815260040161163990613c42565b60405180910390fd5b8273ffffffffffffffffffffffffffffffffffffffff166108fc839081150290604051600060405180830381858888f19350505050158015611688573d6000803e3d6000fd5b506001905092915050565b60036020528060005260406000206000915090505481565b60008060009054906101000a900473ffffffffffffffffffffffffffffffffffffffff1673ffffffffffffffffffffffffffffffffffffffff163373ffffffffffffffffffffffffffffffffffffffff161461173c576040517f08c379a000000000000000000000000000000000000000000000000000000000815260040161173390613be2565b60405180910390fd5b600260009054906101000a900473ffffffffffffffffffffffffffffffffffffffff1673ffffffffffffffffffffffffffffffffffffffff163373ffffffffffffffffffffffffffffffffffffffff16146117cc576040517f08c379a00000000000000000000000000000000000000000000000000000000081526004016117c390613de2565b60405180910390fd5b8160036000858152602001908152602001600020819055506001905092915050565b600560003373ffffffffffffffffffffffffffffffffffffffff1673ffffffffffffffffffffffffffffffffffffffff16815260200190815260200160002060000160009054906101000a900460ff161561187e576040517f08c379a000000000000000000000000000000000000000000000000000000000815260040161187590613c02565b60405180910390fd5b60001515600b60009054906101000a900460ff161515146118d4576040517f08c379a00000000000000000000000000000000000000000000000000000000081526004016118cb90613cc2565b60405180910390fd5b6000811180156118e657506007548111155b611925576040517f08c379a000000000000000000000000000000000000000000000000000000000815260040161191c90613bc2565b60405180910390fd5b600360006001815260200190815260200160002054341461197b576040517f08c379a000000000000000000000000000000000000000000000000000000000815260040161197290613ba2565b60405180910390fd5b600954600560006006600085815260200190815260200160002060009054906101000a900473ffffffffffffffffffffffffffffffffffffffff1673ffffffffffffffffffffffffffffffffffffffff1673ffffffffffffffffffffffffffffffffffffffff1681526020019081526020016000206005018054905010611a7d5760056000611a3c6006600085815260200190815260200160002060009054906101000a900473ffffffffffffffffffffffffffffffffffffffff166108c7565b73ffffffffffffffffffffffffffffffffffffffff1673ffffffffffffffffffffffffffffffffffffffff1681526020019081526020016000206001015490505b611a856132fd565b60076000815480929190611a9890614029565b91905055506040518060c0016040528060011515815260200160075481526020018381526020016001815260200160008152602001600067ffffffffffffffff811115611b0e577f4e487b7100000000000000000000000000000000000000000000000000000000600052604160045260246000fd5b604051908082528060200260200182016040528015611b3c5781602001602082028036833780820191505090505b50815250905080600560003373ffffffffffffffffffffffffffffffffffffffff1673ffffffffffffffffffffffffffffffffffffffff16815260200190815260200160002060008201518160000160006101000a81548160ff0219169083151502179055506020820151816001015560408201518160020155606082015181600301556080820151816004015560a0820151816005019080519060200190611be6929190613335565b509050503360066000600754815260200190815260200160002060006101000a81548173ffffffffffffffffffffffffffffffffffffffff021916908373ffffffffffffffffffffffffffffffffffffffff160217905550600a5442611c4c9190613e90565b600460003373ffffffffffffffffffffffffffffffffffffffff1673ffffffffffffffffffffffffffffffffffffffff168152602001908152602001600020600060018152602001908152602001600020819055506000600460003373ffffffffffffffffffffffffffffffffffffffff1673ffffffffffffffffffffffffffffffffffffffff168152602001908152602001600020600060028152602001908152602001600020819055506000600460003373ffffffffffffffffffffffffffffffffffffffff1673ffffffffffffffffffffffffffffffffffffffff168152602001908152602001600020600060038152602001908152602001600020819055506000600460003373ffffffffffffffffffffffffffffffffffffffff1673ffffffffffffffffffffffffffffffffffffffff168152602001908152602001600020600060048152602001908152602001600020819055506000600460003373ffffffffffffffffffffffffffffffffffffffff1673ffffffffffffffffffffffffffffffffffffffff168152602001908152602001600020600060058152602001908152602001600020819055506000600460003373ffffffffffffffffffffffffffffffffffffffff1673ffffffffffffffffffffffffffffffffffffffff168152602001908152602001600020600060068152602001908152602001600020819055506000600460003373ffffffffffffffffffffffffffffffffffffffff1673ffffffffffffffffffffffffffffffffffffffff168152602001908152602001600020600060078152602001908152602001600020819055506000600460003373ffffffffffffffffffffffffffffffffffffffff1673ffffffffffffffffffffffffffffffffffffffff16815260200190815260200160002060006008815260200190815260200160002081905550600560006006600085815260200190815260200160002060009054906101000a900473ffffffffffffffffffffffffffffffffffffffff1673ffffffffffffffffffffffffffffffffffffffff1673ffffffffffffffffffffffffffffffffffffffff168152602001908152602001600020600501339080600181540180825580915050600190039060005260206000200160009091909190916101000a81548173ffffffffffffffffffffffffffffffffffffffff021916908373ffffffffffffffffffffffffffffffffffffffff160217905550611fe3600133612a0c565b6006600083815260200190815260200160002060009054906101000a900473ffffffffffffffffffffffffffffffffffffffff1673ffffffffffffffffffffffffffffffffffffffff163373ffffffffffffffffffffffffffffffffffffffff167f788c06d2405ae89dd3f0528d38be7691289474d72176408bc2c2406dc5e342f1426040516120739190613e02565b60405180910390a35050565b60008054906101000a900473ffffffffffffffffffffffffffffffffffffffff1681565b600260009054906101000a900473ffffffffffffffffffffffffffffffffffffffff1681565b60066020528060005260406000206000915054906101000a900473ffffffffffffffffffffffffffffffffffffffff1681565b60085481565b60008060009054906101000a900473ffffffffffffffffffffffffffffffffffffffff1673ffffffffffffffffffffffffffffffffffffffff163373ffffffffffffffffffffffffffffffffffffffff1614612193576040517f08c379a000000000000000000000000000000000000000000000000000000000815260040161218a90613be2565b60405180910390fd5b600260009054906101000a900473ffffffffffffffffffffffffffffffffffffffff1673ffffffffffffffffffffffffffffffffffffffff163373ffffffffffffffffffffffffffffffffffffffff1614612223576040517f08c379a000000000000000000000000000000000000000000000000000000000815260040161221a90613c22565b60405180910390fd5b81600b60006101000a81548160ff02191690831515021790555060019050919050565b60075481565b60056020528060005260406000206000915090508060000160009054906101000a900460ff16908060010154908060020154908060030154908060040154905085565b60008054906101000a900473ffffffffffffffffffffffffffffffffffffffff1673ffffffffffffffffffffffffffffffffffffffff163373ffffffffffffffffffffffffffffffffffffffff1614806123365750600160009054906101000a900473ffffffffffffffffffffffffffffffffffffffff1673ffffffffffffffffffffffffffffffffffffffff163373ffffffffffffffffffffffffffffffffffffffff16145b612375576040517f08c379a000000000000000000000000000000000000000000000000000000000815260040161236c90613d62565b60405180910390fd5b80600160006101000a81548173ffffffffffffffffffffffffffffffffffffffff021916908373ffffffffffffffffffffffffffffffffffffffff16021790555050565b6000600460008473ffffffffffffffffffffffffffffffffffffffff1673ffffffffffffffffffffffffffffffffffffffff168152602001908152602001600020600083815260200190815260200160002054905092915050565b6004602052816000526040600020602052806000526040600020600091509150505481565b60008054906101000a900473ffffffffffffffffffffffffffffffffffffffff1673ffffffffffffffffffffffffffffffffffffffff163373ffffffffffffffffffffffffffffffffffffffff16146124c7576040517f08c379a00000000000000000000000000000000000000000000000000000000081526004016124be90613be2565b60405180910390fd5b806000806101000a81548173ffffffffffffffffffffffffffffffffffffffff021916908373ffffffffffffffffffffffffffffffffffffffff16021790555050565b600560003373ffffffffffffffffffffffffffffffffffffffff1673ffffffffffffffffffffffffffffffffffffffff16815260200190815260200160002060000160009054906101000a900460ff16612599576040517f08c379a000000000000000000000000000000000000000000000000000000000815260040161259090613d22565b60405180910390fd5b60001515600b60009054906101000a900460ff161515146125ef576040517f08c379a00000000000000000000000000000000000000000000000000000000081526004016125e690613cc2565b60405180910390fd5b600081118015612600575060088111155b61263f576040517f08c379a000000000000000000000000000000000000000000000000000000000815260040161263690613c82565b60405180910390fd5b600181141561270d57600360006001815260200190815260200160002054341461269e576040517f08c379a000000000000000000000000000000000000000000000000000000000815260040161269590613ba2565b60405180910390fd5b600a54600460003373ffffffffffffffffffffffffffffffffffffffff1673ffffffffffffffffffffffffffffffffffffffff16815260200190815260200160002060006001815260200190815260200160002060008282546127019190613e90565b9250508190555061294f565b60036000828152602001908152602001600020543414612762576040517f08c379a000000000000000000000000000000000000000000000000000000000815260040161275990613ba2565b60405180910390fd5b60006001826127719190613f71565b90505b60008111156128235742600460003373ffffffffffffffffffffffffffffffffffffffff1673ffffffffffffffffffffffffffffffffffffffff1681526020019081526020016000206000838152602001908152602001600020541015612810576040517f08c379a000000000000000000000000000000000000000000000000000000000815260040161280790613c62565b60405180910390fd5b808061281b90613fff565b915050612774565b506000600460003373ffffffffffffffffffffffffffffffffffffffff1673ffffffffffffffffffffffffffffffffffffffff16815260200190815260200160002060008381526020019081526020016000205414156128e457600a544261288b9190613e90565b600460003373ffffffffffffffffffffffffffffffffffffffff1673ffffffffffffffffffffffffffffffffffffffff16815260200190815260200160002060008381526020019081526020016000208190555061294e565b600a54600460003373ffffffffffffffffffffffffffffffffffffffff1673ffffffffffffffffffffffffffffffffffffffff168152602001908152602001600020600083815260200190815260200160002060008282546129469190613e90565b925050819055505b5b6129598133612a0c565b3373ffffffffffffffffffffffffffffffffffffffff167f9ea70f0eb33d898c3336ecf2c0e3cf1c0195c13ad3fbcb34447777dbfd5ff2d082426040516129a1929190613e1d565b60405180910390a250565b600060148201519050919050565b60008082846129c99190613e90565b905083811015612a02577f4e487b7100000000000000000000000000000000000000000000000000000000600052600160045260246000fd5b8091505092915050565b6000806000806001861480612a215750600586145b15612aa35760066000600560008873ffffffffffffffffffffffffffffffffffffffff1673ffffffffffffffffffffffffffffffffffffffff16815260200190815260200160002060020154815260200190815260200160002060009054906101000a900473ffffffffffffffffffffffffffffffffffffffff169350612f25565b6002861480612ab25750600686145b15612bac5760066000600560008873ffffffffffffffffffffffffffffffffffffffff1673ffffffffffffffffffffffffffffffffffffffff16815260200190815260200160002060020154815260200190815260200160002060009054906101000a900473ffffffffffffffffffffffffffffffffffffffff16925060066000600560008673ffffffffffffffffffffffffffffffffffffffff1673ffffffffffffffffffffffffffffffffffffffff16815260200190815260200160002060020154815260200190815260200160002060009054906101000a900473ffffffffffffffffffffffffffffffffffffffff169350612f24565b6003861480612bbb5750600786145b15612d2d5760066000600560008873ffffffffffffffffffffffffffffffffffffffff1673ffffffffffffffffffffffffffffffffffffffff16815260200190815260200160002060020154815260200190815260200160002060009054906101000a900473ffffffffffffffffffffffffffffffffffffffff16925060066000600560008673ffffffffffffffffffffffffffffffffffffffff1673ffffffffffffffffffffffffffffffffffffffff16815260200190815260200160002060020154815260200190815260200160002060009054906101000a900473ffffffffffffffffffffffffffffffffffffffff16915060066000600560008573ffffffffffffffffffffffffffffffffffffffff1673ffffffffffffffffffffffffffffffffffffffff16815260200190815260200160002060020154815260200190815260200160002060009054906101000a900473ffffffffffffffffffffffffffffffffffffffff169350612f23565b6004861480612d3c5750600886145b15612f225760066000600560008873ffffffffffffffffffffffffffffffffffffffff1673ffffffffffffffffffffffffffffffffffffffff16815260200190815260200160002060020154815260200190815260200160002060009054906101000a900473ffffffffffffffffffffffffffffffffffffffff16925060066000600560008673ffffffffffffffffffffffffffffffffffffffff1673ffffffffffffffffffffffffffffffffffffffff16815260200190815260200160002060020154815260200190815260200160002060009054906101000a900473ffffffffffffffffffffffffffffffffffffffff16915060066000600560008573ffffffffffffffffffffffffffffffffffffffff1673ffffffffffffffffffffffffffffffffffffffff16815260200190815260200160002060020154815260200190815260200160002060009054906101000a900473ffffffffffffffffffffffffffffffffffffffff16905060066000600560008473ffffffffffffffffffffffffffffffffffffffff1673ffffffffffffffffffffffffffffffffffffffff16815260200190815260200160002060020154815260200190815260200160002060009054906101000a900473ffffffffffffffffffffffffffffffffffffffff1693505b5b5b5b600560008573ffffffffffffffffffffffffffffffffffffffff1673ffffffffffffffffffffffffffffffffffffffff16815260200190815260200160002060000160009054906101000a900460ff16612fb157600660006001815260200190815260200160002060009054906101000a900473ffffffffffffffffffffffffffffffffffffffff1693505b42600460008673ffffffffffffffffffffffffffffffffffffffff1673ffffffffffffffffffffffffffffffffffffffff168152602001908152602001600020600088815260200190815260200160002054106131b457600061304d68056bc75e2d6310000061303f600854600360008c81526020019081526020016000205461322e90919063ffffffff16565b61329590919063ffffffff16565b90508473ffffffffffffffffffffffffffffffffffffffff166108fc61308f83600360008c8152602001908152602001600020546132b090919063ffffffff16565b9081150290604051600060405180830381858888f1935050505080156131085750600260009054906101000a900473ffffffffffffffffffffffffffffffffffffffff1673ffffffffffffffffffffffffffffffffffffffff166108fc829081150290604051600060405180830381858888f193505050505b613147576040517f08c379a000000000000000000000000000000000000000000000000000000000815260040161313e90613d42565b60405180910390fd5b3373ffffffffffffffffffffffffffffffffffffffff168573ffffffffffffffffffffffffffffffffffffffff167fce7dc747411ac40191c5335943fcc79d8c2d8c01ca5ae83d9fed160409fa612089426040516131a6929190613e1d565b60405180910390a350613226565b3373ffffffffffffffffffffffffffffffffffffffff168473ffffffffffffffffffffffffffffffffffffffff167f7df0f6bac5c770af7783500bb7f1c0d073adb11316004ba6f9f6c704af1a1aea8842604051613213929190613e1d565b60405180910390a36132258685612a0c565b5b505050505050565b600080828461323d9190613f17565b9050600084148061325857508284826132569190613ee6565b145b61328b577f4e487b7100000000000000000000000000000000000000000000000000000000600052600160045260246000fd5b8091505092915050565b60008082846132a49190613ee6565b90508091505092915050565b6000828211156132e9577f4e487b7100000000000000000000000000000000000000000000000000000000600052600160045260246000fd5b81836132f59190613f71565b905092915050565b6040518060c0016040528060001515815260200160008152602001600081526020016000815260200160008152602001606081525090565b8280548282559060005260206000209081019282156133ae579160200282015b828111156133ad5782518260006101000a81548173ffffffffffffffffffffffffffffffffffffffff021916908373ffffffffffffffffffffffffffffffffffffffff16021790555091602001919060010190613355565b5b5090506133bb91906133bf565b5090565b5b808211156133d85760008160009055506001016133c0565b5090565b6000813590506133eb816140d0565b92915050565b600081359050613400816140e7565b92915050565b600081359050613415816140fe565b92915050565b60008135905061342a81614115565b92915050565b60006020828403121561344257600080fd5b6000613450848285016133dc565b91505092915050565b6000806040838503121561346c57600080fd5b600061347a858286016133f1565b925050602061348b8582860161341b565b9150509250929050565b600080604083850312156134a857600080fd5b60006134b6858286016133dc565b92505060206134c78582860161341b565b9150509250929050565b6000602082840312156134e357600080fd5b60006134f184828501613406565b91505092915050565b60006020828403121561350c57600080fd5b600061351a8482850161341b565b91505092915050565b6000806040838503121561353657600080fd5b60006135448582860161341b565b92505060206135558582860161341b565b9150509250929050565b600061356b8383613577565b60208301905092915050565b61358081613fa5565b82525050565b61358f81613fa5565b82525050565b60006135a082613e56565b6135aa8185613e6e565b93506135b583613e46565b8060005b838110156135e65781516135cd888261355f565b97506135d883613e61565b9250506001810190506135b9565b5085935050505092915050565b6135fc81613fc9565b82525050565b600061360f600f83613e7f565b91507f496e636f72726563742056616c756500000000000000000000000000000000006000830152602082019050919050565b600061364f601583613e7f565b91507f496e636f727265637420726566657272657220496400000000000000000000006000830152602082019050919050565b600061368f600e83613e7f565b91507f6f6e6c7920666f72206f776e65720000000000000000000000000000000000006000830152602082019050919050565b60006136cf600a83613e7f565b91507f55736572206578697374000000000000000000000000000000000000000000006000830152602082019050919050565b600061370f600c83613e7f565b91507f496e76616c6964205573657200000000000000000000000000000000000000006000830152602082019050919050565b600061374f601483613e7f565b91507f496e73756666696369656e742062616c616e63650000000000000000000000006000830152602082019050919050565b600061378f601683613e7f565b91507f427579207468652070726576696f7573206c6576656c000000000000000000006000830152602082019050919050565b60006137cf600f83613e7f565b91507f496e636f7272656374206c6576656c00000000000000000000000000000000006000830152602082019050919050565b600061380f602383613e7f565b91507f506c6561736520627579206669727374206c6576656c20666f7220302e30352060008301527f45544800000000000000000000000000000000000000000000000000000000006020830152604082019050919050565b6000613875600f83613e7f565b91507f436f6e7472616374204c6f636b656400000000000000000000000000000000006000830152602082019050919050565b60006138b5601483613e7f565b91507f496e636f72726563742056616c75652073656e640000000000000000000000006000830152602082019050919050565b60006138f5601283613e7f565b91507f496e636f727265637420726566657272657200000000000000000000000000006000830152602082019050919050565b6000613935600e83613e7f565b91507f55736572206e6f742065786973740000000000000000000000000000000000006000830152602082019050919050565b6000613975601383613e7f565b91507f5472616e73616374696f6e204661696c757265000000000000000000000000006000830152602082019050919050565b60006139b5601983613e7f565b91507f6f6e6c7920666f72206f776e6572206f72206d616e61676572000000000000006000830152602082019050919050565b60006139f5600f83613e7f565b91507f496e76616c6964204164647265737300000000000000000000000000000000006000830152602082019050919050565b6000613a35601083613e7f565b91507f4e6f2046726565205265666572726572000000000000000000000000000000006000830152602082019050919050565b6000613a75601183613e7f565b91507f6f6e6c79204f776e65722057616c6c65740000000000000000000000000000006000830152602082019050919050565b6000613ab5601083613e7f565b91507f6f6e6c79204f776e657257616c6c6574000000000000000000000000000000006000830152602082019050919050565b613af181613ff5565b82525050565b6000602082019050613b0c6000830184613586565b92915050565b60006020820190508181036000830152613b2c8184613595565b905092915050565b6000602082019050613b4960008301846135f3565b92915050565b600060a082019050613b6460008301886135f3565b613b716020830187613ae8565b613b7e6040830186613ae8565b613b8b6060830185613ae8565b613b986080830184613ae8565b9695505050505050565b60006020820190508181036000830152613bbb81613602565b9050919050565b60006020820190508181036000830152613bdb81613642565b9050919050565b60006020820190508181036000830152613bfb81613682565b9050919050565b60006020820190508181036000830152613c1b816136c2565b9050919050565b60006020820190508181036000830152613c3b81613702565b9050919050565b60006020820190508181036000830152613c5b81613742565b9050919050565b60006020820190508181036000830152613c7b81613782565b9050919050565b60006020820190508181036000830152613c9b816137c2565b9050919050565b60006020820190508181036000830152613cbb81613802565b9050919050565b60006020820190508181036000830152613cdb81613868565b9050919050565b60006020820190508181036000830152613cfb816138a8565b9050919050565b60006020820190508181036000830152613d1b816138e8565b9050919050565b60006020820190508181036000830152613d3b81613928565b9050919050565b60006020820190508181036000830152613d5b81613968565b9050919050565b60006020820190508181036000830152613d7b816139a8565b9050919050565b60006020820190508181036000830152613d9b816139e8565b9050919050565b60006020820190508181036000830152613dbb81613a28565b9050919050565b60006020820190508181036000830152613ddb81613a68565b9050919050565b60006020820190508181036000830152613dfb81613aa8565b9050919050565b6000602082019050613e176000830184613ae8565b92915050565b6000604082019050613e326000830185613ae8565b613e3f6020830184613ae8565b9392505050565b6000819050602082019050919050565b600081519050919050565b6000602082019050919050565b600082825260208201905092915050565b600082825260208201905092915050565b6000613e9b82613ff5565b9150613ea683613ff5565b9250827fffffffffffffffffffffffffffffffffffffffffffffffffffffffffffffffff03821115613edb57613eda614072565b5b828201905092915050565b6000613ef182613ff5565b9150613efc83613ff5565b925082613f0c57613f0b6140a1565b5b828204905092915050565b6000613f2282613ff5565b9150613f2d83613ff5565b9250817fffffffffffffffffffffffffffffffffffffffffffffffffffffffffffffffff0483118215151615613f6657613f65614072565b5b828202905092915050565b6000613f7c82613ff5565b9150613f8783613ff5565b925082821015613f9a57613f99614072565b5b828203905092915050565b6000613fb082613fd5565b9050919050565b6000613fc282613fd5565b9050919050565b60008115159050919050565b600073ffffffffffffffffffffffffffffffffffffffff82169050919050565b6000819050919050565b600061400a82613ff5565b9150600082141561401e5761401d614072565b5b600182039050919050565b600061403482613ff5565b91507fffffffffffffffffffffffffffffffffffffffffffffffffffffffffffffffff82141561406757614066614072565b5b600182019050919050565b7f4e487b7100000000000000000000000000000000000000000000000000000000600052601160045260246000fd5b7f4e487b7100000000000000000000000000000000000000000000000000000000600052601260045260246000fd5b6140d981613fa5565b81146140e457600080fd5b50565b6140f081613fb7565b81146140fb57600080fd5b50565b61410781613fc9565b811461411257600080fd5b50565b61411e81613ff5565b811461412957600080fd5b5056fea2646970667358221220028ff5119f7cd658106fab3b3eb55ca8c17acc5a9b77ec8a7f6019fafaf6f3cf64736f6c63430008000033",
  "immutableReferences": {},
  "source": "// SPDX-License-Identifier: UNLICENSED\r\npragma solidity ^0.8.0;\r\n\r\n\r\nlibrary SafeMath {\r\n\r\n  function mul(uint256 a, uint256 b) internal pure returns (uint256) {\r\n    uint256 c = a * b;\r\n    assert(a == 0 || c / a == b);\r\n    return c;\r\n  }\r\n\r\n  function div(uint256 a, uint256 b) internal pure returns (uint256) {\r\n    uint256 c = a / b;\r\n    return c;\r\n  }\r\n\r\n  function sub(uint256 a, uint256 b) internal pure returns (uint256) {\r\n    assert(b <= a);\r\n    return a - b;\r\n  }\r\n\r\n  function add(uint256 a, uint256 b) internal pure returns (uint256) {\r\n    uint256 c = a + b;\r\n    assert(c >= a);\r\n    return c;\r\n  }\r\n\r\n}\r\n\r\n\r\ncontract Ownable {\r\n\r\n  address public owner;\r\n  address public manager;\r\n  address public ownerWallet;\r\n\r\n  constructor() {\r\n    owner = msg.sender;\r\n    manager = msg.sender;\r\n    ownerWallet = msg.sender;\r\n  }\r\n\r\n  modifier onlyOwner() {\r\n    require(msg.sender == owner, \"only for owner\");\r\n    _;\r\n  }\r\n\r\n  modifier onlyOwnerOrManager() {\r\n     require((msg.sender == owner)||(msg.sender == manager), \"only for owner or manager\");\r\n      _;\r\n  }\r\n\r\n  function transferOwnership(address newOwner) public onlyOwner {\r\n    owner = newOwner;\r\n  }\r\n\r\n  function setManager(address _manager) public onlyOwnerOrManager {\r\n      manager = _manager;\r\n  }\r\n}\r\n\r\n\r\ncontract FreedomUnlimited is Ownable {\r\n    using SafeMath for uint256;\r\n    \r\n    event regLevelEvent(address indexed _user, address indexed _referrer, uint _time);\r\n    event buyLevelEvent(address indexed _user, uint _level, uint _time);\r\n    event prolongateLevelEvent(address indexed _user, uint _level, uint _time);\r\n    event getMoneyForLevelEvent(address indexed _user, address indexed _referral, uint _level, uint _time);\r\n    event lostMoneyForLevelEvent(address indexed _user, address indexed _referral, uint _level, uint _time);\r\n\r\n    struct UserStruct {\r\n        bool isExist;\r\n        uint id;\r\n        uint referrerID;\r\n        uint currentLevel;\r\n        uint totalEarningEth;\r\n        address[] referral;\r\n    }\r\n\r\n    mapping (uint => uint) public LEVEL_PRICE;\r\n    mapping (address => mapping(uint => uint)) public levelExpired;\r\n    mapping (address => UserStruct) public users;\r\n    mapping (uint => address) public userList;\r\n    uint public currUserID = 0;\r\n    uint public adminFee = 16 ether;\r\n    uint REFERRER_1_LEVEL_LIMIT = 3;\r\n    uint PERIOD_LENGTH = 30 days;\r\n    bool public lockStatus;\r\n\r\n    constructor() {\r\n\r\n        LEVEL_PRICE[1] = 0.05 ether;\r\n        LEVEL_PRICE[2] = 0.15 ether;\r\n        LEVEL_PRICE[3] = 0.45 ether;\r\n        LEVEL_PRICE[4] = 1.35 ether;\r\n        LEVEL_PRICE[5] = 4.05 ether;\r\n        LEVEL_PRICE[6] = 12.15 ether;\r\n        LEVEL_PRICE[7] = 36.45 ether;\r\n        LEVEL_PRICE[8] = 109.35 ether;\r\n\r\n        UserStruct memory userStruct;\r\n        currUserID++;\r\n\r\n        userStruct = UserStruct({\r\n            isExist : true,\r\n            id : currUserID,\r\n            referrerID : 0,\r\n            currentLevel : 8,\r\n            totalEarningEth : 0,\r\n            referral : new address[](0)\r\n        });\r\n        users[ownerWallet] = userStruct;\r\n        userList[currUserID] = ownerWallet;\r\n\r\n        levelExpired[ownerWallet][1] = 77777777777;\r\n        levelExpired[ownerWallet][2] = 77777777777;\r\n        levelExpired[ownerWallet][3] = 77777777777;\r\n        levelExpired[ownerWallet][4] = 77777777777;\r\n        levelExpired[ownerWallet][5] = 77777777777;\r\n        levelExpired[ownerWallet][6] = 77777777777;\r\n        levelExpired[ownerWallet][7] = 77777777777;\r\n        levelExpired[ownerWallet][8] = 77777777777;\r\n    }\r\n\r\n    receive () external payable {\r\n        receiveFunds();\r\n    }\r\n\r\n    /**\r\n     * @dev receive funds if not calling on regUser or buyLevel this is called when funds sent directly to contract. \r\n     */ \r\n    function receiveFunds() public payable {\r\n        uint level;\r\n\r\n        if(msg.value == LEVEL_PRICE[1]){\r\n            level = 1;\r\n        }else if(msg.value == LEVEL_PRICE[2]){\r\n            level = 2;\r\n        }else if(msg.value == LEVEL_PRICE[3]){\r\n            level = 3;\r\n        }else if(msg.value == LEVEL_PRICE[4]){\r\n            level = 4;\r\n        }else if(msg.value == LEVEL_PRICE[5]){\r\n            level = 5;\r\n        }else if(msg.value == LEVEL_PRICE[6]){\r\n            level = 6;\r\n        }else if(msg.value == LEVEL_PRICE[7]){\r\n            level = 7;\r\n        }else if(msg.value == LEVEL_PRICE[8]){\r\n            level = 8;\r\n        }else {\r\n            revert('Incorrect Value send');\r\n        }\r\n\r\n        if(users[msg.sender].isExist){\r\n            buyLevel(level);\r\n        } else if(level == 1) {\r\n            uint refId = 0;\r\n            address referrer = bytesToAddress(msg.data);\r\n\r\n            if (users[referrer].isExist){\r\n                refId = users[referrer].id;\r\n            } else {\r\n                revert('Incorrect referrer');\r\n            }\r\n\r\n            regUser(refId);\r\n        } else {\r\n            revert(\"Please buy first level for 0.05 ETH\");\r\n        }\r\n    }\r\n\r\n    /**\r\n     * @dev register new user into system\r\n     */ \r\n    function regUser(uint _referrerID) public payable {\r\n        require(!users[msg.sender].isExist, 'User exist');\r\n        require(lockStatus == false, \"Contract Locked\");\r\n        require(_referrerID > 0 && _referrerID <= currUserID, 'Incorrect referrer Id');\r\n\r\n        require(msg.value==LEVEL_PRICE[1], 'Incorrect Value');\r\n\r\n\r\n        if(users[userList[_referrerID]].referral.length >= REFERRER_1_LEVEL_LIMIT)\r\n        {\r\n            _referrerID = users[findFreeReferrer(userList[_referrerID])].id;\r\n        }\r\n\r\n\r\n        UserStruct memory userStruct;\r\n        currUserID++;\r\n\r\n        userStruct = UserStruct({\r\n            isExist : true,\r\n            id : currUserID,\r\n            referrerID : _referrerID,\r\n            currentLevel : 1,\r\n            totalEarningEth : 0,\r\n            referral : new address[](0)\r\n        });\r\n\r\n        users[msg.sender] = userStruct;\r\n        userList[currUserID] = msg.sender;\r\n\r\n        levelExpired[msg.sender][1] = block.timestamp + PERIOD_LENGTH;\r\n        levelExpired[msg.sender][2] = 0;\r\n        levelExpired[msg.sender][3] = 0;\r\n        levelExpired[msg.sender][4] = 0;\r\n        levelExpired[msg.sender][5] = 0;\r\n        levelExpired[msg.sender][6] = 0;\r\n        levelExpired[msg.sender][7] = 0;\r\n        levelExpired[msg.sender][8] = 0;\r\n\r\n        users[userList[_referrerID]].referral.push(msg.sender);\r\n\r\n        payForLevel(1, msg.sender);\r\n\r\n        emit regLevelEvent(msg.sender, userList[_referrerID], block.timestamp);\r\n    }\r\n\r\n    /**\r\n     * @dev buy into next level up\r\n     */ \r\n    function buyLevel(uint _level) public payable {\r\n        require(users[msg.sender].isExist, 'User not exist');\r\n        require(lockStatus == false, \"Contract Locked\");\r\n        require( _level>0 && _level<=8, 'Incorrect level');\r\n\r\n        if(_level == 1){\r\n            require(msg.value==LEVEL_PRICE[1], 'Incorrect Value');\r\n            levelExpired[msg.sender][1] += PERIOD_LENGTH;\r\n        } else {\r\n            require(msg.value==LEVEL_PRICE[_level], 'Incorrect Value');\r\n\r\n            for(uint l =_level-1; l>0; l-- ){\r\n                require(levelExpired[msg.sender][l] >= block.timestamp, 'Buy the previous level');\r\n            }\r\n\r\n            if(levelExpired[msg.sender][_level] == 0){\r\n                levelExpired[msg.sender][_level] = block.timestamp + PERIOD_LENGTH;\r\n            } else {\r\n                levelExpired[msg.sender][_level] += PERIOD_LENGTH;\r\n            }\r\n        }\r\n        payForLevel(_level, msg.sender);\r\n        emit buyLevelEvent(msg.sender, _level, block.timestamp);\r\n    }\r\n\r\n    /**\r\n     * @dev pay for level increase in inclusion\r\n     */ \r\n    function payForLevel(uint _level, address _user) internal {\r\n\r\n        address referer;\r\n        address referer1;\r\n        address referer2;\r\n        address referer3;\r\n        if(_level == 1 || _level == 5){\r\n            referer = userList[users[_user].referrerID];\r\n        } else if(_level == 2 || _level == 6){\r\n            referer1 = userList[users[_user].referrerID];\r\n            referer = userList[users[referer1].referrerID];\r\n        } else if(_level == 3 || _level == 7){\r\n            referer1 = userList[users[_user].referrerID];\r\n            referer2 = userList[users[referer1].referrerID];\r\n            referer = userList[users[referer2].referrerID];\r\n        } else if(_level == 4 || _level == 8){\r\n            referer1 = userList[users[_user].referrerID];\r\n            referer2 = userList[users[referer1].referrerID];\r\n            referer3 = userList[users[referer2].referrerID];\r\n            referer = userList[users[referer3].referrerID];\r\n        }\r\n\r\n        if(!users[referer].isExist){\r\n            referer = userList[1];\r\n        }\r\n\r\n        if(levelExpired[referer][_level] >= block.timestamp ){\r\n            uint _adminPrice = (LEVEL_PRICE[_level].mul(adminFee)).div(10**20);\r\n            require(payable(referer).send(LEVEL_PRICE[_level].sub(_adminPrice)) && \r\n                    payable(ownerWallet).send(_adminPrice), \"Transaction Failure\" );\r\n            emit getMoneyForLevelEvent(referer, msg.sender, _level, block.timestamp);\r\n        } else {\r\n            emit lostMoneyForLevelEvent(referer, msg.sender, _level, block.timestamp);\r\n            payForLevel(_level,referer);\r\n        }\r\n    }\r\n\r\n    /**\r\n     * @dev view free referrer address if available else return user address\r\n     */ \r\n    function findFreeReferrer(address _user) public view returns(address) {\r\n        if(users[_user].referral.length < REFERRER_1_LEVEL_LIMIT){\r\n            return _user;\r\n        }\r\n\r\n        address[] memory referrals = new address[](363);\r\n        referrals[0] = users[_user].referral[0]; \r\n        referrals[1] = users[_user].referral[1];\r\n        referrals[2] = users[_user].referral[2];\r\n\r\n        address freeReferrer;\r\n        bool noFreeReferrer = true;\r\n\r\n        for(uint i =0; i<363;i++){\r\n            if(users[referrals[i]].referral.length == REFERRER_1_LEVEL_LIMIT){\r\n                if(i<120){\r\n                    referrals[(i+1)*3] = users[referrals[i]].referral[0];\r\n                    referrals[(i+1)*3+1] = users[referrals[i]].referral[1];\r\n                    referrals[(i+1)*3+2] = users[referrals[i]].referral[2];\r\n                }\r\n            }else{\r\n                noFreeReferrer = false;\r\n                freeReferrer = referrals[i];\r\n                break;\r\n            }\r\n        }\r\n        require(!noFreeReferrer, 'No Free Referrer');\r\n        return freeReferrer;\r\n\r\n    }\r\n\r\n    /**\r\n     * @dev view referrals for user\r\n     */ \r\n    function viewUserReferral(address _user) public view returns(address[] memory) {\r\n        return users[_user].referral;\r\n    }\r\n\r\n    /**\r\n     * @dev view level expired at for address\r\n     */ \r\n    function viewUserLevelExpired(address _user, uint _level) public view returns(uint) {\r\n        return levelExpired[_user][_level];\r\n    }\r\n    \r\n    /**\r\n     * @dev convert byte to address\r\n     */ \r\n    function bytesToAddress(bytes memory bys) private pure returns (address  addr ) {\r\n        assembly {\r\n            addr := mload(add(bys, 20))\r\n        }\r\n    }\r\n    \r\n    /**\r\n     * @dev Contract balance withdraw\r\n     */ \r\n    function failSafe(address payable _toUser, uint _amount) public onlyOwner returns (bool) {\r\n        require(msg.sender == ownerWallet, \"only Owner Wallet\");\r\n        require(_toUser != address(0), \"Invalid Address\");\r\n        require(address(this).balance >= _amount, \"Insufficient balance\");\r\n\r\n        (_toUser).transfer(_amount);\r\n        return true;\r\n    }\r\n    \r\n    /**\r\n     * @dev Update level price\r\n     */ \r\n    function updatePrice(uint _level, uint _price) public onlyOwner returns (bool) {\r\n        require(msg.sender == ownerWallet, \"only OwnerWallet\");\r\n\r\n        LEVEL_PRICE[_level] = _price;\r\n        return true;\r\n    }\r\n\r\n    /**\r\n     * @dev Update contract status\r\n     */ \r\n    function contractLock(bool _lockStatus) public onlyOwner returns (bool) {\r\n        require(msg.sender == ownerWallet, \"Invalid User\");\r\n\r\n        lockStatus = _lockStatus;\r\n        return true;\r\n    }\r\n    \r\n    /**\r\n     * @dev Total earned ETH\r\n     */\r\n    function getTotalEarnedEther() public view returns (uint) {\r\n        uint totalEth;\r\n        for (uint i = 1; i <= currUserID; i++) {\r\n            totalEth = totalEth.add(users[userList[i]].totalEarningEth);\r\n        }\r\n        return totalEth;\r\n    }\r\n}",
  "sourcePath": "C:/Users/Andrew Dufresne/Desktop/Dev/Solidity/FU/f-u/contracts/FreedomUnlimited.sol",
  "compiler": {
    "name": "solc",
    "version": "0.8.0+commit.c7dfd78e.Emscripten.clang"
  },
  "schemaVersion": "3.4.1",
  "updatedAt": "2021-10-22T05:01:01.086Z",
  "networkType": "ethereum",
  "devdoc": {
    "kind": "dev",
    "methods": {
      "buyLevel(uint256)": {
        "details": "buy into next level up"
      },
      "contractLock(bool)": {
        "details": "Update contract status"
      },
      "failSafe(address,uint256)": {
        "details": "Contract balance withdraw"
      },
      "findFreeReferrer(address)": {
        "details": "view free referrer address if available else return user address"
      },
      "getTotalEarnedEther()": {
        "details": "Total earned ETH"
      },
      "receiveFunds()": {
        "details": "receive funds if not calling on regUser or buyLevel this is called when funds sent directly to contract. "
      },
      "regUser(uint256)": {
        "details": "register new user into system"
      },
      "updatePrice(uint256,uint256)": {
        "details": "Update level price"
      },
      "viewUserLevelExpired(address,uint256)": {
        "details": "view level expired at for address"
      },
      "viewUserReferral(address)": {
        "details": "view referrals for user"
      }
    },
    "version": 1
  },
  "userdoc": {
    "kind": "user",
    "methods": {},
    "version": 1
  }
}