{
  "contractName": "FreedomUnlimited",
  "abi": [
    {
      "inputs": [],
      "stateMutability": "nonpayable",
      "type": "constructor"
    },
    {
      "anonymous": false,
      "inputs": [
        {
          "indexed": true,
          "internalType": "address",
          "name": "_user",
          "type": "address"
        },
        {
          "indexed": false,
          "internalType": "uint256",
          "name": "_level",
          "type": "uint256"
        },
        {
          "indexed": false,
          "internalType": "uint256",
          "name": "_time",
          "type": "uint256"
        }
      ],
      "name": "buyLevelEvent",
      "type": "event"
    },
    {
      "anonymous": false,
      "inputs": [
        {
          "indexed": true,
          "internalType": "address",
          "name": "_user",
          "type": "address"
        },
        {
          "indexed": true,
          "internalType": "address",
          "name": "_referral",
          "type": "address"
        },
        {
          "indexed": false,
          "internalType": "uint256",
          "name": "_level",
          "type": "uint256"
        },
        {
          "indexed": false,
          "internalType": "uint256",
          "name": "_time",
          "type": "uint256"
        }
      ],
      "name": "getMoneyForLevelEvent",
      "type": "event"
    },
    {
      "anonymous": false,
      "inputs": [
        {
          "indexed": true,
          "internalType": "address",
          "name": "_user",
          "type": "address"
        },
        {
          "indexed": true,
          "internalType": "address",
          "name": "_referral",
          "type": "address"
        },
        {
          "indexed": false,
          "internalType": "uint256",
          "name": "_level",
          "type": "uint256"
        },
        {
          "indexed": false,
          "internalType": "uint256",
          "name": "_time",
          "type": "uint256"
        }
      ],
      "name": "lostMoneyForLevelEvent",
      "type": "event"
    },
    {
      "anonymous": false,
      "inputs": [
        {
          "indexed": true,
          "internalType": "address",
          "name": "_user",
          "type": "address"
        },
        {
          "indexed": false,
          "internalType": "uint256",
          "name": "_level",
          "type": "uint256"
        },
        {
          "indexed": false,
          "internalType": "uint256",
          "name": "_time",
          "type": "uint256"
        }
      ],
      "name": "prolongateLevelEvent",
      "type": "event"
    },
    {
      "anonymous": false,
      "inputs": [
        {
          "indexed": true,
          "internalType": "address",
          "name": "_user",
          "type": "address"
        },
        {
          "indexed": true,
          "internalType": "address",
          "name": "_referrer",
          "type": "address"
        },
        {
          "indexed": false,
          "internalType": "uint256",
          "name": "_time",
          "type": "uint256"
        }
      ],
      "name": "regLevelEvent",
      "type": "event"
    },
    {
      "inputs": [
        {
          "internalType": "uint256",
          "name": "",
          "type": "uint256"
        }
      ],
      "name": "LEVEL_PRICE",
      "outputs": [
        {
          "internalType": "uint256",
          "name": "",
          "type": "uint256"
        }
      ],
      "stateMutability": "view",
      "type": "function"
    },
    {
      "inputs": [],
      "name": "adminFee",
      "outputs": [
        {
          "internalType": "uint256",
          "name": "",
          "type": "uint256"
        }
      ],
      "stateMutability": "view",
      "type": "function"
    },
    {
      "inputs": [],
      "name": "currUserID",
      "outputs": [
        {
          "internalType": "uint256",
          "name": "",
          "type": "uint256"
        }
      ],
      "stateMutability": "view",
      "type": "function"
    },
    {
      "inputs": [
        {
          "internalType": "address",
          "name": "",
          "type": "address"
        },
        {
          "internalType": "uint256",
          "name": "",
          "type": "uint256"
        }
      ],
      "name": "levelExpired",
      "outputs": [
        {
          "internalType": "uint256",
          "name": "",
          "type": "uint256"
        }
      ],
      "stateMutability": "view",
      "type": "function"
    },
    {
      "inputs": [],
      "name": "lockStatus",
      "outputs": [
        {
          "internalType": "bool",
          "name": "",
          "type": "bool"
        }
      ],
      "stateMutability": "view",
      "type": "function"
    },
    {
      "inputs": [],
      "name": "manager",
      "outputs": [
        {
          "internalType": "address",
          "name": "",
          "type": "address"
        }
      ],
      "stateMutability": "view",
      "type": "function"
    },
    {
      "inputs": [],
      "name": "owner",
      "outputs": [
        {
          "internalType": "address",
          "name": "",
          "type": "address"
        }
      ],
      "stateMutability": "view",
      "type": "function"
    },
    {
      "inputs": [],
      "name": "ownerWallet",
      "outputs": [
        {
          "internalType": "address",
          "name": "",
          "type": "address"
        }
      ],
      "stateMutability": "view",
      "type": "function"
    },
    {
      "inputs": [
        {
          "internalType": "address",
          "name": "_manager",
          "type": "address"
        }
      ],
      "name": "setManager",
      "outputs": [],
      "stateMutability": "nonpayable",
      "type": "function"
    },
    {
      "inputs": [
        {
          "internalType": "address",
          "name": "newOwner",
          "type": "address"
        }
      ],
      "name": "transferOwnership",
      "outputs": [],
      "stateMutability": "nonpayable",
      "type": "function"
    },
    {
      "inputs": [
        {
          "internalType": "uint256",
          "name": "",
          "type": "uint256"
        }
      ],
      "name": "userList",
      "outputs": [
        {
          "internalType": "address",
          "name": "",
          "type": "address"
        }
      ],
      "stateMutability": "view",
      "type": "function"
    },
    {
      "inputs": [
        {
          "internalType": "address",
          "name": "",
          "type": "address"
        }
      ],
      "name": "users",
      "outputs": [
        {
          "internalType": "bool",
          "name": "isExist",
          "type": "bool"
        },
        {
          "internalType": "uint256",
          "name": "id",
          "type": "uint256"
        },
        {
          "internalType": "uint256",
          "name": "referrerID",
          "type": "uint256"
        },
        {
          "internalType": "uint256",
          "name": "currentLevel",
          "type": "uint256"
        },
        {
          "internalType": "uint256",
          "name": "totalEarningEth",
          "type": "uint256"
        }
      ],
      "stateMutability": "view",
      "type": "function"
    },
    {
      "stateMutability": "payable",
      "type": "receive"
    },
    {
      "inputs": [],
      "name": "receiveFunds",
      "outputs": [],
      "stateMutability": "payable",
      "type": "function"
    },
    {
      "inputs": [
        {
          "internalType": "uint256",
          "name": "_referrerID",
          "type": "uint256"
        }
      ],
      "name": "regUser",
      "outputs": [],
      "stateMutability": "payable",
      "type": "function"
    },
    {
      "inputs": [
        {
          "internalType": "uint256",
          "name": "_level",
          "type": "uint256"
        }
      ],
      "name": "buyLevel",
      "outputs": [],
      "stateMutability": "payable",
      "type": "function"
    },
    {
      "inputs": [
        {
          "internalType": "address",
          "name": "_user",
          "type": "address"
        }
      ],
      "name": "findFreeReferrer",
      "outputs": [
        {
          "internalType": "address",
          "name": "",
          "type": "address"
        }
      ],
      "stateMutability": "view",
      "type": "function"
    },
    {
      "inputs": [
        {
          "internalType": "address",
          "name": "_user",
          "type": "address"
        }
      ],
      "name": "viewUserReferral",
      "outputs": [
        {
          "internalType": "address[]",
          "name": "",
          "type": "address[]"
        }
      ],
      "stateMutability": "view",
      "type": "function"
    },
    {
      "inputs": [
        {
          "internalType": "address",
          "name": "_user",
          "type": "address"
        },
        {
          "internalType": "uint256",
          "name": "_level",
          "type": "uint256"
        }
      ],
      "name": "viewUserLevelExpired",
      "outputs": [
        {
          "internalType": "uint256",
          "name": "",
          "type": "uint256"
        }
      ],
      "stateMutability": "view",
      "type": "function"
    },
    {
      "inputs": [
        {
          "internalType": "address payable",
          "name": "_toUser",
          "type": "address"
        },
        {
          "internalType": "uint256",
          "name": "_amount",
          "type": "uint256"
        }
      ],
      "name": "failSafe",
      "outputs": [
        {
          "internalType": "bool",
          "name": "",
          "type": "bool"
        }
      ],
      "stateMutability": "nonpayable",
      "type": "function"
    },
    {
      "inputs": [
        {
          "internalType": "uint256",
          "name": "_level",
          "type": "uint256"
        },
        {
          "internalType": "uint256",
          "name": "_price",
          "type": "uint256"
        }
      ],
      "name": "updatePrice",
      "outputs": [
        {
          "internalType": "bool",
          "name": "",
          "type": "bool"
        }
      ],
      "stateMutability": "nonpayable",
      "type": "function"
    },
    {
      "inputs": [
        {
          "internalType": "bool",
          "name": "_lockStatus",
          "type": "bool"
        }
      ],
      "name": "contractLock",
      "outputs": [
        {
          "internalType": "bool",
          "name": "",
          "type": "bool"
        }
      ],
      "stateMutability": "nonpayable",
      "type": "function"
    },
    {
      "inputs": [],
      "name": "getTotalEarnedEther",
      "outputs": [
        {
          "internalType": "uint256",
          "name": "",
          "type": "uint256"
        }
      ],
      "stateMutability": "view",
      "type": "function"
    },
    {
      "inputs": [
        {
          "internalType": "address",
          "name": "_user",
          "type": "address"
        }
      ],
      "name": "getUser",
      "outputs": [
        {
          "internalType": "bool",
          "name": "",
          "type": "bool"
        },
        {
          "internalType": "uint256",
          "name": "",
          "type": "uint256"
        },
        {
          "internalType": "uint256",
          "name": "",
          "type": "uint256"
        },
        {
          "internalType": "uint256",
          "name": "",
          "type": "uint256"
        },
        {
          "internalType": "uint256",
          "name": "",
          "type": "uint256"
        }
      ],
      "stateMutability": "view",
      "type": "function"
    },
    {
      "inputs": [],
      "name": "getContractBalance",
      "outputs": [
        {
          "internalType": "uint256",
          "name": "",
          "type": "uint256"
        }
      ],
      "stateMutability": "view",
      "type": "function"
    }
  ],
  "bytecode": "0x6080604052600060075567de0b6b3a76400000600855600360095562278d00600a553480156200002e57600080fd5b50336000806101000a81548173ffffffffffffffffffffffffffffffffffffffff021916908373ffffffffffffffffffffffffffffffffffffffff16021790555033600160006101000a81548173ffffffffffffffffffffffffffffffffffffffff021916908373ffffffffffffffffffffffffffffffffffffffff16021790555033600260006101000a81548173ffffffffffffffffffffffffffffffffffffffff021916908373ffffffffffffffffffffffffffffffffffffffff16021790555066b1a2bc2ec50000600360006001815260200190815260200160002081905550670214e8348c4f000060036000600281526020019081526020016000208190555067063eb89da4ed00006003600060038152602001908152602001600020819055506712bc29d8eec700006003600060048152602001908152602001600020819055506738347d8acc55000060036000600581526020019081526020016000208190555067a89d78a064ff00006003600060068152602001908152602001600020819055506801f9d869e12efd00006003600060078152602001908152602001600020819055506805ed893da38cf7000060036000600881526020019081526020016000208190555062000204620007f7565b600760008154809291906200021990620008e7565b91905055506040518060c001604052806001151581526020016007548152602001600081526020016008815260200160008152602001600067ffffffffffffffff81111562000291577f4e487b7100000000000000000000000000000000000000000000000000000000600052604160045260246000fd5b604051908082528060200260200182016040528015620002c05781602001602082028036833780820191505090505b5081525090508060056000600260009054906101000a900473ffffffffffffffffffffffffffffffffffffffff1673ffffffffffffffffffffffffffffffffffffffff1673ffffffffffffffffffffffffffffffffffffffff16815260200190815260200160002060008201518160000160006101000a81548160ff0219169083151502179055506020820151816001015560408201518160020155606082015181600301556080820151816004015560a08201518160050190805190602001906200038e9291906200082f565b50905050600260009054906101000a900473ffffffffffffffffffffffffffffffffffffffff1660066000600754815260200190815260200160002060006101000a81548173ffffffffffffffffffffffffffffffffffffffff021916908373ffffffffffffffffffffffffffffffffffffffff16021790555064121beab47160046000600260009054906101000a900473ffffffffffffffffffffffffffffffffffffffff1673ffffffffffffffffffffffffffffffffffffffff1673ffffffffffffffffffffffffffffffffffffffff1681526020019081526020016000206000600181526020019081526020016000208190555064121beab47160046000600260009054906101000a900473ffffffffffffffffffffffffffffffffffffffff1673ffffffffffffffffffffffffffffffffffffffff1673ffffffffffffffffffffffffffffffffffffffff1681526020019081526020016000206000600281526020019081526020016000208190555064121beab47160046000600260009054906101000a900473ffffffffffffffffffffffffffffffffffffffff1673ffffffffffffffffffffffffffffffffffffffff1673ffffffffffffffffffffffffffffffffffffffff1681526020019081526020016000206000600381526020019081526020016000208190555064121beab47160046000600260009054906101000a900473ffffffffffffffffffffffffffffffffffffffff1673ffffffffffffffffffffffffffffffffffffffff1673ffffffffffffffffffffffffffffffffffffffff1681526020019081526020016000206000600481526020019081526020016000208190555064121beab47160046000600260009054906101000a900473ffffffffffffffffffffffffffffffffffffffff1673ffffffffffffffffffffffffffffffffffffffff1673ffffffffffffffffffffffffffffffffffffffff1681526020019081526020016000206000600581526020019081526020016000208190555064121beab47160046000600260009054906101000a900473ffffffffffffffffffffffffffffffffffffffff1673ffffffffffffffffffffffffffffffffffffffff1673ffffffffffffffffffffffffffffffffffffffff1681526020019081526020016000206000600681526020019081526020016000208190555064121beab47160046000600260009054906101000a900473ffffffffffffffffffffffffffffffffffffffff1673ffffffffffffffffffffffffffffffffffffffff1673ffffffffffffffffffffffffffffffffffffffff1681526020019081526020016000206000600781526020019081526020016000208190555064121beab47160046000600260009054906101000a900473ffffffffffffffffffffffffffffffffffffffff1673ffffffffffffffffffffffffffffffffffffffff1673ffffffffffffffffffffffffffffffffffffffff168152602001908152602001600020600060088152602001908152602001600020819055505062000964565b6040518060c0016040528060001515815260200160008152602001600081526020016000815260200160008152602001606081525090565b828054828255906000526020600020908101928215620008ab579160200282015b82811115620008aa5782518260006101000a81548173ffffffffffffffffffffffffffffffffffffffff021916908373ffffffffffffffffffffffffffffffffffffffff1602179055509160200191906001019062000850565b5b509050620008ba9190620008be565b5090565b5b80821115620008d9576000816000905550600101620008bf565b5090565b6000819050919050565b6000620008f482620008dd565b91507fffffffffffffffffffffffffffffffffffffffffffffffffffffffffffffffff8214156200092a576200092962000935565b5b600182019050919050565b7f4e487b7100000000000000000000000000000000000000000000000000000000600052601160045260246000fd5b6143de80620009746000396000f3fe60806040526004361061014e5760003560e01c80638da5cb5b116100b6578063a87430ba1161006f578063a87430ba146104cc578063d0ebdbe71461050d578063d284007314610536578063dbd7d37f14610573578063f2fde38b146105b0578063f6838a72146105d95761015d565b80638da5cb5b146103a65780639335dcb7146103d15780639f4216e8146103fc578063a0be06f914610439578063a478656b14610464578063a4bb170d146104a15761015d565b806352fd9f131161010857806352fd9f13146102675780636f77926b146102a45780636f9fb98a146102e557806379378e301461031057806382367b2d1461034d5780638853b53e1461038a5761015d565b80625c33e114610162578063132c8c9b1461016c5780631e97ec94146101a95780633e89340f146101d4578063481c6a75146101ff5780634a4baa8f1461022a5761015d565b3661015d5761015b6105f5565b005b600080fd5b61016a6105f5565b005b34801561017857600080fd5b50610193600480360381019061018e91906136ac565b610949565b6040516101a09190613d73565b60405180910390f35b3480156101b557600080fd5b506101be61132f565b6040516101cb919061407e565b60405180910390f35b3480156101e057600080fd5b506101e96113e7565b6040516101f69190613db0565b60405180910390f35b34801561020b57600080fd5b506102146113fa565b6040516102219190613d73565b60405180910390f35b34801561023657600080fd5b50610251600480360381019061024c91906136ac565b611420565b60405161025e9190613d8e565b60405180910390f35b34801561027357600080fd5b5061028e600480360381019061028991906136d5565b6114f0565b60405161029b9190613db0565b60405180910390f35b3480156102b057600080fd5b506102cb60048036038101906102c691906136ac565b611715565b6040516102dc959493929190613dcb565b60405180910390f35b3480156102f157600080fd5b506102fa611901565b604051610307919061407e565b60405180910390f35b34801561031c57600080fd5b5061033760048036038101906103329190613776565b611909565b604051610344919061407e565b60405180910390f35b34801561035957600080fd5b50610374600480360381019061036f919061379f565b611921565b6040516103819190613db0565b60405180910390f35b6103a4600480360381019061039f9190613776565b611a64565b005b3480156103b257600080fd5b506103bb6122f5565b6040516103c89190613d73565b60405180910390f35b3480156103dd57600080fd5b506103e6612319565b6040516103f39190613d73565b60405180910390f35b34801561040857600080fd5b50610423600480360381019061041e9190613776565b61233f565b6040516104309190613d73565b60405180910390f35b34801561044557600080fd5b5061044e612372565b60405161045b919061407e565b60405180910390f35b34801561047057600080fd5b5061048b6004803603810190610486919061374d565b612378565b6040516104989190613db0565b60405180910390f35b3480156104ad57600080fd5b506104b66124bc565b6040516104c3919061407e565b60405180910390f35b3480156104d857600080fd5b506104f360048036038101906104ee91906136ac565b6124c2565b604051610504959493929190613dcb565b60405180910390f35b34801561051957600080fd5b50610534600480360381019061052f91906136ac565b612505565b005b34801561054257600080fd5b5061055d60048036038101906105589190613711565b61262f565b60405161056a919061407e565b60405180910390f35b34801561057f57600080fd5b5061059a60048036038101906105959190613711565b61268a565b6040516105a7919061407e565b60405180910390f35b3480156105bc57600080fd5b506105d760048036038101906105d291906136ac565b6126af565b005b6105f360048036038101906105ee9190613776565b612780565b005b600060036000600181526020019081526020016000205434141561061c5760019050610761565b6003600060028152602001908152602001600020543414156106415760029050610760565b600360006003815260200190815260200160002054341415610666576003905061075f565b60036000600481526020019081526020016000205434141561068b576004905061075e565b6003600060058152602001908152602001600020543414156106b0576005905061075d565b6003600060068152602001908152602001600020543414156106d5576006905061075c565b6003600060078152602001908152602001600020543414156106fa576007905061075b565b60036000600881526020019081526020016000205434141561071f576008905061075a565b6040517f08c379a000000000000000000000000000000000000000000000000000000000815260040161075190613f5e565b60405180910390fd5b5b5b5b5b5b5b5b600560003373ffffffffffffffffffffffffffffffffffffffff1673ffffffffffffffffffffffffffffffffffffffff16815260200190815260200160002060000160009054906101000a900460ff16156107c4576107bf81612780565b610946565b600181141561090a5760008061081e6000368080601f016020809104026020016040519081016040528093929190818152602001838380828437600081840152601f19601f82011690508083019250505050505050612c22565b9050600560008273ffffffffffffffffffffffffffffffffffffffff1673ffffffffffffffffffffffffffffffffffffffff16815260200190815260200160002060000160009054906101000a900460ff16156108bf57600560008273ffffffffffffffffffffffffffffffffffffffff1673ffffffffffffffffffffffffffffffffffffffff1681526020019081526020016000206001015491506108fa565b6040517f08c379a00000000000000000000000000000000000000000000000000000000081526004016108f190613f7e565b60405180910390fd5b61090382611a64565b5050610945565b6040517f08c379a000000000000000000000000000000000000000000000000000000000815260040161093c90613f1e565b60405180910390fd5b5b50565b6000600954600560008473ffffffffffffffffffffffffffffffffffffffff1673ffffffffffffffffffffffffffffffffffffffff1681526020019081526020016000206005018054905010156109a25781905061132a565b600061016b67ffffffffffffffff8111156109e6577f4e487b7100000000000000000000000000000000000000000000000000000000600052604160045260246000fd5b604051908082528060200260200182016040528015610a145781602001602082028036833780820191505090505b509050600560008473ffffffffffffffffffffffffffffffffffffffff1673ffffffffffffffffffffffffffffffffffffffff168152602001908152602001600020600501600081548110610a92577f4e487b7100000000000000000000000000000000000000000000000000000000600052603260045260246000fd5b9060005260206000200160009054906101000a900473ffffffffffffffffffffffffffffffffffffffff1681600081518110610af7577f4e487b7100000000000000000000000000000000000000000000000000000000600052603260045260246000fd5b602002602001019073ffffffffffffffffffffffffffffffffffffffff16908173ffffffffffffffffffffffffffffffffffffffff1681525050600560008473ffffffffffffffffffffffffffffffffffffffff1673ffffffffffffffffffffffffffffffffffffffff168152602001908152602001600020600501600181548110610bac577f4e487b7100000000000000000000000000000000000000000000000000000000600052603260045260246000fd5b9060005260206000200160009054906101000a900473ffffffffffffffffffffffffffffffffffffffff1681600181518110610c11577f4e487b7100000000000000000000000000000000000000000000000000000000600052603260045260246000fd5b602002602001019073ffffffffffffffffffffffffffffffffffffffff16908173ffffffffffffffffffffffffffffffffffffffff1681525050600560008473ffffffffffffffffffffffffffffffffffffffff1673ffffffffffffffffffffffffffffffffffffffff168152602001908152602001600020600501600281548110610cc6577f4e487b7100000000000000000000000000000000000000000000000000000000600052603260045260246000fd5b9060005260206000200160009054906101000a900473ffffffffffffffffffffffffffffffffffffffff1681600281518110610d2b577f4e487b7100000000000000000000000000000000000000000000000000000000600052603260045260246000fd5b602002602001019073ffffffffffffffffffffffffffffffffffffffff16908173ffffffffffffffffffffffffffffffffffffffff16815250506000806001905060005b61016b8110156112e15760095460056000868481518110610db9577f4e487b7100000000000000000000000000000000000000000000000000000000600052603260045260246000fd5b602002602001015173ffffffffffffffffffffffffffffffffffffffff1673ffffffffffffffffffffffffffffffffffffffff16815260200190815260200160002060050180549050141561128257607881101561127d5760056000858381518110610e4e577f4e487b7100000000000000000000000000000000000000000000000000000000600052603260045260246000fd5b602002602001015173ffffffffffffffffffffffffffffffffffffffff1673ffffffffffffffffffffffffffffffffffffffff168152602001908152602001600020600501600081548110610ecc577f4e487b7100000000000000000000000000000000000000000000000000000000600052603260045260246000fd5b9060005260206000200160009054906101000a900473ffffffffffffffffffffffffffffffffffffffff16846003600184610f07919061410c565b610f119190614193565b81518110610f48577f4e487b7100000000000000000000000000000000000000000000000000000000600052603260045260246000fd5b602002602001019073ffffffffffffffffffffffffffffffffffffffff16908173ffffffffffffffffffffffffffffffffffffffff168152505060056000858381518110610fbf577f4e487b7100000000000000000000000000000000000000000000000000000000600052603260045260246000fd5b602002602001015173ffffffffffffffffffffffffffffffffffffffff1673ffffffffffffffffffffffffffffffffffffffff16815260200190815260200160002060050160018154811061103d577f4e487b7100000000000000000000000000000000000000000000000000000000600052603260045260246000fd5b9060005260206000200160009054906101000a900473ffffffffffffffffffffffffffffffffffffffff16846001600360018561107a919061410c565b6110849190614193565b61108e919061410c565b815181106110c5577f4e487b7100000000000000000000000000000000000000000000000000000000600052603260045260246000fd5b602002602001019073ffffffffffffffffffffffffffffffffffffffff16908173ffffffffffffffffffffffffffffffffffffffff16815250506005600085838151811061113c577f4e487b7100000000000000000000000000000000000000000000000000000000600052603260045260246000fd5b602002602001015173ffffffffffffffffffffffffffffffffffffffff1673ffffffffffffffffffffffffffffffffffffffff1681526020019081526020016000206005016002815481106111ba577f4e487b7100000000000000000000000000000000000000000000000000000000600052603260045260246000fd5b9060005260206000200160009054906101000a900473ffffffffffffffffffffffffffffffffffffffff1684600260036001856111f7919061410c565b6112019190614193565b61120b919061410c565b81518110611242577f4e487b7100000000000000000000000000000000000000000000000000000000600052603260045260246000fd5b602002602001019073ffffffffffffffffffffffffffffffffffffffff16908173ffffffffffffffffffffffffffffffffffffffff16815250505b6112ce565b600091508381815181106112bf577f4e487b7100000000000000000000000000000000000000000000000000000000600052603260045260246000fd5b602002602001015192506112e1565b80806112d9906142a5565b915050610d6f565b508015611323576040517f08c379a000000000000000000000000000000000000000000000000000000000815260040161131a9061401e565b60405180910390fd5b8193505050505b919050565b6000806000600190505b60075481116113df576113ca600560006006600085815260200190815260200160002060009054906101000a900473ffffffffffffffffffffffffffffffffffffffff1673ffffffffffffffffffffffffffffffffffffffff1673ffffffffffffffffffffffffffffffffffffffff1681526020019081526020016000206004015483612c3090919063ffffffff16565b915080806113d7906142a5565b915050611339565b508091505090565b600b60009054906101000a900460ff1681565b600160009054906101000a900473ffffffffffffffffffffffffffffffffffffffff1681565b6060600560008373ffffffffffffffffffffffffffffffffffffffff1673ffffffffffffffffffffffffffffffffffffffff1681526020019081526020016000206005018054806020026020016040519081016040528092919081815260200182805480156114e457602002820191906000526020600020905b8160009054906101000a900473ffffffffffffffffffffffffffffffffffffffff1673ffffffffffffffffffffffffffffffffffffffff168152602001906001019080831161149a575b50505050509050919050565b60008060009054906101000a900473ffffffffffffffffffffffffffffffffffffffff1673ffffffffffffffffffffffffffffffffffffffff163373ffffffffffffffffffffffffffffffffffffffff1614611581576040517f08c379a000000000000000000000000000000000000000000000000000000000815260040161157890613e5e565b60405180910390fd5b600260009054906101000a900473ffffffffffffffffffffffffffffffffffffffff1673ffffffffffffffffffffffffffffffffffffffff163373ffffffffffffffffffffffffffffffffffffffff1614611611576040517f08c379a00000000000000000000000000000000000000000000000000000000081526004016116089061403e565b60405180910390fd5b600073ffffffffffffffffffffffffffffffffffffffff168373ffffffffffffffffffffffffffffffffffffffff161415611681576040517f08c379a000000000000000000000000000000000000000000000000000000000815260040161167890613ffe565b60405180910390fd5b814710156116c4576040517f08c379a00000000000000000000000000000000000000000000000000000000081526004016116bb90613ebe565b60405180910390fd5b8273ffffffffffffffffffffffffffffffffffffffff166108fc839081150290604051600060405180830381858888f1935050505015801561170a573d6000803e3d6000fd5b506001905092915050565b6000806000806000801515600560008873ffffffffffffffffffffffffffffffffffffffff1673ffffffffffffffffffffffffffffffffffffffff16815260200190815260200160002060000160009054906101000a900460ff16151514156117915760006007546000806000945094509450945094506118f8565b600560008773ffffffffffffffffffffffffffffffffffffffff1673ffffffffffffffffffffffffffffffffffffffff16815260200190815260200160002060000160009054906101000a900460ff16600560008873ffffffffffffffffffffffffffffffffffffffff1673ffffffffffffffffffffffffffffffffffffffff16815260200190815260200160002060010154600560008973ffffffffffffffffffffffffffffffffffffffff1673ffffffffffffffffffffffffffffffffffffffff16815260200190815260200160002060020154600560008a73ffffffffffffffffffffffffffffffffffffffff1673ffffffffffffffffffffffffffffffffffffffff16815260200190815260200160002060030154600560008b73ffffffffffffffffffffffffffffffffffffffff1673ffffffffffffffffffffffffffffffffffffffff16815260200190815260200160002060040154945094509450945094505b91939590929450565b600047905090565b60036020528060005260406000206000915090505481565b60008060009054906101000a900473ffffffffffffffffffffffffffffffffffffffff1673ffffffffffffffffffffffffffffffffffffffff163373ffffffffffffffffffffffffffffffffffffffff16146119b2576040517f08c379a00000000000000000000000000000000000000000000000000000000081526004016119a990613e5e565b60405180910390fd5b600260009054906101000a900473ffffffffffffffffffffffffffffffffffffffff1673ffffffffffffffffffffffffffffffffffffffff163373ffffffffffffffffffffffffffffffffffffffff1614611a42576040517f08c379a0000000000000000000000000000000000000000000000000000000008152600401611a399061405e565b60405180910390fd5b8160036000858152602001908152602001600020819055506001905092915050565b600560003373ffffffffffffffffffffffffffffffffffffffff1673ffffffffffffffffffffffffffffffffffffffff16815260200190815260200160002060000160009054906101000a900460ff1615611af4576040517f08c379a0000000000000000000000000000000000000000000000000000000008152600401611aeb90613e7e565b60405180910390fd5b60001515600b60009054906101000a900460ff16151514611b4a576040517f08c379a0000000000000000000000000000000000000000000000000000000008152600401611b4190613f3e565b60405180910390fd5b600081118015611b5c57506007548111155b611b9b576040517f08c379a0000000000000000000000000000000000000000000000000000000008152600401611b9290613e3e565b60405180910390fd5b6003600060018152602001908152602001600020543414611bf1576040517f08c379a0000000000000000000000000000000000000000000000000000000008152600401611be890613e1e565b60405180910390fd5b600954600560006006600085815260200190815260200160002060009054906101000a900473ffffffffffffffffffffffffffffffffffffffff1673ffffffffffffffffffffffffffffffffffffffff1673ffffffffffffffffffffffffffffffffffffffff1681526020019081526020016000206005018054905010611cf35760056000611cb26006600085815260200190815260200160002060009054906101000a900473ffffffffffffffffffffffffffffffffffffffff16610949565b73ffffffffffffffffffffffffffffffffffffffff1673ffffffffffffffffffffffffffffffffffffffff1681526020019081526020016000206001015490505b611cfb613579565b60076000815480929190611d0e906142a5565b91905055506040518060c0016040528060011515815260200160075481526020018381526020016001815260200160008152602001600067ffffffffffffffff811115611d84577f4e487b7100000000000000000000000000000000000000000000000000000000600052604160045260246000fd5b604051908082528060200260200182016040528015611db25781602001602082028036833780820191505090505b50815250905080600560003373ffffffffffffffffffffffffffffffffffffffff1673ffffffffffffffffffffffffffffffffffffffff16815260200190815260200160002060008201518160000160006101000a81548160ff0219169083151502179055506020820151816001015560408201518160020155606082015181600301556080820151816004015560a0820151816005019080519060200190611e5c9291906135b1565b509050503360066000600754815260200190815260200160002060006101000a81548173ffffffffffffffffffffffffffffffffffffffff021916908373ffffffffffffffffffffffffffffffffffffffff160217905550600a5442611ec2919061410c565b600460003373ffffffffffffffffffffffffffffffffffffffff1673ffffffffffffffffffffffffffffffffffffffff168152602001908152602001600020600060018152602001908152602001600020819055506000600460003373ffffffffffffffffffffffffffffffffffffffff1673ffffffffffffffffffffffffffffffffffffffff168152602001908152602001600020600060028152602001908152602001600020819055506000600460003373ffffffffffffffffffffffffffffffffffffffff1673ffffffffffffffffffffffffffffffffffffffff168152602001908152602001600020600060038152602001908152602001600020819055506000600460003373ffffffffffffffffffffffffffffffffffffffff1673ffffffffffffffffffffffffffffffffffffffff168152602001908152602001600020600060048152602001908152602001600020819055506000600460003373ffffffffffffffffffffffffffffffffffffffff1673ffffffffffffffffffffffffffffffffffffffff168152602001908152602001600020600060058152602001908152602001600020819055506000600460003373ffffffffffffffffffffffffffffffffffffffff1673ffffffffffffffffffffffffffffffffffffffff168152602001908152602001600020600060068152602001908152602001600020819055506000600460003373ffffffffffffffffffffffffffffffffffffffff1673ffffffffffffffffffffffffffffffffffffffff168152602001908152602001600020600060078152602001908152602001600020819055506000600460003373ffffffffffffffffffffffffffffffffffffffff1673ffffffffffffffffffffffffffffffffffffffff16815260200190815260200160002060006008815260200190815260200160002081905550600560006006600085815260200190815260200160002060009054906101000a900473ffffffffffffffffffffffffffffffffffffffff1673ffffffffffffffffffffffffffffffffffffffff1673ffffffffffffffffffffffffffffffffffffffff168152602001908152602001600020600501339080600181540180825580915050600190039060005260206000200160009091909190916101000a81548173ffffffffffffffffffffffffffffffffffffffff021916908373ffffffffffffffffffffffffffffffffffffffff160217905550612259600133612c82565b6006600083815260200190815260200160002060009054906101000a900473ffffffffffffffffffffffffffffffffffffffff1673ffffffffffffffffffffffffffffffffffffffff163373ffffffffffffffffffffffffffffffffffffffff167f788c06d2405ae89dd3f0528d38be7691289474d72176408bc2c2406dc5e342f1426040516122e9919061407e565b60405180910390a35050565b60008054906101000a900473ffffffffffffffffffffffffffffffffffffffff1681565b600260009054906101000a900473ffffffffffffffffffffffffffffffffffffffff1681565b60066020528060005260406000206000915054906101000a900473ffffffffffffffffffffffffffffffffffffffff1681565b60085481565b60008060009054906101000a900473ffffffffffffffffffffffffffffffffffffffff1673ffffffffffffffffffffffffffffffffffffffff163373ffffffffffffffffffffffffffffffffffffffff1614612409576040517f08c379a000000000000000000000000000000000000000000000000000000000815260040161240090613e5e565b60405180910390fd5b600260009054906101000a900473ffffffffffffffffffffffffffffffffffffffff1673ffffffffffffffffffffffffffffffffffffffff163373ffffffffffffffffffffffffffffffffffffffff1614612499576040517f08c379a000000000000000000000000000000000000000000000000000000000815260040161249090613e9e565b60405180910390fd5b81600b60006101000a81548160ff02191690831515021790555060019050919050565b60075481565b60056020528060005260406000206000915090508060000160009054906101000a900460ff16908060010154908060020154908060030154908060040154905085565b60008054906101000a900473ffffffffffffffffffffffffffffffffffffffff1673ffffffffffffffffffffffffffffffffffffffff163373ffffffffffffffffffffffffffffffffffffffff1614806125ac5750600160009054906101000a900473ffffffffffffffffffffffffffffffffffffffff1673ffffffffffffffffffffffffffffffffffffffff163373ffffffffffffffffffffffffffffffffffffffff16145b6125eb576040517f08c379a00000000000000000000000000000000000000000000000000000000081526004016125e290613fde565b60405180910390fd5b80600160006101000a81548173ffffffffffffffffffffffffffffffffffffffff021916908373ffffffffffffffffffffffffffffffffffffffff16021790555050565b6000600460008473ffffffffffffffffffffffffffffffffffffffff1673ffffffffffffffffffffffffffffffffffffffff168152602001908152602001600020600083815260200190815260200160002054905092915050565b6004602052816000526040600020602052806000526040600020600091509150505481565b60008054906101000a900473ffffffffffffffffffffffffffffffffffffffff1673ffffffffffffffffffffffffffffffffffffffff163373ffffffffffffffffffffffffffffffffffffffff161461273d576040517f08c379a000000000000000000000000000000000000000000000000000000000815260040161273490613e5e565b60405180910390fd5b806000806101000a81548173ffffffffffffffffffffffffffffffffffffffff021916908373ffffffffffffffffffffffffffffffffffffffff16021790555050565b600560003373ffffffffffffffffffffffffffffffffffffffff1673ffffffffffffffffffffffffffffffffffffffff16815260200190815260200160002060000160009054906101000a900460ff1661280f576040517f08c379a000000000000000000000000000000000000000000000000000000000815260040161280690613f9e565b60405180910390fd5b60001515600b60009054906101000a900460ff16151514612865576040517f08c379a000000000000000000000000000000000000000000000000000000000815260040161285c90613f3e565b60405180910390fd5b600081118015612876575060088111155b6128b5576040517f08c379a00000000000000000000000000000000000000000000000000000000081526004016128ac90613efe565b60405180910390fd5b6001811415612983576003600060018152602001908152602001600020543414612914576040517f08c379a000000000000000000000000000000000000000000000000000000000815260040161290b90613e1e565b60405180910390fd5b600a54600460003373ffffffffffffffffffffffffffffffffffffffff1673ffffffffffffffffffffffffffffffffffffffff1681526020019081526020016000206000600181526020019081526020016000206000828254612977919061410c565b92505081905550612bc5565b600360008281526020019081526020016000205434146129d8576040517f08c379a00000000000000000000000000000000000000000000000000000000081526004016129cf90613e1e565b60405180910390fd5b60006001826129e791906141ed565b90505b6000811115612a995742600460003373ffffffffffffffffffffffffffffffffffffffff1673ffffffffffffffffffffffffffffffffffffffff1681526020019081526020016000206000838152602001908152602001600020541015612a86576040517f08c379a0000000000000000000000000000000000000000000000000000000008152600401612a7d90613ede565b60405180910390fd5b8080612a919061427b565b9150506129ea565b506000600460003373ffffffffffffffffffffffffffffffffffffffff1673ffffffffffffffffffffffffffffffffffffffff1681526020019081526020016000206000838152602001908152602001600020541415612b5a57600a5442612b01919061410c565b600460003373ffffffffffffffffffffffffffffffffffffffff1673ffffffffffffffffffffffffffffffffffffffff168152602001908152602001600020600083815260200190815260200160002081905550612bc4565b600a54600460003373ffffffffffffffffffffffffffffffffffffffff1673ffffffffffffffffffffffffffffffffffffffff16815260200190815260200160002060008381526020019081526020016000206000828254612bbc919061410c565b925050819055505b5b612bcf8133612c82565b3373ffffffffffffffffffffffffffffffffffffffff167f9ea70f0eb33d898c3336ecf2c0e3cf1c0195c13ad3fbcb34447777dbfd5ff2d08242604051612c17929190614099565b60405180910390a250565b600060148201519050919050565b6000808284612c3f919061410c565b905083811015612c78577f4e487b7100000000000000000000000000000000000000000000000000000000600052600160045260246000fd5b8091505092915050565b6000806000806001861480612c975750600586145b15612d195760066000600560008873ffffffffffffffffffffffffffffffffffffffff1673ffffffffffffffffffffffffffffffffffffffff16815260200190815260200160002060020154815260200190815260200160002060009054906101000a900473ffffffffffffffffffffffffffffffffffffffff16935061319b565b6002861480612d285750600686145b15612e225760066000600560008873ffffffffffffffffffffffffffffffffffffffff1673ffffffffffffffffffffffffffffffffffffffff16815260200190815260200160002060020154815260200190815260200160002060009054906101000a900473ffffffffffffffffffffffffffffffffffffffff16925060066000600560008673ffffffffffffffffffffffffffffffffffffffff1673ffffffffffffffffffffffffffffffffffffffff16815260200190815260200160002060020154815260200190815260200160002060009054906101000a900473ffffffffffffffffffffffffffffffffffffffff16935061319a565b6003861480612e315750600786145b15612fa35760066000600560008873ffffffffffffffffffffffffffffffffffffffff1673ffffffffffffffffffffffffffffffffffffffff16815260200190815260200160002060020154815260200190815260200160002060009054906101000a900473ffffffffffffffffffffffffffffffffffffffff16925060066000600560008673ffffffffffffffffffffffffffffffffffffffff1673ffffffffffffffffffffffffffffffffffffffff16815260200190815260200160002060020154815260200190815260200160002060009054906101000a900473ffffffffffffffffffffffffffffffffffffffff16915060066000600560008573ffffffffffffffffffffffffffffffffffffffff1673ffffffffffffffffffffffffffffffffffffffff16815260200190815260200160002060020154815260200190815260200160002060009054906101000a900473ffffffffffffffffffffffffffffffffffffffff169350613199565b6004861480612fb25750600886145b156131985760066000600560008873ffffffffffffffffffffffffffffffffffffffff1673ffffffffffffffffffffffffffffffffffffffff16815260200190815260200160002060020154815260200190815260200160002060009054906101000a900473ffffffffffffffffffffffffffffffffffffffff16925060066000600560008673ffffffffffffffffffffffffffffffffffffffff1673ffffffffffffffffffffffffffffffffffffffff16815260200190815260200160002060020154815260200190815260200160002060009054906101000a900473ffffffffffffffffffffffffffffffffffffffff16915060066000600560008573ffffffffffffffffffffffffffffffffffffffff1673ffffffffffffffffffffffffffffffffffffffff16815260200190815260200160002060020154815260200190815260200160002060009054906101000a900473ffffffffffffffffffffffffffffffffffffffff16905060066000600560008473ffffffffffffffffffffffffffffffffffffffff1673ffffffffffffffffffffffffffffffffffffffff16815260200190815260200160002060020154815260200190815260200160002060009054906101000a900473ffffffffffffffffffffffffffffffffffffffff1693505b5b5b5b600560008573ffffffffffffffffffffffffffffffffffffffff1673ffffffffffffffffffffffffffffffffffffffff16815260200190815260200160002060000160009054906101000a900460ff1661322757600660006001815260200190815260200160002060009054906101000a900473ffffffffffffffffffffffffffffffffffffffff1693505b42600460008673ffffffffffffffffffffffffffffffffffffffff1673ffffffffffffffffffffffffffffffffffffffff168152602001908152602001600020600088815260200190815260200160002054106134305760006132c368056bc75e2d631000006132b5600854600360008c8152602001908152602001600020546134aa90919063ffffffff16565b61351190919063ffffffff16565b905060006132ed82600360008b81526020019081526020016000205461352c90919063ffffffff16565b90508573ffffffffffffffffffffffffffffffffffffffff166108fc829081150290604051600060405180830381858888f1935050505080156133835750600260009054906101000a900473ffffffffffffffffffffffffffffffffffffffff1673ffffffffffffffffffffffffffffffffffffffff166108fc839081150290604051600060405180830381858888f193505050505b6133c2576040517f08c379a00000000000000000000000000000000000000000000000000000000081526004016133b990613fbe565b60405180910390fd5b3373ffffffffffffffffffffffffffffffffffffffff168673ffffffffffffffffffffffffffffffffffffffff167fce7dc747411ac40191c5335943fcc79d8c2d8c01ca5ae83d9fed160409fa61208a42604051613421929190614099565b60405180910390a350506134a2565b3373ffffffffffffffffffffffffffffffffffffffff168473ffffffffffffffffffffffffffffffffffffffff167f7df0f6bac5c770af7783500bb7f1c0d073adb11316004ba6f9f6c704af1a1aea884260405161348f929190614099565b60405180910390a36134a18685612c82565b5b505050505050565b60008082846134b99190614193565b905060008414806134d457508284826134d29190614162565b145b613507577f4e487b7100000000000000000000000000000000000000000000000000000000600052600160045260246000fd5b8091505092915050565b60008082846135209190614162565b90508091505092915050565b600082821115613565577f4e487b7100000000000000000000000000000000000000000000000000000000600052600160045260246000fd5b818361357191906141ed565b905092915050565b6040518060c0016040528060001515815260200160008152602001600081526020016000815260200160008152602001606081525090565b82805482825590600052602060002090810192821561362a579160200282015b828111156136295782518260006101000a81548173ffffffffffffffffffffffffffffffffffffffff021916908373ffffffffffffffffffffffffffffffffffffffff160217905550916020019190600101906135d1565b5b509050613637919061363b565b5090565b5b8082111561365457600081600090555060010161363c565b5090565b6000813590506136678161434c565b92915050565b60008135905061367c81614363565b92915050565b6000813590506136918161437a565b92915050565b6000813590506136a681614391565b92915050565b6000602082840312156136be57600080fd5b60006136cc84828501613658565b91505092915050565b600080604083850312156136e857600080fd5b60006136f68582860161366d565b925050602061370785828601613697565b9150509250929050565b6000806040838503121561372457600080fd5b600061373285828601613658565b925050602061374385828601613697565b9150509250929050565b60006020828403121561375f57600080fd5b600061376d84828501613682565b91505092915050565b60006020828403121561378857600080fd5b600061379684828501613697565b91505092915050565b600080604083850312156137b257600080fd5b60006137c085828601613697565b92505060206137d185828601613697565b9150509250929050565b60006137e783836137f3565b60208301905092915050565b6137fc81614221565b82525050565b61380b81614221565b82525050565b600061381c826140d2565b61382681856140ea565b9350613831836140c2565b8060005b8381101561386257815161384988826137db565b9750613854836140dd565b925050600181019050613835565b5085935050505092915050565b61387881614245565b82525050565b600061388b600f836140fb565b91507f496e636f72726563742056616c756500000000000000000000000000000000006000830152602082019050919050565b60006138cb6015836140fb565b91507f496e636f727265637420726566657272657220496400000000000000000000006000830152602082019050919050565b600061390b600e836140fb565b91507f6f6e6c7920666f72206f776e65720000000000000000000000000000000000006000830152602082019050919050565b600061394b600a836140fb565b91507f55736572206578697374000000000000000000000000000000000000000000006000830152602082019050919050565b600061398b600c836140fb565b91507f496e76616c6964205573657200000000000000000000000000000000000000006000830152602082019050919050565b60006139cb6014836140fb565b91507f496e73756666696369656e742062616c616e63650000000000000000000000006000830152602082019050919050565b6000613a0b6016836140fb565b91507f427579207468652070726576696f7573206c6576656c000000000000000000006000830152602082019050919050565b6000613a4b600f836140fb565b91507f496e636f7272656374206c6576656c00000000000000000000000000000000006000830152602082019050919050565b6000613a8b6023836140fb565b91507f506c6561736520627579206669727374206c6576656c20666f7220302e30352060008301527f45544800000000000000000000000000000000000000000000000000000000006020830152604082019050919050565b6000613af1600f836140fb565b91507f436f6e7472616374204c6f636b656400000000000000000000000000000000006000830152602082019050919050565b6000613b316014836140fb565b91507f496e636f72726563742056616c75652073656e640000000000000000000000006000830152602082019050919050565b6000613b716012836140fb565b91507f496e636f727265637420726566657272657200000000000000000000000000006000830152602082019050919050565b6000613bb1600e836140fb565b91507f55736572206e6f742065786973740000000000000000000000000000000000006000830152602082019050919050565b6000613bf16013836140fb565b91507f5472616e73616374696f6e204661696c757265000000000000000000000000006000830152602082019050919050565b6000613c316019836140fb565b91507f6f6e6c7920666f72206f776e6572206f72206d616e61676572000000000000006000830152602082019050919050565b6000613c71600f836140fb565b91507f496e76616c6964204164647265737300000000000000000000000000000000006000830152602082019050919050565b6000613cb16010836140fb565b91507f4e6f2046726565205265666572726572000000000000000000000000000000006000830152602082019050919050565b6000613cf16011836140fb565b91507f6f6e6c79204f776e65722057616c6c65740000000000000000000000000000006000830152602082019050919050565b6000613d316010836140fb565b91507f6f6e6c79204f776e657257616c6c6574000000000000000000000000000000006000830152602082019050919050565b613d6d81614271565b82525050565b6000602082019050613d886000830184613802565b92915050565b60006020820190508181036000830152613da88184613811565b905092915050565b6000602082019050613dc5600083018461386f565b92915050565b600060a082019050613de0600083018861386f565b613ded6020830187613d64565b613dfa6040830186613d64565b613e076060830185613d64565b613e146080830184613d64565b9695505050505050565b60006020820190508181036000830152613e378161387e565b9050919050565b60006020820190508181036000830152613e57816138be565b9050919050565b60006020820190508181036000830152613e77816138fe565b9050919050565b60006020820190508181036000830152613e978161393e565b9050919050565b60006020820190508181036000830152613eb78161397e565b9050919050565b60006020820190508181036000830152613ed7816139be565b9050919050565b60006020820190508181036000830152613ef7816139fe565b9050919050565b60006020820190508181036000830152613f1781613a3e565b9050919050565b60006020820190508181036000830152613f3781613a7e565b9050919050565b60006020820190508181036000830152613f5781613ae4565b9050919050565b60006020820190508181036000830152613f7781613b24565b9050919050565b60006020820190508181036000830152613f9781613b64565b9050919050565b60006020820190508181036000830152613fb781613ba4565b9050919050565b60006020820190508181036000830152613fd781613be4565b9050919050565b60006020820190508181036000830152613ff781613c24565b9050919050565b6000602082019050818103600083015261401781613c64565b9050919050565b6000602082019050818103600083015261403781613ca4565b9050919050565b6000602082019050818103600083015261405781613ce4565b9050919050565b6000602082019050818103600083015261407781613d24565b9050919050565b60006020820190506140936000830184613d64565b92915050565b60006040820190506140ae6000830185613d64565b6140bb6020830184613d64565b9392505050565b6000819050602082019050919050565b600081519050919050565b6000602082019050919050565b600082825260208201905092915050565b600082825260208201905092915050565b600061411782614271565b915061412283614271565b9250827fffffffffffffffffffffffffffffffffffffffffffffffffffffffffffffffff03821115614157576141566142ee565b5b828201905092915050565b600061416d82614271565b915061417883614271565b9250826141885761418761431d565b5b828204905092915050565b600061419e82614271565b91506141a983614271565b9250817fffffffffffffffffffffffffffffffffffffffffffffffffffffffffffffffff04831182151516156141e2576141e16142ee565b5b828202905092915050565b60006141f882614271565b915061420383614271565b925082821015614216576142156142ee565b5b828203905092915050565b600061422c82614251565b9050919050565b600061423e82614251565b9050919050565b60008115159050919050565b600073ffffffffffffffffffffffffffffffffffffffff82169050919050565b6000819050919050565b600061428682614271565b9150600082141561429a576142996142ee565b5b600182039050919050565b60006142b082614271565b91507fffffffffffffffffffffffffffffffffffffffffffffffffffffffffffffffff8214156142e3576142e26142ee565b5b600182019050919050565b7f4e487b7100000000000000000000000000000000000000000000000000000000600052601160045260246000fd5b7f4e487b7100000000000000000000000000000000000000000000000000000000600052601260045260246000fd5b61435581614221565b811461436057600080fd5b50565b61436c81614233565b811461437757600080fd5b50565b61438381614245565b811461438e57600080fd5b50565b61439a81614271565b81146143a557600080fd5b5056fea2646970667358221220a99c3b2e55c9f0438b8a523631efd67ee19d5d7a340af19078db70eec2a18ae864736f6c63430008000033",
  "immutableReferences": {},
  "source": "// SPDX-License-Identifier: UNLICENSED\npragma solidity ^0.8.0;\n\n\nlibrary SafeMath {\n\n  function mul(uint256 a, uint256 b) internal pure returns (uint256) {\n    uint256 c = a * b;\n    assert(a == 0 || c / a == b);\n    return c;\n  }\n\n  function div(uint256 a, uint256 b) internal pure returns (uint256) {\n    uint256 c = a / b;\n    return c;\n  }\n\n  function sub(uint256 a, uint256 b) internal pure returns (uint256) {\n    assert(b <= a);\n    return a - b;\n  }\n\n  function add(uint256 a, uint256 b) internal pure returns (uint256) {\n    uint256 c = a + b;\n    assert(c >= a);\n    return c;\n  }\n\n}\n\n\ncontract Ownable {\n\n  address public owner;\n  address public manager;\n  address public ownerWallet;\n\n  constructor() {\n    owner = msg.sender;\n    manager = msg.sender;\n    ownerWallet = msg.sender;\n  }\n\n  modifier onlyOwner() {\n    require(msg.sender == owner, \"only for owner\");\n    _;\n  }\n\n  modifier onlyOwnerOrManager() {\n     require((msg.sender == owner)||(msg.sender == manager), \"only for owner or manager\");\n      _;\n  }\n\n  function transferOwnership(address newOwner) public onlyOwner {\n    owner = newOwner;\n  }\n\n  function setManager(address _manager) public onlyOwnerOrManager {\n      manager = _manager;\n  }\n}\n\n\ncontract FreedomUnlimited is Ownable {\n    using SafeMath for uint256;\n    \n    event regLevelEvent(address indexed _user, address indexed _referrer, uint _time);\n    event buyLevelEvent(address indexed _user, uint _level, uint _time);\n    event prolongateLevelEvent(address indexed _user, uint _level, uint _time);\n    event getMoneyForLevelEvent(address indexed _user, address indexed _referral, uint _level, uint _time);\n    event lostMoneyForLevelEvent(address indexed _user, address indexed _referral, uint _level, uint _time);\n\n    struct UserStruct {\n        bool isExist;\n        uint id;\n        uint referrerID;\n        uint currentLevel;\n        uint totalEarningEth;\n        address[] referral;\n    }\n\n    mapping (uint => uint) public LEVEL_PRICE;\n    mapping (address => mapping(uint => uint)) public levelExpired;\n    mapping (address => UserStruct) public users;\n    mapping (uint => address) public userList;\n    uint public currUserID = 0;\n    uint public adminFee = 16 ether;\n    uint REFERRER_1_LEVEL_LIMIT = 3;\n    uint PERIOD_LENGTH = 30 days;\n    bool public lockStatus;\n\n    constructor() {\n\n        LEVEL_PRICE[1] = 0.05 ether;\n        LEVEL_PRICE[2] = 0.15 ether;\n        LEVEL_PRICE[3] = 0.45 ether;\n        LEVEL_PRICE[4] = 1.35 ether;\n        LEVEL_PRICE[5] = 4.05 ether;\n        LEVEL_PRICE[6] = 12.15 ether;\n        LEVEL_PRICE[7] = 36.45 ether;\n        LEVEL_PRICE[8] = 109.35 ether;\n\n        UserStruct memory userStruct;\n        currUserID++;\n\n        userStruct = UserStruct({\n            isExist : true,\n            id : currUserID,\n            referrerID : 0,\n            currentLevel : 8,\n            totalEarningEth : 0,\n            referral : new address[](0)\n        });\n        users[ownerWallet] = userStruct;\n        userList[currUserID] = ownerWallet;\n\n        levelExpired[ownerWallet][1] = 77777777777;\n        levelExpired[ownerWallet][2] = 77777777777;\n        levelExpired[ownerWallet][3] = 77777777777;\n        levelExpired[ownerWallet][4] = 77777777777;\n        levelExpired[ownerWallet][5] = 77777777777;\n        levelExpired[ownerWallet][6] = 77777777777;\n        levelExpired[ownerWallet][7] = 77777777777;\n        levelExpired[ownerWallet][8] = 77777777777;\n    }\n\n    receive () external payable {\n        receiveFunds();\n    }\n\n    /**\n     * @dev receive funds if not calling on regUser or buyLevel this is called when funds sent directly to contract. \n     */ \n    function receiveFunds() public payable {\n        uint level;\n\n        if(msg.value == LEVEL_PRICE[1]){\n            level = 1;\n        }else if(msg.value == LEVEL_PRICE[2]){\n            level = 2;\n        }else if(msg.value == LEVEL_PRICE[3]){\n            level = 3;\n        }else if(msg.value == LEVEL_PRICE[4]){\n            level = 4;\n        }else if(msg.value == LEVEL_PRICE[5]){\n            level = 5;\n        }else if(msg.value == LEVEL_PRICE[6]){\n            level = 6;\n        }else if(msg.value == LEVEL_PRICE[7]){\n            level = 7;\n        }else if(msg.value == LEVEL_PRICE[8]){\n            level = 8;\n        }else {\n            revert('Incorrect Value send');\n        }\n\n        if(users[msg.sender].isExist){\n            buyLevel(level);\n        } else if(level == 1) {\n            uint refId = 0;\n            address referrer = bytesToAddress(msg.data);\n\n            if (users[referrer].isExist){\n                refId = users[referrer].id;\n            } else {\n                revert('Incorrect referrer');\n            }\n\n            regUser(refId);\n        } else {\n            revert(\"Please buy first level for 0.05 ETH\");\n        }\n    }\n\n    /**\n     * @dev register new user into system\n     */ \n    function regUser(uint _referrerID) public payable {\n        require(!users[msg.sender].isExist, 'User exist');\n        require(lockStatus == false, \"Contract Locked\");\n        require(_referrerID > 0 && _referrerID <= currUserID, 'Incorrect referrer Id');\n\n        require(msg.value==LEVEL_PRICE[1], 'Incorrect Value');\n\n\n        if(users[userList[_referrerID]].referral.length >= REFERRER_1_LEVEL_LIMIT)\n        {\n            _referrerID = users[findFreeReferrer(userList[_referrerID])].id;\n        }\n\n\n        UserStruct memory userStruct;\n        currUserID++;\n\n        userStruct = UserStruct({\n            isExist : true,\n            id : currUserID,\n            referrerID : _referrerID,\n            currentLevel : 1,\n            totalEarningEth : 0,\n            referral : new address[](0)\n        });\n\n        users[msg.sender] = userStruct;\n        userList[currUserID] = msg.sender;\n\n        levelExpired[msg.sender][1] = block.timestamp + PERIOD_LENGTH;\n        levelExpired[msg.sender][2] = 0;\n        levelExpired[msg.sender][3] = 0;\n        levelExpired[msg.sender][4] = 0;\n        levelExpired[msg.sender][5] = 0;\n        levelExpired[msg.sender][6] = 0;\n        levelExpired[msg.sender][7] = 0;\n        levelExpired[msg.sender][8] = 0;\n\n        users[userList[_referrerID]].referral.push(msg.sender);\n\n        payForLevel(1, msg.sender);\n\n        emit regLevelEvent(msg.sender, userList[_referrerID], block.timestamp);\n    }\n\n    /**\n     * @dev buy into next level up\n     */ \n    function buyLevel(uint _level) public payable {\n        require(users[msg.sender].isExist, 'User not exist');\n        require(lockStatus == false, \"Contract Locked\");\n        require( _level>0 && _level<=8, 'Incorrect level');\n\n        if(_level == 1){\n            require(msg.value==LEVEL_PRICE[1], 'Incorrect Value');\n            levelExpired[msg.sender][1] += PERIOD_LENGTH;\n        } else {\n            require(msg.value==LEVEL_PRICE[_level], 'Incorrect Value');\n\n            for(uint l =_level-1; l>0; l-- ){\n                require(levelExpired[msg.sender][l] >= block.timestamp, 'Buy the previous level');\n            }\n\n            if(levelExpired[msg.sender][_level] == 0){\n                levelExpired[msg.sender][_level] = block.timestamp + PERIOD_LENGTH;\n            } else {\n                levelExpired[msg.sender][_level] += PERIOD_LENGTH;\n            }\n        }\n        payForLevel(_level, msg.sender);\n        emit buyLevelEvent(msg.sender, _level, block.timestamp);\n    }\n\n    /**\n     * @dev pay for level increase in inclusion\n     */ \n    function payForLevel(uint _level, address _user) internal {\n\n        address referer;\n        address referer1;\n        address referer2;\n        address referer3;\n        if(_level == 1 || _level == 5){\n            referer = userList[users[_user].referrerID];\n        } else if(_level == 2 || _level == 6){\n            referer1 = userList[users[_user].referrerID];\n            referer = userList[users[referer1].referrerID];\n        } else if(_level == 3 || _level == 7){\n            referer1 = userList[users[_user].referrerID];\n            referer2 = userList[users[referer1].referrerID];\n            referer = userList[users[referer2].referrerID];\n        } else if(_level == 4 || _level == 8){\n            referer1 = userList[users[_user].referrerID];\n            referer2 = userList[users[referer1].referrerID];\n            referer3 = userList[users[referer2].referrerID];\n            referer = userList[users[referer3].referrerID];\n        }\n\n        if(!users[referer].isExist){\n            referer = userList[1];\n        }\n\n        if(levelExpired[referer][_level] >= block.timestamp ){\n            uint _adminFee = (LEVEL_PRICE[_level].mul(adminFee)).div(10**20); // 8000000000000000 wei level 1 or 0.008 ether\n            uint _referralPay = LEVEL_PRICE[_level].sub(_adminFee); // 42000000000000000 wei level 1 or 0.042 ether\n            require(payable(referer).send(_referralPay) && payable(ownerWallet).send(_adminFee), \"Transaction Failure\" ); \n            emit getMoneyForLevelEvent(referer, msg.sender, _level, block.timestamp);\n        } else {\n            emit lostMoneyForLevelEvent(referer, msg.sender, _level, block.timestamp);\n            payForLevel(_level,referer);\n        }\n    }\n\n    /**\n     * @dev view free referrer address if available else return user address\n     */ \n    function findFreeReferrer(address _user) public view returns(address) {\n        if(users[_user].referral.length < REFERRER_1_LEVEL_LIMIT){\n            return _user;\n        }\n\n        address[] memory referrals = new address[](363);\n        referrals[0] = users[_user].referral[0]; \n        referrals[1] = users[_user].referral[1];\n        referrals[2] = users[_user].referral[2];\n\n        address freeReferrer;\n        bool noFreeReferrer = true;\n\n        for(uint i =0; i<363;i++){\n            if(users[referrals[i]].referral.length == REFERRER_1_LEVEL_LIMIT){\n                if(i<120){\n                    referrals[(i+1)*3] = users[referrals[i]].referral[0];\n                    referrals[(i+1)*3+1] = users[referrals[i]].referral[1];\n                    referrals[(i+1)*3+2] = users[referrals[i]].referral[2];\n                }\n            }else{\n                noFreeReferrer = false;\n                freeReferrer = referrals[i];\n                break;\n            }\n        }\n        require(!noFreeReferrer, 'No Free Referrer');\n        return freeReferrer;\n\n    }\n\n    /**\n     * @dev view referrals for user\n     */ \n    function viewUserReferral(address _user) public view returns(address[] memory) {\n        return users[_user].referral;\n    }\n\n    /**\n     * @dev view level expired at for address\n     */ \n    function viewUserLevelExpired(address _user, uint _level) public view returns(uint) {\n        return levelExpired[_user][_level];\n    }\n    \n    /**\n     * @dev convert byte to address\n     */ \n    function bytesToAddress(bytes memory bys) private pure returns (address  addr ) {\n        assembly {\n            addr := mload(add(bys, 20))\n        }\n    }\n    \n    /**\n     * @dev Contract balance withdraw\n     */ \n    function failSafe(address payable _toUser, uint _amount) public onlyOwner returns (bool) {\n        require(msg.sender == ownerWallet, \"only Owner Wallet\");\n        require(_toUser != address(0), \"Invalid Address\");\n        require(address(this).balance >= _amount, \"Insufficient balance\");\n\n        (_toUser).transfer(_amount);\n        return true;\n    }\n    \n    /**\n     * @dev Update level price\n     */ \n    function updatePrice(uint _level, uint _price) public onlyOwner returns (bool) {\n        require(msg.sender == ownerWallet, \"only OwnerWallet\");\n\n        LEVEL_PRICE[_level] = _price;\n        return true;\n    }\n\n    /**\n     * @dev Update contract status\n     */ \n    function contractLock(bool _lockStatus) public onlyOwner returns (bool) {\n        require(msg.sender == ownerWallet, \"Invalid User\");\n\n        lockStatus = _lockStatus;\n        return true;\n    }\n    \n    /**\n     * @dev Total earned ETH\n     */\n    function getTotalEarnedEther() public view returns (uint) {\n        uint totalEth;\n        for (uint i = 1; i <= currUserID; i++) {\n            totalEth = totalEth.add(users[userList[i]].totalEarningEth);\n        }\n        return totalEth;\n    }\n\n    /**\n     * @dev get user at address\n     */\n    function getUser(address _user) public view returns (bool, uint, uint, uint, uint) {\n        if(users[_user].isExist == false) {\n            return(false, currUserID, 0, 0, 0);\n        } else {\n            return(users[_user].isExist, users[_user].id, users[_user].referrerID, users[_user].currentLevel, users[_user].totalEarningEth);\n        }\n    }\n\n    /**\n     * @dev get contract balance    \n     */\n    function getContractBalance() public view returns (uint) {\n        return address(this).balance;\n    }\n}",
  "sourcePath": "/Users/adufres/TDG/BlockChain/FU/f-u/contracts/FreedomUnlimited.sol",
  "compiler": {
    "name": "solc",
    "version": "0.8.0+commit.c7dfd78e.Emscripten.clang"
  },
  "schemaVersion": "3.4.1",
  "updatedAt": "2021-10-23T03:47:37.831Z",
  "devdoc": {
    "kind": "dev",
    "methods": {
      "buyLevel(uint256)": {
        "details": "buy into next level up"
      },
      "contractLock(bool)": {
        "details": "Update contract status"
      },
      "failSafe(address,uint256)": {
        "details": "Contract balance withdraw"
      },
      "findFreeReferrer(address)": {
        "details": "view free referrer address if available else return user address"
      },
      "getContractBalance()": {
        "details": "get contract balance    "
      },
      "getTotalEarnedEther()": {
        "details": "Total earned ETH"
      },
      "getUser(address)": {
        "details": "get user at address"
      },
      "receiveFunds()": {
        "details": "receive funds if not calling on regUser or buyLevel this is called when funds sent directly to contract. "
      },
      "regUser(uint256)": {
        "details": "register new user into system"
      },
      "updatePrice(uint256,uint256)": {
        "details": "Update level price"
      },
      "viewUserLevelExpired(address,uint256)": {
        "details": "view level expired at for address"
      },
      "viewUserReferral(address)": {
        "details": "view referrals for user"
      }
    },
    "version": 1
  },
  "userdoc": {
    "kind": "user",
    "methods": {},
    "version": 1
  }
}