{
  "contractName": "FreedomUnlimited",
  "abi": [
    {
      "inputs": [],
      "stateMutability": "nonpayable",
      "type": "constructor"
    },
    {
      "anonymous": false,
      "inputs": [
        {
          "indexed": true,
          "internalType": "address",
          "name": "_user",
          "type": "address"
        },
        {
          "indexed": false,
          "internalType": "uint256",
          "name": "_level",
          "type": "uint256"
        },
        {
          "indexed": false,
          "internalType": "uint256",
          "name": "_time",
          "type": "uint256"
        }
      ],
      "name": "buyLevelEvent",
      "type": "event"
    },
    {
      "anonymous": false,
      "inputs": [
        {
          "indexed": true,
          "internalType": "address",
          "name": "_user",
          "type": "address"
        },
        {
          "indexed": true,
          "internalType": "address",
          "name": "_referral",
          "type": "address"
        },
        {
          "indexed": false,
          "internalType": "uint256",
          "name": "_level",
          "type": "uint256"
        },
        {
          "indexed": false,
          "internalType": "uint256",
          "name": "_time",
          "type": "uint256"
        }
      ],
      "name": "getMoneyForLevelEvent",
      "type": "event"
    },
    {
      "anonymous": false,
      "inputs": [
        {
          "indexed": true,
          "internalType": "address",
          "name": "_user",
          "type": "address"
        },
        {
          "indexed": true,
          "internalType": "address",
          "name": "_referral",
          "type": "address"
        },
        {
          "indexed": false,
          "internalType": "uint256",
          "name": "_level",
          "type": "uint256"
        },
        {
          "indexed": false,
          "internalType": "uint256",
          "name": "_time",
          "type": "uint256"
        }
      ],
      "name": "lostMoneyForLevelEvent",
      "type": "event"
    },
    {
      "anonymous": false,
      "inputs": [
        {
          "indexed": true,
          "internalType": "address",
          "name": "_user",
          "type": "address"
        },
        {
          "indexed": false,
          "internalType": "uint256",
          "name": "_level",
          "type": "uint256"
        },
        {
          "indexed": false,
          "internalType": "uint256",
          "name": "_time",
          "type": "uint256"
        }
      ],
      "name": "prolongateLevelEvent",
      "type": "event"
    },
    {
      "anonymous": false,
      "inputs": [
        {
          "indexed": true,
          "internalType": "address",
          "name": "_user",
          "type": "address"
        },
        {
          "indexed": true,
          "internalType": "address",
          "name": "_referrer",
          "type": "address"
        },
        {
          "indexed": false,
          "internalType": "uint256",
          "name": "_time",
          "type": "uint256"
        }
      ],
      "name": "regLevelEvent",
      "type": "event"
    },
    {
      "inputs": [
        {
          "internalType": "uint256",
          "name": "",
          "type": "uint256"
        }
      ],
      "name": "LEVEL_PRICE",
      "outputs": [
        {
          "internalType": "uint256",
          "name": "",
          "type": "uint256"
        }
      ],
      "stateMutability": "view",
      "type": "function",
      "constant": true
    },
    {
      "inputs": [],
      "name": "adminFee",
      "outputs": [
        {
          "internalType": "uint256",
          "name": "",
          "type": "uint256"
        }
      ],
      "stateMutability": "view",
      "type": "function",
      "constant": true
    },
    {
      "inputs": [],
      "name": "currUserID",
      "outputs": [
        {
          "internalType": "uint256",
          "name": "",
          "type": "uint256"
        }
      ],
      "stateMutability": "view",
      "type": "function",
      "constant": true
    },
    {
      "inputs": [
        {
          "internalType": "address",
          "name": "",
          "type": "address"
        },
        {
          "internalType": "uint256",
          "name": "",
          "type": "uint256"
        }
      ],
      "name": "levelExpired",
      "outputs": [
        {
          "internalType": "uint256",
          "name": "",
          "type": "uint256"
        }
      ],
      "stateMutability": "view",
      "type": "function",
      "constant": true
    },
    {
      "inputs": [],
      "name": "lockStatus",
      "outputs": [
        {
          "internalType": "bool",
          "name": "",
          "type": "bool"
        }
      ],
      "stateMutability": "view",
      "type": "function",
      "constant": true
    },
    {
      "inputs": [],
      "name": "manager",
      "outputs": [
        {
          "internalType": "address",
          "name": "",
          "type": "address"
        }
      ],
      "stateMutability": "view",
      "type": "function",
      "constant": true
    },
    {
      "inputs": [],
      "name": "owner",
      "outputs": [
        {
          "internalType": "address",
          "name": "",
          "type": "address"
        }
      ],
      "stateMutability": "view",
      "type": "function",
      "constant": true
    },
    {
      "inputs": [],
      "name": "ownerWallet",
      "outputs": [
        {
          "internalType": "address",
          "name": "",
          "type": "address"
        }
      ],
      "stateMutability": "view",
      "type": "function",
      "constant": true
    },
    {
      "inputs": [
        {
          "internalType": "address",
          "name": "_manager",
          "type": "address"
        }
      ],
      "name": "setManager",
      "outputs": [],
      "stateMutability": "nonpayable",
      "type": "function"
    },
    {
      "inputs": [
        {
          "internalType": "address",
          "name": "newOwner",
          "type": "address"
        }
      ],
      "name": "transferOwnership",
      "outputs": [],
      "stateMutability": "nonpayable",
      "type": "function"
    },
    {
      "inputs": [
        {
          "internalType": "uint256",
          "name": "",
          "type": "uint256"
        }
      ],
      "name": "userList",
      "outputs": [
        {
          "internalType": "address",
          "name": "",
          "type": "address"
        }
      ],
      "stateMutability": "view",
      "type": "function",
      "constant": true
    },
    {
      "inputs": [
        {
          "internalType": "address",
          "name": "",
          "type": "address"
        }
      ],
      "name": "users",
      "outputs": [
        {
          "internalType": "bool",
          "name": "isExist",
          "type": "bool"
        },
        {
          "internalType": "uint256",
          "name": "id",
          "type": "uint256"
        },
        {
          "internalType": "uint256",
          "name": "referrerID",
          "type": "uint256"
        },
        {
          "internalType": "uint256",
          "name": "currentLevel",
          "type": "uint256"
        },
        {
          "internalType": "uint256",
          "name": "totalEarningEth",
          "type": "uint256"
        }
      ],
      "stateMutability": "view",
      "type": "function",
      "constant": true
    },
    {
      "stateMutability": "payable",
      "type": "receive",
      "payable": true
    },
    {
      "inputs": [],
      "name": "receiveFunds",
      "outputs": [],
      "stateMutability": "payable",
      "type": "function",
      "payable": true
    },
    {
      "inputs": [
        {
          "internalType": "uint256",
          "name": "_referrerID",
          "type": "uint256"
        }
      ],
      "name": "regUser",
      "outputs": [],
      "stateMutability": "payable",
      "type": "function",
      "payable": true
    },
    {
      "inputs": [
        {
          "internalType": "uint256",
          "name": "_level",
          "type": "uint256"
        }
      ],
      "name": "buyLevel",
      "outputs": [],
      "stateMutability": "payable",
      "type": "function",
      "payable": true
    },
    {
      "inputs": [
        {
          "internalType": "address",
          "name": "_user",
          "type": "address"
        }
      ],
      "name": "findFreeReferrer",
      "outputs": [
        {
          "internalType": "address",
          "name": "",
          "type": "address"
        }
      ],
      "stateMutability": "view",
      "type": "function",
      "constant": true
    },
    {
      "inputs": [
        {
          "internalType": "address",
          "name": "_user",
          "type": "address"
        }
      ],
      "name": "viewUserReferral",
      "outputs": [
        {
          "internalType": "address[]",
          "name": "",
          "type": "address[]"
        }
      ],
      "stateMutability": "view",
      "type": "function",
      "constant": true
    },
    {
      "inputs": [
        {
          "internalType": "address",
          "name": "_user",
          "type": "address"
        },
        {
          "internalType": "uint256",
          "name": "_level",
          "type": "uint256"
        }
      ],
      "name": "viewUserLevelExpired",
      "outputs": [
        {
          "internalType": "uint256",
          "name": "",
          "type": "uint256"
        }
      ],
      "stateMutability": "view",
      "type": "function",
      "constant": true
    },
    {
      "inputs": [
        {
          "internalType": "address payable",
          "name": "_toUser",
          "type": "address"
        },
        {
          "internalType": "uint256",
          "name": "_amount",
          "type": "uint256"
        }
      ],
      "name": "failSafe",
      "outputs": [
        {
          "internalType": "bool",
          "name": "",
          "type": "bool"
        }
      ],
      "stateMutability": "nonpayable",
      "type": "function"
    },
    {
      "inputs": [
        {
          "internalType": "uint256",
          "name": "_level",
          "type": "uint256"
        },
        {
          "internalType": "uint256",
          "name": "_price",
          "type": "uint256"
        }
      ],
      "name": "updatePrice",
      "outputs": [
        {
          "internalType": "bool",
          "name": "",
          "type": "bool"
        }
      ],
      "stateMutability": "nonpayable",
      "type": "function"
    },
    {
      "inputs": [
        {
          "internalType": "bool",
          "name": "_lockStatus",
          "type": "bool"
        }
      ],
      "name": "contractLock",
      "outputs": [
        {
          "internalType": "bool",
          "name": "",
          "type": "bool"
        }
      ],
      "stateMutability": "nonpayable",
      "type": "function"
    },
    {
      "inputs": [],
      "name": "getTotalEarnedEther",
      "outputs": [
        {
          "internalType": "uint256",
          "name": "",
          "type": "uint256"
        }
      ],
      "stateMutability": "view",
      "type": "function",
      "constant": true
    },
    {
      "inputs": [
        {
          "internalType": "address",
          "name": "_user",
          "type": "address"
        }
      ],
      "name": "getUser",
      "outputs": [
        {
          "internalType": "bool",
          "name": "",
          "type": "bool"
        },
        {
          "internalType": "uint256",
          "name": "",
          "type": "uint256"
        },
        {
          "internalType": "uint256",
          "name": "",
          "type": "uint256"
        },
        {
          "internalType": "uint256",
          "name": "",
          "type": "uint256"
        },
        {
          "internalType": "uint256",
          "name": "",
          "type": "uint256"
        }
      ],
      "stateMutability": "view",
      "type": "function",
      "constant": true
    },
    {
      "inputs": [],
      "name": "getContractBalance",
      "outputs": [
        {
          "internalType": "uint256",
          "name": "",
          "type": "uint256"
        }
      ],
      "stateMutability": "view",
      "type": "function",
      "constant": true
    }
  ],
  "bytecode": "0x6080604052600060075567de0b6b3a76400000600855600360095562278d00600a553480156200002e57600080fd5b50336000806101000a81548173ffffffffffffffffffffffffffffffffffffffff021916908373ffffffffffffffffffffffffffffffffffffffff16021790555033600160006101000a81548173ffffffffffffffffffffffffffffffffffffffff021916908373ffffffffffffffffffffffffffffffffffffffff16021790555033600260006101000a81548173ffffffffffffffffffffffffffffffffffffffff021916908373ffffffffffffffffffffffffffffffffffffffff16021790555066b1a2bc2ec50000600360006001815260200190815260200160002081905550670214e8348c4f000060036000600281526020019081526020016000208190555067063eb89da4ed00006003600060038152602001908152602001600020819055506712bc29d8eec700006003600060048152602001908152602001600020819055506738347d8acc55000060036000600581526020019081526020016000208190555067a89d78a064ff00006003600060068152602001908152602001600020819055506801f9d869e12efd00006003600060078152602001908152602001600020819055506805ed893da38cf7000060036000600881526020019081526020016000208190555062000204620007f7565b600760008154809291906200021990620008e7565b91905055506040518060c001604052806001151581526020016007548152602001600081526020016008815260200160008152602001600067ffffffffffffffff81111562000291577f4e487b7100000000000000000000000000000000000000000000000000000000600052604160045260246000fd5b604051908082528060200260200182016040528015620002c05781602001602082028036833780820191505090505b5081525090508060056000600260009054906101000a900473ffffffffffffffffffffffffffffffffffffffff1673ffffffffffffffffffffffffffffffffffffffff1673ffffffffffffffffffffffffffffffffffffffff16815260200190815260200160002060008201518160000160006101000a81548160ff0219169083151502179055506020820151816001015560408201518160020155606082015181600301556080820151816004015560a08201518160050190805190602001906200038e9291906200082f565b50905050600260009054906101000a900473ffffffffffffffffffffffffffffffffffffffff1660066000600754815260200190815260200160002060006101000a81548173ffffffffffffffffffffffffffffffffffffffff021916908373ffffffffffffffffffffffffffffffffffffffff16021790555064121beab47160046000600260009054906101000a900473ffffffffffffffffffffffffffffffffffffffff1673ffffffffffffffffffffffffffffffffffffffff1673ffffffffffffffffffffffffffffffffffffffff1681526020019081526020016000206000600181526020019081526020016000208190555064121beab47160046000600260009054906101000a900473ffffffffffffffffffffffffffffffffffffffff1673ffffffffffffffffffffffffffffffffffffffff1673ffffffffffffffffffffffffffffffffffffffff1681526020019081526020016000206000600281526020019081526020016000208190555064121beab47160046000600260009054906101000a900473ffffffffffffffffffffffffffffffffffffffff1673ffffffffffffffffffffffffffffffffffffffff1673ffffffffffffffffffffffffffffffffffffffff1681526020019081526020016000206000600381526020019081526020016000208190555064121beab47160046000600260009054906101000a900473ffffffffffffffffffffffffffffffffffffffff1673ffffffffffffffffffffffffffffffffffffffff1673ffffffffffffffffffffffffffffffffffffffff1681526020019081526020016000206000600481526020019081526020016000208190555064121beab47160046000600260009054906101000a900473ffffffffffffffffffffffffffffffffffffffff1673ffffffffffffffffffffffffffffffffffffffff1673ffffffffffffffffffffffffffffffffffffffff1681526020019081526020016000206000600581526020019081526020016000208190555064121beab47160046000600260009054906101000a900473ffffffffffffffffffffffffffffffffffffffff1673ffffffffffffffffffffffffffffffffffffffff1673ffffffffffffffffffffffffffffffffffffffff1681526020019081526020016000206000600681526020019081526020016000208190555064121beab47160046000600260009054906101000a900473ffffffffffffffffffffffffffffffffffffffff1673ffffffffffffffffffffffffffffffffffffffff1673ffffffffffffffffffffffffffffffffffffffff1681526020019081526020016000206000600781526020019081526020016000208190555064121beab47160046000600260009054906101000a900473ffffffffffffffffffffffffffffffffffffffff1673ffffffffffffffffffffffffffffffffffffffff1673ffffffffffffffffffffffffffffffffffffffff168152602001908152602001600020600060088152602001908152602001600020819055505062000964565b6040518060c0016040528060001515815260200160008152602001600081526020016000815260200160008152602001606081525090565b828054828255906000526020600020908101928215620008ab579160200282015b82811115620008aa5782518260006101000a81548173ffffffffffffffffffffffffffffffffffffffff021916908373ffffffffffffffffffffffffffffffffffffffff1602179055509160200191906001019062000850565b5b509050620008ba9190620008be565b5090565b5b80821115620008d9576000816000905550600101620008bf565b5090565b6000819050919050565b6000620008f482620008dd565b91507fffffffffffffffffffffffffffffffffffffffffffffffffffffffffffffffff8214156200092a576200092962000935565b5b600182019050919050565b7f4e487b7100000000000000000000000000000000000000000000000000000000600052601160045260246000fd5b61440c80620009746000396000f3fe60806040526004361061014e5760003560e01c80638da5cb5b116100b6578063a87430ba1161006f578063a87430ba146104cc578063d0ebdbe71461050d578063d284007314610536578063dbd7d37f14610573578063f2fde38b146105b0578063f6838a72146105d95761015d565b80638da5cb5b146103a65780639335dcb7146103d15780639f4216e8146103fc578063a0be06f914610439578063a478656b14610464578063a4bb170d146104a15761015d565b806352fd9f131161010857806352fd9f13146102675780636f77926b146102a45780636f9fb98a146102e557806379378e301461031057806382367b2d1461034d5780638853b53e1461038a5761015d565b80625c33e114610162578063132c8c9b1461016c5780631e97ec94146101a95780633e89340f146101d4578063481c6a75146101ff5780634a4baa8f1461022a5761015d565b3661015d5761015b6105f5565b005b600080fd5b61016a6105f5565b005b34801561017857600080fd5b50610193600480360381019061018e91906136da565b610949565b6040516101a09190613da1565b60405180910390f35b3480156101b557600080fd5b506101be61132f565b6040516101cb91906140ac565b60405180910390f35b3480156101e057600080fd5b506101e96113e7565b6040516101f69190613dde565b60405180910390f35b34801561020b57600080fd5b506102146113fa565b6040516102219190613da1565b60405180910390f35b34801561023657600080fd5b50610251600480360381019061024c91906136da565b611420565b60405161025e9190613dbc565b60405180910390f35b34801561027357600080fd5b5061028e60048036038101906102899190613703565b6114f0565b60405161029b9190613dde565b60405180910390f35b3480156102b057600080fd5b506102cb60048036038101906102c691906136da565b61172c565b6040516102dc959493929190613df9565b60405180910390f35b3480156102f157600080fd5b506102fa611918565b60405161030791906140ac565b60405180910390f35b34801561031c57600080fd5b50610337600480360381019061033291906137a4565b611937565b60405161034491906140ac565b60405180910390f35b34801561035957600080fd5b50610374600480360381019061036f91906137cd565b61194f565b6040516103819190613dde565b60405180910390f35b6103a4600480360381019061039f91906137a4565b611a92565b005b3480156103b257600080fd5b506103bb612323565b6040516103c89190613da1565b60405180910390f35b3480156103dd57600080fd5b506103e6612347565b6040516103f39190613da1565b60405180910390f35b34801561040857600080fd5b50610423600480360381019061041e91906137a4565b61236d565b6040516104309190613da1565b60405180910390f35b34801561044557600080fd5b5061044e6123a0565b60405161045b91906140ac565b60405180910390f35b34801561047057600080fd5b5061048b6004803603810190610486919061377b565b6123a6565b6040516104989190613dde565b60405180910390f35b3480156104ad57600080fd5b506104b66124ea565b6040516104c391906140ac565b60405180910390f35b3480156104d857600080fd5b506104f360048036038101906104ee91906136da565b6124f0565b604051610504959493929190613df9565b60405180910390f35b34801561051957600080fd5b50610534600480360381019061052f91906136da565b612533565b005b34801561054257600080fd5b5061055d6004803603810190610558919061373f565b61265d565b60405161056a91906140ac565b60405180910390f35b34801561057f57600080fd5b5061059a6004803603810190610595919061373f565b6126b8565b6040516105a791906140ac565b60405180910390f35b3480156105bc57600080fd5b506105d760048036038101906105d291906136da565b6126dd565b005b6105f360048036038101906105ee91906137a4565b6127ae565b005b600060036000600181526020019081526020016000205434141561061c5760019050610761565b6003600060028152602001908152602001600020543414156106415760029050610760565b600360006003815260200190815260200160002054341415610666576003905061075f565b60036000600481526020019081526020016000205434141561068b576004905061075e565b6003600060058152602001908152602001600020543414156106b0576005905061075d565b6003600060068152602001908152602001600020543414156106d5576006905061075c565b6003600060078152602001908152602001600020543414156106fa576007905061075b565b60036000600881526020019081526020016000205434141561071f576008905061075a565b6040517f08c379a000000000000000000000000000000000000000000000000000000000815260040161075190613f8c565b60405180910390fd5b5b5b5b5b5b5b5b600560003373ffffffffffffffffffffffffffffffffffffffff1673ffffffffffffffffffffffffffffffffffffffff16815260200190815260200160002060000160009054906101000a900460ff16156107c4576107bf816127ae565b610946565b600181141561090a5760008061081e6000368080601f016020809104026020016040519081016040528093929190818152602001838380828437600081840152601f19601f82011690508083019250505050505050612c50565b9050600560008273ffffffffffffffffffffffffffffffffffffffff1673ffffffffffffffffffffffffffffffffffffffff16815260200190815260200160002060000160009054906101000a900460ff16156108bf57600560008273ffffffffffffffffffffffffffffffffffffffff1673ffffffffffffffffffffffffffffffffffffffff1681526020019081526020016000206001015491506108fa565b6040517f08c379a00000000000000000000000000000000000000000000000000000000081526004016108f190613fac565b60405180910390fd5b61090382611a92565b5050610945565b6040517f08c379a000000000000000000000000000000000000000000000000000000000815260040161093c90613f4c565b60405180910390fd5b5b50565b6000600954600560008473ffffffffffffffffffffffffffffffffffffffff1673ffffffffffffffffffffffffffffffffffffffff1681526020019081526020016000206005018054905010156109a25781905061132a565b600061016b67ffffffffffffffff8111156109e6577f4e487b7100000000000000000000000000000000000000000000000000000000600052604160045260246000fd5b604051908082528060200260200182016040528015610a145781602001602082028036833780820191505090505b509050600560008473ffffffffffffffffffffffffffffffffffffffff1673ffffffffffffffffffffffffffffffffffffffff168152602001908152602001600020600501600081548110610a92577f4e487b7100000000000000000000000000000000000000000000000000000000600052603260045260246000fd5b9060005260206000200160009054906101000a900473ffffffffffffffffffffffffffffffffffffffff1681600081518110610af7577f4e487b7100000000000000000000000000000000000000000000000000000000600052603260045260246000fd5b602002602001019073ffffffffffffffffffffffffffffffffffffffff16908173ffffffffffffffffffffffffffffffffffffffff1681525050600560008473ffffffffffffffffffffffffffffffffffffffff1673ffffffffffffffffffffffffffffffffffffffff168152602001908152602001600020600501600181548110610bac577f4e487b7100000000000000000000000000000000000000000000000000000000600052603260045260246000fd5b9060005260206000200160009054906101000a900473ffffffffffffffffffffffffffffffffffffffff1681600181518110610c11577f4e487b7100000000000000000000000000000000000000000000000000000000600052603260045260246000fd5b602002602001019073ffffffffffffffffffffffffffffffffffffffff16908173ffffffffffffffffffffffffffffffffffffffff1681525050600560008473ffffffffffffffffffffffffffffffffffffffff1673ffffffffffffffffffffffffffffffffffffffff168152602001908152602001600020600501600281548110610cc6577f4e487b7100000000000000000000000000000000000000000000000000000000600052603260045260246000fd5b9060005260206000200160009054906101000a900473ffffffffffffffffffffffffffffffffffffffff1681600281518110610d2b577f4e487b7100000000000000000000000000000000000000000000000000000000600052603260045260246000fd5b602002602001019073ffffffffffffffffffffffffffffffffffffffff16908173ffffffffffffffffffffffffffffffffffffffff16815250506000806001905060005b61016b8110156112e15760095460056000868481518110610db9577f4e487b7100000000000000000000000000000000000000000000000000000000600052603260045260246000fd5b602002602001015173ffffffffffffffffffffffffffffffffffffffff1673ffffffffffffffffffffffffffffffffffffffff16815260200190815260200160002060050180549050141561128257607881101561127d5760056000858381518110610e4e577f4e487b7100000000000000000000000000000000000000000000000000000000600052603260045260246000fd5b602002602001015173ffffffffffffffffffffffffffffffffffffffff1673ffffffffffffffffffffffffffffffffffffffff168152602001908152602001600020600501600081548110610ecc577f4e487b7100000000000000000000000000000000000000000000000000000000600052603260045260246000fd5b9060005260206000200160009054906101000a900473ffffffffffffffffffffffffffffffffffffffff16846003600184610f07919061413a565b610f1191906141c1565b81518110610f48577f4e487b7100000000000000000000000000000000000000000000000000000000600052603260045260246000fd5b602002602001019073ffffffffffffffffffffffffffffffffffffffff16908173ffffffffffffffffffffffffffffffffffffffff168152505060056000858381518110610fbf577f4e487b7100000000000000000000000000000000000000000000000000000000600052603260045260246000fd5b602002602001015173ffffffffffffffffffffffffffffffffffffffff1673ffffffffffffffffffffffffffffffffffffffff16815260200190815260200160002060050160018154811061103d577f4e487b7100000000000000000000000000000000000000000000000000000000600052603260045260246000fd5b9060005260206000200160009054906101000a900473ffffffffffffffffffffffffffffffffffffffff16846001600360018561107a919061413a565b61108491906141c1565b61108e919061413a565b815181106110c5577f4e487b7100000000000000000000000000000000000000000000000000000000600052603260045260246000fd5b602002602001019073ffffffffffffffffffffffffffffffffffffffff16908173ffffffffffffffffffffffffffffffffffffffff16815250506005600085838151811061113c577f4e487b7100000000000000000000000000000000000000000000000000000000600052603260045260246000fd5b602002602001015173ffffffffffffffffffffffffffffffffffffffff1673ffffffffffffffffffffffffffffffffffffffff1681526020019081526020016000206005016002815481106111ba577f4e487b7100000000000000000000000000000000000000000000000000000000600052603260045260246000fd5b9060005260206000200160009054906101000a900473ffffffffffffffffffffffffffffffffffffffff1684600260036001856111f7919061413a565b61120191906141c1565b61120b919061413a565b81518110611242577f4e487b7100000000000000000000000000000000000000000000000000000000600052603260045260246000fd5b602002602001019073ffffffffffffffffffffffffffffffffffffffff16908173ffffffffffffffffffffffffffffffffffffffff16815250505b6112ce565b600091508381815181106112bf577f4e487b7100000000000000000000000000000000000000000000000000000000600052603260045260246000fd5b602002602001015192506112e1565b80806112d9906142d3565b915050610d6f565b508015611323576040517f08c379a000000000000000000000000000000000000000000000000000000000815260040161131a9061404c565b60405180910390fd5b8193505050505b919050565b6000806000600190505b60075481116113df576113ca600560006006600085815260200190815260200160002060009054906101000a900473ffffffffffffffffffffffffffffffffffffffff1673ffffffffffffffffffffffffffffffffffffffff1673ffffffffffffffffffffffffffffffffffffffff1681526020019081526020016000206004015483612c5e90919063ffffffff16565b915080806113d7906142d3565b915050611339565b508091505090565b600b60009054906101000a900460ff1681565b600160009054906101000a900473ffffffffffffffffffffffffffffffffffffffff1681565b6060600560008373ffffffffffffffffffffffffffffffffffffffff1673ffffffffffffffffffffffffffffffffffffffff1681526020019081526020016000206005018054806020026020016040519081016040528092919081815260200182805480156114e457602002820191906000526020600020905b8160009054906101000a900473ffffffffffffffffffffffffffffffffffffffff1673ffffffffffffffffffffffffffffffffffffffff168152602001906001019080831161149a575b50505050509050919050565b60008060009054906101000a900473ffffffffffffffffffffffffffffffffffffffff1673ffffffffffffffffffffffffffffffffffffffff163373ffffffffffffffffffffffffffffffffffffffff1614611581576040517f08c379a000000000000000000000000000000000000000000000000000000000815260040161157890613e8c565b60405180910390fd5b600260009054906101000a900473ffffffffffffffffffffffffffffffffffffffff1673ffffffffffffffffffffffffffffffffffffffff163373ffffffffffffffffffffffffffffffffffffffff1614611611576040517f08c379a00000000000000000000000000000000000000000000000000000000081526004016116089061406c565b60405180910390fd5b600073ffffffffffffffffffffffffffffffffffffffff168373ffffffffffffffffffffffffffffffffffffffff161415611681576040517f08c379a00000000000000000000000000000000000000000000000000000000081526004016116789061402c565b60405180910390fd5b813073ffffffffffffffffffffffffffffffffffffffff163110156116db576040517f08c379a00000000000000000000000000000000000000000000000000000000081526004016116d290613eec565b60405180910390fd5b8273ffffffffffffffffffffffffffffffffffffffff166108fc839081150290604051600060405180830381858888f19350505050158015611721573d6000803e3d6000fd5b506001905092915050565b6000806000806000801515600560008873ffffffffffffffffffffffffffffffffffffffff1673ffffffffffffffffffffffffffffffffffffffff16815260200190815260200160002060000160009054906101000a900460ff16151514156117a857600060075460008060009450945094509450945061190f565b600560008773ffffffffffffffffffffffffffffffffffffffff1673ffffffffffffffffffffffffffffffffffffffff16815260200190815260200160002060000160009054906101000a900460ff16600560008873ffffffffffffffffffffffffffffffffffffffff1673ffffffffffffffffffffffffffffffffffffffff16815260200190815260200160002060010154600560008973ffffffffffffffffffffffffffffffffffffffff1673ffffffffffffffffffffffffffffffffffffffff16815260200190815260200160002060020154600560008a73ffffffffffffffffffffffffffffffffffffffff1673ffffffffffffffffffffffffffffffffffffffff16815260200190815260200160002060030154600560008b73ffffffffffffffffffffffffffffffffffffffff1673ffffffffffffffffffffffffffffffffffffffff16815260200190815260200160002060040154945094509450945094505b91939590929450565b60003073ffffffffffffffffffffffffffffffffffffffff1631905090565b60036020528060005260406000206000915090505481565b60008060009054906101000a900473ffffffffffffffffffffffffffffffffffffffff1673ffffffffffffffffffffffffffffffffffffffff163373ffffffffffffffffffffffffffffffffffffffff16146119e0576040517f08c379a00000000000000000000000000000000000000000000000000000000081526004016119d790613e8c565b60405180910390fd5b600260009054906101000a900473ffffffffffffffffffffffffffffffffffffffff1673ffffffffffffffffffffffffffffffffffffffff163373ffffffffffffffffffffffffffffffffffffffff1614611a70576040517f08c379a0000000000000000000000000000000000000000000000000000000008152600401611a679061408c565b60405180910390fd5b8160036000858152602001908152602001600020819055506001905092915050565b600560003373ffffffffffffffffffffffffffffffffffffffff1673ffffffffffffffffffffffffffffffffffffffff16815260200190815260200160002060000160009054906101000a900460ff1615611b22576040517f08c379a0000000000000000000000000000000000000000000000000000000008152600401611b1990613eac565b60405180910390fd5b60001515600b60009054906101000a900460ff16151514611b78576040517f08c379a0000000000000000000000000000000000000000000000000000000008152600401611b6f90613f6c565b60405180910390fd5b600081118015611b8a57506007548111155b611bc9576040517f08c379a0000000000000000000000000000000000000000000000000000000008152600401611bc090613e6c565b60405180910390fd5b6003600060018152602001908152602001600020543414611c1f576040517f08c379a0000000000000000000000000000000000000000000000000000000008152600401611c1690613e4c565b60405180910390fd5b600954600560006006600085815260200190815260200160002060009054906101000a900473ffffffffffffffffffffffffffffffffffffffff1673ffffffffffffffffffffffffffffffffffffffff1673ffffffffffffffffffffffffffffffffffffffff1681526020019081526020016000206005018054905010611d215760056000611ce06006600085815260200190815260200160002060009054906101000a900473ffffffffffffffffffffffffffffffffffffffff16610949565b73ffffffffffffffffffffffffffffffffffffffff1673ffffffffffffffffffffffffffffffffffffffff1681526020019081526020016000206001015490505b611d296135a7565b60076000815480929190611d3c906142d3565b91905055506040518060c0016040528060011515815260200160075481526020018381526020016001815260200160008152602001600067ffffffffffffffff811115611db2577f4e487b7100000000000000000000000000000000000000000000000000000000600052604160045260246000fd5b604051908082528060200260200182016040528015611de05781602001602082028036833780820191505090505b50815250905080600560003373ffffffffffffffffffffffffffffffffffffffff1673ffffffffffffffffffffffffffffffffffffffff16815260200190815260200160002060008201518160000160006101000a81548160ff0219169083151502179055506020820151816001015560408201518160020155606082015181600301556080820151816004015560a0820151816005019080519060200190611e8a9291906135df565b509050503360066000600754815260200190815260200160002060006101000a81548173ffffffffffffffffffffffffffffffffffffffff021916908373ffffffffffffffffffffffffffffffffffffffff160217905550600a5442611ef0919061413a565b600460003373ffffffffffffffffffffffffffffffffffffffff1673ffffffffffffffffffffffffffffffffffffffff168152602001908152602001600020600060018152602001908152602001600020819055506000600460003373ffffffffffffffffffffffffffffffffffffffff1673ffffffffffffffffffffffffffffffffffffffff168152602001908152602001600020600060028152602001908152602001600020819055506000600460003373ffffffffffffffffffffffffffffffffffffffff1673ffffffffffffffffffffffffffffffffffffffff168152602001908152602001600020600060038152602001908152602001600020819055506000600460003373ffffffffffffffffffffffffffffffffffffffff1673ffffffffffffffffffffffffffffffffffffffff168152602001908152602001600020600060048152602001908152602001600020819055506000600460003373ffffffffffffffffffffffffffffffffffffffff1673ffffffffffffffffffffffffffffffffffffffff168152602001908152602001600020600060058152602001908152602001600020819055506000600460003373ffffffffffffffffffffffffffffffffffffffff1673ffffffffffffffffffffffffffffffffffffffff168152602001908152602001600020600060068152602001908152602001600020819055506000600460003373ffffffffffffffffffffffffffffffffffffffff1673ffffffffffffffffffffffffffffffffffffffff168152602001908152602001600020600060078152602001908152602001600020819055506000600460003373ffffffffffffffffffffffffffffffffffffffff1673ffffffffffffffffffffffffffffffffffffffff16815260200190815260200160002060006008815260200190815260200160002081905550600560006006600085815260200190815260200160002060009054906101000a900473ffffffffffffffffffffffffffffffffffffffff1673ffffffffffffffffffffffffffffffffffffffff1673ffffffffffffffffffffffffffffffffffffffff168152602001908152602001600020600501339080600181540180825580915050600190039060005260206000200160009091909190916101000a81548173ffffffffffffffffffffffffffffffffffffffff021916908373ffffffffffffffffffffffffffffffffffffffff160217905550612287600133612cb0565b6006600083815260200190815260200160002060009054906101000a900473ffffffffffffffffffffffffffffffffffffffff1673ffffffffffffffffffffffffffffffffffffffff163373ffffffffffffffffffffffffffffffffffffffff167f788c06d2405ae89dd3f0528d38be7691289474d72176408bc2c2406dc5e342f14260405161231791906140ac565b60405180910390a35050565b60008054906101000a900473ffffffffffffffffffffffffffffffffffffffff1681565b600260009054906101000a900473ffffffffffffffffffffffffffffffffffffffff1681565b60066020528060005260406000206000915054906101000a900473ffffffffffffffffffffffffffffffffffffffff1681565b60085481565b60008060009054906101000a900473ffffffffffffffffffffffffffffffffffffffff1673ffffffffffffffffffffffffffffffffffffffff163373ffffffffffffffffffffffffffffffffffffffff1614612437576040517f08c379a000000000000000000000000000000000000000000000000000000000815260040161242e90613e8c565b60405180910390fd5b600260009054906101000a900473ffffffffffffffffffffffffffffffffffffffff1673ffffffffffffffffffffffffffffffffffffffff163373ffffffffffffffffffffffffffffffffffffffff16146124c7576040517f08c379a00000000000000000000000000000000000000000000000000000000081526004016124be90613ecc565b60405180910390fd5b81600b60006101000a81548160ff02191690831515021790555060019050919050565b60075481565b60056020528060005260406000206000915090508060000160009054906101000a900460ff16908060010154908060020154908060030154908060040154905085565b60008054906101000a900473ffffffffffffffffffffffffffffffffffffffff1673ffffffffffffffffffffffffffffffffffffffff163373ffffffffffffffffffffffffffffffffffffffff1614806125da5750600160009054906101000a900473ffffffffffffffffffffffffffffffffffffffff1673ffffffffffffffffffffffffffffffffffffffff163373ffffffffffffffffffffffffffffffffffffffff16145b612619576040517f08c379a00000000000000000000000000000000000000000000000000000000081526004016126109061400c565b60405180910390fd5b80600160006101000a81548173ffffffffffffffffffffffffffffffffffffffff021916908373ffffffffffffffffffffffffffffffffffffffff16021790555050565b6000600460008473ffffffffffffffffffffffffffffffffffffffff1673ffffffffffffffffffffffffffffffffffffffff168152602001908152602001600020600083815260200190815260200160002054905092915050565b6004602052816000526040600020602052806000526040600020600091509150505481565b60008054906101000a900473ffffffffffffffffffffffffffffffffffffffff1673ffffffffffffffffffffffffffffffffffffffff163373ffffffffffffffffffffffffffffffffffffffff161461276b576040517f08c379a000000000000000000000000000000000000000000000000000000000815260040161276290613e8c565b60405180910390fd5b806000806101000a81548173ffffffffffffffffffffffffffffffffffffffff021916908373ffffffffffffffffffffffffffffffffffffffff16021790555050565b600560003373ffffffffffffffffffffffffffffffffffffffff1673ffffffffffffffffffffffffffffffffffffffff16815260200190815260200160002060000160009054906101000a900460ff1661283d576040517f08c379a000000000000000000000000000000000000000000000000000000000815260040161283490613fcc565b60405180910390fd5b60001515600b60009054906101000a900460ff16151514612893576040517f08c379a000000000000000000000000000000000000000000000000000000000815260040161288a90613f6c565b60405180910390fd5b6000811180156128a4575060088111155b6128e3576040517f08c379a00000000000000000000000000000000000000000000000000000000081526004016128da90613f2c565b60405180910390fd5b60018114156129b1576003600060018152602001908152602001600020543414612942576040517f08c379a000000000000000000000000000000000000000000000000000000000815260040161293990613e4c565b60405180910390fd5b600a54600460003373ffffffffffffffffffffffffffffffffffffffff1673ffffffffffffffffffffffffffffffffffffffff16815260200190815260200160002060006001815260200190815260200160002060008282546129a5919061413a565b92505081905550612bf3565b60036000828152602001908152602001600020543414612a06576040517f08c379a00000000000000000000000000000000000000000000000000000000081526004016129fd90613e4c565b60405180910390fd5b6000600182612a15919061421b565b90505b6000811115612ac75742600460003373ffffffffffffffffffffffffffffffffffffffff1673ffffffffffffffffffffffffffffffffffffffff1681526020019081526020016000206000838152602001908152602001600020541015612ab4576040517f08c379a0000000000000000000000000000000000000000000000000000000008152600401612aab90613f0c565b60405180910390fd5b8080612abf906142a9565b915050612a18565b506000600460003373ffffffffffffffffffffffffffffffffffffffff1673ffffffffffffffffffffffffffffffffffffffff1681526020019081526020016000206000838152602001908152602001600020541415612b8857600a5442612b2f919061413a565b600460003373ffffffffffffffffffffffffffffffffffffffff1673ffffffffffffffffffffffffffffffffffffffff168152602001908152602001600020600083815260200190815260200160002081905550612bf2565b600a54600460003373ffffffffffffffffffffffffffffffffffffffff1673ffffffffffffffffffffffffffffffffffffffff16815260200190815260200160002060008381526020019081526020016000206000828254612bea919061413a565b925050819055505b5b612bfd8133612cb0565b3373ffffffffffffffffffffffffffffffffffffffff167f9ea70f0eb33d898c3336ecf2c0e3cf1c0195c13ad3fbcb34447777dbfd5ff2d08242604051612c459291906140c7565b60405180910390a250565b600060148201519050919050565b6000808284612c6d919061413a565b905083811015612ca6577f4e487b7100000000000000000000000000000000000000000000000000000000600052600160045260246000fd5b8091505092915050565b6000806000806001861480612cc55750600586145b15612d475760066000600560008873ffffffffffffffffffffffffffffffffffffffff1673ffffffffffffffffffffffffffffffffffffffff16815260200190815260200160002060020154815260200190815260200160002060009054906101000a900473ffffffffffffffffffffffffffffffffffffffff1693506131c9565b6002861480612d565750600686145b15612e505760066000600560008873ffffffffffffffffffffffffffffffffffffffff1673ffffffffffffffffffffffffffffffffffffffff16815260200190815260200160002060020154815260200190815260200160002060009054906101000a900473ffffffffffffffffffffffffffffffffffffffff16925060066000600560008673ffffffffffffffffffffffffffffffffffffffff1673ffffffffffffffffffffffffffffffffffffffff16815260200190815260200160002060020154815260200190815260200160002060009054906101000a900473ffffffffffffffffffffffffffffffffffffffff1693506131c8565b6003861480612e5f5750600786145b15612fd15760066000600560008873ffffffffffffffffffffffffffffffffffffffff1673ffffffffffffffffffffffffffffffffffffffff16815260200190815260200160002060020154815260200190815260200160002060009054906101000a900473ffffffffffffffffffffffffffffffffffffffff16925060066000600560008673ffffffffffffffffffffffffffffffffffffffff1673ffffffffffffffffffffffffffffffffffffffff16815260200190815260200160002060020154815260200190815260200160002060009054906101000a900473ffffffffffffffffffffffffffffffffffffffff16915060066000600560008573ffffffffffffffffffffffffffffffffffffffff1673ffffffffffffffffffffffffffffffffffffffff16815260200190815260200160002060020154815260200190815260200160002060009054906101000a900473ffffffffffffffffffffffffffffffffffffffff1693506131c7565b6004861480612fe05750600886145b156131c65760066000600560008873ffffffffffffffffffffffffffffffffffffffff1673ffffffffffffffffffffffffffffffffffffffff16815260200190815260200160002060020154815260200190815260200160002060009054906101000a900473ffffffffffffffffffffffffffffffffffffffff16925060066000600560008673ffffffffffffffffffffffffffffffffffffffff1673ffffffffffffffffffffffffffffffffffffffff16815260200190815260200160002060020154815260200190815260200160002060009054906101000a900473ffffffffffffffffffffffffffffffffffffffff16915060066000600560008573ffffffffffffffffffffffffffffffffffffffff1673ffffffffffffffffffffffffffffffffffffffff16815260200190815260200160002060020154815260200190815260200160002060009054906101000a900473ffffffffffffffffffffffffffffffffffffffff16905060066000600560008473ffffffffffffffffffffffffffffffffffffffff1673ffffffffffffffffffffffffffffffffffffffff16815260200190815260200160002060020154815260200190815260200160002060009054906101000a900473ffffffffffffffffffffffffffffffffffffffff1693505b5b5b5b600560008573ffffffffffffffffffffffffffffffffffffffff1673ffffffffffffffffffffffffffffffffffffffff16815260200190815260200160002060000160009054906101000a900460ff1661325557600660006001815260200190815260200160002060009054906101000a900473ffffffffffffffffffffffffffffffffffffffff1693505b42600460008673ffffffffffffffffffffffffffffffffffffffff1673ffffffffffffffffffffffffffffffffffffffff1681526020019081526020016000206000888152602001908152602001600020541061345e5760006132f168056bc75e2d631000006132e3600854600360008c8152602001908152602001600020546134d890919063ffffffff16565b61353f90919063ffffffff16565b9050600061331b82600360008b81526020019081526020016000205461355a90919063ffffffff16565b90508573ffffffffffffffffffffffffffffffffffffffff166108fc829081150290604051600060405180830381858888f1935050505080156133b15750600260009054906101000a900473ffffffffffffffffffffffffffffffffffffffff1673ffffffffffffffffffffffffffffffffffffffff166108fc839081150290604051600060405180830381858888f193505050505b6133f0576040517f08c379a00000000000000000000000000000000000000000000000000000000081526004016133e790613fec565b60405180910390fd5b3373ffffffffffffffffffffffffffffffffffffffff168673ffffffffffffffffffffffffffffffffffffffff167fce7dc747411ac40191c5335943fcc79d8c2d8c01ca5ae83d9fed160409fa61208a4260405161344f9291906140c7565b60405180910390a350506134d0565b3373ffffffffffffffffffffffffffffffffffffffff168473ffffffffffffffffffffffffffffffffffffffff167f7df0f6bac5c770af7783500bb7f1c0d073adb11316004ba6f9f6c704af1a1aea88426040516134bd9291906140c7565b60405180910390a36134cf8685612cb0565b5b505050505050565b60008082846134e791906141c1565b9050600084148061350257508284826135009190614190565b145b613535577f4e487b7100000000000000000000000000000000000000000000000000000000600052600160045260246000fd5b8091505092915050565b600080828461354e9190614190565b90508091505092915050565b600082821115613593577f4e487b7100000000000000000000000000000000000000000000000000000000600052600160045260246000fd5b818361359f919061421b565b905092915050565b6040518060c0016040528060001515815260200160008152602001600081526020016000815260200160008152602001606081525090565b828054828255906000526020600020908101928215613658579160200282015b828111156136575782518260006101000a81548173ffffffffffffffffffffffffffffffffffffffff021916908373ffffffffffffffffffffffffffffffffffffffff160217905550916020019190600101906135ff565b5b5090506136659190613669565b5090565b5b8082111561368257600081600090555060010161366a565b5090565b6000813590506136958161437a565b92915050565b6000813590506136aa81614391565b92915050565b6000813590506136bf816143a8565b92915050565b6000813590506136d4816143bf565b92915050565b6000602082840312156136ec57600080fd5b60006136fa84828501613686565b91505092915050565b6000806040838503121561371657600080fd5b60006137248582860161369b565b9250506020613735858286016136c5565b9150509250929050565b6000806040838503121561375257600080fd5b600061376085828601613686565b9250506020613771858286016136c5565b9150509250929050565b60006020828403121561378d57600080fd5b600061379b848285016136b0565b91505092915050565b6000602082840312156137b657600080fd5b60006137c4848285016136c5565b91505092915050565b600080604083850312156137e057600080fd5b60006137ee858286016136c5565b92505060206137ff858286016136c5565b9150509250929050565b60006138158383613821565b60208301905092915050565b61382a8161424f565b82525050565b6138398161424f565b82525050565b600061384a82614100565b6138548185614118565b935061385f836140f0565b8060005b838110156138905781516138778882613809565b97506138828361410b565b925050600181019050613863565b5085935050505092915050565b6138a681614273565b82525050565b60006138b9600f83614129565b91507f496e636f72726563742056616c756500000000000000000000000000000000006000830152602082019050919050565b60006138f9601583614129565b91507f496e636f727265637420726566657272657220496400000000000000000000006000830152602082019050919050565b6000613939600e83614129565b91507f6f6e6c7920666f72206f776e65720000000000000000000000000000000000006000830152602082019050919050565b6000613979600a83614129565b91507f55736572206578697374000000000000000000000000000000000000000000006000830152602082019050919050565b60006139b9600c83614129565b91507f496e76616c6964205573657200000000000000000000000000000000000000006000830152602082019050919050565b60006139f9601483614129565b91507f496e73756666696369656e742062616c616e63650000000000000000000000006000830152602082019050919050565b6000613a39601683614129565b91507f427579207468652070726576696f7573206c6576656c000000000000000000006000830152602082019050919050565b6000613a79600f83614129565b91507f496e636f7272656374206c6576656c00000000000000000000000000000000006000830152602082019050919050565b6000613ab9602383614129565b91507f506c6561736520627579206669727374206c6576656c20666f7220302e30352060008301527f45544800000000000000000000000000000000000000000000000000000000006020830152604082019050919050565b6000613b1f600f83614129565b91507f436f6e7472616374204c6f636b656400000000000000000000000000000000006000830152602082019050919050565b6000613b5f601483614129565b91507f496e636f72726563742056616c75652073656e640000000000000000000000006000830152602082019050919050565b6000613b9f601283614129565b91507f496e636f727265637420726566657272657200000000000000000000000000006000830152602082019050919050565b6000613bdf600e83614129565b91507f55736572206e6f742065786973740000000000000000000000000000000000006000830152602082019050919050565b6000613c1f601383614129565b91507f5472616e73616374696f6e204661696c757265000000000000000000000000006000830152602082019050919050565b6000613c5f601983614129565b91507f6f6e6c7920666f72206f776e6572206f72206d616e61676572000000000000006000830152602082019050919050565b6000613c9f600f83614129565b91507f496e76616c6964204164647265737300000000000000000000000000000000006000830152602082019050919050565b6000613cdf601083614129565b91507f4e6f2046726565205265666572726572000000000000000000000000000000006000830152602082019050919050565b6000613d1f601183614129565b91507f6f6e6c79204f776e65722057616c6c65740000000000000000000000000000006000830152602082019050919050565b6000613d5f601083614129565b91507f6f6e6c79204f776e657257616c6c6574000000000000000000000000000000006000830152602082019050919050565b613d9b8161429f565b82525050565b6000602082019050613db66000830184613830565b92915050565b60006020820190508181036000830152613dd6818461383f565b905092915050565b6000602082019050613df3600083018461389d565b92915050565b600060a082019050613e0e600083018861389d565b613e1b6020830187613d92565b613e286040830186613d92565b613e356060830185613d92565b613e426080830184613d92565b9695505050505050565b60006020820190508181036000830152613e65816138ac565b9050919050565b60006020820190508181036000830152613e85816138ec565b9050919050565b60006020820190508181036000830152613ea58161392c565b9050919050565b60006020820190508181036000830152613ec58161396c565b9050919050565b60006020820190508181036000830152613ee5816139ac565b9050919050565b60006020820190508181036000830152613f05816139ec565b9050919050565b60006020820190508181036000830152613f2581613a2c565b9050919050565b60006020820190508181036000830152613f4581613a6c565b9050919050565b60006020820190508181036000830152613f6581613aac565b9050919050565b60006020820190508181036000830152613f8581613b12565b9050919050565b60006020820190508181036000830152613fa581613b52565b9050919050565b60006020820190508181036000830152613fc581613b92565b9050919050565b60006020820190508181036000830152613fe581613bd2565b9050919050565b6000602082019050818103600083015261400581613c12565b9050919050565b6000602082019050818103600083015261402581613c52565b9050919050565b6000602082019050818103600083015261404581613c92565b9050919050565b6000602082019050818103600083015261406581613cd2565b9050919050565b6000602082019050818103600083015261408581613d12565b9050919050565b600060208201905081810360008301526140a581613d52565b9050919050565b60006020820190506140c16000830184613d92565b92915050565b60006040820190506140dc6000830185613d92565b6140e96020830184613d92565b9392505050565b6000819050602082019050919050565b600081519050919050565b6000602082019050919050565b600082825260208201905092915050565b600082825260208201905092915050565b60006141458261429f565b91506141508361429f565b9250827fffffffffffffffffffffffffffffffffffffffffffffffffffffffffffffffff038211156141855761418461431c565b5b828201905092915050565b600061419b8261429f565b91506141a68361429f565b9250826141b6576141b561434b565b5b828204905092915050565b60006141cc8261429f565b91506141d78361429f565b9250817fffffffffffffffffffffffffffffffffffffffffffffffffffffffffffffffff04831182151516156142105761420f61431c565b5b828202905092915050565b60006142268261429f565b91506142318361429f565b9250828210156142445761424361431c565b5b828203905092915050565b600061425a8261427f565b9050919050565b600061426c8261427f565b9050919050565b60008115159050919050565b600073ffffffffffffffffffffffffffffffffffffffff82169050919050565b6000819050919050565b60006142b48261429f565b915060008214156142c8576142c761431c565b5b600182039050919050565b60006142de8261429f565b91507fffffffffffffffffffffffffffffffffffffffffffffffffffffffffffffffff8214156143115761431061431c565b5b600182019050919050565b7f4e487b7100000000000000000000000000000000000000000000000000000000600052601160045260246000fd5b7f4e487b7100000000000000000000000000000000000000000000000000000000600052601260045260246000fd5b6143838161424f565b811461438e57600080fd5b50565b61439a81614261565b81146143a557600080fd5b50565b6143b181614273565b81146143bc57600080fd5b50565b6143c88161429f565b81146143d357600080fd5b5056fea2646970667358221220a976396c640b84d3541e07bbaef198fcaefb47e8218c9c0e254502059ab0ef8664736f6c63430008000033",
  "immutableReferences": {},
  "source": "// SPDX-License-Identifier: UNLICENSED\r\npragma solidity ^0.8.0;\r\n\r\n\r\nlibrary SafeMath {\r\n\r\n  function mul(uint256 a, uint256 b) internal pure returns (uint256) {\r\n    uint256 c = a * b;\r\n    assert(a == 0 || c / a == b);\r\n    return c;\r\n  }\r\n\r\n  function div(uint256 a, uint256 b) internal pure returns (uint256) {\r\n    uint256 c = a / b;\r\n    return c;\r\n  }\r\n\r\n  function sub(uint256 a, uint256 b) internal pure returns (uint256) {\r\n    assert(b <= a);\r\n    return a - b;\r\n  }\r\n\r\n  function add(uint256 a, uint256 b) internal pure returns (uint256) {\r\n    uint256 c = a + b;\r\n    assert(c >= a);\r\n    return c;\r\n  }\r\n\r\n}\r\n\r\n\r\ncontract Ownable {\r\n\r\n  address public owner;\r\n  address public manager;\r\n  address public ownerWallet;\r\n\r\n  constructor() {\r\n    owner = msg.sender;\r\n    manager = msg.sender;\r\n    ownerWallet = msg.sender;\r\n  }\r\n\r\n  modifier onlyOwner() {\r\n    require(msg.sender == owner, \"only for owner\");\r\n    _;\r\n  }\r\n\r\n  modifier onlyOwnerOrManager() {\r\n     require((msg.sender == owner)||(msg.sender == manager), \"only for owner or manager\");\r\n      _;\r\n  }\r\n\r\n  function transferOwnership(address newOwner) public onlyOwner {\r\n    owner = newOwner;\r\n  }\r\n\r\n  function setManager(address _manager) public onlyOwnerOrManager {\r\n      manager = _manager;\r\n  }\r\n}\r\n\r\n\r\ncontract FreedomUnlimited is Ownable {\r\n    using SafeMath for uint256;\r\n    \r\n    event regLevelEvent(address indexed _user, address indexed _referrer, uint _time);\r\n    event buyLevelEvent(address indexed _user, uint _level, uint _time);\r\n    event prolongateLevelEvent(address indexed _user, uint _level, uint _time);\r\n    event getMoneyForLevelEvent(address indexed _user, address indexed _referral, uint _level, uint _time);\r\n    event lostMoneyForLevelEvent(address indexed _user, address indexed _referral, uint _level, uint _time);\r\n\r\n    struct UserStruct {\r\n        bool isExist;\r\n        uint id;\r\n        uint referrerID;\r\n        uint currentLevel;\r\n        uint totalEarningEth;\r\n        address[] referral;\r\n    }\r\n\r\n    mapping (uint => uint) public LEVEL_PRICE;\r\n    mapping (address => mapping(uint => uint)) public levelExpired;\r\n    mapping (address => UserStruct) public users;\r\n    mapping (uint => address) public userList;\r\n    uint public currUserID = 0;\r\n    uint public adminFee = 16 ether;\r\n    uint REFERRER_1_LEVEL_LIMIT = 3;\r\n    uint PERIOD_LENGTH = 30 days;\r\n    bool public lockStatus;\r\n\r\n    constructor() {\r\n\r\n        LEVEL_PRICE[1] = 0.05 ether;\r\n        LEVEL_PRICE[2] = 0.15 ether;\r\n        LEVEL_PRICE[3] = 0.45 ether;\r\n        LEVEL_PRICE[4] = 1.35 ether;\r\n        LEVEL_PRICE[5] = 4.05 ether;\r\n        LEVEL_PRICE[6] = 12.15 ether;\r\n        LEVEL_PRICE[7] = 36.45 ether;\r\n        LEVEL_PRICE[8] = 109.35 ether;\r\n\r\n        UserStruct memory userStruct;\r\n        currUserID++;\r\n\r\n        userStruct = UserStruct({\r\n            isExist : true,\r\n            id : currUserID,\r\n            referrerID : 0,\r\n            currentLevel : 8,\r\n            totalEarningEth : 0,\r\n            referral : new address[](0)\r\n        });\r\n        users[ownerWallet] = userStruct;\r\n        userList[currUserID] = ownerWallet;\r\n\r\n        levelExpired[ownerWallet][1] = 77777777777;\r\n        levelExpired[ownerWallet][2] = 77777777777;\r\n        levelExpired[ownerWallet][3] = 77777777777;\r\n        levelExpired[ownerWallet][4] = 77777777777;\r\n        levelExpired[ownerWallet][5] = 77777777777;\r\n        levelExpired[ownerWallet][6] = 77777777777;\r\n        levelExpired[ownerWallet][7] = 77777777777;\r\n        levelExpired[ownerWallet][8] = 77777777777;\r\n    }\r\n\r\n    receive () external payable {\r\n        receiveFunds();\r\n    }\r\n\r\n    /**\r\n     * @dev receive funds if not calling on regUser or buyLevel this is called when funds sent directly to contract. \r\n     */ \r\n    function receiveFunds() public payable {\r\n        uint level;\r\n\r\n        if(msg.value == LEVEL_PRICE[1]){\r\n            level = 1;\r\n        }else if(msg.value == LEVEL_PRICE[2]){\r\n            level = 2;\r\n        }else if(msg.value == LEVEL_PRICE[3]){\r\n            level = 3;\r\n        }else if(msg.value == LEVEL_PRICE[4]){\r\n            level = 4;\r\n        }else if(msg.value == LEVEL_PRICE[5]){\r\n            level = 5;\r\n        }else if(msg.value == LEVEL_PRICE[6]){\r\n            level = 6;\r\n        }else if(msg.value == LEVEL_PRICE[7]){\r\n            level = 7;\r\n        }else if(msg.value == LEVEL_PRICE[8]){\r\n            level = 8;\r\n        }else {\r\n            revert('Incorrect Value send');\r\n        }\r\n\r\n        if(users[msg.sender].isExist){\r\n            buyLevel(level);\r\n        } else if(level == 1) {\r\n            uint refId = 0;\r\n            address referrer = bytesToAddress(msg.data);\r\n\r\n            if (users[referrer].isExist){\r\n                refId = users[referrer].id;\r\n            } else {\r\n                revert('Incorrect referrer');\r\n            }\r\n\r\n            regUser(refId);\r\n        } else {\r\n            revert(\"Please buy first level for 0.05 ETH\");\r\n        }\r\n    }\r\n\r\n    /**\r\n     * @dev register new user into system\r\n     */ \r\n    function regUser(uint _referrerID) public payable {\r\n        require(!users[msg.sender].isExist, 'User exist');\r\n        require(lockStatus == false, \"Contract Locked\");\r\n        require(_referrerID > 0 && _referrerID <= currUserID, 'Incorrect referrer Id');\r\n\r\n        require(msg.value==LEVEL_PRICE[1], 'Incorrect Value');\r\n\r\n\r\n        if(users[userList[_referrerID]].referral.length >= REFERRER_1_LEVEL_LIMIT)\r\n        {\r\n            _referrerID = users[findFreeReferrer(userList[_referrerID])].id;\r\n        }\r\n\r\n\r\n        UserStruct memory userStruct;\r\n        currUserID++;\r\n\r\n        userStruct = UserStruct({\r\n            isExist : true,\r\n            id : currUserID,\r\n            referrerID : _referrerID,\r\n            currentLevel : 1,\r\n            totalEarningEth : 0,\r\n            referral : new address[](0)\r\n        });\r\n\r\n        users[msg.sender] = userStruct;\r\n        userList[currUserID] = msg.sender;\r\n\r\n        levelExpired[msg.sender][1] = block.timestamp + PERIOD_LENGTH;\r\n        levelExpired[msg.sender][2] = 0;\r\n        levelExpired[msg.sender][3] = 0;\r\n        levelExpired[msg.sender][4] = 0;\r\n        levelExpired[msg.sender][5] = 0;\r\n        levelExpired[msg.sender][6] = 0;\r\n        levelExpired[msg.sender][7] = 0;\r\n        levelExpired[msg.sender][8] = 0;\r\n\r\n        users[userList[_referrerID]].referral.push(msg.sender);\r\n\r\n        payForLevel(1, msg.sender);\r\n\r\n        emit regLevelEvent(msg.sender, userList[_referrerID], block.timestamp);\r\n    }\r\n\r\n    /**\r\n     * @dev buy into next level up\r\n     */ \r\n    function buyLevel(uint _level) public payable {\r\n        require(users[msg.sender].isExist, 'User not exist');\r\n        require(lockStatus == false, \"Contract Locked\");\r\n        require( _level>0 && _level<=8, 'Incorrect level');\r\n\r\n        if(_level == 1){\r\n            require(msg.value==LEVEL_PRICE[1], 'Incorrect Value');\r\n            levelExpired[msg.sender][1] += PERIOD_LENGTH;\r\n        } else {\r\n            require(msg.value==LEVEL_PRICE[_level], 'Incorrect Value');\r\n\r\n            for(uint l =_level-1; l>0; l-- ){\r\n                require(levelExpired[msg.sender][l] >= block.timestamp, 'Buy the previous level');\r\n            }\r\n\r\n            if(levelExpired[msg.sender][_level] == 0){\r\n                levelExpired[msg.sender][_level] = block.timestamp + PERIOD_LENGTH;\r\n            } else {\r\n                levelExpired[msg.sender][_level] += PERIOD_LENGTH;\r\n            }\r\n        }\r\n        payForLevel(_level, msg.sender);\r\n        emit buyLevelEvent(msg.sender, _level, block.timestamp);\r\n    }\r\n\r\n    /**\r\n     * @dev pay for level increase in inclusion\r\n     */ \r\n    function payForLevel(uint _level, address _user) internal {\r\n\r\n        address referer;\r\n        address referer1;\r\n        address referer2;\r\n        address referer3;\r\n        if(_level == 1 || _level == 5){\r\n            referer = userList[users[_user].referrerID];\r\n        } else if(_level == 2 || _level == 6){\r\n            referer1 = userList[users[_user].referrerID];\r\n            referer = userList[users[referer1].referrerID];\r\n        } else if(_level == 3 || _level == 7){\r\n            referer1 = userList[users[_user].referrerID];\r\n            referer2 = userList[users[referer1].referrerID];\r\n            referer = userList[users[referer2].referrerID];\r\n        } else if(_level == 4 || _level == 8){\r\n            referer1 = userList[users[_user].referrerID];\r\n            referer2 = userList[users[referer1].referrerID];\r\n            referer3 = userList[users[referer2].referrerID];\r\n            referer = userList[users[referer3].referrerID];\r\n        }\r\n\r\n        if(!users[referer].isExist){\r\n            referer = userList[1];\r\n        }\r\n\r\n        if(levelExpired[referer][_level] >= block.timestamp ){\r\n            uint _adminFee = (LEVEL_PRICE[_level].mul(adminFee)).div(10**20); // 8000000000000000 wei level 1 or 0.008 ether\r\n            uint _referralPay = LEVEL_PRICE[_level].sub(_adminFee); // 42000000000000000 wei level 1 or 0.042 ether\r\n            require(payable(referer).send(_referralPay) && payable(ownerWallet).send(_adminFee), \"Transaction Failure\" ); \r\n            emit getMoneyForLevelEvent(referer, msg.sender, _level, block.timestamp);\r\n        } else {\r\n            emit lostMoneyForLevelEvent(referer, msg.sender, _level, block.timestamp);\r\n            payForLevel(_level,referer);\r\n        }\r\n    }\r\n\r\n    /**\r\n     * @dev view free referrer address if available else return user address\r\n     */ \r\n    function findFreeReferrer(address _user) public view returns(address) {\r\n        if(users[_user].referral.length < REFERRER_1_LEVEL_LIMIT){\r\n            return _user;\r\n        }\r\n\r\n        address[] memory referrals = new address[](363);\r\n        referrals[0] = users[_user].referral[0]; \r\n        referrals[1] = users[_user].referral[1];\r\n        referrals[2] = users[_user].referral[2];\r\n\r\n        address freeReferrer;\r\n        bool noFreeReferrer = true;\r\n\r\n        for(uint i =0; i<363;i++){\r\n            if(users[referrals[i]].referral.length == REFERRER_1_LEVEL_LIMIT){\r\n                if(i<120){\r\n                    referrals[(i+1)*3] = users[referrals[i]].referral[0];\r\n                    referrals[(i+1)*3+1] = users[referrals[i]].referral[1];\r\n                    referrals[(i+1)*3+2] = users[referrals[i]].referral[2];\r\n                }\r\n            }else{\r\n                noFreeReferrer = false;\r\n                freeReferrer = referrals[i];\r\n                break;\r\n            }\r\n        }\r\n        require(!noFreeReferrer, 'No Free Referrer');\r\n        return freeReferrer;\r\n\r\n    }\r\n\r\n    /**\r\n     * @dev view referrals for user\r\n     */ \r\n    function viewUserReferral(address _user) public view returns(address[] memory) {\r\n        return users[_user].referral;\r\n    }\r\n\r\n    /**\r\n     * @dev view level expired at for address\r\n     */ \r\n    function viewUserLevelExpired(address _user, uint _level) public view returns(uint) {\r\n        return levelExpired[_user][_level];\r\n    }\r\n    \r\n    /**\r\n     * @dev convert byte to address\r\n     */ \r\n    function bytesToAddress(bytes memory bys) private pure returns (address  addr ) {\r\n        assembly {\r\n            addr := mload(add(bys, 20))\r\n        }\r\n    }\r\n    \r\n    /**\r\n     * @dev Contract balance withdraw\r\n     */ \r\n    function failSafe(address payable _toUser, uint _amount) public onlyOwner returns (bool) {\r\n        require(msg.sender == ownerWallet, \"only Owner Wallet\");\r\n        require(_toUser != address(0), \"Invalid Address\");\r\n        require(address(this).balance >= _amount, \"Insufficient balance\");\r\n\r\n        (_toUser).transfer(_amount);\r\n        return true;\r\n    }\r\n    \r\n    /**\r\n     * @dev Update level price\r\n     */ \r\n    function updatePrice(uint _level, uint _price) public onlyOwner returns (bool) {\r\n        require(msg.sender == ownerWallet, \"only OwnerWallet\");\r\n\r\n        LEVEL_PRICE[_level] = _price;\r\n        return true;\r\n    }\r\n\r\n    /**\r\n     * @dev Update contract status\r\n     */ \r\n    function contractLock(bool _lockStatus) public onlyOwner returns (bool) {\r\n        require(msg.sender == ownerWallet, \"Invalid User\");\r\n\r\n        lockStatus = _lockStatus;\r\n        return true;\r\n    }\r\n    \r\n    /**\r\n     * @dev Total earned ETH\r\n     */\r\n    function getTotalEarnedEther() public view returns (uint) {\r\n        uint totalEth;\r\n        for (uint i = 1; i <= currUserID; i++) {\r\n            totalEth = totalEth.add(users[userList[i]].totalEarningEth);\r\n        }\r\n        return totalEth;\r\n    }\r\n\r\n    /**\r\n     * @dev get user at address\r\n     */\r\n    function getUser(address _user) public view returns (bool, uint, uint, uint, uint) {\r\n        if(users[_user].isExist == false) {\r\n            return(false, currUserID, 0, 0, 0);\r\n        } else {\r\n            return(users[_user].isExist, users[_user].id, users[_user].referrerID, users[_user].currentLevel, users[_user].totalEarningEth);\r\n        }\r\n    }\r\n\r\n    /**\r\n     * @dev get contract balance    \r\n     */\r\n    function getContractBalance() public view returns (uint) {\r\n        return address(this).balance;\r\n    }\r\n}",
  "sourcePath": "C:/Users/Andrew Dufresne/Desktop/Dev/Solidity/FU/f-u/contracts/FreedomUnlimited.sol",
  "compiler": {
    "name": "solc",
    "version": "0.8.0+commit.c7dfd78e.Emscripten.clang"
  },
  "schemaVersion": "3.4.1",
  "updatedAt": "2021-10-23T19:30:49.564Z",
  "networkType": "ethereum",
  "devdoc": {
    "kind": "dev",
    "methods": {
      "buyLevel(uint256)": {
        "details": "buy into next level up"
      },
      "contractLock(bool)": {
        "details": "Update contract status"
      },
      "failSafe(address,uint256)": {
        "details": "Contract balance withdraw"
      },
      "findFreeReferrer(address)": {
        "details": "view free referrer address if available else return user address"
      },
      "getContractBalance()": {
        "details": "get contract balance    "
      },
      "getTotalEarnedEther()": {
        "details": "Total earned ETH"
      },
      "getUser(address)": {
        "details": "get user at address"
      },
      "receiveFunds()": {
        "details": "receive funds if not calling on regUser or buyLevel this is called when funds sent directly to contract. "
      },
      "regUser(uint256)": {
        "details": "register new user into system"
      },
      "updatePrice(uint256,uint256)": {
        "details": "Update level price"
      },
      "viewUserLevelExpired(address,uint256)": {
        "details": "view level expired at for address"
      },
      "viewUserReferral(address)": {
        "details": "view referrals for user"
      }
    },
    "version": 1
  },
  "userdoc": {
    "kind": "user",
    "methods": {},
    "version": 1
  }
}