{
  "contractName": "FreedomUnlimitedToken",
  "abi": [
    {
      "inputs": [
        {
          "internalType": "address",
          "name": "_burnAddress",
          "type": "address"
        },
        {
          "internalType": "address",
          "name": "_sigAddress",
          "type": "address"
        }
      ],
      "stateMutability": "nonpayable",
      "type": "constructor"
    },
    {
      "anonymous": false,
      "inputs": [
        {
          "indexed": true,
          "internalType": "address",
          "name": "owner",
          "type": "address"
        },
        {
          "indexed": true,
          "internalType": "address",
          "name": "spender",
          "type": "address"
        },
        {
          "indexed": false,
          "internalType": "uint256",
          "name": "value",
          "type": "uint256"
        }
      ],
      "name": "Approval",
      "type": "event"
    },
    {
      "anonymous": false,
      "inputs": [
        {
          "indexed": true,
          "internalType": "address",
          "name": "from",
          "type": "address"
        },
        {
          "indexed": true,
          "internalType": "address",
          "name": "to",
          "type": "address"
        },
        {
          "indexed": false,
          "internalType": "uint256",
          "name": "value",
          "type": "uint256"
        }
      ],
      "name": "Transfer",
      "type": "event"
    },
    {
      "inputs": [
        {
          "internalType": "address",
          "name": "",
          "type": "address"
        },
        {
          "internalType": "address",
          "name": "",
          "type": "address"
        }
      ],
      "name": "allowed",
      "outputs": [
        {
          "internalType": "uint256",
          "name": "",
          "type": "uint256"
        }
      ],
      "stateMutability": "view",
      "type": "function"
    },
    {
      "inputs": [
        {
          "internalType": "address",
          "name": "",
          "type": "address"
        }
      ],
      "name": "balances",
      "outputs": [
        {
          "internalType": "uint256",
          "name": "",
          "type": "uint256"
        }
      ],
      "stateMutability": "view",
      "type": "function"
    },
    {
      "inputs": [],
      "name": "burnAddress",
      "outputs": [
        {
          "internalType": "address",
          "name": "",
          "type": "address"
        }
      ],
      "stateMutability": "view",
      "type": "function"
    },
    {
      "inputs": [],
      "name": "decimals",
      "outputs": [
        {
          "internalType": "uint8",
          "name": "",
          "type": "uint8"
        }
      ],
      "stateMutability": "view",
      "type": "function"
    },
    {
      "inputs": [],
      "name": "name",
      "outputs": [
        {
          "internalType": "string",
          "name": "",
          "type": "string"
        }
      ],
      "stateMutability": "view",
      "type": "function"
    },
    {
      "inputs": [],
      "name": "owner",
      "outputs": [
        {
          "internalType": "address",
          "name": "",
          "type": "address"
        }
      ],
      "stateMutability": "view",
      "type": "function"
    },
    {
      "inputs": [],
      "name": "sigAddress",
      "outputs": [
        {
          "internalType": "address",
          "name": "",
          "type": "address"
        }
      ],
      "stateMutability": "view",
      "type": "function"
    },
    {
      "inputs": [],
      "name": "symbol",
      "outputs": [
        {
          "internalType": "string",
          "name": "",
          "type": "string"
        }
      ],
      "stateMutability": "view",
      "type": "function"
    },
    {
      "inputs": [],
      "name": "totalSupply",
      "outputs": [
        {
          "internalType": "uint256",
          "name": "",
          "type": "uint256"
        }
      ],
      "stateMutability": "view",
      "type": "function"
    },
    {
      "inputs": [
        {
          "internalType": "address",
          "name": "_owner",
          "type": "address"
        }
      ],
      "name": "balanceOf",
      "outputs": [
        {
          "internalType": "uint256",
          "name": "",
          "type": "uint256"
        }
      ],
      "stateMutability": "view",
      "type": "function"
    },
    {
      "inputs": [
        {
          "internalType": "address",
          "name": "_to",
          "type": "address"
        },
        {
          "internalType": "uint256",
          "name": "_value",
          "type": "uint256"
        }
      ],
      "name": "transfer",
      "outputs": [
        {
          "internalType": "bool",
          "name": "",
          "type": "bool"
        }
      ],
      "stateMutability": "nonpayable",
      "type": "function"
    },
    {
      "inputs": [
        {
          "internalType": "address",
          "name": "_from",
          "type": "address"
        },
        {
          "internalType": "address",
          "name": "_to",
          "type": "address"
        },
        {
          "internalType": "uint256",
          "name": "_value",
          "type": "uint256"
        }
      ],
      "name": "transferFrom",
      "outputs": [
        {
          "internalType": "bool",
          "name": "",
          "type": "bool"
        }
      ],
      "stateMutability": "nonpayable",
      "type": "function"
    },
    {
      "inputs": [
        {
          "internalType": "address",
          "name": "_spender",
          "type": "address"
        },
        {
          "internalType": "uint256",
          "name": "_value",
          "type": "uint256"
        }
      ],
      "name": "approve",
      "outputs": [
        {
          "internalType": "bool",
          "name": "",
          "type": "bool"
        }
      ],
      "stateMutability": "nonpayable",
      "type": "function"
    },
    {
      "inputs": [
        {
          "internalType": "address",
          "name": "_owner",
          "type": "address"
        },
        {
          "internalType": "address",
          "name": "_spender",
          "type": "address"
        }
      ],
      "name": "allowance",
      "outputs": [
        {
          "internalType": "uint256",
          "name": "",
          "type": "uint256"
        }
      ],
      "stateMutability": "view",
      "type": "function"
    },
    {
      "inputs": [
        {
          "internalType": "address",
          "name": "_newOwner",
          "type": "address"
        }
      ],
      "name": "changeowner",
      "outputs": [
        {
          "internalType": "bool",
          "name": "",
          "type": "bool"
        }
      ],
      "stateMutability": "nonpayable",
      "type": "function"
    },
    {
      "inputs": [
        {
          "internalType": "address",
          "name": "_burnAddress",
          "type": "address"
        }
      ],
      "name": "changeburnt",
      "outputs": [
        {
          "internalType": "bool",
          "name": "",
          "type": "bool"
        }
      ],
      "stateMutability": "nonpayable",
      "type": "function"
    },
    {
      "inputs": [
        {
          "internalType": "address",
          "name": "_newSigAddress",
          "type": "address"
        }
      ],
      "name": "changesigAddress",
      "outputs": [
        {
          "internalType": "bool",
          "name": "",
          "type": "bool"
        }
      ],
      "stateMutability": "nonpayable",
      "type": "function"
    },
    {
      "inputs": [
        {
          "internalType": "address",
          "name": "_receiver",
          "type": "address"
        },
        {
          "internalType": "uint256",
          "name": "_amount",
          "type": "uint256"
        },
        {
          "internalType": "bytes32[3]",
          "name": "_mrs",
          "type": "bytes32[3]"
        },
        {
          "internalType": "uint8",
          "name": "_v",
          "type": "uint8"
        }
      ],
      "name": "mint",
      "outputs": [
        {
          "internalType": "bool",
          "name": "",
          "type": "bool"
        }
      ],
      "stateMutability": "nonpayable",
      "type": "function"
    },
    {
      "inputs": [
        {
          "internalType": "address",
          "name": "_receiver",
          "type": "address"
        },
        {
          "internalType": "uint256",
          "name": "_amount",
          "type": "uint256"
        }
      ],
      "name": "ownerMint",
      "outputs": [
        {
          "internalType": "bool",
          "name": "",
          "type": "bool"
        }
      ],
      "stateMutability": "nonpayable",
      "type": "function"
    }
  ],
  "bytecode": "0x60806040523480156200001157600080fd5b50604051620030ea380380620030ea833981810160405281019062000037919062000281565b6040518060400160405280600881526020017f46726565646f6d550000000000000000000000000000000000000000000000008152506001908051906020019062000084929190620001ba565b506040518060400160405280601181526020017f46726565646f6d20556e6c696d6974656400000000000000000000000000000081525060009080519060200190620000d2929190620001ba565b506012600260006101000a81548160ff021916908360ff16021790555081600460006101000a81548173ffffffffffffffffffffffffffffffffffffffff021916908373ffffffffffffffffffffffffffffffffffffffff16021790555033600560006101000a81548173ffffffffffffffffffffffffffffffffffffffff021916908373ffffffffffffffffffffffffffffffffffffffff16021790555080600660006101000a81548173ffffffffffffffffffffffffffffffffffffffff021916908373ffffffffffffffffffffffffffffffffffffffff160217905550505062000375565b828054620001c890620002f6565b90600052602060002090601f016020900481019282620001ec576000855562000238565b82601f106200020757805160ff191683800117855562000238565b8280016001018555821562000238579182015b82811115620002375782518255916020019190600101906200021a565b5b5090506200024791906200024b565b5090565b5b80821115620002665760008160009055506001016200024c565b5090565b6000815190506200027b816200035b565b92915050565b600080604083850312156200029557600080fd5b6000620002a5858286016200026a565b9250506020620002b8858286016200026a565b9150509250929050565b6000620002cf82620002d6565b9050919050565b600073ffffffffffffffffffffffffffffffffffffffff82169050919050565b600060028204905060018216806200030f57607f821691505b602082108114156200032657620003256200032c565b5b50919050565b7f4e487b7100000000000000000000000000000000000000000000000000000000600052602260045260246000fd5b6200036681620002c2565b81146200037257600080fd5b50565b612d6580620003856000396000f3fe608060405234801561001057600080fd5b50600436106101215760003560e01c8063662e4ee4116100ad57806395d89b411161007157806395d89b411461036c578063a9059cbb1461038a578063c2e65aec146103ba578063dd62ed3e146103ea578063ece03ca11461041a57610121565b8063662e4ee4146102a057806370a08231146102d057806370d5ae0514610300578063717e2ad31461031e5780638da5cb5b1461034e57610121565b806327e235e3116100f457806327e235e3146101c25780632b4b014b146101f2578063313ce56714610222578063484b973c146102405780635c6581651461027057610121565b806306fdde0314610126578063095ea7b31461014457806318160ddd1461017457806323b872dd14610192575b600080fd5b61012e610438565b60405161013b9190612742565b60405180910390f35b61015e6004803603810190610159919061213e565b6104c6565b60405161016b91906126e2565b60405180910390f35b61017c61066a565b6040516101899190612984565b60405180910390f35b6101ac60048036038101906101a791906120ef565b610670565b6040516101b991906126e2565b60405180910390f35b6101dc60048036038101906101d7919061208a565b610cee565b6040516101e99190612984565b60405180910390f35b61020c6004803603810190610207919061208a565b610d06565b60405161021991906126e2565b60405180910390f35b61022a610e52565b604051610237919061299f565b60405180910390f35b61025a6004803603810190610255919061213e565b610e65565b60405161026791906126e2565b60405180910390f35b61028a600480360381019061028591906120b3565b6110cb565b6040516102979190612984565b60405180910390f35b6102ba60048036038101906102b5919061208a565b6110f0565b6040516102c791906126e2565b60405180910390f35b6102ea60048036038101906102e5919061208a565b61123c565b6040516102f79190612984565b60405180910390f35b610308611285565b60405161031591906126c7565b60405180910390f35b6103386004803603810190610333919061208a565b6112ab565b60405161034591906126e2565b60405180910390f35b6103566113f7565b60405161036391906126c7565b60405180910390f35b61037461141d565b6040516103819190612742565b60405180910390f35b6103a4600480360381019061039f919061213e565b6114ab565b6040516103b191906126e2565b60405180910390f35b6103d460048036038101906103cf919061217a565b6118ea565b6040516103e191906126e2565b60405180910390f35b61040460048036038101906103ff91906120b3565b611d69565b6040516104119190612984565b60405180910390f35b610422611df0565b60405161042f91906126c7565b60405180910390f35b6000805461044590612bd4565b80601f016020809104026020016040519081016040528092919081815260200182805461047190612bd4565b80156104be5780601f10610493576101008083540402835291602001916104be565b820191906000526020600020905b8154815290600101906020018083116104a157829003601f168201915b505050505081565b60008073ffffffffffffffffffffffffffffffffffffffff168373ffffffffffffffffffffffffffffffffffffffff161415610537576040517f08c379a000000000000000000000000000000000000000000000000000000000815260040161052e906127e4565b60405180910390fd5b6000821161057a576040517f08c379a0000000000000000000000000000000000000000000000000000000008152600401610571906128c4565b60405180910390fd5b81600860003373ffffffffffffffffffffffffffffffffffffffff1673ffffffffffffffffffffffffffffffffffffffff16815260200190815260200160002060008573ffffffffffffffffffffffffffffffffffffffff1673ffffffffffffffffffffffffffffffffffffffff168152602001908152602001600020819055508273ffffffffffffffffffffffffffffffffffffffff163373ffffffffffffffffffffffffffffffffffffffff167f8c5be1e5ebec7d5bd14f71427d1e84f3dd0314c0f7b2291e5b200ac8c7c3b925846040516106589190612984565b60405180910390a36001905092915050565b60035481565b60008073ffffffffffffffffffffffffffffffffffffffff168473ffffffffffffffffffffffffffffffffffffffff1614156106e1576040517f08c379a00000000000000000000000000000000000000000000000000000000081526004016106d890612824565b60405180910390fd5b600073ffffffffffffffffffffffffffffffffffffffff168373ffffffffffffffffffffffffffffffffffffffff161415610751576040517f08c379a000000000000000000000000000000000000000000000000000000000815260040161074890612884565b60405180910390fd5b600760008573ffffffffffffffffffffffffffffffffffffffff1673ffffffffffffffffffffffffffffffffffffffff168152602001908152602001600020548211156107d3576040517f08c379a00000000000000000000000000000000000000000000000000000000081526004016107ca90612924565b60405180910390fd5b600860008573ffffffffffffffffffffffffffffffffffffffff1673ffffffffffffffffffffffffffffffffffffffff16815260200190815260200160002060003373ffffffffffffffffffffffffffffffffffffffff1673ffffffffffffffffffffffffffffffffffffffff16815260200190815260200160002054821115610892576040517f08c379a000000000000000000000000000000000000000000000000000000000815260040161088990612864565b60405180910390fd5b6108e482600760008773ffffffffffffffffffffffffffffffffffffffff1673ffffffffffffffffffffffffffffffffffffffff16815260200190815260200160002054611e1690919063ffffffff16565b600760008673ffffffffffffffffffffffffffffffffffffffff1673ffffffffffffffffffffffffffffffffffffffff16815260200190815260200160002081905550600061095f68056bc75e2d6310000061095167016345785d8a000086611e7590919063ffffffff16565b611ef090919063ffffffff16565b905060006109768285611e1690919063ffffffff16565b90506109ec8260076000600460009054906101000a900473ffffffffffffffffffffffffffffffffffffffff1673ffffffffffffffffffffffffffffffffffffffff1673ffffffffffffffffffffffffffffffffffffffff16815260200190815260200160002054611f4e90919063ffffffff16565b60076000600460009054906101000a900473ffffffffffffffffffffffffffffffffffffffff1673ffffffffffffffffffffffffffffffffffffffff1673ffffffffffffffffffffffffffffffffffffffff16815260200190815260200160002081905550610aa381600760003373ffffffffffffffffffffffffffffffffffffffff1673ffffffffffffffffffffffffffffffffffffffff16815260200190815260200160002054611f4e90919063ffffffff16565b600760003373ffffffffffffffffffffffffffffffffffffffff1673ffffffffffffffffffffffffffffffffffffffff16815260200190815260200160002081905550610b7584600860008973ffffffffffffffffffffffffffffffffffffffff1673ffffffffffffffffffffffffffffffffffffffff16815260200190815260200160002060003373ffffffffffffffffffffffffffffffffffffffff1673ffffffffffffffffffffffffffffffffffffffff16815260200190815260200160002054611e1690919063ffffffff16565b600860008873ffffffffffffffffffffffffffffffffffffffff1673ffffffffffffffffffffffffffffffffffffffff16815260200190815260200160002060003373ffffffffffffffffffffffffffffffffffffffff1673ffffffffffffffffffffffffffffffffffffffff168152602001908152602001600020819055508473ffffffffffffffffffffffffffffffffffffffff168673ffffffffffffffffffffffffffffffffffffffff167fddf252ad1be2c89b69c2b068fc378daa952ba7f163c4a11628f55a4df523b3ef83604051610c529190612984565b60405180910390a3600460009054906101000a900473ffffffffffffffffffffffffffffffffffffffff1673ffffffffffffffffffffffffffffffffffffffff168673ffffffffffffffffffffffffffffffffffffffff167fddf252ad1be2c89b69c2b068fc378daa952ba7f163c4a11628f55a4df523b3ef84604051610cd99190612984565b60405180910390a36001925050509392505050565b60076020528060005260406000206000915090505481565b6000600560009054906101000a900473ffffffffffffffffffffffffffffffffffffffff1673ffffffffffffffffffffffffffffffffffffffff163373ffffffffffffffffffffffffffffffffffffffff1614610d98576040517f08c379a0000000000000000000000000000000000000000000000000000000008152600401610d8f90612784565b60405180910390fd5b600073ffffffffffffffffffffffffffffffffffffffff168273ffffffffffffffffffffffffffffffffffffffff161415610e08576040517f08c379a0000000000000000000000000000000000000000000000000000000008152600401610dff90612904565b60405180910390fd5b81600460006101000a81548173ffffffffffffffffffffffffffffffffffffffff021916908373ffffffffffffffffffffffffffffffffffffffff16021790555060019050919050565b600260009054906101000a900460ff1681565b6000600560009054906101000a900473ffffffffffffffffffffffffffffffffffffffff1673ffffffffffffffffffffffffffffffffffffffff163373ffffffffffffffffffffffffffffffffffffffff1614610ef7576040517f08c379a0000000000000000000000000000000000000000000000000000000008152600401610eee90612784565b60405180910390fd5b600073ffffffffffffffffffffffffffffffffffffffff168373ffffffffffffffffffffffffffffffffffffffff161415610f67576040517f08c379a0000000000000000000000000000000000000000000000000000000008152600401610f5e90612764565b60405180910390fd5b6000821015610fab576040517f08c379a0000000000000000000000000000000000000000000000000000000008152600401610fa2906127a4565b60405180910390fd5b610fc082600354611f4e90919063ffffffff16565b60038190555061101882600760008673ffffffffffffffffffffffffffffffffffffffff1673ffffffffffffffffffffffffffffffffffffffff16815260200190815260200160002054611f4e90919063ffffffff16565b600760008573ffffffffffffffffffffffffffffffffffffffff1673ffffffffffffffffffffffffffffffffffffffff168152602001908152602001600020819055508273ffffffffffffffffffffffffffffffffffffffff16600073ffffffffffffffffffffffffffffffffffffffff167fddf252ad1be2c89b69c2b068fc378daa952ba7f163c4a11628f55a4df523b3ef846040516110b99190612984565b60405180910390a36001905092915050565b6008602052816000526040600020602052806000526040600020600091509150505481565b6000600560009054906101000a900473ffffffffffffffffffffffffffffffffffffffff1673ffffffffffffffffffffffffffffffffffffffff163373ffffffffffffffffffffffffffffffffffffffff1614611182576040517f08c379a000000000000000000000000000000000000000000000000000000000815260040161117990612784565b60405180910390fd5b600073ffffffffffffffffffffffffffffffffffffffff168273ffffffffffffffffffffffffffffffffffffffff1614156111f2576040517f08c379a00000000000000000000000000000000000000000000000000000000081526004016111e990612904565b60405180910390fd5b81600560006101000a81548173ffffffffffffffffffffffffffffffffffffffff021916908373ffffffffffffffffffffffffffffffffffffffff16021790555060019050919050565b6000600760008373ffffffffffffffffffffffffffffffffffffffff1673ffffffffffffffffffffffffffffffffffffffff168152602001908152602001600020549050919050565b600460009054906101000a900473ffffffffffffffffffffffffffffffffffffffff1681565b6000600560009054906101000a900473ffffffffffffffffffffffffffffffffffffffff1673ffffffffffffffffffffffffffffffffffffffff163373ffffffffffffffffffffffffffffffffffffffff161461133d576040517f08c379a000000000000000000000000000000000000000000000000000000000815260040161133490612784565b60405180910390fd5b600073ffffffffffffffffffffffffffffffffffffffff168273ffffffffffffffffffffffffffffffffffffffff1614156113ad576040517f08c379a00000000000000000000000000000000000000000000000000000000081526004016113a490612904565b60405180910390fd5b81600660006101000a81548173ffffffffffffffffffffffffffffffffffffffff021916908373ffffffffffffffffffffffffffffffffffffffff16021790555060019050919050565b600560009054906101000a900473ffffffffffffffffffffffffffffffffffffffff1681565b6001805461142a90612bd4565b80601f016020809104026020016040519081016040528092919081815260200182805461145690612bd4565b80156114a35780601f10611478576101008083540402835291602001916114a3565b820191906000526020600020905b81548152906001019060200180831161148657829003601f168201915b505050505081565b60008073ffffffffffffffffffffffffffffffffffffffff168373ffffffffffffffffffffffffffffffffffffffff16141561151c576040517f08c379a000000000000000000000000000000000000000000000000000000000815260040161151390612764565b60405180910390fd5b600760003373ffffffffffffffffffffffffffffffffffffffff1673ffffffffffffffffffffffffffffffffffffffff1681526020019081526020016000205482111561159e576040517f08c379a0000000000000000000000000000000000000000000000000000000008152600401611595906127c4565b60405180910390fd5b6115f082600760003373ffffffffffffffffffffffffffffffffffffffff1673ffffffffffffffffffffffffffffffffffffffff16815260200190815260200160002054611e1690919063ffffffff16565b600760003373ffffffffffffffffffffffffffffffffffffffff1673ffffffffffffffffffffffffffffffffffffffff16815260200190815260200160002081905550600061166b68056bc75e2d6310000061165d67016345785d8a000086611e7590919063ffffffff16565b611ef090919063ffffffff16565b905060006116828285611e1690919063ffffffff16565b90506116f88260076000600460009054906101000a900473ffffffffffffffffffffffffffffffffffffffff1673ffffffffffffffffffffffffffffffffffffffff1673ffffffffffffffffffffffffffffffffffffffff16815260200190815260200160002054611f4e90919063ffffffff16565b60076000600460009054906101000a900473ffffffffffffffffffffffffffffffffffffffff1673ffffffffffffffffffffffffffffffffffffffff1673ffffffffffffffffffffffffffffffffffffffff168152602001908152602001600020819055506117af81600760008873ffffffffffffffffffffffffffffffffffffffff1673ffffffffffffffffffffffffffffffffffffffff16815260200190815260200160002054611f4e90919063ffffffff16565b600760008773ffffffffffffffffffffffffffffffffffffffff1673ffffffffffffffffffffffffffffffffffffffff168152602001908152602001600020819055508473ffffffffffffffffffffffffffffffffffffffff163373ffffffffffffffffffffffffffffffffffffffff167fddf252ad1be2c89b69c2b068fc378daa952ba7f163c4a11628f55a4df523b3ef8360405161184f9190612984565b60405180910390a3600460009054906101000a900473ffffffffffffffffffffffffffffffffffffffff1673ffffffffffffffffffffffffffffffffffffffff163373ffffffffffffffffffffffffffffffffffffffff167fddf252ad1be2c89b69c2b068fc378daa952ba7f163c4a11628f55a4df523b3ef846040516118d69190612984565b60405180910390a360019250505092915050565b60008073ffffffffffffffffffffffffffffffffffffffff168573ffffffffffffffffffffffffffffffffffffffff16141561195b576040517f08c379a000000000000000000000000000000000000000000000000000000000815260040161195290612764565b60405180910390fd5b600084101561199f576040517f08c379a0000000000000000000000000000000000000000000000000000000008152600401611996906127a4565b60405180910390fd5b6001151560096000856000600381106119e1577f4e487b7100000000000000000000000000000000000000000000000000000000600052603260045260246000fd5b6020020151815260200190815260200160002060009054906101000a900460ff1615151415611a45576040517f08c379a0000000000000000000000000000000000000000000000000000000008152600401611a3c90612944565b60405180910390fd5b600660009054906101000a900473ffffffffffffffffffffffffffffffffffffffff1673ffffffffffffffffffffffffffffffffffffffff16600184600060038110611aba577f4e487b7100000000000000000000000000000000000000000000000000000000600052603260045260246000fd5b60200201518486600160038110611afa577f4e487b7100000000000000000000000000000000000000000000000000000000600052603260045260246000fd5b602002015187600260038110611b39577f4e487b7100000000000000000000000000000000000000000000000000000000600052603260045260246000fd5b602002015160405160008152602001604052604051611b5b94939291906126fd565b6020604051602081039080840390855afa158015611b7d573d6000803e3d6000fd5b5050506020604051035173ffffffffffffffffffffffffffffffffffffffff1614611bdd576040517f08c379a0000000000000000000000000000000000000000000000000000000008152600401611bd4906128a4565b60405180910390fd5b611bf284600354611f4e90919063ffffffff16565b600381905550611c4a84600760008873ffffffffffffffffffffffffffffffffffffffff1673ffffffffffffffffffffffffffffffffffffffff16815260200190815260200160002054611f4e90919063ffffffff16565b600760008773ffffffffffffffffffffffffffffffffffffffff1673ffffffffffffffffffffffffffffffffffffffff1681526020019081526020016000208190555060016009600085600060038110611ccd577f4e487b7100000000000000000000000000000000000000000000000000000000600052603260045260246000fd5b6020020151815260200190815260200160002060006101000a81548160ff0219169083151502179055508473ffffffffffffffffffffffffffffffffffffffff16600073ffffffffffffffffffffffffffffffffffffffff167fddf252ad1be2c89b69c2b068fc378daa952ba7f163c4a11628f55a4df523b3ef86604051611d559190612984565b60405180910390a360019050949350505050565b6000600860008473ffffffffffffffffffffffffffffffffffffffff1673ffffffffffffffffffffffffffffffffffffffff16815260200190815260200160002060008373ffffffffffffffffffffffffffffffffffffffff1673ffffffffffffffffffffffffffffffffffffffff16815260200190815260200160002054905092915050565b600660009054906101000a900473ffffffffffffffffffffffffffffffffffffffff1681565b600082821115611e5b576040517f08c379a0000000000000000000000000000000000000000000000000000000008152600401611e5290612844565b60405180910390fd5b60008284611e699190612b0e565b90508091505092915050565b600080831415611e885760009050611eea565b60008284611e969190612ab4565b9050828482611ea59190612a83565b14611ee5576040517f08c379a0000000000000000000000000000000000000000000000000000000008152600401611edc90612964565b60405180910390fd5b809150505b92915050565b6000808211611f34576040517f08c379a0000000000000000000000000000000000000000000000000000000008152600401611f2b90612804565b60405180910390fd5b60008284611f429190612a83565b90508091505092915050565b6000808284611f5d9190612a2d565b905083811015611fa2576040517f08c379a0000000000000000000000000000000000000000000000000000000008152600401611f99906128e4565b60405180910390fd5b8091505092915050565b6000611fbf611fba846129eb565b6129ba565b90508082856020860282011115611fd557600080fd5b60005b858110156120055781611feb888261204b565b845260208401935060208301925050600181019050611fd8565b5050509392505050565b60008135905061201e81612cd3565b92915050565b600082601f83011261203557600080fd5b6003612042848285611fac565b91505092915050565b60008135905061205a81612cea565b92915050565b60008135905061206f81612d01565b92915050565b60008135905061208481612d18565b92915050565b60006020828403121561209c57600080fd5b60006120aa8482850161200f565b91505092915050565b600080604083850312156120c657600080fd5b60006120d48582860161200f565b92505060206120e58582860161200f565b9150509250929050565b60008060006060848603121561210457600080fd5b60006121128682870161200f565b93505060206121238682870161200f565b925050604061213486828701612060565b9150509250925092565b6000806040838503121561215157600080fd5b600061215f8582860161200f565b925050602061217085828601612060565b9150509250929050565b60008060008060c0858703121561219057600080fd5b600061219e8782880161200f565b94505060206121af87828801612060565b93505060406121c087828801612024565b92505060a06121d187828801612075565b91505092959194509250565b6121e681612b42565b82525050565b6121f581612b54565b82525050565b61220481612b60565b82525050565b600061221582612a11565b61221f8185612a1c565b935061222f818560208601612ba1565b61223881612cc2565b840191505092915050565b6000612250600f83612a1c565b91507f496e76616c6964206164647265737300000000000000000000000000000000006000830152602082019050919050565b6000612290600a83612a1c565b91507f4f6e6c79206f776e6572000000000000000000000000000000000000000000006000830152602082019050919050565b60006122d0600e83612a1c565b91507f496e76616c696420616d6f756e740000000000000000000000000000000000006000830152602082019050919050565b6000612310601483612a1c565b91507f496e73756666696369656e742062616c616e63650000000000000000000000006000830152602082019050919050565b6000612350600c83612a1c565b91507f4e756c6c206164647265737300000000000000000000000000000000000000006000830152602082019050919050565b6000612390601a83612a1c565b91507f536166654d6174683a206469766973696f6e206279207a65726f0000000000006000830152602082019050919050565b60006123d0601483612a1c565b91507f496e76616c69642066726f6d20616464726573730000000000000000000000006000830152602082019050919050565b6000612410601e83612a1c565b91507f536166654d6174683a205375627472616374696f6e206f766572666c6f7700006000830152602082019050919050565b6000612450601183612a1c565b91507f496e76616c696420616c6c6f77616e63650000000000000000000000000000006000830152602082019050919050565b6000612490601283612a1c565b91507f496e76616c696420746f206164647265737300000000000000000000000000006000830152602082019050919050565b60006124d0601183612a1c565b91507f496e76616c6964205369676e61747572650000000000000000000000000000006000830152602082019050919050565b6000612510600d83612a1c565b91507f496e76616c69642076616c7565000000000000000000000000000000000000006000830152602082019050919050565b6000612550601b83612a1c565b91507f536166654d6174683a204164646974696f6e206f766572666c6f7700000000006000830152602082019050919050565b6000612590600f83612a1c565b91507f496e76616c6964204164647265737300000000000000000000000000000000006000830152602082019050919050565b60006125d0600f83612a1c565b91507f496e76616c69642062616c616e636500000000000000000000000000000000006000830152602082019050919050565b6000612610600b83612a1c565b91507f48617368206578697374730000000000000000000000000000000000000000006000830152602082019050919050565b6000612650602183612a1c565b91507f536166654d6174683a204d756c7469706c69636174696f6e206f766572666c6f60008301527f77000000000000000000000000000000000000000000000000000000000000006020830152604082019050919050565b6126b281612b8a565b82525050565b6126c181612b94565b82525050565b60006020820190506126dc60008301846121dd565b92915050565b60006020820190506126f760008301846121ec565b92915050565b600060808201905061271260008301876121fb565b61271f60208301866126b8565b61272c60408301856121fb565b61273960608301846121fb565b95945050505050565b6000602082019050818103600083015261275c818461220a565b905092915050565b6000602082019050818103600083015261277d81612243565b9050919050565b6000602082019050818103600083015261279d81612283565b9050919050565b600060208201905081810360008301526127bd816122c3565b9050919050565b600060208201905081810360008301526127dd81612303565b9050919050565b600060208201905081810360008301526127fd81612343565b9050919050565b6000602082019050818103600083015261281d81612383565b9050919050565b6000602082019050818103600083015261283d816123c3565b9050919050565b6000602082019050818103600083015261285d81612403565b9050919050565b6000602082019050818103600083015261287d81612443565b9050919050565b6000602082019050818103600083015261289d81612483565b9050919050565b600060208201905081810360008301526128bd816124c3565b9050919050565b600060208201905081810360008301526128dd81612503565b9050919050565b600060208201905081810360008301526128fd81612543565b9050919050565b6000602082019050818103600083015261291d81612583565b9050919050565b6000602082019050818103600083015261293d816125c3565b9050919050565b6000602082019050818103600083015261295d81612603565b9050919050565b6000602082019050818103600083015261297d81612643565b9050919050565b600060208201905061299960008301846126a9565b92915050565b60006020820190506129b460008301846126b8565b92915050565b6000604051905081810181811067ffffffffffffffff821117156129e1576129e0612c93565b5b8060405250919050565b600067ffffffffffffffff821115612a0657612a05612c93565b5b602082029050919050565b600081519050919050565b600082825260208201905092915050565b6000612a3882612b8a565b9150612a4383612b8a565b9250827fffffffffffffffffffffffffffffffffffffffffffffffffffffffffffffffff03821115612a7857612a77612c06565b5b828201905092915050565b6000612a8e82612b8a565b9150612a9983612b8a565b925082612aa957612aa8612c35565b5b828204905092915050565b6000612abf82612b8a565b9150612aca83612b8a565b9250817fffffffffffffffffffffffffffffffffffffffffffffffffffffffffffffffff0483118215151615612b0357612b02612c06565b5b828202905092915050565b6000612b1982612b8a565b9150612b2483612b8a565b925082821015612b3757612b36612c06565b5b828203905092915050565b6000612b4d82612b6a565b9050919050565b60008115159050919050565b6000819050919050565b600073ffffffffffffffffffffffffffffffffffffffff82169050919050565b6000819050919050565b600060ff82169050919050565b60005b83811015612bbf578082015181840152602081019050612ba4565b83811115612bce576000848401525b50505050565b60006002820490506001821680612bec57607f821691505b60208210811415612c0057612bff612c64565b5b50919050565b7f4e487b7100000000000000000000000000000000000000000000000000000000600052601160045260246000fd5b7f4e487b7100000000000000000000000000000000000000000000000000000000600052601260045260246000fd5b7f4e487b7100000000000000000000000000000000000000000000000000000000600052602260045260246000fd5b7f4e487b7100000000000000000000000000000000000000000000000000000000600052604160045260246000fd5b6000601f19601f8301169050919050565b612cdc81612b42565b8114612ce757600080fd5b50565b612cf381612b60565b8114612cfe57600080fd5b50565b612d0a81612b8a565b8114612d1557600080fd5b50565b612d2181612b94565b8114612d2c57600080fd5b5056fea2646970667358221220e3c96ba9aadd9741a307e3aa0080467766e1898be1a433b17cb1f38dc911c8e664736f6c63430008000033",
  "immutableReferences": {},
  "source": "// SPDX-License-Identifier: UNLICENSED\r\npragma solidity ^0.8.0;\r\n\r\n\r\nlibrary SafeMath {\r\n\r\n    function add(uint256 a, uint256 b) internal pure returns (uint256) {\r\n        uint256 c = a + b;\r\n        require(c >= a, \"SafeMath: Addition overflow\");\r\n        return c;\r\n    }\r\n\r\n    function sub(uint256 a, uint256 b) internal pure returns (uint256) {\r\n        require(b <= a, \"SafeMath: Subtraction overflow\");\r\n        uint256 c = a - b;\r\n        return c;\r\n    }\r\n\r\n    function mul(uint256 a, uint256 b) internal pure returns (uint256) {\r\n        if (a == 0) {\r\n            return 0;\r\n        }\r\n        \r\n        uint256 c = a * b;\r\n        require(c / a == b, \"SafeMath: Multiplication overflow\");\r\n        return c;\r\n    }\r\n\r\n    function div(uint256 a, uint256 b) internal pure returns (uint256) {\r\n        // Solidity only automatically asserts when divide by 0\r\n        require(b > 0, \"SafeMath: division by zero\");\r\n        uint256 c = a / b;\r\n        // assert(a == b * c + a % b); // There is no case in which this doesn't hold\r\n        return c;\r\n    }\r\n    \r\n    function mod(uint256 a, uint256 b) internal pure returns (uint256) {\r\n        require(b != 0, \"SafeMath: Modulo by zero\");\r\n        return a % b;\r\n    }\r\n}\r\n\r\n\r\nabstract contract BEP20 {\r\n    function transferFrom(address from, address to, uint256 value) virtual public returns (bool);\r\n    function approve(address spender, uint256 value) virtual public returns (bool);\r\n    function transfer(address to, uint256 value) virtual public returns(bool);\r\n    function allowance(address owner, address spender) virtual public view returns (uint256);\r\n    event Transfer(address indexed from, address indexed to, uint256 value);\r\n    event Approval(address indexed owner, address indexed spender, uint256 value);\r\n}\r\n\r\n\r\ncontract FreedomUnlimitedToken is BEP20 {\r\n    \r\n    using SafeMath for uint256;\r\n    \r\n    string public name;\r\n    string public symbol;\r\n    uint8 public decimals;\r\n    uint256 public totalSupply;\r\n    address public burnAddress;\r\n    address public owner;\r\n    address public sigAddress;\r\n    \r\n    mapping (address => uint256) public balances;\r\n    mapping (address => mapping (address => uint256)) public allowed;\r\n    mapping (bytes32 => bool) private hashConfirmation;\r\n\r\n    constructor (address _burnAddress, address _sigAddress) {\r\n        symbol = \"FreedomU\";\r\n        name = \"Freedom Unlimited\";\r\n        decimals = 18;\r\n        burnAddress = _burnAddress;\r\n        owner = msg.sender;\r\n        sigAddress = _sigAddress;\r\n    }\r\n    \r\n    modifier onlyOwner() {\r\n        require(msg.sender == owner, \"Only owner\");\r\n        _;\r\n    }\r\n    \r\n    /**\r\n     * @dev Check balance of the holder\r\n     * @param _owner Token holder address\r\n     */ \r\n    function balanceOf(address _owner) public view returns (uint256) {\r\n        return balances[_owner];\r\n    }\r\n\r\n    /**\r\n     * @dev Transfer token to specified address\r\n     * @param _to Receiver address\r\n     * @param _value Amount of the tokens\r\n     */\r\n    function transfer(address _to, uint256 _value) override public returns (bool) {\r\n        require(_to != address(0), \"Invalid address\");\r\n        require(_value <= balances[msg.sender], \"Insufficient balance\");\r\n        \r\n        balances[msg.sender] = balances[msg.sender].sub(_value);\r\n        uint256 burnFee = (_value.mul(0.1 ether)).div(10**20);\r\n        uint256 balanceFee = _value.sub(burnFee);\r\n        balances[burnAddress] = balances[burnAddress].add(burnFee);\r\n        balances[_to] = balances[_to].add(balanceFee);\r\n        \r\n        emit Transfer(msg.sender, _to, balanceFee);\r\n        emit Transfer(msg.sender, burnAddress, burnFee);\r\n        return true;\r\n    }\r\n\r\n    /**\r\n     * @dev Transfer tokens from one address to another\r\n     * @param _from  The holder address\r\n     * @param _to  The Receiver address\r\n     * @param _value  the amount of tokens to be transferred\r\n     */\r\n    function transferFrom(address _from, address _to, uint256 _value) override public returns (bool) {\r\n        require(_from != address(0), \"Invalid from address\");\r\n        require(_to != address(0), \"Invalid to address\");\r\n        require(_value <= balances[_from], \"Invalid balance\");\r\n        require(_value <= allowed[_from][msg.sender], \"Invalid allowance\");\r\n        \r\n        balances[_from] = balances[_from].sub(_value);\r\n        uint256 burnFee = (_value.mul(0.1 ether)).div(10**20);\r\n        uint256 balanceFee = _value.sub(burnFee);\r\n        balances[burnAddress] = balances[burnAddress].add(burnFee);\r\n        balances[msg.sender] = balances[msg.sender].add(balanceFee);\r\n        allowed[_from][msg.sender] = allowed[_from][msg.sender].sub(_value);\r\n        \r\n        emit Transfer(_from, _to, balanceFee);\r\n        emit Transfer(_from, burnAddress, burnFee);\r\n        return true;\r\n    }\r\n    \r\n    /**\r\n     * @dev Approve respective tokens for spender\r\n     * @param _spender Spender address\r\n     * @param _value Amount of tokens to be allowed\r\n     */\r\n    function approve(address _spender, uint256 _value) override public returns (bool) {\r\n        require(_spender != address(0), \"Null address\");\r\n        require(_value > 0, \"Invalid value\");\r\n        allowed[msg.sender][_spender] = _value;\r\n        emit Approval(msg.sender, _spender, _value);\r\n        return true;\r\n    }\r\n\r\n    /**\r\n     * @dev To view approved balance\r\n     * @param _owner Holder address\r\n     * @param _spender Spender address\r\n     */ \r\n    function allowance(address _owner, address _spender) override public view returns (uint256) {\r\n        return allowed[_owner][_spender];\r\n    }  \r\n    \r\n    /**\r\n     * @dev To change burnt Address\r\n     * @param _newOwner New owner address\r\n     */ \r\n    function changeowner(address _newOwner) public onlyOwner returns(bool) {\r\n        require(_newOwner != address(0), \"Invalid Address\");\r\n        owner = _newOwner;\r\n        return true;\r\n    }\r\n   \r\n    \r\n    /**\r\n     * @dev To change burnt Address\r\n     * @param _burnAddress New burn address\r\n     */ \r\n    function changeburnt(address _burnAddress) public onlyOwner returns(bool) {\r\n        require(_burnAddress != address(0), \"Invalid Address\");\r\n        burnAddress = _burnAddress;\r\n        return true;\r\n    }\r\n    \r\n    /**\r\n     * @dev To change signature Address\r\n     * @param _newSigAddress New sigOwner address\r\n     */ \r\n    function changesigAddress(address _newSigAddress) public onlyOwner returns(bool) {\r\n        require(_newSigAddress != address(0), \"Invalid Address\");\r\n        sigAddress = _newSigAddress;\r\n        return true;\r\n    }\r\n    \r\n    /**\r\n     * @dev To mint OAP Tokens\r\n     * @param _receiver Reciever address\r\n     * @param _amount Amount to mint\r\n     * @param _mrs _mrs[0] - message hash _mrs[1] - r of signature _mrs[2] - s of signature \r\n     * @param _v  v of signature\r\n     */ \r\n    function mint(address _receiver, uint256 _amount,bytes32[3] memory _mrs, uint8 _v) public returns (bool) {\r\n        require(_receiver != address(0), \"Invalid address\");\r\n        require(_amount >= 0, \"Invalid amount\");\r\n        require(hashConfirmation[_mrs[0]] != true, \"Hash exists\");\r\n        require(ecrecover(_mrs[0], _v, _mrs[1], _mrs[2]) == sigAddress, \"Invalid Signature\");\r\n        totalSupply = totalSupply.add(_amount);\r\n        balances[_receiver] = balances[_receiver].add(_amount);\r\n        hashConfirmation[_mrs[0]] = true;\r\n        emit Transfer(address(0), _receiver, _amount);\r\n        return true;\r\n    }\r\n    \r\n    /**\r\n     * @dev To mint FreedomU Tokens\r\n     * @param _receiver Reciever address\r\n     * @param _amount Amount to mint\r\n     */ \r\n    function ownerMint(address _receiver, uint256 _amount) public onlyOwner returns (bool) {\r\n        require(_receiver != address(0), \"Invalid address\");\r\n        require(_amount >= 0, \"Invalid amount\");\r\n        totalSupply = totalSupply.add(_amount);\r\n        balances[_receiver] = balances[_receiver].add(_amount);\r\n        emit Transfer(address(0), _receiver, _amount);\r\n        return true;\r\n    }\r\n}",
  "sourcePath": "C:/Users/Andrew Dufresne/Desktop/Dev/Solidity/FU/f-u/contracts/FreedomUnlimitedToken.sol",
  "compiler": {
    "name": "solc",
    "version": "0.8.0+commit.c7dfd78e.Emscripten.clang"
  },
  "schemaVersion": "3.4.1",
  "updatedAt": "2021-10-22T04:57:07.043Z",
  "devdoc": {
    "kind": "dev",
    "methods": {
      "allowance(address,address)": {
        "details": "To view approved balance",
        "params": {
          "_owner": "Holder address",
          "_spender": "Spender address"
        }
      },
      "approve(address,uint256)": {
        "details": "Approve respective tokens for spender",
        "params": {
          "_spender": "Spender address",
          "_value": "Amount of tokens to be allowed"
        }
      },
      "balanceOf(address)": {
        "details": "Check balance of the holder",
        "params": {
          "_owner": "Token holder address"
        }
      },
      "changeburnt(address)": {
        "details": "To change burnt Address",
        "params": {
          "_burnAddress": "New burn address"
        }
      },
      "changeowner(address)": {
        "details": "To change burnt Address",
        "params": {
          "_newOwner": "New owner address"
        }
      },
      "changesigAddress(address)": {
        "details": "To change signature Address",
        "params": {
          "_newSigAddress": "New sigOwner address"
        }
      },
      "mint(address,uint256,bytes32[3],uint8)": {
        "details": "To mint OAP Tokens",
        "params": {
          "_amount": "Amount to mint",
          "_mrs": "_mrs[0] - message hash _mrs[1] - r of signature _mrs[2] - s of signature ",
          "_receiver": "Reciever address",
          "_v": "v of signature"
        }
      },
      "ownerMint(address,uint256)": {
        "details": "To mint FreedomU Tokens",
        "params": {
          "_amount": "Amount to mint",
          "_receiver": "Reciever address"
        }
      },
      "transfer(address,uint256)": {
        "details": "Transfer token to specified address",
        "params": {
          "_to": "Receiver address",
          "_value": "Amount of the tokens"
        }
      },
      "transferFrom(address,address,uint256)": {
        "details": "Transfer tokens from one address to another",
        "params": {
          "_from": "The holder address",
          "_to": "The Receiver address",
          "_value": "the amount of tokens to be transferred"
        }
      }
    },
    "version": 1
  },
  "userdoc": {
    "kind": "user",
    "methods": {},
    "version": 1
  }
}