{
  "contractName": "Ownable",
  "abi": [
    {
      "inputs": [],
      "stateMutability": "nonpayable",
      "type": "constructor"
    },
    {
      "inputs": [],
      "name": "manager",
      "outputs": [
        {
          "internalType": "address",
          "name": "",
          "type": "address"
        }
      ],
      "stateMutability": "view",
      "type": "function"
    },
    {
      "inputs": [],
      "name": "owner",
      "outputs": [
        {
          "internalType": "address",
          "name": "",
          "type": "address"
        }
      ],
      "stateMutability": "view",
      "type": "function"
    },
    {
      "inputs": [],
      "name": "ownerWallet",
      "outputs": [
        {
          "internalType": "address",
          "name": "",
          "type": "address"
        }
      ],
      "stateMutability": "view",
      "type": "function"
    },
    {
      "inputs": [
        {
          "internalType": "address",
          "name": "newOwner",
          "type": "address"
        }
      ],
      "name": "transferOwnership",
      "outputs": [],
      "stateMutability": "nonpayable",
      "type": "function"
    },
    {
      "inputs": [
        {
          "internalType": "address",
          "name": "_manager",
          "type": "address"
        }
      ],
      "name": "setManager",
      "outputs": [],
      "stateMutability": "nonpayable",
      "type": "function"
    }
  ],
  "bytecode": "0x608060405234801561001057600080fd5b50336000806101000a81548173ffffffffffffffffffffffffffffffffffffffff021916908373ffffffffffffffffffffffffffffffffffffffff16021790555033600160006101000a81548173ffffffffffffffffffffffffffffffffffffffff021916908373ffffffffffffffffffffffffffffffffffffffff16021790555033600260006101000a81548173ffffffffffffffffffffffffffffffffffffffff021916908373ffffffffffffffffffffffffffffffffffffffff160217905550610511806100e26000396000f3fe608060405234801561001057600080fd5b50600436106100575760003560e01c8063481c6a751461005c5780638da5cb5b1461007a5780639335dcb714610098578063d0ebdbe7146100b6578063f2fde38b146100d2575b600080fd5b6100646100ee565b6040516100719190610426565b60405180910390f35b610082610114565b60405161008f9190610426565b60405180910390f35b6100a0610138565b6040516100ad9190610426565b60405180910390f35b6100d060048036038101906100cb919061036e565b61015e565b005b6100ec60048036038101906100e7919061036e565b610288565b005b600160009054906101000a900473ffffffffffffffffffffffffffffffffffffffff1681565b60008054906101000a900473ffffffffffffffffffffffffffffffffffffffff1681565b600260009054906101000a900473ffffffffffffffffffffffffffffffffffffffff1681565b60008054906101000a900473ffffffffffffffffffffffffffffffffffffffff1673ffffffffffffffffffffffffffffffffffffffff163373ffffffffffffffffffffffffffffffffffffffff1614806102055750600160009054906101000a900473ffffffffffffffffffffffffffffffffffffffff1673ffffffffffffffffffffffffffffffffffffffff163373ffffffffffffffffffffffffffffffffffffffff16145b610244576040517f08c379a000000000000000000000000000000000000000000000000000000000815260040161023b90610461565b60405180910390fd5b80600160006101000a81548173ffffffffffffffffffffffffffffffffffffffff021916908373ffffffffffffffffffffffffffffffffffffffff16021790555050565b60008054906101000a900473ffffffffffffffffffffffffffffffffffffffff1673ffffffffffffffffffffffffffffffffffffffff163373ffffffffffffffffffffffffffffffffffffffff1614610316576040517f08c379a000000000000000000000000000000000000000000000000000000000815260040161030d90610441565b60405180910390fd5b806000806101000a81548173ffffffffffffffffffffffffffffffffffffffff021916908373ffffffffffffffffffffffffffffffffffffffff16021790555050565b600081359050610368816104c4565b92915050565b60006020828403121561038057600080fd5b600061038e84828501610359565b91505092915050565b6103a081610492565b82525050565b60006103b3600e83610481565b91507f6f6e6c7920666f72206f776e65720000000000000000000000000000000000006000830152602082019050919050565b60006103f3601983610481565b91507f6f6e6c7920666f72206f776e6572206f72206d616e61676572000000000000006000830152602082019050919050565b600060208201905061043b6000830184610397565b92915050565b6000602082019050818103600083015261045a816103a6565b9050919050565b6000602082019050818103600083015261047a816103e6565b9050919050565b600082825260208201905092915050565b600061049d826104a4565b9050919050565b600073ffffffffffffffffffffffffffffffffffffffff82169050919050565b6104cd81610492565b81146104d857600080fd5b5056fea2646970667358221220652f4f6ca1adc9fb8592922853b1861f8b702bbc852be8857249eee61942b4d664736f6c63430008000033",
  "immutableReferences": {},
  "source": "// SPDX-License-Identifier: UNLICENSED\npragma solidity ^0.8.0;\n\n\nlibrary SafeMath {\n\n  function mul(uint256 a, uint256 b) internal pure returns (uint256) {\n    uint256 c = a * b;\n    assert(a == 0 || c / a == b);\n    return c;\n  }\n\n  function div(uint256 a, uint256 b) internal pure returns (uint256) {\n    uint256 c = a / b;\n    return c;\n  }\n\n  function sub(uint256 a, uint256 b) internal pure returns (uint256) {\n    assert(b <= a);\n    return a - b;\n  }\n\n  function add(uint256 a, uint256 b) internal pure returns (uint256) {\n    uint256 c = a + b;\n    assert(c >= a);\n    return c;\n  }\n\n}\n\n\ncontract Ownable {\n\n  address public owner;\n  address public manager;\n  address public ownerWallet;\n\n  constructor() {\n    owner = msg.sender;\n    manager = msg.sender;\n    ownerWallet = msg.sender;\n  }\n\n  modifier onlyOwner() {\n    require(msg.sender == owner, \"only for owner\");\n    _;\n  }\n\n  modifier onlyOwnerOrManager() {\n     require((msg.sender == owner)||(msg.sender == manager), \"only for owner or manager\");\n      _;\n  }\n\n  function transferOwnership(address newOwner) public onlyOwner {\n    owner = newOwner;\n  }\n\n  function setManager(address _manager) public onlyOwnerOrManager {\n      manager = _manager;\n  }\n}\n\n\ncontract FreedomUnlimited is Ownable {\n    using SafeMath for uint256;\n    \n    event regLevelEvent(address indexed _user, address indexed _referrer, uint _time);\n    event buyLevelEvent(address indexed _user, uint _level, uint _time);\n    event prolongateLevelEvent(address indexed _user, uint _level, uint _time);\n    event getMoneyForLevelEvent(address indexed _user, address indexed _referral, uint _level, uint _time);\n    event lostMoneyForLevelEvent(address indexed _user, address indexed _referral, uint _level, uint _time);\n\n    struct UserStruct {\n        bool isExist;\n        uint id;\n        uint referrerID;\n        uint currentLevel;\n        uint totalEarningEth;\n        address[] referral;\n    }\n\n    mapping (uint => uint) public LEVEL_PRICE;\n    mapping (address => mapping(uint => uint)) public levelExpired;\n    mapping (address => UserStruct) public users;\n    mapping (uint => address) public userList;\n    uint public currUserID = 0;\n    uint public adminFee = 16 ether;\n    uint REFERRER_1_LEVEL_LIMIT = 3;\n    uint PERIOD_LENGTH = 30 days;\n    bool public lockStatus;\n\n    constructor() {\n\n        LEVEL_PRICE[1] = 0.05 ether;\n        LEVEL_PRICE[2] = 0.15 ether;\n        LEVEL_PRICE[3] = 0.45 ether;\n        LEVEL_PRICE[4] = 1.35 ether;\n        LEVEL_PRICE[5] = 4.05 ether;\n        LEVEL_PRICE[6] = 12.15 ether;\n        LEVEL_PRICE[7] = 36.45 ether;\n        LEVEL_PRICE[8] = 109.35 ether;\n\n        UserStruct memory userStruct;\n        currUserID++;\n\n        userStruct = UserStruct({\n            isExist : true,\n            id : currUserID,\n            referrerID : 0,\n            currentLevel : 8,\n            totalEarningEth : 0,\n            referral : new address[](0)\n        });\n        users[ownerWallet] = userStruct;\n        userList[currUserID] = ownerWallet;\n\n        levelExpired[ownerWallet][1] = 77777777777;\n        levelExpired[ownerWallet][2] = 77777777777;\n        levelExpired[ownerWallet][3] = 77777777777;\n        levelExpired[ownerWallet][4] = 77777777777;\n        levelExpired[ownerWallet][5] = 77777777777;\n        levelExpired[ownerWallet][6] = 77777777777;\n        levelExpired[ownerWallet][7] = 77777777777;\n        levelExpired[ownerWallet][8] = 77777777777;\n    }\n\n    receive () external payable {\n        receiveFunds();\n    }\n\n    /**\n     * @dev receive funds if not calling on regUser or buyLevel this is called when funds sent directly to contract. \n     */ \n    function receiveFunds() public payable {\n        uint level;\n\n        if(msg.value == LEVEL_PRICE[1]){\n            level = 1;\n        }else if(msg.value == LEVEL_PRICE[2]){\n            level = 2;\n        }else if(msg.value == LEVEL_PRICE[3]){\n            level = 3;\n        }else if(msg.value == LEVEL_PRICE[4]){\n            level = 4;\n        }else if(msg.value == LEVEL_PRICE[5]){\n            level = 5;\n        }else if(msg.value == LEVEL_PRICE[6]){\n            level = 6;\n        }else if(msg.value == LEVEL_PRICE[7]){\n            level = 7;\n        }else if(msg.value == LEVEL_PRICE[8]){\n            level = 8;\n        }else {\n            revert('Incorrect Value send');\n        }\n\n        if(users[msg.sender].isExist){\n            buyLevel(level);\n        } else if(level == 1) {\n            uint refId = 0;\n            address referrer = bytesToAddress(msg.data);\n\n            if (users[referrer].isExist){\n                refId = users[referrer].id;\n            } else {\n                revert('Incorrect referrer');\n            }\n\n            regUser(refId);\n        } else {\n            revert(\"Please buy first level for 0.05 ETH\");\n        }\n    }\n\n    /**\n     * @dev register new user into system\n     */ \n    function regUser(uint _referrerID) public payable {\n        require(!users[msg.sender].isExist, 'User exist');\n        require(lockStatus == false, \"Contract Locked\");\n        require(_referrerID > 0 && _referrerID <= currUserID, 'Incorrect referrer Id');\n\n        require(msg.value==LEVEL_PRICE[1], 'Incorrect Value');\n\n\n        if(users[userList[_referrerID]].referral.length >= REFERRER_1_LEVEL_LIMIT)\n        {\n            _referrerID = users[findFreeReferrer(userList[_referrerID])].id;\n        }\n\n\n        UserStruct memory userStruct;\n        currUserID++;\n\n        userStruct = UserStruct({\n            isExist : true,\n            id : currUserID,\n            referrerID : _referrerID,\n            currentLevel : 1,\n            totalEarningEth : 0,\n            referral : new address[](0)\n        });\n\n        users[msg.sender] = userStruct;\n        userList[currUserID] = msg.sender;\n\n        levelExpired[msg.sender][1] = block.timestamp + PERIOD_LENGTH;\n        levelExpired[msg.sender][2] = 0;\n        levelExpired[msg.sender][3] = 0;\n        levelExpired[msg.sender][4] = 0;\n        levelExpired[msg.sender][5] = 0;\n        levelExpired[msg.sender][6] = 0;\n        levelExpired[msg.sender][7] = 0;\n        levelExpired[msg.sender][8] = 0;\n\n        users[userList[_referrerID]].referral.push(msg.sender);\n\n        payForLevel(1, msg.sender);\n\n        emit regLevelEvent(msg.sender, userList[_referrerID], block.timestamp);\n    }\n\n    /**\n     * @dev buy into next level up\n     */ \n    function buyLevel(uint _level) public payable {\n        require(users[msg.sender].isExist, 'User not exist');\n        require(lockStatus == false, \"Contract Locked\");\n        require( _level>0 && _level<=8, 'Incorrect level');\n\n        if(_level == 1){\n            require(msg.value==LEVEL_PRICE[1], 'Incorrect Value');\n            levelExpired[msg.sender][1] += PERIOD_LENGTH;\n        } else {\n            require(msg.value==LEVEL_PRICE[_level], 'Incorrect Value');\n\n            for(uint l =_level-1; l>0; l-- ){\n                require(levelExpired[msg.sender][l] >= block.timestamp, 'Buy the previous level');\n            }\n\n            if(levelExpired[msg.sender][_level] == 0){\n                levelExpired[msg.sender][_level] = block.timestamp + PERIOD_LENGTH;\n            } else {\n                levelExpired[msg.sender][_level] += PERIOD_LENGTH;\n            }\n        }\n        payForLevel(_level, msg.sender);\n        emit buyLevelEvent(msg.sender, _level, block.timestamp);\n    }\n\n    /**\n     * @dev pay for level increase in inclusion\n     */ \n    function payForLevel(uint _level, address _user) internal {\n\n        address referer;\n        address referer1;\n        address referer2;\n        address referer3;\n        if(_level == 1 || _level == 5){\n            referer = userList[users[_user].referrerID];\n        } else if(_level == 2 || _level == 6){\n            referer1 = userList[users[_user].referrerID];\n            referer = userList[users[referer1].referrerID];\n        } else if(_level == 3 || _level == 7){\n            referer1 = userList[users[_user].referrerID];\n            referer2 = userList[users[referer1].referrerID];\n            referer = userList[users[referer2].referrerID];\n        } else if(_level == 4 || _level == 8){\n            referer1 = userList[users[_user].referrerID];\n            referer2 = userList[users[referer1].referrerID];\n            referer3 = userList[users[referer2].referrerID];\n            referer = userList[users[referer3].referrerID];\n        }\n\n        if(!users[referer].isExist){\n            referer = userList[1];\n        }\n\n        if(levelExpired[referer][_level] >= block.timestamp ){\n            uint _adminFee = (LEVEL_PRICE[_level].mul(adminFee)).div(10**20); // 8000000000000000 wei level 1 or 0.008 ether\n            uint _referralPay = LEVEL_PRICE[_level].sub(_adminFee); // 42000000000000000 wei level 1 or 0.042 ether\n            require(payable(referer).send(_referralPay) && payable(ownerWallet).send(_adminFee), \"Transaction Failure\" ); \n            emit getMoneyForLevelEvent(referer, msg.sender, _level, block.timestamp);\n        } else {\n            emit lostMoneyForLevelEvent(referer, msg.sender, _level, block.timestamp);\n            payForLevel(_level,referer);\n        }\n    }\n\n    /**\n     * @dev view free referrer address if available else return user address\n     */ \n    function findFreeReferrer(address _user) public view returns(address) {\n        if(users[_user].referral.length < REFERRER_1_LEVEL_LIMIT){\n            return _user;\n        }\n\n        address[] memory referrals = new address[](363);\n        referrals[0] = users[_user].referral[0]; \n        referrals[1] = users[_user].referral[1];\n        referrals[2] = users[_user].referral[2];\n\n        address freeReferrer;\n        bool noFreeReferrer = true;\n\n        for(uint i =0; i<363;i++){\n            if(users[referrals[i]].referral.length == REFERRER_1_LEVEL_LIMIT){\n                if(i<120){\n                    referrals[(i+1)*3] = users[referrals[i]].referral[0];\n                    referrals[(i+1)*3+1] = users[referrals[i]].referral[1];\n                    referrals[(i+1)*3+2] = users[referrals[i]].referral[2];\n                }\n            }else{\n                noFreeReferrer = false;\n                freeReferrer = referrals[i];\n                break;\n            }\n        }\n        require(!noFreeReferrer, 'No Free Referrer');\n        return freeReferrer;\n\n    }\n\n    /**\n     * @dev view referrals for user\n     */ \n    function viewUserReferral(address _user) public view returns(address[] memory) {\n        return users[_user].referral;\n    }\n\n    /**\n     * @dev view level expired at for address\n     */ \n    function viewUserLevelExpired(address _user, uint _level) public view returns(uint) {\n        return levelExpired[_user][_level];\n    }\n    \n    /**\n     * @dev convert byte to address\n     */ \n    function bytesToAddress(bytes memory bys) private pure returns (address  addr ) {\n        assembly {\n            addr := mload(add(bys, 20))\n        }\n    }\n    \n    /**\n     * @dev Contract balance withdraw\n     */ \n    function failSafe(address payable _toUser, uint _amount) public onlyOwner returns (bool) {\n        require(msg.sender == ownerWallet, \"only Owner Wallet\");\n        require(_toUser != address(0), \"Invalid Address\");\n        require(address(this).balance >= _amount, \"Insufficient balance\");\n\n        (_toUser).transfer(_amount);\n        return true;\n    }\n    \n    /**\n     * @dev Update level price\n     */ \n    function updatePrice(uint _level, uint _price) public onlyOwner returns (bool) {\n        require(msg.sender == ownerWallet, \"only OwnerWallet\");\n\n        LEVEL_PRICE[_level] = _price;\n        return true;\n    }\n\n    /**\n     * @dev Update contract status\n     */ \n    function contractLock(bool _lockStatus) public onlyOwner returns (bool) {\n        require(msg.sender == ownerWallet, \"Invalid User\");\n\n        lockStatus = _lockStatus;\n        return true;\n    }\n    \n    /**\n     * @dev Total earned ETH\n     */\n    function getTotalEarnedEther() public view returns (uint) {\n        uint totalEth;\n        for (uint i = 1; i <= currUserID; i++) {\n            totalEth = totalEth.add(users[userList[i]].totalEarningEth);\n        }\n        return totalEth;\n    }\n\n    /**\n     * @dev get user at address\n     */\n    function getUser(address _user) public view returns (bool, uint, uint, uint, uint) {\n        if(users[_user].isExist == false) {\n            return(false, currUserID, 0, 0, 0);\n        } else {\n            return(users[_user].isExist, users[_user].id, users[_user].referrerID, users[_user].currentLevel, users[_user].totalEarningEth);\n        }\n    }\n\n    /**\n     * @dev get contract balance    \n     */\n    function getContractBalance() public view returns (uint) {\n        return address(this).balance;\n    }\n}",
  "sourcePath": "/Users/adufres/TDG/BlockChain/FU/f-u/contracts/FreedomUnlimited.sol",
  "compiler": {
    "name": "solc",
    "version": "0.8.0+commit.c7dfd78e.Emscripten.clang"
  },
  "schemaVersion": "3.4.1",
  "updatedAt": "2021-10-23T03:47:37.927Z",
  "devdoc": {
    "kind": "dev",
    "methods": {},
    "version": 1
  },
  "userdoc": {
    "kind": "user",
    "methods": {},
    "version": 1
  }
}