{
  "contractName": "Ownable",
  "abi": [
    {
      "inputs": [],
      "stateMutability": "nonpayable",
      "type": "constructor"
    },
    {
      "anonymous": false,
      "inputs": [
        {
          "indexed": true,
          "internalType": "address",
          "name": "previousOwner",
          "type": "address"
        },
        {
          "indexed": true,
          "internalType": "address",
          "name": "newOwner",
          "type": "address"
        }
      ],
      "name": "OwnershipTransferred",
      "type": "event"
    },
    {
      "inputs": [],
      "name": "manager",
      "outputs": [
        {
          "internalType": "address",
          "name": "",
          "type": "address"
        }
      ],
      "stateMutability": "view",
      "type": "function"
    },
    {
      "inputs": [],
      "name": "owner",
      "outputs": [
        {
          "internalType": "address",
          "name": "",
          "type": "address"
        }
      ],
      "stateMutability": "view",
      "type": "function"
    },
    {
      "inputs": [],
      "name": "ownerWallet",
      "outputs": [
        {
          "internalType": "address",
          "name": "",
          "type": "address"
        }
      ],
      "stateMutability": "view",
      "type": "function"
    },
    {
      "inputs": [],
      "name": "renounceOwnership",
      "outputs": [],
      "stateMutability": "nonpayable",
      "type": "function"
    },
    {
      "inputs": [
        {
          "internalType": "address",
          "name": "newOwner",
          "type": "address"
        }
      ],
      "name": "transferOwnership",
      "outputs": [],
      "stateMutability": "nonpayable",
      "type": "function"
    },
    {
      "inputs": [
        {
          "internalType": "address",
          "name": "_manager",
          "type": "address"
        }
      ],
      "name": "setManager",
      "outputs": [],
      "stateMutability": "nonpayable",
      "type": "function"
    }
  ],
  "bytecode": "0x608060405234801561001057600080fd5b5060008054336001600160a01b03199182168117835560018054831682179055600280549092161790556104c590819061004a90396000f3fe608060405234801561001057600080fd5b50600436106100725760003560e01c80639335dcb7116100505780639335dcb7146100a7578063d0ebdbe7146100af578063f2fde38b146100c257610072565b8063481c6a7514610077578063715018a6146100955780638da5cb5b1461009f575b600080fd5b61007f6100d5565b60405161008c91906103a3565b60405180910390f35b61009d6100f1565b005b61007f610157565b61007f610173565b61009d6100bd366004610368565b61018f565b61009d6100d0366004610368565b610249565b60015473ffffffffffffffffffffffffffffffffffffffff1681565b60005473ffffffffffffffffffffffffffffffffffffffff16331461014b576040517f08c379a0000000000000000000000000000000000000000000000000000000008152600401610142906103c4565b60405180910390fd5b61015560006102f3565b565b60005473ffffffffffffffffffffffffffffffffffffffff1681565b60025473ffffffffffffffffffffffffffffffffffffffff1681565b60005473ffffffffffffffffffffffffffffffffffffffff163314806101cc575060015473ffffffffffffffffffffffffffffffffffffffff1633145b610202576040517f08c379a000000000000000000000000000000000000000000000000000000000815260040161014290610458565b600180547fffffffffffffffffffffffff00000000000000000000000000000000000000001673ffffffffffffffffffffffffffffffffffffffff92909216919091179055565b60005473ffffffffffffffffffffffffffffffffffffffff16331461029a576040517f08c379a0000000000000000000000000000000000000000000000000000000008152600401610142906103c4565b73ffffffffffffffffffffffffffffffffffffffff81166102e7576040517f08c379a0000000000000000000000000000000000000000000000000000000008152600401610142906103fb565b6102f0816102f3565b50565b6000805473ffffffffffffffffffffffffffffffffffffffff8381167fffffffffffffffffffffffff0000000000000000000000000000000000000000831681178455604051919092169283917f8be0079c531659141344cd1fd0a4f28419497f9722a3daafe3b4186f6b6457e09190a35050565b600060208284031215610379578081fd5b813573ffffffffffffffffffffffffffffffffffffffff8116811461039c578182fd5b9392505050565b73ffffffffffffffffffffffffffffffffffffffff91909116815260200190565b6020808252600e908201527f6f6e6c7920666f72206f776e6572000000000000000000000000000000000000604082015260600190565b60208082526026908201527f4f776e61626c653a206e6577206f776e657220697320746865207a65726f206160408201527f6464726573730000000000000000000000000000000000000000000000000000606082015260800190565b60208082526019908201527f6f6e6c7920666f72206f776e6572206f72206d616e616765720000000000000060408201526060019056fea2646970667358221220098b8bf6fcbe740ed791e1ccad09bc693dcdbe8055829eb138fb0c02f05c7cbb64736f6c63430008000033",
  "immutableReferences": {},
  "source": "// SPDX-License-Identifier: UNLICENSED\r\npragma solidity ^0.8.0;\r\n\r\n\r\n/**\r\n * @dev Wrappers over Solidity's arithmetic operations.\r\n *\r\n * NOTE: `SafeMath` is generally not needed starting with Solidity 0.8, since the compiler\r\n * now has built in overflow checking.\r\n */\r\nlibrary SafeMath {\r\n    /**\r\n     * @dev Returns the addition of two unsigned integers, with an overflow flag.\r\n     *\r\n     * _Available since v3.4._\r\n     */\r\n    function tryAdd(uint256 a, uint256 b) internal pure returns (bool, uint256) {\r\n        unchecked {\r\n            uint256 c = a + b;\r\n            if (c < a) return (false, 0);\r\n            return (true, c);\r\n        }\r\n    }\r\n\r\n    /**\r\n     * @dev Returns the substraction of two unsigned integers, with an overflow flag.\r\n     *\r\n     * _Available since v3.4._\r\n     */\r\n    function trySub(uint256 a, uint256 b) internal pure returns (bool, uint256) {\r\n        unchecked {\r\n            if (b > a) return (false, 0);\r\n            return (true, a - b);\r\n        }\r\n    }\r\n\r\n    /**\r\n     * @dev Returns the multiplication of two unsigned integers, with an overflow flag.\r\n     *\r\n     * _Available since v3.4._\r\n     */\r\n    function tryMul(uint256 a, uint256 b) internal pure returns (bool, uint256) {\r\n        unchecked {\r\n            // Gas optimization: this is cheaper than requiring 'a' not being zero, but the\r\n            // benefit is lost if 'b' is also tested.\r\n            // See: https://github.com/OpenZeppelin/openzeppelin-contracts/pull/522\r\n            if (a == 0) return (true, 0);\r\n            uint256 c = a * b;\r\n            if (c / a != b) return (false, 0);\r\n            return (true, c);\r\n        }\r\n    }\r\n\r\n    /**\r\n     * @dev Returns the division of two unsigned integers, with a division by zero flag.\r\n     *\r\n     * _Available since v3.4._\r\n     */\r\n    function tryDiv(uint256 a, uint256 b) internal pure returns (bool, uint256) {\r\n        unchecked {\r\n            if (b == 0) return (false, 0);\r\n            return (true, a / b);\r\n        }\r\n    }\r\n\r\n    /**\r\n     * @dev Returns the remainder of dividing two unsigned integers, with a division by zero flag.\r\n     *\r\n     * _Available since v3.4._\r\n     */\r\n    function tryMod(uint256 a, uint256 b) internal pure returns (bool, uint256) {\r\n        unchecked {\r\n            if (b == 0) return (false, 0);\r\n            return (true, a % b);\r\n        }\r\n    }\r\n\r\n    /**\r\n     * @dev Returns the addition of two unsigned integers, reverting on\r\n     * overflow.\r\n     *\r\n     * Counterpart to Solidity's `+` operator.\r\n     *\r\n     * Requirements:\r\n     *\r\n     * - Addition cannot overflow.\r\n     */\r\n    function add(uint256 a, uint256 b) internal pure returns (uint256) {\r\n        return a + b;\r\n    }\r\n\r\n    /**\r\n     * @dev Returns the subtraction of two unsigned integers, reverting on\r\n     * overflow (when the result is negative).\r\n     *\r\n     * Counterpart to Solidity's `-` operator.\r\n     *\r\n     * Requirements:\r\n     *\r\n     * - Subtraction cannot overflow.\r\n     */\r\n    function sub(uint256 a, uint256 b) internal pure returns (uint256) {\r\n        return a - b;\r\n    }\r\n\r\n    /**\r\n     * @dev Returns the multiplication of two unsigned integers, reverting on\r\n     * overflow.\r\n     *\r\n     * Counterpart to Solidity's `*` operator.\r\n     *\r\n     * Requirements:\r\n     *\r\n     * - Multiplication cannot overflow.\r\n     */\r\n    function mul(uint256 a, uint256 b) internal pure returns (uint256) {\r\n        return a * b;\r\n    }\r\n\r\n    /**\r\n     * @dev Returns the integer division of two unsigned integers, reverting on\r\n     * division by zero. The result is rounded towards zero.\r\n     *\r\n     * Counterpart to Solidity's `/` operator.\r\n     *\r\n     * Requirements:\r\n     *\r\n     * - The divisor cannot be zero.\r\n     */\r\n    function div(uint256 a, uint256 b) internal pure returns (uint256) {\r\n        return a / b;\r\n    }\r\n\r\n    /**\r\n     * @dev Returns the remainder of dividing two unsigned integers. (unsigned integer modulo),\r\n     * reverting when dividing by zero.\r\n     *\r\n     * Counterpart to Solidity's `%` operator. This function uses a `revert`\r\n     * opcode (which leaves remaining gas untouched) while Solidity uses an\r\n     * invalid opcode to revert (consuming all remaining gas).\r\n     *\r\n     * Requirements:\r\n     *\r\n     * - The divisor cannot be zero.\r\n     */\r\n    function mod(uint256 a, uint256 b) internal pure returns (uint256) {\r\n        return a % b;\r\n    }\r\n\r\n    /**\r\n     * @dev Returns the subtraction of two unsigned integers, reverting with custom message on\r\n     * overflow (when the result is negative).\r\n     *\r\n     * CAUTION: This function is deprecated because it requires allocating memory for the error\r\n     * message unnecessarily. For custom revert reasons use {trySub}.\r\n     *\r\n     * Counterpart to Solidity's `-` operator.\r\n     *\r\n     * Requirements:\r\n     *\r\n     * - Subtraction cannot overflow.\r\n     */\r\n    function sub(\r\n        uint256 a,\r\n        uint256 b,\r\n        string memory errorMessage\r\n    ) internal pure returns (uint256) {\r\n        unchecked {\r\n            require(b <= a, errorMessage);\r\n            return a - b;\r\n        }\r\n    }\r\n\r\n    /**\r\n     * @dev Returns the integer division of two unsigned integers, reverting with custom message on\r\n     * division by zero. The result is rounded towards zero.\r\n     *\r\n     * Counterpart to Solidity's `/` operator. Note: this function uses a\r\n     * `revert` opcode (which leaves remaining gas untouched) while Solidity\r\n     * uses an invalid opcode to revert (consuming all remaining gas).\r\n     *\r\n     * Requirements:\r\n     *\r\n     * - The divisor cannot be zero.\r\n     */\r\n    function div(\r\n        uint256 a,\r\n        uint256 b,\r\n        string memory errorMessage\r\n    ) internal pure returns (uint256) {\r\n        unchecked {\r\n            require(b > 0, errorMessage);\r\n            return a / b;\r\n        }\r\n    }\r\n\r\n    /**\r\n     * @dev Returns the remainder of dividing two unsigned integers. (unsigned integer modulo),\r\n     * reverting with custom message when dividing by zero.\r\n     *\r\n     * CAUTION: This function is deprecated because it requires allocating memory for the error\r\n     * message unnecessarily. For custom revert reasons use {tryMod}.\r\n     *\r\n     * Counterpart to Solidity's `%` operator. This function uses a `revert`\r\n     * opcode (which leaves remaining gas untouched) while Solidity uses an\r\n     * invalid opcode to revert (consuming all remaining gas).\r\n     *\r\n     * Requirements:\r\n     *\r\n     * - The divisor cannot be zero.\r\n     */\r\n    function mod(\r\n        uint256 a,\r\n        uint256 b,\r\n        string memory errorMessage\r\n    ) internal pure returns (uint256) {\r\n        unchecked {\r\n            require(b > 0, errorMessage);\r\n            return a % b;\r\n        }\r\n    }\r\n}\r\n\r\n\r\n/**\r\n * @dev Provides information about the current execution context, including the\r\n * sender of the transaction and its data. While these are generally available\r\n * via msg.sender and msg.data, they should not be accessed in such a direct\r\n * manner, since when dealing with meta-transactions the account sending and\r\n * paying for execution may not be the actual sender (as far as an application\r\n * is concerned).\r\n *\r\n * This contract is only required for intermediate, library-like contracts.\r\n */\r\nabstract contract Context {\r\n    function _msgSender() internal view virtual returns (address) {\r\n        return msg.sender;\r\n    }\r\n\r\n    function _msgData() internal view virtual returns (bytes calldata) {\r\n        return msg.data;\r\n    }\r\n}\r\n\r\n\r\n/**\r\n * @dev Contract module which provides a basic access control mechanism, where\r\n * there is an account (an owner) that can be granted exclusive access to\r\n * specific functions.\r\n *\r\n * By default, the owner account will be the one that deploys the contract. This\r\n * can later be changed with {transferOwnership}.\r\n *\r\n * This module is used through inheritance. It will make available the modifier\r\n * `onlyOwner`, which can be applied to your functions to restrict their use to\r\n * the owner.\r\n */\r\ncontract Ownable is Context {\r\n\r\n    address public owner;\r\n    address public manager;\r\n    address public ownerWallet;\r\n\r\n    event OwnershipTransferred(address indexed previousOwner, address indexed newOwner);\r\n\r\n    /**\r\n    * @dev Initializes the contract setting the deployer as the initial owner.\r\n    */\r\n    constructor() {\r\n        owner = msg.sender;\r\n        manager = msg.sender;\r\n        ownerWallet = msg.sender;\r\n    }\r\n\r\n    /**\r\n     * @dev Throws if called by any account other than the owner.\r\n     */\r\n    modifier onlyOwner() {\r\n        require(msg.sender == owner, \"only for owner\");\r\n        _;\r\n    }\r\n\r\n    /**\r\n     * @dev Leaves the contract without owner. It will not be possible to call\r\n     * `onlyOwner` functions anymore. Can only be called by the current owner.\r\n     *\r\n     * NOTE: Renouncing ownership will leave the contract without an owner,\r\n     * thereby removing any functionality that is only available to the owner.\r\n     */\r\n    function renounceOwnership() public virtual onlyOwner {\r\n        _transferOwnership(address(0));\r\n    }\r\n\r\n    modifier onlyOwnerOrManager() {\r\n        require((msg.sender == owner)||(msg.sender == manager), \"only for owner or manager\");\r\n        _;\r\n    }\r\n\r\n    /**\r\n     * @dev Transfers ownership of the contract to a new account (`newOwner`).\r\n     * Can only be called by the current owner.\r\n     */\r\n    function transferOwnership(address newOwner) public virtual onlyOwner {\r\n        require(newOwner != address(0), \"Ownable: new owner is the zero address\");\r\n        _transferOwnership(newOwner);\r\n    }\r\n\r\n    /**\r\n     * @dev Transfers ownership of the contract to a new account (`newOwner`).\r\n     * Internal function without access restriction.\r\n     */\r\n    function _transferOwnership(address newOwner) internal virtual {\r\n        address oldOwner = owner;\r\n        owner = newOwner;\r\n        emit OwnershipTransferred(oldOwner, newOwner);\r\n    }\r\n\r\n    function setManager(address _manager) public onlyOwnerOrManager {\r\n        manager = _manager;\r\n    }\r\n}\r\n\r\n/**\r\n * @dev interface for Aion scheduling contract\r\n */\r\nabstract contract Aion {\r\n    uint256 public serviceFee;\r\n    function ScheduleCall(uint256 blocknumber, address to, uint256 value, uint256 gaslimit, uint256 gasprice, bytes calldata data, bool schedType) virtual public payable returns (uint);\r\n}\r\n\r\n/**\r\n * @dev contract to handle automated subscription payments\r\n */\r\ncontract SpearheadSubscriptionService {\r\n\r\n    Aion aion;\r\n    uint public nextPlanId;\r\n    struct Level {\r\n        uint level;\r\n        uint amount;\r\n        uint frequency;\r\n    }\r\n    struct Subscription {\r\n        address subscriber;\r\n        address service;\r\n        uint start;\r\n        uint nextPayment;\r\n    }\r\n    mapping(uint => Level) public levels;\r\n    mapping(address => uint) public balances;\r\n    mapping(address => mapping(uint => Subscription)) public subscriptions;\r\n\r\n    event SubscriptionCreated(address subscriber, address service, uint level, uint date);\r\n    event SubscriptionCancelled(address subscriber, uint level, uint date);\r\n    event PaymentSent(address from, uint fromLevel, uint amount, uint date);\r\n\r\n    constructor () {\r\n        levels[0].level = 1;\r\n        levels[0].amount = 30000000000000000;\r\n        levels[0].frequency = 5 minutes;\r\n        levels[1].level = 2;\r\n        levels[1].amount = 50000000000000000;\r\n        levels[1].frequency = 5 minutes;\r\n        levels[2].level = 3;\r\n        levels[2].amount = 100000000000000000;\r\n        levels[2].frequency = 5 minutes;\r\n        levels[3].level = 4;\r\n        levels[3].amount = 500000000000000000;\r\n        levels[3].frequency = 5 minutes;\r\n        levels[4].level = 5;\r\n        levels[4].amount = 1000000000000000000;\r\n        levels[4].frequency = 5 minutes;\r\n        levels[5].level = 6;\r\n        levels[5].amount = 3000000000000000000;\r\n        levels[5].frequency = 5 minutes;\r\n        levels[6].level = 7;\r\n        levels[6].amount = 7000000000000000000;\r\n        levels[6].frequency = 5 minutes;\r\n        levels[7].level = 8;\r\n        levels[7].amount = 12000000000000000000;\r\n        levels[7].frequency = 5 minutes;\r\n        levels[8].level = 9;\r\n        levels[8].amount = 15000000000000000000;\r\n        levels[8].frequency = 5 minutes;\r\n        levels[9].level = 10;\r\n        levels[9].amount = 25000000000000000000;\r\n        levels[9].frequency = 5 minutes;\r\n        levels[10].level = 11;\r\n        levels[10].amount = 30000000000000000000;\r\n        levels[10].frequency = 5 minutes;\r\n        levels[11].level = 12;\r\n        levels[11].amount = 39000000000000000000;\r\n        levels[11].frequency = 5 minutes;\r\n\r\n        aion = Aion(0xFcFB45679539667f7ed55FA59A15c8Cad73d9a4E);\r\n    }\r\n\r\n    function subscribe(uint _level, address _service, address referrer, uint commission, address owner, uint ownerFee) external {\r\n        require(_level > 0 && _level <= 12 , 'This level does not exist.');\r\n        Level storage level = levels[_level];\r\n        \r\n        do {\r\n            delete subscriptions[msg.sender][_level];\r\n        } while(subscriptions[msg.sender][_level].subscriber != address(0));\r\n\r\n        require(subscriptions[msg.sender][_level].subscriber == address(0), 'This subscription does not exist.');\r\n\r\n        require(payable(referrer).send(commission) \r\n        && payable(owner).send(ownerFee), \"Transaction Failure\");\r\n        emit PaymentSent(\r\n            msg.sender,\r\n            level.level, \r\n            level.amount,\r\n            block.timestamp\r\n        );\r\n\r\n        subscriptions[msg.sender][_level] = Subscription(\r\n            msg.sender, \r\n            _service,\r\n            block.timestamp, \r\n            block.timestamp + level.frequency\r\n        );\r\n\r\n        uint256 call1Cost = commission + 5500000*1e9 + aion.serviceFee();\r\n        aion.ScheduleCall{value:call1Cost}( block.timestamp + level.frequency, referrer, commission, 5500000, 1e9, hex\"00\", true);\r\n        uint256 call2Cost = ownerFee + 5500000*1e9 + aion.serviceFee();\r\n        aion.ScheduleCall{value:call2Cost}( block.timestamp + level.frequency, owner, ownerFee, 5500000, 1e9, hex\"00\", true);\r\n        \r\n        emit SubscriptionCreated(msg.sender, _service, _level, block.timestamp);\r\n    }\r\n\r\n    function cancel(uint _level) external {\r\n        Subscription storage subscription = subscriptions[msg.sender][_level];\r\n        require(subscription.subscriber != address(0), 'This subscription does not exist.');\r\n        delete subscriptions[msg.sender][_level]; \r\n        emit SubscriptionCancelled(msg.sender, _level, block.timestamp);\r\n    }\r\n\r\n    function pay(address subscriber, uint _level, address referrer, uint commission, address owner, uint ownerFee) external payable {\r\n        Subscription storage subscription = subscriptions[subscriber][_level];\r\n        Level storage level = levels[_level];\r\n        require(subscription.subscriber != address(0), 'This subscription does not exist.');\r\n        require(block.timestamp > subscription.nextPayment, 'Payment not due yet.');\r\n        \r\n\r\n\r\n        // called from within payForLevel in protocol contract\r\n        require(payable(referrer).send(commission) \r\n        && payable(owner).send(ownerFee), \"Transaction Failure\");\r\n\r\n        emit PaymentSent(\r\n            subscriber,\r\n            level.level, \r\n            level.amount,\r\n            block.timestamp\r\n        );\r\n        subscription.nextPayment = subscription.nextPayment + level.frequency;\r\n    }\r\n}\r\n\r\n/**\r\n * @title Spearhead Protocol is a subscription based crypto payment service that builds \r\n * automated binary affiliate lines generating income based on referrals and automatic deposits.\r\n */\r\ncontract SpearheadProtocol is Ownable,SpearheadSubscriptionService {\r\n    using SafeMath for uint256;\r\n\r\n    struct UserStruct {\r\n        bool isExist;\r\n        uint id;\r\n        uint referrerID;\r\n        uint currentLevel;\r\n        uint totalEarningEth;\r\n        address[] referral;\r\n    }\r\n    uint public adminFee = 16 ether;\r\n    uint public currentId = 0;\r\n    uint public PERIOD_LENGTH = 5 minutes;\r\n    uint referrer1Limit = 2;\r\n    bool public lockStatus;\r\n    SpearheadSubscriptionService subService;   \r\n    \r\n    mapping (uint => uint) public LEVEL_PRICE;\r\n    mapping (address => mapping(uint => uint)) public levelExpired;\r\n    mapping (address => UserStruct) public users;\r\n    mapping (uint => address) public userList;\r\n    mapping (address => mapping (uint => uint)) public EarnedEth;\r\n    mapping (address => uint) public loopCheck;\r\n    mapping (address => uint) public createdDate;\r\n    \r\n    event regLevelEvent(address indexed UserAddress, address indexed ReferrerAddress, uint Time);\r\n    event buyLevelEvent(address indexed UserAddress, uint Levelno, uint Time);\r\n    event getMoneyForLevelEvent(address indexed UserAddress, uint UserId, address indexed ReferrerAddress, uint ReferrerId, uint Levelno, uint LevelPrice, uint Time);\r\n    event lostMoneyForLevelEvent(address indexed UserAddress, uint UserId, address indexed ReferrerAddress, uint ReferrerId, uint Levelno, uint LevelPrice, uint Time);    \r\n    \r\n    constructor() {\r\n\r\n        subService = new SpearheadSubscriptionService();\r\n\r\n        LEVEL_PRICE[1] = 0.03 ether;\r\n        LEVEL_PRICE[2] = 0.05 ether;\r\n        LEVEL_PRICE[3] = 0.1 ether;\r\n        LEVEL_PRICE[4] = 0.5 ether;\r\n        LEVEL_PRICE[5] = 1 ether;\r\n        LEVEL_PRICE[6] = 3 ether;\r\n        LEVEL_PRICE[7] = 7 ether;\r\n        LEVEL_PRICE[8] = 12 ether;\r\n        LEVEL_PRICE[9] = 15 ether;\r\n        LEVEL_PRICE[10] = 25 ether;\r\n        LEVEL_PRICE[11] = 30 ether;\r\n        LEVEL_PRICE[12] = 39 ether;\r\n\r\n        UserStruct memory userStruct;\r\n        currentId = currentId.add(1);\r\n\r\n        userStruct = UserStruct({\r\n            isExist: true,\r\n            id: currentId,\r\n            referrerID: 0,\r\n            currentLevel:1,\r\n            totalEarningEth:0,\r\n            referral: new address[](0)\r\n        });\r\n        users[ownerWallet] = userStruct;\r\n        userList[currentId] = ownerWallet;\r\n\r\n        // // create subscription plan and subscribe owner to it\r\n        // subService.subscribe(\r\n        //     1,\r\n        //     address(this),\r\n        //     users[ownerWallet].referrerID,\r\n        //     LEVEL_PRICE[1].sub(((LEVEL_PRICE[1].mul(adminFee)).div(10**20))),\r\n        //     ownerWallet,\r\n        //     ((LEVEL_PRICE[1].mul(adminFee)).div(10**20))\r\n        // );\r\n\r\n        for(uint i = 1; i <= 12; i++) {\r\n            users[ownerWallet].currentLevel = i;\r\n            levelExpired[ownerWallet][i] = 55555555555;\r\n        }\r\n\r\n    } \r\n\r\n    receive () external payable {\r\n        revert(\"Invalid Transaction. If attempting to send money, please register as new user.\");\r\n    }\r\n\r\n    /**\r\n     * @dev User registration\r\n     */ \r\n    function regUser(uint _referrerID) external payable {\r\n        require(lockStatus == false, \"Contract Locked\");\r\n        require(users[msg.sender].isExist == false, \"User exist\");\r\n        require(_referrerID > 0 && _referrerID <= currentId, \"Incorrect referrer Id\");\r\n        require(msg.value == LEVEL_PRICE[1], \"Incorrect Value\");\r\n        \r\n        /* \r\n            get address of user with referrerID passed in from userList \r\n            and find UserStruct Struct in users mapping with that address\r\n            look up length of that UserStruct's referral array length \r\n            and compare to referrer1Limit variable i.e. 2\r\n            if greater or equal to\r\n            call findFreeReferrer on address of referrer and return resulting UserStruct userId\r\n            set that to _referrerID to be used moving forward \r\n            since the user referring the registrant is out of referrals \r\n        */\r\n        if (users[userList[_referrerID]].referral.length >= referrer1Limit) \r\n            _referrerID = users[findFreeReferrer(userList[_referrerID])].id;\r\n\r\n        // create new Userstruct and increment currentId\r\n        UserStruct memory userStruct;\r\n        currentId = currentId.add(1);\r\n        \r\n        userStruct = UserStruct({\r\n            isExist: true,\r\n            id: currentId,\r\n            referrerID: _referrerID,\r\n            currentLevel: 1,\r\n            totalEarningEth:0,\r\n            referral: new address[](0)\r\n        });\r\n\r\n        // put new userStruct into users mapping assigning value to msg.sender \r\n        users[msg.sender] = userStruct;\r\n        // map currentId to senders address\r\n        userList[currentId] = msg.sender;\r\n        // set users level expiration period to current timestamp plus period length\r\n        levelExpired[msg.sender][1] = block.timestamp.add(PERIOD_LENGTH);\r\n        // add registrant to referrers userStruct referral array\r\n        users[userList[_referrerID]].referral.push(msg.sender);\r\n        loopCheck[msg.sender] = 0;\r\n        createdDate[msg.sender] = block.timestamp;\r\n\r\n        payForLevel(0, 1, msg.sender, ((LEVEL_PRICE[1].mul(adminFee)).div(10**20)), true);\r\n\r\n        // assign user subscription \r\n\r\n        emit regLevelEvent(msg.sender, userList[_referrerID], block.timestamp);\r\n    }\r\n    \r\n    /**\r\n     * @dev To buy the next level by User\r\n     */ \r\n    function buyLevel(uint256 _level) external payable {\r\n        require(lockStatus == false, \"Contract Locked\");\r\n        require(users[msg.sender].isExist, \"User not exist\"); \r\n        require(_level > 0 && _level <= 12, \"Incorrect level\");\r\n        bool initSub = false;\r\n        // buy actions for purchase of level 1 \r\n        if (_level == 1) {\r\n            require(msg.value == LEVEL_PRICE[1], \"Incorrect Value\");\r\n            levelExpired[msg.sender][1] = levelExpired[msg.sender][1].add(PERIOD_LENGTH);\r\n            users[msg.sender].currentLevel = 1;\r\n            initSub = true;\r\n        } else {\r\n            require(msg.value == LEVEL_PRICE[_level], \"Incorrect Value\");\r\n            // set current level in userStruct for sener to sent in level\r\n            users[msg.sender].currentLevel = _level;\r\n            // decrementing until 1 from level\r\n            for (uint i = _level - 1; i > 0; i--)\r\n                // require sender not expired at the level requested \r\n                require(levelExpired[msg.sender][i] >= block.timestamp, \"Buy the previous level\");\r\n            // assuming allowed to buy level check expiry is 0 \r\n            // and set to timestamp plus period length \r\n            // else add period length to timestamp\r\n            if (levelExpired[msg.sender][_level] == 0)\r\n                levelExpired[msg.sender][_level] = block.timestamp + PERIOD_LENGTH;\r\n            else \r\n                levelExpired[msg.sender][_level] += PERIOD_LENGTH;\r\n        }\r\n        loopCheck[msg.sender] = 0;\r\n        // pay for the level\r\n        payForLevel(0, _level, msg.sender, ((LEVEL_PRICE[_level].mul(adminFee)).div(10**20)), initSub);\r\n\r\n        emit buyLevelEvent(msg.sender, _level, block.timestamp);\r\n    }\r\n    \r\n    /**\r\n     * @dev Internal function for payment\r\n     */ \r\n    function payForLevel(uint _flag, uint _level, address _userAddress, uint _adminFee, bool initSub) internal {\r\n        address[6] memory referer;\r\n        \r\n        if (_flag == 0) {\r\n            /*\r\n                dictation for payments and referrer shuffling\r\n                _level = level being paid for\r\n                _userAddress = user paying for level\r\n                _referer[x] = address of referrer getting credited for the payment by _userAddress\r\n            */\r\n            if (_level == 1 || _level == 7) {\r\n                // set referer[0] to the address of the referrer of _userAddress\r\n                referer[0] = userList[users[_userAddress].referrerID];\r\n            } else if (_level == 2 || _level == 8) {\r\n                // set referer[1] to the address of the referrer of _userAddress\r\n                referer[1] = userList[users[_userAddress].referrerID];\r\n                // then set referer[0] to the address of the referrer of referer[1] i.e. the referrer of _userAddress\r\n                referer[0] = userList[users[referer[1]].referrerID];\r\n            } else if (_level == 3 || _level == 9) {\r\n                // set referer[1] to the address of the referrer of _userAddress\r\n                referer[1] = userList[users[_userAddress].referrerID];\r\n                // set referer[2] to the address of the referrer of referer[1] i.e the referrer of _userAddress\r\n                referer[2] = userList[users[referer[1]].referrerID];\r\n                // set referer[0] to the address of the referrer of referer[2] \r\n                // i.e. the referrer of referrer[1] who is now the referrer of _userAddress\r\n                referer[0] = userList[users[referer[2]].referrerID];\r\n            } else if (_level == 4 || _level == 10) {\r\n                referer[1] = userList[users[_userAddress].referrerID];\r\n                referer[2] = userList[users[referer[1]].referrerID];\r\n                referer[3] = userList[users[referer[2]].referrerID];\r\n                referer[0] = userList[users[referer[3]].referrerID];\r\n            } else if (_level == 5 || _level == 11) {\r\n                referer[1] = userList[users[_userAddress].referrerID];\r\n                referer[2] = userList[users[referer[1]].referrerID];\r\n                referer[3] = userList[users[referer[2]].referrerID];\r\n                referer[4] = userList[users[referer[3]].referrerID];\r\n                referer[0] = userList[users[referer[4]].referrerID];\r\n            } else if (_level == 6 || _level == 12) {\r\n                referer[1] = userList[users[_userAddress].referrerID];\r\n                referer[2] = userList[users[referer[1]].referrerID];\r\n                referer[3] = userList[users[referer[2]].referrerID];\r\n                referer[4] = userList[users[referer[3]].referrerID];\r\n                referer[5] = userList[users[referer[4]].referrerID];\r\n                referer[0] = userList[users[referer[5]].referrerID];\r\n            }\r\n        } else if (_flag == 1) {\r\n            referer[0] = userList[users[_userAddress].referrerID];\r\n        }\r\n        // if referrer doesn't exist then set the first downline address to be the referrer\r\n        if (!users[referer[0]].isExist) referer[0] = userList[1];\r\n        \r\n        if (loopCheck[msg.sender] >= 12) {\r\n            referer[0] = userList[1];\r\n        }\r\n        // check level expiry on referrer \r\n        if (levelExpired[referer[0]][_level] >= block.timestamp) {\r\n            if(initSub) {\r\n                // subscribe                             referrer     commission                        owner         ownerfee\r\n                subService.subscribe(1, address(this), referer[0], LEVEL_PRICE[_level].sub(_adminFee), ownerWallet, _adminFee);\r\n            } else {\r\n                // pay                             referrer     commission                        owner         ownerfee\r\n                subService.pay(msg.sender, _level, referer[0], LEVEL_PRICE[_level].sub(_adminFee), ownerWallet, _adminFee);\r\n            }\r\n\r\n            // track eth earnings\r\n            users[referer[0]].totalEarningEth = users[referer[0]].totalEarningEth.add(LEVEL_PRICE[_level]);\r\n            EarnedEth[referer[0]][_level] = EarnedEth[referer[0]][_level].add(LEVEL_PRICE[_level]);\r\n          \r\n            emit getMoneyForLevelEvent(msg.sender, users[msg.sender].id, referer[0], users[referer[0]].id, _level, LEVEL_PRICE[_level], block.timestamp);\r\n        } else {\r\n            if (loopCheck[msg.sender] < 12) {\r\n                loopCheck[msg.sender] = loopCheck[msg.sender].add(1);\r\n\r\n                emit lostMoneyForLevelEvent(msg.sender, users[msg.sender].id, referer[0], users[referer[0]].id, _level, LEVEL_PRICE[_level],block.timestamp);\r\n                \r\n                payForLevel(1, _level, referer[0], _adminFee, initSub);\r\n            }\r\n        }\r\n    }\r\n    \r\n    /**\r\n     * @dev Contract balance withdraw\r\n     */ \r\n    function failSafe(address payable _toUser, uint _amount) public returns (bool) {\r\n        require(msg.sender == ownerWallet, \"only Owner Wallet\");\r\n        require(_toUser != address(0), \"Invalid Address\");\r\n        require(address(this).balance >= _amount, \"Insufficient balance\");\r\n\r\n        (_toUser).transfer(_amount);\r\n        return true;\r\n    }\r\n            \r\n    /**\r\n     * @dev Update admin fee percentage\r\n     */ \r\n    function updateFeePercentage(uint256 _adminFee) public returns (bool) {\r\n        require(msg.sender == ownerWallet, \"only OwnerWallet\");\r\n\r\n        adminFee = _adminFee;\r\n        return true;  \r\n    }\r\n    \r\n    /**\r\n     * @dev Update level price\r\n     */ \r\n    function updatePrice(uint _level, uint _price) public returns (bool) {\r\n        require(msg.sender == ownerWallet, \"only OwnerWallet\");\r\n\r\n        LEVEL_PRICE[_level] = _price;\r\n        return true;\r\n    }\r\n\r\n    /**\r\n     * @dev Update contract status\r\n     */ \r\n    function contractLock(bool _lockStatus) public returns (bool) {\r\n        require(msg.sender == ownerWallet, \"Invalid User\");\r\n\r\n        lockStatus = _lockStatus;\r\n        return true;\r\n    }\r\n        \r\n    /**\r\n     * @dev View free Referrer Address\r\n     */ \r\n    function findFreeReferrer(address _userAddress) public view returns (address) {\r\n        // if _userAddress referrals length less than limit return _user\r\n        if (users[_userAddress].referral.length < referrer1Limit) \r\n            return _userAddress;\r\n\r\n        address[] memory referrals = new address[](254);\r\n        referrals[0] = users[_userAddress].referral[0];\r\n        referrals[1] = users[_userAddress].referral[1];\r\n\r\n        address freeReferrer;\r\n        bool noFreeReferrer = true;\r\n\r\n        // loop referrals array\r\n        for (uint i = 0; i < 254; i++) { \r\n            // check each of the referrals lengths see if any is equal to limit\r\n            if (users[referrals[i]].referral.length == referrer1Limit) {\r\n                if (i < 126) {\r\n                    referrals[(i+1)*2] = users[referrals[i]].referral[0];\r\n                    referrals[(i+1)*2+1] = users[referrals[i]].referral[1];\r\n                }\r\n            } else {\r\n                noFreeReferrer = false;\r\n                freeReferrer = referrals[i];\r\n                break;\r\n            }\r\n        }\r\n        require(!noFreeReferrer, \"No Free Referrer\");\r\n        return freeReferrer;\r\n    }\r\n    \r\n    /**\r\n     * @dev Total earned ETH\r\n     */\r\n    function getTotalEarnedEther() public view returns (uint) {\r\n        uint totalEth;\r\n        for (uint i = 1; i <= currentId; i++) {\r\n            totalEth = totalEth.add(users[userList[i]].totalEarningEth);\r\n        }\r\n        return totalEth;\r\n    }\r\n        \r\n    /**\r\n     * @dev View referrals\r\n     */ \r\n    function viewUserReferral(address _userAddress) external view returns (address[] memory) {\r\n        return users[_userAddress].referral;\r\n    }\r\n    \r\n    /**\r\n     * @dev View level expired time\r\n     */ \r\n    function viewUserLevelExpired(address _userAddress,uint _level) external view returns (uint) {\r\n        return levelExpired[_userAddress][_level];\r\n    }\r\n\r\n    /**\r\n     * @dev get user at address\r\n     */\r\n    function getUser(address _user) public view returns (bool, uint, uint, uint, uint) {\r\n        if(users[_user].isExist == false) {\r\n            return(false, currentId, 0, 0, 0);\r\n        } else {\r\n            return(users[_user].isExist, users[_user].id, users[_user].referrerID, users[_user].currentLevel, users[_user].totalEarningEth);\r\n        }\r\n    }\r\n\r\n    /**\r\n     * @dev get contract balance    \r\n     */\r\n    function getContractBalance() public view returns (uint) {\r\n        return address(this).balance;\r\n    }\r\n}",
  "sourcePath": "C:\\Users\\DUFRESA\\Documents\\Drew\\FreedomUnlimited\\f-u\\contracts\\Spearhead.sol",
  "compiler": {
    "name": "solc",
    "version": "0.8.0+commit.c7dfd78e.Emscripten.clang"
  },
  "schemaVersion": "3.4.3",
  "updatedAt": "2021-10-28T19:22:41.710Z",
  "devdoc": {
    "details": "Contract module which provides a basic access control mechanism, where there is an account (an owner) that can be granted exclusive access to specific functions. By default, the owner account will be the one that deploys the contract. This can later be changed with {transferOwnership}. This module is used through inheritance. It will make available the modifier `onlyOwner`, which can be applied to your functions to restrict their use to the owner.",
    "kind": "dev",
    "methods": {
      "constructor": {
        "details": "Initializes the contract setting the deployer as the initial owner."
      },
      "renounceOwnership()": {
        "details": "Leaves the contract without owner. It will not be possible to call `onlyOwner` functions anymore. Can only be called by the current owner. NOTE: Renouncing ownership will leave the contract without an owner, thereby removing any functionality that is only available to the owner."
      },
      "transferOwnership(address)": {
        "details": "Transfers ownership of the contract to a new account (`newOwner`). Can only be called by the current owner."
      }
    },
    "version": 1
  },
  "userdoc": {
    "kind": "user",
    "methods": {},
    "version": 1
  }
}