{
  "contractName": "Ownable",
  "abi": [
    {
      "inputs": [],
      "stateMutability": "nonpayable",
      "type": "constructor"
    },
    {
      "inputs": [],
      "name": "manager",
      "outputs": [
        {
          "internalType": "address",
          "name": "",
          "type": "address"
        }
      ],
      "stateMutability": "view",
      "type": "function"
    },
    {
      "inputs": [],
      "name": "owner",
      "outputs": [
        {
          "internalType": "address",
          "name": "",
          "type": "address"
        }
      ],
      "stateMutability": "view",
      "type": "function"
    },
    {
      "inputs": [],
      "name": "ownerWallet",
      "outputs": [
        {
          "internalType": "address",
          "name": "",
          "type": "address"
        }
      ],
      "stateMutability": "view",
      "type": "function"
    },
    {
      "inputs": [
        {
          "internalType": "address",
          "name": "newOwner",
          "type": "address"
        }
      ],
      "name": "transferOwnership",
      "outputs": [],
      "stateMutability": "nonpayable",
      "type": "function"
    },
    {
      "inputs": [
        {
          "internalType": "address",
          "name": "_manager",
          "type": "address"
        }
      ],
      "name": "setManager",
      "outputs": [],
      "stateMutability": "nonpayable",
      "type": "function"
    }
  ],
  "bytecode": "0x608060405234801561001057600080fd5b50336000806101000a81548173ffffffffffffffffffffffffffffffffffffffff021916908373ffffffffffffffffffffffffffffffffffffffff16021790555033600160006101000a81548173ffffffffffffffffffffffffffffffffffffffff021916908373ffffffffffffffffffffffffffffffffffffffff16021790555033600260006101000a81548173ffffffffffffffffffffffffffffffffffffffff021916908373ffffffffffffffffffffffffffffffffffffffff160217905550610511806100e26000396000f3fe608060405234801561001057600080fd5b50600436106100575760003560e01c8063481c6a751461005c5780638da5cb5b1461007a5780639335dcb714610098578063d0ebdbe7146100b6578063f2fde38b146100d2575b600080fd5b6100646100ee565b6040516100719190610426565b60405180910390f35b610082610114565b60405161008f9190610426565b60405180910390f35b6100a0610138565b6040516100ad9190610426565b60405180910390f35b6100d060048036038101906100cb919061036e565b61015e565b005b6100ec60048036038101906100e7919061036e565b610288565b005b600160009054906101000a900473ffffffffffffffffffffffffffffffffffffffff1681565b60008054906101000a900473ffffffffffffffffffffffffffffffffffffffff1681565b600260009054906101000a900473ffffffffffffffffffffffffffffffffffffffff1681565b60008054906101000a900473ffffffffffffffffffffffffffffffffffffffff1673ffffffffffffffffffffffffffffffffffffffff163373ffffffffffffffffffffffffffffffffffffffff1614806102055750600160009054906101000a900473ffffffffffffffffffffffffffffffffffffffff1673ffffffffffffffffffffffffffffffffffffffff163373ffffffffffffffffffffffffffffffffffffffff16145b610244576040517f08c379a000000000000000000000000000000000000000000000000000000000815260040161023b90610461565b60405180910390fd5b80600160006101000a81548173ffffffffffffffffffffffffffffffffffffffff021916908373ffffffffffffffffffffffffffffffffffffffff16021790555050565b60008054906101000a900473ffffffffffffffffffffffffffffffffffffffff1673ffffffffffffffffffffffffffffffffffffffff163373ffffffffffffffffffffffffffffffffffffffff1614610316576040517f08c379a000000000000000000000000000000000000000000000000000000000815260040161030d90610441565b60405180910390fd5b806000806101000a81548173ffffffffffffffffffffffffffffffffffffffff021916908373ffffffffffffffffffffffffffffffffffffffff16021790555050565b600081359050610368816104c4565b92915050565b60006020828403121561038057600080fd5b600061038e84828501610359565b91505092915050565b6103a081610492565b82525050565b60006103b3600e83610481565b91507f6f6e6c7920666f72206f776e65720000000000000000000000000000000000006000830152602082019050919050565b60006103f3601983610481565b91507f6f6e6c7920666f72206f776e6572206f72206d616e61676572000000000000006000830152602082019050919050565b600060208201905061043b6000830184610397565b92915050565b6000602082019050818103600083015261045a816103a6565b9050919050565b6000602082019050818103600083015261047a816103e6565b9050919050565b600082825260208201905092915050565b600061049d826104a4565b9050919050565b600073ffffffffffffffffffffffffffffffffffffffff82169050919050565b6104cd81610492565b81146104d857600080fd5b5056fea2646970667358221220ad35c39e1905a5efb5b7d977a8d18fd1e32ad7282832def06bfaf63b5ee67af564736f6c63430008000033",
  "immutableReferences": {},
  "source": "// SPDX-License-Identifier: UNLICENSED\r\npragma solidity ^0.8.0;\r\n\r\n\r\nlibrary SafeMath {\r\n\r\n  function mul(uint256 a, uint256 b) internal pure returns (uint256) {\r\n    uint256 c = a * b;\r\n    assert(a == 0 || c / a == b);\r\n    return c;\r\n  }\r\n\r\n  function div(uint256 a, uint256 b) internal pure returns (uint256) {\r\n    uint256 c = a / b;\r\n    return c;\r\n  }\r\n\r\n  function sub(uint256 a, uint256 b) internal pure returns (uint256) {\r\n    assert(b <= a);\r\n    return a - b;\r\n  }\r\n\r\n  function add(uint256 a, uint256 b) internal pure returns (uint256) {\r\n    uint256 c = a + b;\r\n    assert(c >= a);\r\n    return c;\r\n  }\r\n\r\n}\r\n\r\n\r\ncontract Ownable {\r\n\r\n  address public owner;\r\n  address public manager;\r\n  address public ownerWallet;\r\n\r\n  constructor() {\r\n    owner = msg.sender;\r\n    manager = msg.sender;\r\n    ownerWallet = msg.sender;\r\n  }\r\n\r\n  modifier onlyOwner() {\r\n    require(msg.sender == owner, \"only for owner\");\r\n    _;\r\n  }\r\n\r\n  modifier onlyOwnerOrManager() {\r\n     require((msg.sender == owner)||(msg.sender == manager), \"only for owner or manager\");\r\n      _;\r\n  }\r\n\r\n  function transferOwnership(address newOwner) public onlyOwner {\r\n    owner = newOwner;\r\n  }\r\n\r\n  function setManager(address _manager) public onlyOwnerOrManager {\r\n      manager = _manager;\r\n  }\r\n}\r\n\r\n\r\ncontract FreedomUnlimited is Ownable {\r\n    using SafeMath for uint256;\r\n    \r\n    event regLevelEvent(address indexed _user, address indexed _referrer, uint _time);\r\n    event buyLevelEvent(address indexed _user, uint _level, uint _time);\r\n    event prolongateLevelEvent(address indexed _user, uint _level, uint _time);\r\n    event getMoneyForLevelEvent(address indexed _user, address indexed _referral, uint _level, uint _time);\r\n    event lostMoneyForLevelEvent(address indexed _user, address indexed _referral, uint _level, uint _time);\r\n\r\n    struct UserStruct {\r\n        bool isExist;\r\n        uint id;\r\n        uint referrerID;\r\n        uint currentLevel;\r\n        uint totalEarningEth;\r\n        address[] referral;\r\n    }\r\n\r\n    mapping (uint => uint) public LEVEL_PRICE;\r\n    mapping (address => mapping(uint => uint)) public levelExpired;\r\n    mapping (address => UserStruct) public users;\r\n    mapping (uint => address) public userList;\r\n    uint public currUserID = 0;\r\n    uint public adminFee = 16 ether;\r\n    uint REFERRER_1_LEVEL_LIMIT = 3;\r\n    uint PERIOD_LENGTH = 30 days;\r\n    bool public lockStatus;\r\n\r\n    constructor() {\r\n\r\n        LEVEL_PRICE[1] = 0.05 ether;\r\n        LEVEL_PRICE[2] = 0.15 ether;\r\n        LEVEL_PRICE[3] = 0.45 ether;\r\n        LEVEL_PRICE[4] = 1.35 ether;\r\n        LEVEL_PRICE[5] = 4.05 ether;\r\n        LEVEL_PRICE[6] = 12.15 ether;\r\n        LEVEL_PRICE[7] = 36.45 ether;\r\n        LEVEL_PRICE[8] = 109.35 ether;\r\n\r\n        UserStruct memory userStruct;\r\n        currUserID++;\r\n\r\n        userStruct = UserStruct({\r\n            isExist : true,\r\n            id : currUserID,\r\n            referrerID : 0,\r\n            currentLevel : 8,\r\n            totalEarningEth : 0,\r\n            referral : new address[](0)\r\n        });\r\n        users[ownerWallet] = userStruct;\r\n        userList[currUserID] = ownerWallet;\r\n\r\n        levelExpired[ownerWallet][1] = 77777777777;\r\n        levelExpired[ownerWallet][2] = 77777777777;\r\n        levelExpired[ownerWallet][3] = 77777777777;\r\n        levelExpired[ownerWallet][4] = 77777777777;\r\n        levelExpired[ownerWallet][5] = 77777777777;\r\n        levelExpired[ownerWallet][6] = 77777777777;\r\n        levelExpired[ownerWallet][7] = 77777777777;\r\n        levelExpired[ownerWallet][8] = 77777777777;\r\n    }\r\n\r\n    receive () external payable {\r\n        receiveFunds();\r\n    }\r\n\r\n    /**\r\n     * @dev receive funds if not calling on regUser or buyLevel this is called when funds sent directly to contract. \r\n     */ \r\n    function receiveFunds() public payable {\r\n        uint level;\r\n\r\n        if(msg.value == LEVEL_PRICE[1]){\r\n            level = 1;\r\n        }else if(msg.value == LEVEL_PRICE[2]){\r\n            level = 2;\r\n        }else if(msg.value == LEVEL_PRICE[3]){\r\n            level = 3;\r\n        }else if(msg.value == LEVEL_PRICE[4]){\r\n            level = 4;\r\n        }else if(msg.value == LEVEL_PRICE[5]){\r\n            level = 5;\r\n        }else if(msg.value == LEVEL_PRICE[6]){\r\n            level = 6;\r\n        }else if(msg.value == LEVEL_PRICE[7]){\r\n            level = 7;\r\n        }else if(msg.value == LEVEL_PRICE[8]){\r\n            level = 8;\r\n        }else {\r\n            revert('Incorrect Value send');\r\n        }\r\n\r\n        if(users[msg.sender].isExist){\r\n            buyLevel(level);\r\n        } else if(level == 1) {\r\n            uint refId = 0;\r\n            address referrer = bytesToAddress(msg.data);\r\n\r\n            if (users[referrer].isExist){\r\n                refId = users[referrer].id;\r\n            } else {\r\n                revert('Incorrect referrer');\r\n            }\r\n\r\n            regUser(refId);\r\n        } else {\r\n            revert(\"Please buy first level for 0.05 ETH\");\r\n        }\r\n    }\r\n\r\n    /**\r\n     * @dev register new user into system\r\n     */ \r\n    function regUser(uint _referrerID) public payable {\r\n        require(!users[msg.sender].isExist, 'User exist');\r\n        require(lockStatus == false, \"Contract Locked\");\r\n        require(_referrerID > 0 && _referrerID <= currUserID, 'Incorrect referrer Id');\r\n\r\n        require(msg.value==LEVEL_PRICE[1], 'Incorrect Value');\r\n\r\n\r\n        if(users[userList[_referrerID]].referral.length >= REFERRER_1_LEVEL_LIMIT)\r\n        {\r\n            _referrerID = users[findFreeReferrer(userList[_referrerID])].id;\r\n        }\r\n\r\n\r\n        UserStruct memory userStruct;\r\n        currUserID++;\r\n\r\n        userStruct = UserStruct({\r\n            isExist : true,\r\n            id : currUserID,\r\n            referrerID : _referrerID,\r\n            currentLevel : 1,\r\n            totalEarningEth : 0,\r\n            referral : new address[](0)\r\n        });\r\n\r\n        users[msg.sender] = userStruct;\r\n        userList[currUserID] = msg.sender;\r\n\r\n        levelExpired[msg.sender][1] = block.timestamp + PERIOD_LENGTH;\r\n        levelExpired[msg.sender][2] = 0;\r\n        levelExpired[msg.sender][3] = 0;\r\n        levelExpired[msg.sender][4] = 0;\r\n        levelExpired[msg.sender][5] = 0;\r\n        levelExpired[msg.sender][6] = 0;\r\n        levelExpired[msg.sender][7] = 0;\r\n        levelExpired[msg.sender][8] = 0;\r\n\r\n        users[userList[_referrerID]].referral.push(msg.sender);\r\n\r\n        payForLevel(1, msg.sender);\r\n\r\n        emit regLevelEvent(msg.sender, userList[_referrerID], block.timestamp);\r\n    }\r\n\r\n    /**\r\n     * @dev buy into next level up\r\n     */ \r\n    function buyLevel(uint _level) public payable {\r\n        require(users[msg.sender].isExist, 'User not exist');\r\n        require(lockStatus == false, \"Contract Locked\");\r\n        require( _level>0 && _level<=8, 'Incorrect level');\r\n\r\n        if(_level == 1){\r\n            require(msg.value==LEVEL_PRICE[1], 'Incorrect Value');\r\n            levelExpired[msg.sender][1] += PERIOD_LENGTH;\r\n        } else {\r\n            require(msg.value==LEVEL_PRICE[_level], 'Incorrect Value');\r\n\r\n            for(uint l =_level-1; l>0; l-- ){\r\n                require(levelExpired[msg.sender][l] >= block.timestamp, 'Buy the previous level');\r\n            }\r\n\r\n            if(levelExpired[msg.sender][_level] == 0){\r\n                levelExpired[msg.sender][_level] = block.timestamp + PERIOD_LENGTH;\r\n            } else {\r\n                levelExpired[msg.sender][_level] += PERIOD_LENGTH;\r\n            }\r\n        }\r\n        payForLevel(_level, msg.sender);\r\n        emit buyLevelEvent(msg.sender, _level, block.timestamp);\r\n    }\r\n\r\n    /**\r\n     * @dev pay for level increase in inclusion\r\n     */ \r\n    function payForLevel(uint _level, address _user) internal {\r\n\r\n        address referer;\r\n        address referer1;\r\n        address referer2;\r\n        address referer3;\r\n        if(_level == 1 || _level == 5){\r\n            referer = userList[users[_user].referrerID];\r\n        } else if(_level == 2 || _level == 6){\r\n            referer1 = userList[users[_user].referrerID];\r\n            referer = userList[users[referer1].referrerID];\r\n        } else if(_level == 3 || _level == 7){\r\n            referer1 = userList[users[_user].referrerID];\r\n            referer2 = userList[users[referer1].referrerID];\r\n            referer = userList[users[referer2].referrerID];\r\n        } else if(_level == 4 || _level == 8){\r\n            referer1 = userList[users[_user].referrerID];\r\n            referer2 = userList[users[referer1].referrerID];\r\n            referer3 = userList[users[referer2].referrerID];\r\n            referer = userList[users[referer3].referrerID];\r\n        }\r\n\r\n        if(!users[referer].isExist){\r\n            referer = userList[1];\r\n        }\r\n\r\n        if(levelExpired[referer][_level] >= block.timestamp ){\r\n            uint _adminFee = (LEVEL_PRICE[_level].mul(adminFee)).div(10**20); // 8000000000000000 wei level 1 or 0.008 ether\r\n            uint _referralPay = LEVEL_PRICE[_level].sub(_adminFee); // 42000000000000000 wei level 1 or 0.042 ether\r\n            require(payable(referer).send(_referralPay) && payable(ownerWallet).send(_adminFee), \"Transaction Failure\" ); \r\n            emit getMoneyForLevelEvent(referer, msg.sender, _level, block.timestamp);\r\n        } else {\r\n            emit lostMoneyForLevelEvent(referer, msg.sender, _level, block.timestamp);\r\n            payForLevel(_level,referer);\r\n        }\r\n    }\r\n\r\n    /**\r\n     * @dev view free referrer address if available else return user address\r\n     */ \r\n    function findFreeReferrer(address _user) public view returns(address) {\r\n        if(users[_user].referral.length < REFERRER_1_LEVEL_LIMIT){\r\n            return _user;\r\n        }\r\n\r\n        address[] memory referrals = new address[](363);\r\n        referrals[0] = users[_user].referral[0]; \r\n        referrals[1] = users[_user].referral[1];\r\n        referrals[2] = users[_user].referral[2];\r\n\r\n        address freeReferrer;\r\n        bool noFreeReferrer = true;\r\n\r\n        for(uint i =0; i<363;i++){\r\n            if(users[referrals[i]].referral.length == REFERRER_1_LEVEL_LIMIT){\r\n                if(i<120){\r\n                    referrals[(i+1)*3] = users[referrals[i]].referral[0];\r\n                    referrals[(i+1)*3+1] = users[referrals[i]].referral[1];\r\n                    referrals[(i+1)*3+2] = users[referrals[i]].referral[2];\r\n                }\r\n            }else{\r\n                noFreeReferrer = false;\r\n                freeReferrer = referrals[i];\r\n                break;\r\n            }\r\n        }\r\n        require(!noFreeReferrer, 'No Free Referrer');\r\n        return freeReferrer;\r\n\r\n    }\r\n\r\n    /**\r\n     * @dev view referrals for user\r\n     */ \r\n    function viewUserReferral(address _user) public view returns(address[] memory) {\r\n        return users[_user].referral;\r\n    }\r\n\r\n    /**\r\n     * @dev view level expired at for address\r\n     */ \r\n    function viewUserLevelExpired(address _user, uint _level) public view returns(uint) {\r\n        return levelExpired[_user][_level];\r\n    }\r\n    \r\n    /**\r\n     * @dev convert byte to address\r\n     */ \r\n    function bytesToAddress(bytes memory bys) private pure returns (address  addr ) {\r\n        assembly {\r\n            addr := mload(add(bys, 20))\r\n        }\r\n    }\r\n    \r\n    /**\r\n     * @dev Contract balance withdraw\r\n     */ \r\n    function failSafe(address payable _toUser, uint _amount) public onlyOwner returns (bool) {\r\n        require(msg.sender == ownerWallet, \"only Owner Wallet\");\r\n        require(_toUser != address(0), \"Invalid Address\");\r\n        require(address(this).balance >= _amount, \"Insufficient balance\");\r\n\r\n        (_toUser).transfer(_amount);\r\n        return true;\r\n    }\r\n    \r\n    /**\r\n     * @dev Update level price\r\n     */ \r\n    function updatePrice(uint _level, uint _price) public onlyOwner returns (bool) {\r\n        require(msg.sender == ownerWallet, \"only OwnerWallet\");\r\n\r\n        LEVEL_PRICE[_level] = _price;\r\n        return true;\r\n    }\r\n\r\n    /**\r\n     * @dev Update contract status\r\n     */ \r\n    function contractLock(bool _lockStatus) public onlyOwner returns (bool) {\r\n        require(msg.sender == ownerWallet, \"Invalid User\");\r\n\r\n        lockStatus = _lockStatus;\r\n        return true;\r\n    }\r\n    \r\n    /**\r\n     * @dev Total earned ETH\r\n     */\r\n    function getTotalEarnedEther() public view returns (uint) {\r\n        uint totalEth;\r\n        for (uint i = 1; i <= currUserID; i++) {\r\n            totalEth = totalEth.add(users[userList[i]].totalEarningEth);\r\n        }\r\n        return totalEth;\r\n    }\r\n\r\n    /**\r\n     * @dev get user at address\r\n     */\r\n    function getUser(address _user) public view returns (bool, uint, uint, uint, uint) {\r\n        if(users[_user].isExist == false) {\r\n            return(false, currUserID, 0, 0, 0);\r\n        } else {\r\n            return(users[_user].isExist, users[_user].id, users[_user].referrerID, users[_user].currentLevel, users[_user].totalEarningEth);\r\n        }\r\n    }\r\n\r\n    /**\r\n     * @dev get contract balance    \r\n     */\r\n    function getContractBalance() public view returns (uint) {\r\n        return address(this).balance;\r\n    }\r\n}",
  "sourcePath": "C:/Users/Andrew Dufresne/Desktop/Dev/Solidity/FU/f-u/contracts/FreedomUnlimited.sol",
  "compiler": {
    "name": "solc",
    "version": "0.8.0+commit.c7dfd78e.Emscripten.clang"
  },
  "schemaVersion": "3.4.1",
  "updatedAt": "2021-10-23T19:30:33.628Z",
  "devdoc": {
    "kind": "dev",
    "methods": {},
    "version": 1
  },
  "userdoc": {
    "kind": "user",
    "methods": {},
    "version": 1
  }
}