{
  "contractName": "Ownable",
  "abi": [
    {
      "inputs": [],
      "stateMutability": "nonpayable",
      "type": "constructor"
    },
    {
      "inputs": [],
      "name": "manager",
      "outputs": [
        {
          "internalType": "address",
          "name": "",
          "type": "address"
        }
      ],
      "stateMutability": "view",
      "type": "function"
    },
    {
      "inputs": [],
      "name": "owner",
      "outputs": [
        {
          "internalType": "address",
          "name": "",
          "type": "address"
        }
      ],
      "stateMutability": "view",
      "type": "function"
    },
    {
      "inputs": [],
      "name": "ownerWallet",
      "outputs": [
        {
          "internalType": "address",
          "name": "",
          "type": "address"
        }
      ],
      "stateMutability": "view",
      "type": "function"
    },
    {
      "inputs": [
        {
          "internalType": "address",
          "name": "newOwner",
          "type": "address"
        }
      ],
      "name": "transferOwnership",
      "outputs": [],
      "stateMutability": "nonpayable",
      "type": "function"
    },
    {
      "inputs": [
        {
          "internalType": "address",
          "name": "_manager",
          "type": "address"
        }
      ],
      "name": "setManager",
      "outputs": [],
      "stateMutability": "nonpayable",
      "type": "function"
    }
  ],
  "bytecode": "0x608060405234801561001057600080fd5b50336000806101000a81548173ffffffffffffffffffffffffffffffffffffffff021916908373ffffffffffffffffffffffffffffffffffffffff16021790555033600160006101000a81548173ffffffffffffffffffffffffffffffffffffffff021916908373ffffffffffffffffffffffffffffffffffffffff16021790555033600260006101000a81548173ffffffffffffffffffffffffffffffffffffffff021916908373ffffffffffffffffffffffffffffffffffffffff160217905550610511806100e26000396000f3fe608060405234801561001057600080fd5b50600436106100575760003560e01c8063481c6a751461005c5780638da5cb5b1461007a5780639335dcb714610098578063d0ebdbe7146100b6578063f2fde38b146100d2575b600080fd5b6100646100ee565b6040516100719190610426565b60405180910390f35b610082610114565b60405161008f9190610426565b60405180910390f35b6100a0610138565b6040516100ad9190610426565b60405180910390f35b6100d060048036038101906100cb919061036e565b61015e565b005b6100ec60048036038101906100e7919061036e565b610288565b005b600160009054906101000a900473ffffffffffffffffffffffffffffffffffffffff1681565b60008054906101000a900473ffffffffffffffffffffffffffffffffffffffff1681565b600260009054906101000a900473ffffffffffffffffffffffffffffffffffffffff1681565b60008054906101000a900473ffffffffffffffffffffffffffffffffffffffff1673ffffffffffffffffffffffffffffffffffffffff163373ffffffffffffffffffffffffffffffffffffffff1614806102055750600160009054906101000a900473ffffffffffffffffffffffffffffffffffffffff1673ffffffffffffffffffffffffffffffffffffffff163373ffffffffffffffffffffffffffffffffffffffff16145b610244576040517f08c379a000000000000000000000000000000000000000000000000000000000815260040161023b90610461565b60405180910390fd5b80600160006101000a81548173ffffffffffffffffffffffffffffffffffffffff021916908373ffffffffffffffffffffffffffffffffffffffff16021790555050565b60008054906101000a900473ffffffffffffffffffffffffffffffffffffffff1673ffffffffffffffffffffffffffffffffffffffff163373ffffffffffffffffffffffffffffffffffffffff1614610316576040517f08c379a000000000000000000000000000000000000000000000000000000000815260040161030d90610441565b60405180910390fd5b806000806101000a81548173ffffffffffffffffffffffffffffffffffffffff021916908373ffffffffffffffffffffffffffffffffffffffff16021790555050565b600081359050610368816104c4565b92915050565b60006020828403121561038057600080fd5b600061038e84828501610359565b91505092915050565b6103a081610492565b82525050565b60006103b3600e83610481565b91507f6f6e6c7920666f72206f776e65720000000000000000000000000000000000006000830152602082019050919050565b60006103f3601983610481565b91507f6f6e6c7920666f72206f776e6572206f72206d616e61676572000000000000006000830152602082019050919050565b600060208201905061043b6000830184610397565b92915050565b6000602082019050818103600083015261045a816103a6565b9050919050565b6000602082019050818103600083015261047a816103e6565b9050919050565b600082825260208201905092915050565b600061049d826104a4565b9050919050565b600073ffffffffffffffffffffffffffffffffffffffff82169050919050565b6104cd81610492565b81146104d857600080fd5b5056fea2646970667358221220ba140ec2b1feafa526572556a5edeab9db5c704256018cbc8f9571649e4e8efb64736f6c63430008000033",
  "immutableReferences": {},
  "source": "// SPDX-License-Identifier: UNLICENSED\r\npragma solidity ^0.8.0;\r\n\r\n\r\nlibrary SafeMath {\r\n\r\n  function mul(uint256 a, uint256 b) internal pure returns (uint256) {\r\n    uint256 c = a * b;\r\n    assert(a == 0 || c / a == b);\r\n    return c;\r\n  }\r\n\r\n  function div(uint256 a, uint256 b) internal pure returns (uint256) {\r\n    uint256 c = a / b;\r\n    return c;\r\n  }\r\n\r\n  function sub(uint256 a, uint256 b) internal pure returns (uint256) {\r\n    assert(b <= a);\r\n    return a - b;\r\n  }\r\n\r\n  function add(uint256 a, uint256 b) internal pure returns (uint256) {\r\n    uint256 c = a + b;\r\n    assert(c >= a);\r\n    return c;\r\n  }\r\n\r\n}\r\n\r\n\r\ncontract Ownable {\r\n\r\n  address public owner;\r\n  address public manager;\r\n  address public ownerWallet;\r\n\r\n  constructor() {\r\n    owner = msg.sender;\r\n    manager = msg.sender;\r\n    ownerWallet = msg.sender;\r\n  }\r\n\r\n  modifier onlyOwner() {\r\n    require(msg.sender == owner, \"only for owner\");\r\n    _;\r\n  }\r\n\r\n  modifier onlyOwnerOrManager() {\r\n     require((msg.sender == owner)||(msg.sender == manager), \"only for owner or manager\");\r\n      _;\r\n  }\r\n\r\n  function transferOwnership(address newOwner) public onlyOwner {\r\n    owner = newOwner;\r\n  }\r\n\r\n  function setManager(address _manager) public onlyOwnerOrManager {\r\n      manager = _manager;\r\n  }\r\n}\r\n\r\n\r\ncontract SpearheadProtocol is Ownable {\r\n    using SafeMath for uint256;\r\n\r\n    struct UserStruct {\r\n        bool isExist;\r\n        uint id;\r\n        uint referrerID;\r\n        uint currentLevel;\r\n        uint totalEarningEth;\r\n        address[] referral;\r\n    }\r\n    uint public adminFee = 16 ether;\r\n    uint public currentId = 0;\r\n    uint public PERIOD_LENGTH = 60 days;\r\n    uint referrer1Limit = 2;\r\n    bool public lockStatus;\r\n    \r\n    mapping (uint => uint) public LEVEL_PRICE;\r\n    mapping (address => mapping(uint => uint)) public levelExpired;\r\n    mapping (address => UserStruct) public users;\r\n    mapping (uint => address) public userList;\r\n    mapping (address => mapping (uint => uint)) public EarnedEth;\r\n    mapping (address => uint) public loopCheck;\r\n    mapping (address => uint) public createdDate;\r\n    \r\n    event regLevelEvent(address indexed UserAddress, address indexed ReferrerAddress, uint Time);\r\n    event buyLevelEvent(address indexed UserAddress, uint Levelno, uint Time);\r\n    event getMoneyForLevelEvent(address indexed UserAddress, uint UserId, address indexed ReferrerAddress, uint ReferrerId, uint Levelno, uint LevelPrice, uint Time);\r\n    event lostMoneyForLevelEvent(address indexed UserAddress, uint UserId, address indexed ReferrerAddress, uint ReferrerId, uint Levelno, uint LevelPrice, uint Time);    \r\n    \r\n    constructor() {\r\n\r\n        LEVEL_PRICE[1] = 0.03 ether;\r\n        LEVEL_PRICE[2] = 0.05 ether;\r\n        LEVEL_PRICE[3] = 0.1 ether;\r\n        LEVEL_PRICE[4] = 0.5 ether;\r\n        LEVEL_PRICE[5] = 1 ether;\r\n        LEVEL_PRICE[6] = 3 ether;\r\n        LEVEL_PRICE[7] = 7 ether;\r\n        LEVEL_PRICE[8] = 12 ether;\r\n        LEVEL_PRICE[9] = 15 ether;\r\n        LEVEL_PRICE[10] = 25 ether;\r\n        LEVEL_PRICE[11] = 30 ether;\r\n        LEVEL_PRICE[12] = 39 ether;\r\n\r\n        UserStruct memory userStruct;\r\n        currentId = currentId.add(1);\r\n\r\n        userStruct = UserStruct({\r\n            isExist: true,\r\n            id: currentId,\r\n            referrerID: 0,\r\n            currentLevel:1,\r\n            totalEarningEth:0,\r\n            referral: new address[](0)\r\n        });\r\n        users[ownerWallet] = userStruct;\r\n        userList[currentId] = ownerWallet;\r\n\r\n        for(uint i = 1; i <= 12; i++) {\r\n            users[ownerWallet].currentLevel = i;\r\n            levelExpired[ownerWallet][i] = 55555555555;\r\n        }\r\n    } \r\n\r\n    receive () external payable {\r\n        revert(\"Invalid Transaction. If attempting to send money, please register as new user.\");\r\n    }\r\n\r\n    /**\r\n     * @dev User registration\r\n     */ \r\n    function regUser(uint _referrerID) external payable {\r\n        require(lockStatus == false, \"Contract Locked\");\r\n        require(users[msg.sender].isExist == false, \"User exist\");\r\n        require(_referrerID > 0 && _referrerID <= currentId, \"Incorrect referrer Id\");\r\n        require(msg.value == LEVEL_PRICE[1], \"Incorrect Value\");\r\n        \r\n        /* \r\n            get address of user with referrerID passed in from userList \r\n            and find UserStruct Struct in users mapping with that address\r\n            look up length of that UserStruct's referral array length \r\n            and compare to referrer1Limit variable i.e. 2\r\n            if greater or equal to\r\n            call findFreeReferrer on address of referrer and return resulting UserStruct userId\r\n            set that to _referrerID to be used moving forward \r\n            since the user referring the registrant is out of referrals \r\n        */\r\n        if (users[userList[_referrerID]].referral.length >= referrer1Limit) \r\n            _referrerID = users[findFreeReferrer(userList[_referrerID])].id;\r\n\r\n        // create new Userstruct and increment currentId\r\n        UserStruct memory userStruct;\r\n        currentId = currentId.add(1);\r\n        \r\n        userStruct = UserStruct({\r\n            isExist: true,\r\n            id: currentId,\r\n            referrerID: _referrerID,\r\n            currentLevel: 1,\r\n            totalEarningEth:0,\r\n            referral: new address[](0)\r\n        });\r\n\r\n        // put new userStruct into users mapping assigning value to msg.sender \r\n        users[msg.sender] = userStruct;\r\n        // map currentId to senders address\r\n        userList[currentId] = msg.sender;\r\n        // set users level expiration period to current timestamp plus period length\r\n        levelExpired[msg.sender][1] = block.timestamp.add(PERIOD_LENGTH);\r\n        // add registrant to referrers userStruct referral array\r\n        users[userList[_referrerID]].referral.push(msg.sender);\r\n        loopCheck[msg.sender] = 0;\r\n        createdDate[msg.sender] = block.timestamp;\r\n\r\n        payForLevel(0, 1, msg.sender, ((LEVEL_PRICE[1].mul(adminFee)).div(10**20)));\r\n\r\n        emit regLevelEvent(msg.sender, userList[_referrerID], block.timestamp);\r\n    }\r\n    \r\n    /**\r\n     * @dev To buy the next level by User\r\n     */ \r\n    function buyLevel(uint256 _level) external payable {\r\n        require(lockStatus == false, \"Contract Locked\");\r\n        require(users[msg.sender].isExist, \"User not exist\"); \r\n        require(_level > 0 && _level <= 12, \"Incorrect level\");\r\n\r\n        // buy actions for purchase of level 1 \r\n        if (_level == 1) {\r\n            require(msg.value == LEVEL_PRICE[1], \"Incorrect Value\");\r\n            levelExpired[msg.sender][1] = levelExpired[msg.sender][1].add(PERIOD_LENGTH);\r\n            users[msg.sender].currentLevel = 1;\r\n        } else {\r\n            require(msg.value == LEVEL_PRICE[_level], \"Incorrect Value\");\r\n            // set current level in userStruct for sener to sent in level\r\n            users[msg.sender].currentLevel = _level;\r\n            // decrementing until 1 from level\r\n            for (uint i = _level - 1; i > 0; i--)\r\n                // require sender not expired at the level requested \r\n                require(levelExpired[msg.sender][i] >= block.timestamp, \"Buy the previous level\");\r\n            // assuming allowed to buy level check expiry is 0 \r\n            // and set to timestamp plus period length \r\n            // else add period length to timestamp\r\n            if (levelExpired[msg.sender][_level] == 0)\r\n                levelExpired[msg.sender][_level] = block.timestamp + PERIOD_LENGTH;\r\n            else \r\n                levelExpired[msg.sender][_level] += PERIOD_LENGTH;\r\n        }\r\n        loopCheck[msg.sender] = 0;\r\n        // pay for the level\r\n        payForLevel(0, _level, msg.sender, ((LEVEL_PRICE[_level].mul(adminFee)).div(10**20)));\r\n\r\n        emit buyLevelEvent(msg.sender, _level, block.timestamp);\r\n    }\r\n    \r\n    /**\r\n     * @dev Internal function for payment\r\n     */ \r\n    function payForLevel(uint _flag, uint _level, address _userAddress, uint _adminFee) internal {\r\n        address[6] memory referer;\r\n        \r\n        if (_flag == 0) {\r\n            /*\r\n                dictation for payments and referrer shuffling\r\n                _level = level being paid for\r\n                _userAddress = user paying for level\r\n                _referer[x] = address of referrer getting credited for the payment by _userAddress\r\n            */\r\n            if (_level == 1 || _level == 7) {\r\n                // set referer[0] to the address of the referrer of _userAddress\r\n                referer[0] = userList[users[_userAddress].referrerID];\r\n            } else if (_level == 2 || _level == 8) {\r\n                // set referer[1] to the address of the referrer of _userAddress\r\n                referer[1] = userList[users[_userAddress].referrerID];\r\n                // then set referer[0] to the address of the referrer of referer[1] i.e. the referrer of _userAddress\r\n                referer[0] = userList[users[referer[1]].referrerID];\r\n            } else if (_level == 3 || _level == 9) {\r\n                // set referer[1] to the address of the referrer of _userAddress\r\n                referer[1] = userList[users[_userAddress].referrerID];\r\n                // set referer[2] to the address of the referrer of referer[1] i.e the referrer of _userAddress\r\n                referer[2] = userList[users[referer[1]].referrerID];\r\n                // set referer[0] to the address of the referrer of referer[2] \r\n                // i.e. the referrer of referrer[1] who is now the referrer of _userAddress\r\n                referer[0] = userList[users[referer[2]].referrerID];\r\n            } else if (_level == 4 || _level == 10) {\r\n                referer[1] = userList[users[_userAddress].referrerID];\r\n                referer[2] = userList[users[referer[1]].referrerID];\r\n                referer[3] = userList[users[referer[2]].referrerID];\r\n                referer[0] = userList[users[referer[3]].referrerID];\r\n            } else if (_level == 5 || _level == 11) {\r\n                referer[1] = userList[users[_userAddress].referrerID];\r\n                referer[2] = userList[users[referer[1]].referrerID];\r\n                referer[3] = userList[users[referer[2]].referrerID];\r\n                referer[4] = userList[users[referer[3]].referrerID];\r\n                referer[0] = userList[users[referer[4]].referrerID];\r\n            } else if (_level == 6 || _level == 12) {\r\n                referer[1] = userList[users[_userAddress].referrerID];\r\n                referer[2] = userList[users[referer[1]].referrerID];\r\n                referer[3] = userList[users[referer[2]].referrerID];\r\n                referer[4] = userList[users[referer[3]].referrerID];\r\n                referer[5] = userList[users[referer[4]].referrerID];\r\n                referer[0] = userList[users[referer[5]].referrerID];\r\n            }\r\n        } else if (_flag == 1) {\r\n            referer[0] = userList[users[_userAddress].referrerID];\r\n        }\r\n        // if referrer doesn't exist then set the first downline address to be the referrer\r\n        if (!users[referer[0]].isExist) referer[0] = userList[1];\r\n        \r\n        if (loopCheck[msg.sender] >= 12) {\r\n            referer[0] = userList[1];\r\n        }\r\n        // check level expiry on referrer \r\n        if (levelExpired[referer[0]][_level] >= block.timestamp) {\r\n            // transactions \r\n            require(payable(referer[0]).send(LEVEL_PRICE[_level].sub(_adminFee)) \r\n                    && payable(ownerWallet).send(_adminFee), \"Transaction Failure\");\r\n\r\n            // track eth earnings\r\n            users[referer[0]].totalEarningEth = users[referer[0]].totalEarningEth.add(LEVEL_PRICE[_level]);\r\n            EarnedEth[referer[0]][_level] = EarnedEth[referer[0]][_level].add(LEVEL_PRICE[_level]);\r\n          \r\n            emit getMoneyForLevelEvent(msg.sender, users[msg.sender].id, referer[0], users[referer[0]].id, _level, LEVEL_PRICE[_level], block.timestamp);\r\n        } else {\r\n            if (loopCheck[msg.sender] < 12) {\r\n                loopCheck[msg.sender] = loopCheck[msg.sender].add(1);\r\n\r\n                emit lostMoneyForLevelEvent(msg.sender, users[msg.sender].id, referer[0], users[referer[0]].id, _level, LEVEL_PRICE[_level],block.timestamp);\r\n                \r\n                payForLevel(1, _level, referer[0], _adminFee);\r\n            }\r\n        }\r\n    }\r\n    \r\n    /**\r\n     * @dev Contract balance withdraw\r\n     */ \r\n    function failSafe(address payable _toUser, uint _amount) public returns (bool) {\r\n        require(msg.sender == ownerWallet, \"only Owner Wallet\");\r\n        require(_toUser != address(0), \"Invalid Address\");\r\n        require(address(this).balance >= _amount, \"Insufficient balance\");\r\n\r\n        (_toUser).transfer(_amount);\r\n        return true;\r\n    }\r\n            \r\n    /**\r\n     * @dev Update admin fee percentage\r\n     */ \r\n    function updateFeePercentage(uint256 _adminFee) public returns (bool) {\r\n        require(msg.sender == ownerWallet, \"only OwnerWallet\");\r\n\r\n        adminFee = _adminFee;\r\n        return true;  \r\n    }\r\n    \r\n    /**\r\n     * @dev Update level price\r\n     */ \r\n    function updatePrice(uint _level, uint _price) public returns (bool) {\r\n        require(msg.sender == ownerWallet, \"only OwnerWallet\");\r\n\r\n        LEVEL_PRICE[_level] = _price;\r\n        return true;\r\n    }\r\n\r\n    /**\r\n     * @dev Update contract status\r\n     */ \r\n    function contractLock(bool _lockStatus) public returns (bool) {\r\n        require(msg.sender == ownerWallet, \"Invalid User\");\r\n\r\n        lockStatus = _lockStatus;\r\n        return true;\r\n    }\r\n        \r\n    /**\r\n     * @dev View free Referrer Address\r\n     */ \r\n    function findFreeReferrer(address _userAddress) public view returns (address) {\r\n        // if _userAddress referrals length less than limit return _user\r\n        if (users[_userAddress].referral.length < referrer1Limit) \r\n            return _userAddress;\r\n\r\n        address[] memory referrals = new address[](254);\r\n        referrals[0] = users[_userAddress].referral[0];\r\n        referrals[1] = users[_userAddress].referral[1];\r\n\r\n        address freeReferrer;\r\n        bool noFreeReferrer = true;\r\n\r\n        // loop referrals array\r\n        for (uint i = 0; i < 254; i++) { \r\n            // check each of the referrals lengths see if any is equal to limit\r\n            if (users[referrals[i]].referral.length == referrer1Limit) {\r\n                if (i < 126) {\r\n                    referrals[(i+1)*2] = users[referrals[i]].referral[0];\r\n                    referrals[(i+1)*2+1] = users[referrals[i]].referral[1];\r\n                }\r\n            } else {\r\n                noFreeReferrer = false;\r\n                freeReferrer = referrals[i];\r\n                break;\r\n            }\r\n        }\r\n        require(!noFreeReferrer, \"No Free Referrer\");\r\n        return freeReferrer;\r\n    }\r\n    \r\n    /**\r\n     * @dev Total earned ETH\r\n     */\r\n    function getTotalEarnedEther() public view returns (uint) {\r\n        uint totalEth;\r\n        for (uint i = 1; i <= currentId; i++) {\r\n            totalEth = totalEth.add(users[userList[i]].totalEarningEth);\r\n        }\r\n        return totalEth;\r\n    }\r\n        \r\n    /**\r\n     * @dev View referrals\r\n     */ \r\n    function viewUserReferral(address _userAddress) external view returns (address[] memory) {\r\n        return users[_userAddress].referral;\r\n    }\r\n    \r\n    /**\r\n     * @dev View level expired time\r\n     */ \r\n    function viewUserLevelExpired(address _userAddress,uint _level) external view returns (uint) {\r\n        return levelExpired[_userAddress][_level];\r\n    }\r\n\r\n    /**\r\n     * @dev get user at address\r\n     */\r\n    function getUser(address _user) public view returns (bool, uint, uint, uint, uint) {\r\n        if(users[_user].isExist == false) {\r\n            return(false, currentId, 0, 0, 0);\r\n        } else {\r\n            return(users[_user].isExist, users[_user].id, users[_user].referrerID, users[_user].currentLevel, users[_user].totalEarningEth);\r\n        }\r\n    }\r\n\r\n    /**\r\n     * @dev get contract balance    \r\n     */\r\n    function getContractBalance() public view returns (uint) {\r\n        return address(this).balance;\r\n    }\r\n}",
  "sourcePath": "C:/Users/Andrew Dufresne/Desktop/Dev/Solidity/FU/f-u/contracts/Spearhead.sol",
  "compiler": {
    "name": "solc",
    "version": "0.8.0+commit.c7dfd78e.Emscripten.clang"
  },
  "schemaVersion": "3.4.1",
  "updatedAt": "2021-10-25T01:52:29.482Z",
  "devdoc": {
    "kind": "dev",
    "methods": {},
    "version": 1
  },
  "userdoc": {
    "kind": "user",
    "methods": {},
    "version": 1
  }
}