{
  "contractName": "SimpleStorage",
  "abi": [
    {
      "inputs": [],
      "name": "data",
      "outputs": [
        {
          "internalType": "uint256",
          "name": "",
          "type": "uint256"
        }
      ],
      "stateMutability": "view",
      "type": "function",
      "constant": true
    },
    {
      "inputs": [
        {
          "internalType": "uint256",
          "name": "_data",
          "type": "uint256"
        }
      ],
      "name": "updateData",
      "outputs": [],
      "stateMutability": "nonpayable",
      "type": "function"
    },
    {
      "inputs": [],
      "name": "readData",
      "outputs": [
        {
          "internalType": "uint256",
          "name": "",
          "type": "uint256"
        }
      ],
      "stateMutability": "view",
      "type": "function",
      "constant": true
    }
  ],
  "bytecode": "0x608060405234801561001057600080fd5b50610176806100206000396000f3fe608060405234801561001057600080fd5b50600436106100415760003560e01c806309e960081461004657806373d4a13a14610062578063bef55ef314610080575b600080fd5b610060600480360381019061005b91906100cc565b61009e565b005b61006a6100a8565b6040516100779190610104565b60405180910390f35b6100886100ae565b6040516100959190610104565b60405180910390f35b8060008190555050565b60005481565b60008054905090565b6000813590506100c681610129565b92915050565b6000602082840312156100de57600080fd5b60006100ec848285016100b7565b91505092915050565b6100fe8161011f565b82525050565b600060208201905061011960008301846100f5565b92915050565b6000819050919050565b6101328161011f565b811461013d57600080fd5b5056fea26469706673582212204e099391e5238e0262abd5caeee442b146649d2192133030967aeab51a1f893c64736f6c63430008000033",
  "immutableReferences": {},
  "source": "pragma solidity ^0.8.0;\n\ncontract SimpleStorage {\n  uint public data;\n\n  function updateData(uint _data) external {\n    data = _data;\n  }\n\n  function readData() external view returns(uint) {\n    return data;\n  }\n}\n",
  "sourcePath": "C:/Users/Andrew Dufresne/Desktop/Dev/Solidity/FU/f-u/contracts/SimpleStorage.sol",
  "compiler": {
    "name": "solc",
    "version": "0.8.0+commit.c7dfd78e.Emscripten.clang"
  },
  "schemaVersion": "3.4.1",
  "updatedAt": "2021-10-22T05:00:57.553Z",
  "networkType": "ethereum",
  "devdoc": {
    "kind": "dev",
    "methods": {},
    "version": 1
  },
  "userdoc": {
    "kind": "user",
    "methods": {},
    "version": 1
  }
}