{
  "contractName": "SpearheadProtocol",
  "abi": [
    {
      "inputs": [],
      "stateMutability": "nonpayable",
      "type": "constructor"
    },
    {
      "anonymous": false,
      "inputs": [
        {
          "indexed": true,
          "internalType": "address",
          "name": "UserAddress",
          "type": "address"
        },
        {
          "indexed": false,
          "internalType": "uint256",
          "name": "Levelno",
          "type": "uint256"
        },
        {
          "indexed": false,
          "internalType": "uint256",
          "name": "Time",
          "type": "uint256"
        }
      ],
      "name": "buyLevelEvent",
      "type": "event"
    },
    {
      "anonymous": false,
      "inputs": [
        {
          "indexed": true,
          "internalType": "address",
          "name": "UserAddress",
          "type": "address"
        },
        {
          "indexed": false,
          "internalType": "uint256",
          "name": "UserId",
          "type": "uint256"
        },
        {
          "indexed": true,
          "internalType": "address",
          "name": "ReferrerAddress",
          "type": "address"
        },
        {
          "indexed": false,
          "internalType": "uint256",
          "name": "ReferrerId",
          "type": "uint256"
        },
        {
          "indexed": false,
          "internalType": "uint256",
          "name": "Levelno",
          "type": "uint256"
        },
        {
          "indexed": false,
          "internalType": "uint256",
          "name": "LevelPrice",
          "type": "uint256"
        },
        {
          "indexed": false,
          "internalType": "uint256",
          "name": "Time",
          "type": "uint256"
        }
      ],
      "name": "getMoneyForLevelEvent",
      "type": "event"
    },
    {
      "anonymous": false,
      "inputs": [
        {
          "indexed": true,
          "internalType": "address",
          "name": "UserAddress",
          "type": "address"
        },
        {
          "indexed": false,
          "internalType": "uint256",
          "name": "UserId",
          "type": "uint256"
        },
        {
          "indexed": true,
          "internalType": "address",
          "name": "ReferrerAddress",
          "type": "address"
        },
        {
          "indexed": false,
          "internalType": "uint256",
          "name": "ReferrerId",
          "type": "uint256"
        },
        {
          "indexed": false,
          "internalType": "uint256",
          "name": "Levelno",
          "type": "uint256"
        },
        {
          "indexed": false,
          "internalType": "uint256",
          "name": "LevelPrice",
          "type": "uint256"
        },
        {
          "indexed": false,
          "internalType": "uint256",
          "name": "Time",
          "type": "uint256"
        }
      ],
      "name": "lostMoneyForLevelEvent",
      "type": "event"
    },
    {
      "anonymous": false,
      "inputs": [
        {
          "indexed": true,
          "internalType": "address",
          "name": "UserAddress",
          "type": "address"
        },
        {
          "indexed": true,
          "internalType": "address",
          "name": "ReferrerAddress",
          "type": "address"
        },
        {
          "indexed": false,
          "internalType": "uint256",
          "name": "Time",
          "type": "uint256"
        }
      ],
      "name": "regLevelEvent",
      "type": "event"
    },
    {
      "inputs": [
        {
          "internalType": "address",
          "name": "",
          "type": "address"
        },
        {
          "internalType": "uint256",
          "name": "",
          "type": "uint256"
        }
      ],
      "name": "EarnedEth",
      "outputs": [
        {
          "internalType": "uint256",
          "name": "",
          "type": "uint256"
        }
      ],
      "stateMutability": "view",
      "type": "function"
    },
    {
      "inputs": [
        {
          "internalType": "uint256",
          "name": "",
          "type": "uint256"
        }
      ],
      "name": "LEVEL_PRICE",
      "outputs": [
        {
          "internalType": "uint256",
          "name": "",
          "type": "uint256"
        }
      ],
      "stateMutability": "view",
      "type": "function"
    },
    {
      "inputs": [],
      "name": "PERIOD_LENGTH",
      "outputs": [
        {
          "internalType": "uint256",
          "name": "",
          "type": "uint256"
        }
      ],
      "stateMutability": "view",
      "type": "function"
    },
    {
      "inputs": [],
      "name": "adminFee",
      "outputs": [
        {
          "internalType": "uint256",
          "name": "",
          "type": "uint256"
        }
      ],
      "stateMutability": "view",
      "type": "function"
    },
    {
      "inputs": [
        {
          "internalType": "address",
          "name": "",
          "type": "address"
        }
      ],
      "name": "createdDate",
      "outputs": [
        {
          "internalType": "uint256",
          "name": "",
          "type": "uint256"
        }
      ],
      "stateMutability": "view",
      "type": "function"
    },
    {
      "inputs": [],
      "name": "currentId",
      "outputs": [
        {
          "internalType": "uint256",
          "name": "",
          "type": "uint256"
        }
      ],
      "stateMutability": "view",
      "type": "function"
    },
    {
      "inputs": [
        {
          "internalType": "address",
          "name": "",
          "type": "address"
        },
        {
          "internalType": "uint256",
          "name": "",
          "type": "uint256"
        }
      ],
      "name": "levelExpired",
      "outputs": [
        {
          "internalType": "uint256",
          "name": "",
          "type": "uint256"
        }
      ],
      "stateMutability": "view",
      "type": "function"
    },
    {
      "inputs": [],
      "name": "lockStatus",
      "outputs": [
        {
          "internalType": "bool",
          "name": "",
          "type": "bool"
        }
      ],
      "stateMutability": "view",
      "type": "function"
    },
    {
      "inputs": [
        {
          "internalType": "address",
          "name": "",
          "type": "address"
        }
      ],
      "name": "loopCheck",
      "outputs": [
        {
          "internalType": "uint256",
          "name": "",
          "type": "uint256"
        }
      ],
      "stateMutability": "view",
      "type": "function"
    },
    {
      "inputs": [],
      "name": "manager",
      "outputs": [
        {
          "internalType": "address",
          "name": "",
          "type": "address"
        }
      ],
      "stateMutability": "view",
      "type": "function"
    },
    {
      "inputs": [],
      "name": "owner",
      "outputs": [
        {
          "internalType": "address",
          "name": "",
          "type": "address"
        }
      ],
      "stateMutability": "view",
      "type": "function"
    },
    {
      "inputs": [],
      "name": "ownerWallet",
      "outputs": [
        {
          "internalType": "address",
          "name": "",
          "type": "address"
        }
      ],
      "stateMutability": "view",
      "type": "function"
    },
    {
      "inputs": [
        {
          "internalType": "address",
          "name": "_manager",
          "type": "address"
        }
      ],
      "name": "setManager",
      "outputs": [],
      "stateMutability": "nonpayable",
      "type": "function"
    },
    {
      "inputs": [
        {
          "internalType": "address",
          "name": "newOwner",
          "type": "address"
        }
      ],
      "name": "transferOwnership",
      "outputs": [],
      "stateMutability": "nonpayable",
      "type": "function"
    },
    {
      "inputs": [
        {
          "internalType": "uint256",
          "name": "",
          "type": "uint256"
        }
      ],
      "name": "userList",
      "outputs": [
        {
          "internalType": "address",
          "name": "",
          "type": "address"
        }
      ],
      "stateMutability": "view",
      "type": "function"
    },
    {
      "inputs": [
        {
          "internalType": "address",
          "name": "",
          "type": "address"
        }
      ],
      "name": "users",
      "outputs": [
        {
          "internalType": "bool",
          "name": "isExist",
          "type": "bool"
        },
        {
          "internalType": "uint256",
          "name": "id",
          "type": "uint256"
        },
        {
          "internalType": "uint256",
          "name": "referrerID",
          "type": "uint256"
        },
        {
          "internalType": "uint256",
          "name": "currentLevel",
          "type": "uint256"
        },
        {
          "internalType": "uint256",
          "name": "totalEarningEth",
          "type": "uint256"
        }
      ],
      "stateMutability": "view",
      "type": "function"
    },
    {
      "stateMutability": "payable",
      "type": "receive"
    },
    {
      "inputs": [
        {
          "internalType": "uint256",
          "name": "_referrerID",
          "type": "uint256"
        }
      ],
      "name": "regUser",
      "outputs": [],
      "stateMutability": "payable",
      "type": "function"
    },
    {
      "inputs": [
        {
          "internalType": "uint256",
          "name": "_level",
          "type": "uint256"
        }
      ],
      "name": "buyLevel",
      "outputs": [],
      "stateMutability": "payable",
      "type": "function"
    },
    {
      "inputs": [
        {
          "internalType": "address payable",
          "name": "_toUser",
          "type": "address"
        },
        {
          "internalType": "uint256",
          "name": "_amount",
          "type": "uint256"
        }
      ],
      "name": "failSafe",
      "outputs": [
        {
          "internalType": "bool",
          "name": "",
          "type": "bool"
        }
      ],
      "stateMutability": "nonpayable",
      "type": "function"
    },
    {
      "inputs": [
        {
          "internalType": "uint256",
          "name": "_adminFee",
          "type": "uint256"
        }
      ],
      "name": "updateFeePercentage",
      "outputs": [
        {
          "internalType": "bool",
          "name": "",
          "type": "bool"
        }
      ],
      "stateMutability": "nonpayable",
      "type": "function"
    },
    {
      "inputs": [
        {
          "internalType": "uint256",
          "name": "_level",
          "type": "uint256"
        },
        {
          "internalType": "uint256",
          "name": "_price",
          "type": "uint256"
        }
      ],
      "name": "updatePrice",
      "outputs": [
        {
          "internalType": "bool",
          "name": "",
          "type": "bool"
        }
      ],
      "stateMutability": "nonpayable",
      "type": "function"
    },
    {
      "inputs": [
        {
          "internalType": "bool",
          "name": "_lockStatus",
          "type": "bool"
        }
      ],
      "name": "contractLock",
      "outputs": [
        {
          "internalType": "bool",
          "name": "",
          "type": "bool"
        }
      ],
      "stateMutability": "nonpayable",
      "type": "function"
    },
    {
      "inputs": [
        {
          "internalType": "address",
          "name": "_userAddress",
          "type": "address"
        }
      ],
      "name": "findFreeReferrer",
      "outputs": [
        {
          "internalType": "address",
          "name": "",
          "type": "address"
        }
      ],
      "stateMutability": "view",
      "type": "function"
    },
    {
      "inputs": [],
      "name": "getTotalEarnedEther",
      "outputs": [
        {
          "internalType": "uint256",
          "name": "",
          "type": "uint256"
        }
      ],
      "stateMutability": "view",
      "type": "function"
    },
    {
      "inputs": [
        {
          "internalType": "address",
          "name": "_userAddress",
          "type": "address"
        }
      ],
      "name": "viewUserReferral",
      "outputs": [
        {
          "internalType": "address[]",
          "name": "",
          "type": "address[]"
        }
      ],
      "stateMutability": "view",
      "type": "function"
    },
    {
      "inputs": [
        {
          "internalType": "address",
          "name": "_userAddress",
          "type": "address"
        },
        {
          "internalType": "uint256",
          "name": "_level",
          "type": "uint256"
        }
      ],
      "name": "viewUserLevelExpired",
      "outputs": [
        {
          "internalType": "uint256",
          "name": "",
          "type": "uint256"
        }
      ],
      "stateMutability": "view",
      "type": "function"
    },
    {
      "inputs": [
        {
          "internalType": "address",
          "name": "_user",
          "type": "address"
        }
      ],
      "name": "getUser",
      "outputs": [
        {
          "internalType": "bool",
          "name": "",
          "type": "bool"
        },
        {
          "internalType": "uint256",
          "name": "",
          "type": "uint256"
        },
        {
          "internalType": "uint256",
          "name": "",
          "type": "uint256"
        },
        {
          "internalType": "uint256",
          "name": "",
          "type": "uint256"
        },
        {
          "internalType": "uint256",
          "name": "",
          "type": "uint256"
        }
      ],
      "stateMutability": "view",
      "type": "function"
    },
    {
      "inputs": [],
      "name": "getContractBalance",
      "outputs": [
        {
          "internalType": "uint256",
          "name": "",
          "type": "uint256"
        }
      ],
      "stateMutability": "view",
      "type": "function"
    }
  ],
  "bytecode": "0x608060405267de0b6b3a764000006003556000600455624f1a0060055560026006553480156200002e57600080fd5b50336000806101000a81548173ffffffffffffffffffffffffffffffffffffffff021916908373ffffffffffffffffffffffffffffffffffffffff16021790555033600160006101000a81548173ffffffffffffffffffffffffffffffffffffffff021916908373ffffffffffffffffffffffffffffffffffffffff16021790555033600260006101000a81548173ffffffffffffffffffffffffffffffffffffffff021916908373ffffffffffffffffffffffffffffffffffffffff160217905550666a94d74f43000060086000600181526020019081526020016000208190555066b1a2bc2ec5000060086000600281526020019081526020016000208190555067016345785d8a00006008600060038152602001908152602001600020819055506706f05b59d3b20000600860006004815260200190815260200160002081905550670de0b6b3a76400006008600060058152602001908152602001600020819055506729a2241af62c0000600860006006815260200190815260200160002081905550676124fee993bc000060086000600781526020019081526020016000208190555067a688906bd8b0000060086000600881526020019081526020016000208190555067d02ab486cedc000060086000600981526020019081526020016000208190555068015af1d78b58c4000060086000600a8152602001908152602001600020819055506801a055690d9db8000060086000600b81526020019081526020016000208190555068021d3bd55e803c000060086000600c81526020019081526020016000208190555062000288620005fd565b620002a56001600454620005a860201b6200274f1790919060201c565b6004819055506040518060c001604052806001151581526020016004548152602001600081526020016001815260200160008152602001600067ffffffffffffffff8111156200031e577f4e487b7100000000000000000000000000000000000000000000000000000000600052604160045260246000fd5b6040519080825280602002602001820160405280156200034d5781602001602082028036833780820191505090505b50815250905080600a6000600260009054906101000a900473ffffffffffffffffffffffffffffffffffffffff1673ffffffffffffffffffffffffffffffffffffffff1673ffffffffffffffffffffffffffffffffffffffff16815260200190815260200160002060008201518160000160006101000a81548160ff0219169083151502179055506020820151816001015560408201518160020155606082015181600301556080820151816004015560a08201518160050190805190602001906200041b92919062000635565b50905050600260009054906101000a900473ffffffffffffffffffffffffffffffffffffffff16600b6000600454815260200190815260200160002060006101000a81548173ffffffffffffffffffffffffffffffffffffffff021916908373ffffffffffffffffffffffffffffffffffffffff1602179055506000600190505b600c8111620005a05780600a6000600260009054906101000a900473ffffffffffffffffffffffffffffffffffffffff1673ffffffffffffffffffffffffffffffffffffffff1673ffffffffffffffffffffffffffffffffffffffff16815260200190815260200160002060030181905550640cef5e80e360096000600260009054906101000a900473ffffffffffffffffffffffffffffffffffffffff1673ffffffffffffffffffffffffffffffffffffffff1673ffffffffffffffffffffffffffffffffffffffff168152602001908152602001600020600083815260200190815260200160002081905550808062000597906200074a565b9150506200049c565b5050620007c7565b6000808284620005b99190620006e3565b905083811015620005f3577f4e487b7100000000000000000000000000000000000000000000000000000000600052600160045260246000fd5b8091505092915050565b6040518060c0016040528060001515815260200160008152602001600081526020016000815260200160008152602001606081525090565b828054828255906000526020600020908101928215620006b1579160200282015b82811115620006b05782518260006101000a81548173ffffffffffffffffffffffffffffffffffffffff021916908373ffffffffffffffffffffffffffffffffffffffff1602179055509160200191906001019062000656565b5b509050620006c09190620006c4565b5090565b5b80821115620006df576000816000905550600101620006c5565b5090565b6000620006f08262000740565b9150620006fd8362000740565b9250827fffffffffffffffffffffffffffffffffffffffffffffffffffffffffffffffff0382111562000735576200073462000798565b5b828201905092915050565b6000819050919050565b6000620007578262000740565b91507fffffffffffffffffffffffffffffffffffffffffffffffffffffffffffffffff8214156200078d576200078c62000798565b5b600182019050919050565b7f4e487b7100000000000000000000000000000000000000000000000000000000600052601160045260246000fd5b61597d80620007d76000396000f3fe6080604052600436106101bb5760003560e01c80638da5cb5b116100ec578063d28400731161008a578063e10e354b11610064578063e10e354b146106fb578063e7a891b914610738578063f2fde38b14610763578063f6838a721461078c576101fb565b8063d284007314610656578063dbd7d37f14610693578063e00dd161146106d0576101fb565b8063a0be06f9116100c6578063a0be06f914610584578063a478656b146105af578063a87430ba146105ec578063d0ebdbe71461062d576101fb565b80638da5cb5b146104f15780639335dcb71461051c5780639f4216e814610547576101fb565b806352fd9f13116101595780636f9fb98a116101335780636f9fb98a1461043057806379378e301461045b57806382367b2d146104985780638853b53e146104d5576101fb565b806352fd9f13146103755780636cad3fb0146103b25780636f77926b146103ef576101fb565b806336c38fd71161019557806336c38fd7146102a55780633e89340f146102e2578063481c6a751461030d5780634a4baa8f14610338576101fb565b8063132c8c9b146102005780631e97ec941461023d5780631ec932ff14610268576101fb565b366101fb576040517f08c379a00000000000000000000000000000000000000000000000000000000081526004016101f2906155aa565b60405180910390fd5b600080fd5b34801561020c57600080fd5b5061022760048036038101906102229190614c92565b6107a8565b60405161023491906152ff565b60405180910390f35b34801561024957600080fd5b50610252610ef5565b60405161025f91906155ca565b60405180910390f35b34801561027457600080fd5b5061028f600480360381019061028a9190614c92565b610fad565b60405161029c91906155ca565b60405180910390f35b3480156102b157600080fd5b506102cc60048036038101906102c79190614c92565b610fc5565b6040516102d991906155ca565b60405180910390f35b3480156102ee57600080fd5b506102f7610fdd565b604051610304919061533c565b60405180910390f35b34801561031957600080fd5b50610322610ff0565b60405161032f91906152ff565b60405180910390f35b34801561034457600080fd5b5061035f600480360381019061035a9190614c92565b611016565b60405161036c919061531a565b60405180910390f35b34801561038157600080fd5b5061039c60048036038101906103979190614cbb565b6110e6565b6040516103a9919061533c565b60405180910390f35b3480156103be57600080fd5b506103d960048036038101906103d49190614d5c565b611293565b6040516103e6919061533c565b60405180910390f35b3480156103fb57600080fd5b5061041660048036038101906104119190614c92565b611335565b604051610427959493929190615357565b60405180910390f35b34801561043c57600080fd5b50610445611521565b60405161045291906155ca565b60405180910390f35b34801561046757600080fd5b50610482600480360381019061047d9190614d5c565b611540565b60405161048f91906155ca565b60405180910390f35b3480156104a457600080fd5b506104bf60048036038101906104ba9190614d85565b611558565b6040516104cc919061533c565b60405180910390f35b6104ef60048036038101906104ea9190614d5c565b61160c565b005b3480156104fd57600080fd5b50610506611d1c565b60405161051391906152ff565b60405180910390f35b34801561052857600080fd5b50610531611d40565b60405161053e91906152ff565b60405180910390f35b34801561055357600080fd5b5061056e60048036038101906105699190614d5c565b611d66565b60405161057b91906152ff565b60405180910390f35b34801561059057600080fd5b50610599611d99565b6040516105a691906155ca565b60405180910390f35b3480156105bb57600080fd5b506105d660048036038101906105d19190614d33565b611d9f565b6040516105e3919061533c565b60405180910390f35b3480156105f857600080fd5b50610613600480360381019061060e9190614c92565b611e54565b604051610624959493929190615357565b60405180910390f35b34801561063957600080fd5b50610654600480360381019061064f9190614c92565b611e97565b005b34801561066257600080fd5b5061067d60048036038101906106789190614cf7565b611fc1565b60405161068a91906155ca565b60405180910390f35b34801561069f57600080fd5b506106ba60048036038101906106b59190614cf7565b61201c565b6040516106c791906155ca565b60405180910390f35b3480156106dc57600080fd5b506106e5612041565b6040516106f291906155ca565b60405180910390f35b34801561070757600080fd5b50610722600480360381019061071d9190614cf7565b612047565b60405161072f91906155ca565b60405180910390f35b34801561074457600080fd5b5061074d61206c565b60405161075a91906155ca565b60405180910390f35b34801561076f57600080fd5b5061078a60048036038101906107859190614c92565b612072565b005b6107a660048036038101906107a19190614d5c565b612143565b005b6000600654600a60008473ffffffffffffffffffffffffffffffffffffffff1673ffffffffffffffffffffffffffffffffffffffff16815260200190815260200160002060050180549050101561080157819050610ef0565b600060fe67ffffffffffffffff811115610844577f4e487b7100000000000000000000000000000000000000000000000000000000600052604160045260246000fd5b6040519080825280602002602001820160405280156108725781602001602082028036833780820191505090505b509050600a60008473ffffffffffffffffffffffffffffffffffffffff1673ffffffffffffffffffffffffffffffffffffffff1681526020019081526020016000206005016000815481106108f0577f4e487b7100000000000000000000000000000000000000000000000000000000600052603260045260246000fd5b9060005260206000200160009054906101000a900473ffffffffffffffffffffffffffffffffffffffff1681600081518110610955577f4e487b7100000000000000000000000000000000000000000000000000000000600052603260045260246000fd5b602002602001019073ffffffffffffffffffffffffffffffffffffffff16908173ffffffffffffffffffffffffffffffffffffffff1681525050600a60008473ffffffffffffffffffffffffffffffffffffffff1673ffffffffffffffffffffffffffffffffffffffff168152602001908152602001600020600501600181548110610a0a577f4e487b7100000000000000000000000000000000000000000000000000000000600052603260045260246000fd5b9060005260206000200160009054906101000a900473ffffffffffffffffffffffffffffffffffffffff1681600181518110610a6f577f4e487b7100000000000000000000000000000000000000000000000000000000600052603260045260246000fd5b602002602001019073ffffffffffffffffffffffffffffffffffffffff16908173ffffffffffffffffffffffffffffffffffffffff16815250506000806001905060005b60fe811015610ea757600654600a6000868481518110610afc577f4e487b7100000000000000000000000000000000000000000000000000000000600052603260045260246000fd5b602002602001015173ffffffffffffffffffffffffffffffffffffffff1673ffffffffffffffffffffffffffffffffffffffff168152602001908152602001600020600501805490501415610e4857607e811015610e4357600a6000858381518110610b91577f4e487b7100000000000000000000000000000000000000000000000000000000600052603260045260246000fd5b602002602001015173ffffffffffffffffffffffffffffffffffffffff1673ffffffffffffffffffffffffffffffffffffffff168152602001908152602001600020600501600081548110610c0f577f4e487b7100000000000000000000000000000000000000000000000000000000600052603260045260246000fd5b9060005260206000200160009054906101000a900473ffffffffffffffffffffffffffffffffffffffff16846002600184610c4a91906156ab565b610c549190615732565b81518110610c8b577f4e487b7100000000000000000000000000000000000000000000000000000000600052603260045260246000fd5b602002602001019073ffffffffffffffffffffffffffffffffffffffff16908173ffffffffffffffffffffffffffffffffffffffff1681525050600a6000858381518110610d02577f4e487b7100000000000000000000000000000000000000000000000000000000600052603260045260246000fd5b602002602001015173ffffffffffffffffffffffffffffffffffffffff1673ffffffffffffffffffffffffffffffffffffffff168152602001908152602001600020600501600181548110610d80577f4e487b7100000000000000000000000000000000000000000000000000000000600052603260045260246000fd5b9060005260206000200160009054906101000a900473ffffffffffffffffffffffffffffffffffffffff168460016002600185610dbd91906156ab565b610dc79190615732565b610dd191906156ab565b81518110610e08577f4e487b7100000000000000000000000000000000000000000000000000000000600052603260045260246000fd5b602002602001019073ffffffffffffffffffffffffffffffffffffffff16908173ffffffffffffffffffffffffffffffffffffffff16815250505b610e94565b60009150838181518110610e85577f4e487b7100000000000000000000000000000000000000000000000000000000600052603260045260246000fd5b60200260200101519250610ea7565b8080610e9f90615844565b915050610ab3565b508015610ee9576040517f08c379a0000000000000000000000000000000000000000000000000000000008152600401610ee09061554a565b60405180910390fd5b8193505050505b919050565b6000806000600190505b6004548111610fa557610f90600a6000600b600085815260200190815260200160002060009054906101000a900473ffffffffffffffffffffffffffffffffffffffff1673ffffffffffffffffffffffffffffffffffffffff1673ffffffffffffffffffffffffffffffffffffffff168152602001908152602001600020600401548361274f90919063ffffffff16565b91508080610f9d90615844565b915050610eff565b508091505090565b600e6020528060005260406000206000915090505481565b600d6020528060005260406000206000915090505481565b600760009054906101000a900460ff1681565b600160009054906101000a900473ffffffffffffffffffffffffffffffffffffffff1681565b6060600a60008373ffffffffffffffffffffffffffffffffffffffff1673ffffffffffffffffffffffffffffffffffffffff1681526020019081526020016000206005018054806020026020016040519081016040528092919081815260200182805480156110da57602002820191906000526020600020905b8160009054906101000a900473ffffffffffffffffffffffffffffffffffffffff1673ffffffffffffffffffffffffffffffffffffffff1681526020019060010190808311611090575b50505050509050919050565b6000600260009054906101000a900473ffffffffffffffffffffffffffffffffffffffff1673ffffffffffffffffffffffffffffffffffffffff163373ffffffffffffffffffffffffffffffffffffffff1614611178576040517f08c379a000000000000000000000000000000000000000000000000000000000815260040161116f9061556a565b60405180910390fd5b600073ffffffffffffffffffffffffffffffffffffffff168373ffffffffffffffffffffffffffffffffffffffff1614156111e8576040517f08c379a00000000000000000000000000000000000000000000000000000000081526004016111df9061552a565b60405180910390fd5b813073ffffffffffffffffffffffffffffffffffffffff16311015611242576040517f08c379a00000000000000000000000000000000000000000000000000000000081526004016112399061544a565b60405180910390fd5b8273ffffffffffffffffffffffffffffffffffffffff166108fc839081150290604051600060405180830381858888f19350505050158015611288573d6000803e3d6000fd5b506001905092915050565b6000600260009054906101000a900473ffffffffffffffffffffffffffffffffffffffff1673ffffffffffffffffffffffffffffffffffffffff163373ffffffffffffffffffffffffffffffffffffffff1614611325576040517f08c379a000000000000000000000000000000000000000000000000000000000815260040161131c9061558a565b60405180910390fd5b8160038190555060019050919050565b6000806000806000801515600a60008873ffffffffffffffffffffffffffffffffffffffff1673ffffffffffffffffffffffffffffffffffffffff16815260200190815260200160002060000160009054906101000a900460ff16151514156113b1576000600454600080600094509450945094509450611518565b600a60008773ffffffffffffffffffffffffffffffffffffffff1673ffffffffffffffffffffffffffffffffffffffff16815260200190815260200160002060000160009054906101000a900460ff16600a60008873ffffffffffffffffffffffffffffffffffffffff1673ffffffffffffffffffffffffffffffffffffffff16815260200190815260200160002060010154600a60008973ffffffffffffffffffffffffffffffffffffffff1673ffffffffffffffffffffffffffffffffffffffff16815260200190815260200160002060020154600a60008a73ffffffffffffffffffffffffffffffffffffffff1673ffffffffffffffffffffffffffffffffffffffff16815260200190815260200160002060030154600a60008b73ffffffffffffffffffffffffffffffffffffffff1673ffffffffffffffffffffffffffffffffffffffff16815260200190815260200160002060040154945094509450945094505b91939590929450565b60003073ffffffffffffffffffffffffffffffffffffffff1631905090565b60086020528060005260406000206000915090505481565b6000600260009054906101000a900473ffffffffffffffffffffffffffffffffffffffff1673ffffffffffffffffffffffffffffffffffffffff163373ffffffffffffffffffffffffffffffffffffffff16146115ea576040517f08c379a00000000000000000000000000000000000000000000000000000000081526004016115e19061558a565b60405180910390fd5b8160086000858152602001908152602001600020819055506001905092915050565b60001515600760009054906101000a900460ff16151514611662576040517f08c379a0000000000000000000000000000000000000000000000000000000008152600401611659906154aa565b60405180910390fd5b60001515600a60003373ffffffffffffffffffffffffffffffffffffffff1673ffffffffffffffffffffffffffffffffffffffff16815260200190815260200160002060000160009054906101000a900460ff161515146116f8576040517f08c379a00000000000000000000000000000000000000000000000000000000081526004016116ef9061540a565b60405180910390fd5b60008111801561170a57506004548111155b611749576040517f08c379a0000000000000000000000000000000000000000000000000000000008152600401611740906153ca565b60405180910390fd5b600860006001815260200190815260200160002054341461179f576040517f08c379a0000000000000000000000000000000000000000000000000000000008152600401611796906153aa565b60405180910390fd5b600654600a6000600b600085815260200190815260200160002060009054906101000a900473ffffffffffffffffffffffffffffffffffffffff1673ffffffffffffffffffffffffffffffffffffffff1673ffffffffffffffffffffffffffffffffffffffff16815260200190815260200160002060050180549050106118a157600a6000611860600b600085815260200190815260200160002060009054906101000a900473ffffffffffffffffffffffffffffffffffffffff166107a8565b73ffffffffffffffffffffffffffffffffffffffff1673ffffffffffffffffffffffffffffffffffffffff1681526020019081526020016000206001015490505b6118a9614b3d565b6118bf600160045461274f90919063ffffffff16565b6004819055506040518060c0016040528060011515815260200160045481526020018381526020016001815260200160008152602001600067ffffffffffffffff811115611936577f4e487b7100000000000000000000000000000000000000000000000000000000600052604160045260246000fd5b6040519080825280602002602001820160405280156119645781602001602082028036833780820191505090505b50815250905080600a60003373ffffffffffffffffffffffffffffffffffffffff1673ffffffffffffffffffffffffffffffffffffffff16815260200190815260200160002060008201518160000160006101000a81548160ff0219169083151502179055506020820151816001015560408201518160020155606082015181600301556080820151816004015560a0820151816005019080519060200190611a0e929190614b75565b5090505033600b6000600454815260200190815260200160002060006101000a81548173ffffffffffffffffffffffffffffffffffffffff021916908373ffffffffffffffffffffffffffffffffffffffff160217905550611a7b6005544261274f90919063ffffffff16565b600960003373ffffffffffffffffffffffffffffffffffffffff1673ffffffffffffffffffffffffffffffffffffffff16815260200190815260200160002060006001815260200190815260200160002081905550600a6000600b600085815260200190815260200160002060009054906101000a900473ffffffffffffffffffffffffffffffffffffffff1673ffffffffffffffffffffffffffffffffffffffff1673ffffffffffffffffffffffffffffffffffffffff168152602001908152602001600020600501339080600181540180825580915050600190039060005260206000200160009091909190916101000a81548173ffffffffffffffffffffffffffffffffffffffff021916908373ffffffffffffffffffffffffffffffffffffffff1602179055506000600d60003373ffffffffffffffffffffffffffffffffffffffff1673ffffffffffffffffffffffffffffffffffffffff1681526020019081526020016000208190555042600e60003373ffffffffffffffffffffffffffffffffffffffff1673ffffffffffffffffffffffffffffffffffffffff16815260200190815260200160002081905550611c806000600133611c7b68056bc75e2d63100000611c6d6003546008600060018152602001908152602001600020546127a190919063ffffffff16565b61280890919063ffffffff16565b612823565b600b600083815260200190815260200160002060009054906101000a900473ffffffffffffffffffffffffffffffffffffffff1673ffffffffffffffffffffffffffffffffffffffff163373ffffffffffffffffffffffffffffffffffffffff167f788c06d2405ae89dd3f0528d38be7691289474d72176408bc2c2406dc5e342f142604051611d1091906155ca565b60405180910390a35050565b60008054906101000a900473ffffffffffffffffffffffffffffffffffffffff1681565b600260009054906101000a900473ffffffffffffffffffffffffffffffffffffffff1681565b600b6020528060005260406000206000915054906101000a900473ffffffffffffffffffffffffffffffffffffffff1681565b60035481565b6000600260009054906101000a900473ffffffffffffffffffffffffffffffffffffffff1673ffffffffffffffffffffffffffffffffffffffff163373ffffffffffffffffffffffffffffffffffffffff1614611e31576040517f08c379a0000000000000000000000000000000000000000000000000000000008152600401611e289061542a565b60405180910390fd5b81600760006101000a81548160ff02191690831515021790555060019050919050565b600a6020528060005260406000206000915090508060000160009054906101000a900460ff16908060010154908060020154908060030154908060040154905085565b60008054906101000a900473ffffffffffffffffffffffffffffffffffffffff1673ffffffffffffffffffffffffffffffffffffffff163373ffffffffffffffffffffffffffffffffffffffff161480611f3e5750600160009054906101000a900473ffffffffffffffffffffffffffffffffffffffff1673ffffffffffffffffffffffffffffffffffffffff163373ffffffffffffffffffffffffffffffffffffffff16145b611f7d576040517f08c379a0000000000000000000000000000000000000000000000000000000008152600401611f749061550a565b60405180910390fd5b80600160006101000a81548173ffffffffffffffffffffffffffffffffffffffff021916908373ffffffffffffffffffffffffffffffffffffffff16021790555050565b6000600960008473ffffffffffffffffffffffffffffffffffffffff1673ffffffffffffffffffffffffffffffffffffffff168152602001908152602001600020600083815260200190815260200160002054905092915050565b6009602052816000526040600020602052806000526040600020600091509150505481565b60045481565b600c602052816000526040600020602052806000526040600020600091509150505481565b60055481565b60008054906101000a900473ffffffffffffffffffffffffffffffffffffffff1673ffffffffffffffffffffffffffffffffffffffff163373ffffffffffffffffffffffffffffffffffffffff1614612100576040517f08c379a00000000000000000000000000000000000000000000000000000000081526004016120f7906153ea565b60405180910390fd5b806000806101000a81548173ffffffffffffffffffffffffffffffffffffffff021916908373ffffffffffffffffffffffffffffffffffffffff16021790555050565b60001515600760009054906101000a900460ff16151514612199576040517f08c379a0000000000000000000000000000000000000000000000000000000008152600401612190906154aa565b60405180910390fd5b600a60003373ffffffffffffffffffffffffffffffffffffffff1673ffffffffffffffffffffffffffffffffffffffff16815260200190815260200160002060000160009054906101000a900460ff16612228576040517f08c379a000000000000000000000000000000000000000000000000000000000815260040161221f906154ca565b60405180910390fd5b6000811180156122395750600c8111155b612278576040517f08c379a000000000000000000000000000000000000000000000000000000000815260040161226f9061548a565b60405180910390fd5b60018114156123df5760086000600181526020019081526020016000205434146122d7576040517f08c379a00000000000000000000000000000000000000000000000000000000081526004016122ce906153aa565b60405180910390fd5b61233d600554600960003373ffffffffffffffffffffffffffffffffffffffff1673ffffffffffffffffffffffffffffffffffffffff1681526020019081526020016000206000600181526020019081526020016000205461274f90919063ffffffff16565b600960003373ffffffffffffffffffffffffffffffffffffffff1673ffffffffffffffffffffffffffffffffffffffff168152602001908152602001600020600060018152602001908152602001600020819055506001600a60003373ffffffffffffffffffffffffffffffffffffffff1673ffffffffffffffffffffffffffffffffffffffff16815260200190815260200160002060030181905550612668565b60086000828152602001908152602001600020543414612434576040517f08c379a000000000000000000000000000000000000000000000000000000000815260040161242b906153aa565b60405180910390fd5b80600a60003373ffffffffffffffffffffffffffffffffffffffff1673ffffffffffffffffffffffffffffffffffffffff16815260200190815260200160002060030181905550600060018261248a919061578c565b90505b600081111561253c5742600960003373ffffffffffffffffffffffffffffffffffffffff1673ffffffffffffffffffffffffffffffffffffffff1681526020019081526020016000206000838152602001908152602001600020541015612529576040517f08c379a00000000000000000000000000000000000000000000000000000000081526004016125209061546a565b60405180910390fd5b80806125349061581a565b91505061248d565b506000600960003373ffffffffffffffffffffffffffffffffffffffff1673ffffffffffffffffffffffffffffffffffffffff16815260200190815260200160002060008381526020019081526020016000205414156125fd57600554426125a491906156ab565b600960003373ffffffffffffffffffffffffffffffffffffffff1673ffffffffffffffffffffffffffffffffffffffff168152602001908152602001600020600083815260200190815260200160002081905550612667565b600554600960003373ffffffffffffffffffffffffffffffffffffffff1673ffffffffffffffffffffffffffffffffffffffff1681526020019081526020016000206000838152602001908152602001600020600082825461265f91906156ab565b925050819055505b5b6000600d60003373ffffffffffffffffffffffffffffffffffffffff1673ffffffffffffffffffffffffffffffffffffffff168152602001908152602001600020819055506126fc600082336126f768056bc75e2d631000006126e9600354600860008a8152602001908152602001600020546127a190919063ffffffff16565b61280890919063ffffffff16565b612823565b3373ffffffffffffffffffffffffffffffffffffffff167f9ea70f0eb33d898c3336ecf2c0e3cf1c0195c13ad3fbcb34447777dbfd5ff2d082426040516127449291906155e5565b60405180910390a250565b600080828461275e91906156ab565b905083811015612797577f4e487b7100000000000000000000000000000000000000000000000000000000600052600160045260246000fd5b8091505092915050565b60008082846127b09190615732565b905060008414806127cb57508284826127c99190615701565b145b6127fe577f4e487b7100000000000000000000000000000000000000000000000000000000600052600160045260246000fd5b8091505092915050565b60008082846128179190615701565b90508091505092915050565b61282b614bff565b6000851415613f655760018414806128435750600784145b1561293457600b6000600a60008673ffffffffffffffffffffffffffffffffffffffff1673ffffffffffffffffffffffffffffffffffffffff16815260200190815260200160002060020154815260200190815260200160002060009054906101000a900473ffffffffffffffffffffffffffffffffffffffff16816000600681106128f8577f4e487b7100000000000000000000000000000000000000000000000000000000600052603260045260246000fd5b602002019073ffffffffffffffffffffffffffffffffffffffff16908173ffffffffffffffffffffffffffffffffffffffff1681525050613f60565b60028414806129435750600884145b15612b5957600b6000600a60008673ffffffffffffffffffffffffffffffffffffffff1673ffffffffffffffffffffffffffffffffffffffff16815260200190815260200160002060020154815260200190815260200160002060009054906101000a900473ffffffffffffffffffffffffffffffffffffffff16816001600681106129f8577f4e487b7100000000000000000000000000000000000000000000000000000000600052603260045260246000fd5b602002019073ffffffffffffffffffffffffffffffffffffffff16908173ffffffffffffffffffffffffffffffffffffffff1681525050600b6000600a600084600160068110612a71577f4e487b7100000000000000000000000000000000000000000000000000000000600052603260045260246000fd5b602002015173ffffffffffffffffffffffffffffffffffffffff1673ffffffffffffffffffffffffffffffffffffffff16815260200190815260200160002060020154815260200190815260200160002060009054906101000a900473ffffffffffffffffffffffffffffffffffffffff1681600060068110612b1d577f4e487b7100000000000000000000000000000000000000000000000000000000600052603260045260246000fd5b602002019073ffffffffffffffffffffffffffffffffffffffff16908173ffffffffffffffffffffffffffffffffffffffff1681525050613f5f565b6003841480612b685750600984145b15612ea357600b6000600a60008673ffffffffffffffffffffffffffffffffffffffff1673ffffffffffffffffffffffffffffffffffffffff16815260200190815260200160002060020154815260200190815260200160002060009054906101000a900473ffffffffffffffffffffffffffffffffffffffff1681600160068110612c1d577f4e487b7100000000000000000000000000000000000000000000000000000000600052603260045260246000fd5b602002019073ffffffffffffffffffffffffffffffffffffffff16908173ffffffffffffffffffffffffffffffffffffffff1681525050600b6000600a600084600160068110612c96577f4e487b7100000000000000000000000000000000000000000000000000000000600052603260045260246000fd5b602002015173ffffffffffffffffffffffffffffffffffffffff1673ffffffffffffffffffffffffffffffffffffffff16815260200190815260200160002060020154815260200190815260200160002060009054906101000a900473ffffffffffffffffffffffffffffffffffffffff1681600260068110612d42577f4e487b7100000000000000000000000000000000000000000000000000000000600052603260045260246000fd5b602002019073ffffffffffffffffffffffffffffffffffffffff16908173ffffffffffffffffffffffffffffffffffffffff1681525050600b6000600a600084600260068110612dbb577f4e487b7100000000000000000000000000000000000000000000000000000000600052603260045260246000fd5b602002015173ffffffffffffffffffffffffffffffffffffffff1673ffffffffffffffffffffffffffffffffffffffff16815260200190815260200160002060020154815260200190815260200160002060009054906101000a900473ffffffffffffffffffffffffffffffffffffffff1681600060068110612e67577f4e487b7100000000000000000000000000000000000000000000000000000000600052603260045260246000fd5b602002019073ffffffffffffffffffffffffffffffffffffffff16908173ffffffffffffffffffffffffffffffffffffffff1681525050613f5e565b6004841480612eb25750600a84145b1561331257600b6000600a60008673ffffffffffffffffffffffffffffffffffffffff1673ffffffffffffffffffffffffffffffffffffffff16815260200190815260200160002060020154815260200190815260200160002060009054906101000a900473ffffffffffffffffffffffffffffffffffffffff1681600160068110612f67577f4e487b7100000000000000000000000000000000000000000000000000000000600052603260045260246000fd5b602002019073ffffffffffffffffffffffffffffffffffffffff16908173ffffffffffffffffffffffffffffffffffffffff1681525050600b6000600a600084600160068110612fe0577f4e487b7100000000000000000000000000000000000000000000000000000000600052603260045260246000fd5b602002015173ffffffffffffffffffffffffffffffffffffffff1673ffffffffffffffffffffffffffffffffffffffff16815260200190815260200160002060020154815260200190815260200160002060009054906101000a900473ffffffffffffffffffffffffffffffffffffffff168160026006811061308c577f4e487b7100000000000000000000000000000000000000000000000000000000600052603260045260246000fd5b602002019073ffffffffffffffffffffffffffffffffffffffff16908173ffffffffffffffffffffffffffffffffffffffff1681525050600b6000600a600084600260068110613105577f4e487b7100000000000000000000000000000000000000000000000000000000600052603260045260246000fd5b602002015173ffffffffffffffffffffffffffffffffffffffff1673ffffffffffffffffffffffffffffffffffffffff16815260200190815260200160002060020154815260200190815260200160002060009054906101000a900473ffffffffffffffffffffffffffffffffffffffff16816003600681106131b1577f4e487b7100000000000000000000000000000000000000000000000000000000600052603260045260246000fd5b602002019073ffffffffffffffffffffffffffffffffffffffff16908173ffffffffffffffffffffffffffffffffffffffff1681525050600b6000600a60008460036006811061322a577f4e487b7100000000000000000000000000000000000000000000000000000000600052603260045260246000fd5b602002015173ffffffffffffffffffffffffffffffffffffffff1673ffffffffffffffffffffffffffffffffffffffff16815260200190815260200160002060020154815260200190815260200160002060009054906101000a900473ffffffffffffffffffffffffffffffffffffffff16816000600681106132d6577f4e487b7100000000000000000000000000000000000000000000000000000000600052603260045260246000fd5b602002019073ffffffffffffffffffffffffffffffffffffffff16908173ffffffffffffffffffffffffffffffffffffffff1681525050613f5d565b60058414806133215750600b84145b156138a657600b6000600a60008673ffffffffffffffffffffffffffffffffffffffff1673ffffffffffffffffffffffffffffffffffffffff16815260200190815260200160002060020154815260200190815260200160002060009054906101000a900473ffffffffffffffffffffffffffffffffffffffff16816001600681106133d6577f4e487b7100000000000000000000000000000000000000000000000000000000600052603260045260246000fd5b602002019073ffffffffffffffffffffffffffffffffffffffff16908173ffffffffffffffffffffffffffffffffffffffff1681525050600b6000600a60008460016006811061344f577f4e487b7100000000000000000000000000000000000000000000000000000000600052603260045260246000fd5b602002015173ffffffffffffffffffffffffffffffffffffffff1673ffffffffffffffffffffffffffffffffffffffff16815260200190815260200160002060020154815260200190815260200160002060009054906101000a900473ffffffffffffffffffffffffffffffffffffffff16816002600681106134fb577f4e487b7100000000000000000000000000000000000000000000000000000000600052603260045260246000fd5b602002019073ffffffffffffffffffffffffffffffffffffffff16908173ffffffffffffffffffffffffffffffffffffffff1681525050600b6000600a600084600260068110613574577f4e487b7100000000000000000000000000000000000000000000000000000000600052603260045260246000fd5b602002015173ffffffffffffffffffffffffffffffffffffffff1673ffffffffffffffffffffffffffffffffffffffff16815260200190815260200160002060020154815260200190815260200160002060009054906101000a900473ffffffffffffffffffffffffffffffffffffffff1681600360068110613620577f4e487b7100000000000000000000000000000000000000000000000000000000600052603260045260246000fd5b602002019073ffffffffffffffffffffffffffffffffffffffff16908173ffffffffffffffffffffffffffffffffffffffff1681525050600b6000600a600084600360068110613699577f4e487b7100000000000000000000000000000000000000000000000000000000600052603260045260246000fd5b602002015173ffffffffffffffffffffffffffffffffffffffff1673ffffffffffffffffffffffffffffffffffffffff16815260200190815260200160002060020154815260200190815260200160002060009054906101000a900473ffffffffffffffffffffffffffffffffffffffff1681600460068110613745577f4e487b7100000000000000000000000000000000000000000000000000000000600052603260045260246000fd5b602002019073ffffffffffffffffffffffffffffffffffffffff16908173ffffffffffffffffffffffffffffffffffffffff1681525050600b6000600a6000846004600681106137be577f4e487b7100000000000000000000000000000000000000000000000000000000600052603260045260246000fd5b602002015173ffffffffffffffffffffffffffffffffffffffff1673ffffffffffffffffffffffffffffffffffffffff16815260200190815260200160002060020154815260200190815260200160002060009054906101000a900473ffffffffffffffffffffffffffffffffffffffff168160006006811061386a577f4e487b7100000000000000000000000000000000000000000000000000000000600052603260045260246000fd5b602002019073ffffffffffffffffffffffffffffffffffffffff16908173ffffffffffffffffffffffffffffffffffffffff1681525050613f5c565b60068414806138b55750600c84145b15613f5b57600b6000600a60008673ffffffffffffffffffffffffffffffffffffffff1673ffffffffffffffffffffffffffffffffffffffff16815260200190815260200160002060020154815260200190815260200160002060009054906101000a900473ffffffffffffffffffffffffffffffffffffffff168160016006811061396a577f4e487b7100000000000000000000000000000000000000000000000000000000600052603260045260246000fd5b602002019073ffffffffffffffffffffffffffffffffffffffff16908173ffffffffffffffffffffffffffffffffffffffff1681525050600b6000600a6000846001600681106139e3577f4e487b7100000000000000000000000000000000000000000000000000000000600052603260045260246000fd5b602002015173ffffffffffffffffffffffffffffffffffffffff1673ffffffffffffffffffffffffffffffffffffffff16815260200190815260200160002060020154815260200190815260200160002060009054906101000a900473ffffffffffffffffffffffffffffffffffffffff1681600260068110613a8f577f4e487b7100000000000000000000000000000000000000000000000000000000600052603260045260246000fd5b602002019073ffffffffffffffffffffffffffffffffffffffff16908173ffffffffffffffffffffffffffffffffffffffff1681525050600b6000600a600084600260068110613b08577f4e487b7100000000000000000000000000000000000000000000000000000000600052603260045260246000fd5b602002015173ffffffffffffffffffffffffffffffffffffffff1673ffffffffffffffffffffffffffffffffffffffff16815260200190815260200160002060020154815260200190815260200160002060009054906101000a900473ffffffffffffffffffffffffffffffffffffffff1681600360068110613bb4577f4e487b7100000000000000000000000000000000000000000000000000000000600052603260045260246000fd5b602002019073ffffffffffffffffffffffffffffffffffffffff16908173ffffffffffffffffffffffffffffffffffffffff1681525050600b6000600a600084600360068110613c2d577f4e487b7100000000000000000000000000000000000000000000000000000000600052603260045260246000fd5b602002015173ffffffffffffffffffffffffffffffffffffffff1673ffffffffffffffffffffffffffffffffffffffff16815260200190815260200160002060020154815260200190815260200160002060009054906101000a900473ffffffffffffffffffffffffffffffffffffffff1681600460068110613cd9577f4e487b7100000000000000000000000000000000000000000000000000000000600052603260045260246000fd5b602002019073ffffffffffffffffffffffffffffffffffffffff16908173ffffffffffffffffffffffffffffffffffffffff1681525050600b6000600a600084600460068110613d52577f4e487b7100000000000000000000000000000000000000000000000000000000600052603260045260246000fd5b602002015173ffffffffffffffffffffffffffffffffffffffff1673ffffffffffffffffffffffffffffffffffffffff16815260200190815260200160002060020154815260200190815260200160002060009054906101000a900473ffffffffffffffffffffffffffffffffffffffff1681600560068110613dfe577f4e487b7100000000000000000000000000000000000000000000000000000000600052603260045260246000fd5b602002019073ffffffffffffffffffffffffffffffffffffffff16908173ffffffffffffffffffffffffffffffffffffffff1681525050600b6000600a600084600560068110613e77577f4e487b7100000000000000000000000000000000000000000000000000000000600052603260045260246000fd5b602002015173ffffffffffffffffffffffffffffffffffffffff1673ffffffffffffffffffffffffffffffffffffffff16815260200190815260200160002060020154815260200190815260200160002060009054906101000a900473ffffffffffffffffffffffffffffffffffffffff1681600060068110613f23577f4e487b7100000000000000000000000000000000000000000000000000000000600052603260045260246000fd5b602002019073ffffffffffffffffffffffffffffffffffffffff16908173ffffffffffffffffffffffffffffffffffffffff16815250505b5b5b5b5b5b614057565b600185141561405657600b6000600a60008673ffffffffffffffffffffffffffffffffffffffff1673ffffffffffffffffffffffffffffffffffffffff16815260200190815260200160002060020154815260200190815260200160002060009054906101000a900473ffffffffffffffffffffffffffffffffffffffff168160006006811061401e577f4e487b7100000000000000000000000000000000000000000000000000000000600052603260045260246000fd5b602002019073ffffffffffffffffffffffffffffffffffffffff16908173ffffffffffffffffffffffffffffffffffffffff16815250505b5b600a600082600060068110614095577f4e487b7100000000000000000000000000000000000000000000000000000000600052603260045260246000fd5b602002015173ffffffffffffffffffffffffffffffffffffffff1673ffffffffffffffffffffffffffffffffffffffff16815260200190815260200160002060000160009054906101000a900460ff1661419057600b60006001815260200190815260200160002060009054906101000a900473ffffffffffffffffffffffffffffffffffffffff1681600060068110614158577f4e487b7100000000000000000000000000000000000000000000000000000000600052603260045260246000fd5b602002019073ffffffffffffffffffffffffffffffffffffffff16908173ffffffffffffffffffffffffffffffffffffffff16815250505b600c600d60003373ffffffffffffffffffffffffffffffffffffffff1673ffffffffffffffffffffffffffffffffffffffff168152602001908152602001600020541061427e57600b60006001815260200190815260200160002060009054906101000a900473ffffffffffffffffffffffffffffffffffffffff1681600060068110614246577f4e487b7100000000000000000000000000000000000000000000000000000000600052603260045260246000fd5b602002019073ffffffffffffffffffffffffffffffffffffffff16908173ffffffffffffffffffffffffffffffffffffffff16815250505b4260096000836000600681106142bd577f4e487b7100000000000000000000000000000000000000000000000000000000600052603260045260246000fd5b602002015173ffffffffffffffffffffffffffffffffffffffff1673ffffffffffffffffffffffffffffffffffffffff1681526020019081526020016000206000868152602001908152602001600020541061483e578060006006811061434d577f4e487b7100000000000000000000000000000000000000000000000000000000600052603260045260246000fd5b602002015173ffffffffffffffffffffffffffffffffffffffff166108fc614391846008600089815260200190815260200160002054614af090919063ffffffff16565b9081150290604051600060405180830381858888f19350505050801561440a5750600260009054906101000a900473ffffffffffffffffffffffffffffffffffffffff1673ffffffffffffffffffffffffffffffffffffffff166108fc839081150290604051600060405180830381858888f193505050505b614449576040517f08c379a0000000000000000000000000000000000000000000000000000000008152600401614440906154ea565b60405180910390fd5b6144ef6008600086815260200190815260200160002054600a60008460006006811061449e577f4e487b7100000000000000000000000000000000000000000000000000000000600052603260045260246000fd5b602002015173ffffffffffffffffffffffffffffffffffffffff1673ffffffffffffffffffffffffffffffffffffffff1681526020019081526020016000206004015461274f90919063ffffffff16565b600a60008360006006811061452d577f4e487b7100000000000000000000000000000000000000000000000000000000600052603260045260246000fd5b602002015173ffffffffffffffffffffffffffffffffffffffff1673ffffffffffffffffffffffffffffffffffffffff168152602001908152602001600020600401819055506146276008600086815260200190815260200160002054600c6000846000600681106145c8577f4e487b7100000000000000000000000000000000000000000000000000000000600052603260045260246000fd5b602002015173ffffffffffffffffffffffffffffffffffffffff1673ffffffffffffffffffffffffffffffffffffffff16815260200190815260200160002060008781526020019081526020016000205461274f90919063ffffffff16565b600c600083600060068110614665577f4e487b7100000000000000000000000000000000000000000000000000000000600052603260045260246000fd5b602002015173ffffffffffffffffffffffffffffffffffffffff1673ffffffffffffffffffffffffffffffffffffffff168152602001908152602001600020600086815260200190815260200160002081905550806000600681106146f3577f4e487b7100000000000000000000000000000000000000000000000000000000600052603260045260246000fd5b602002015173ffffffffffffffffffffffffffffffffffffffff163373ffffffffffffffffffffffffffffffffffffffff167fcbdd750391a1e2f2af2073139d4b9cd7c6ff2ad06bfbb8f67084ebe4e157bcbd600a60003373ffffffffffffffffffffffffffffffffffffffff1673ffffffffffffffffffffffffffffffffffffffff16815260200190815260200160002060010154600a6000866000600681106147c7577f4e487b7100000000000000000000000000000000000000000000000000000000600052603260045260246000fd5b602002015173ffffffffffffffffffffffffffffffffffffffff1673ffffffffffffffffffffffffffffffffffffffff1681526020019081526020016000206001015488600860008b8152602001908152602001600020544260405161483195949392919061560e565b60405180910390a3614ae9565b600c600d60003373ffffffffffffffffffffffffffffffffffffffff1673ffffffffffffffffffffffffffffffffffffffff168152602001908152602001600020541015614ae8576148d96001600d60003373ffffffffffffffffffffffffffffffffffffffff1673ffffffffffffffffffffffffffffffffffffffff1681526020019081526020016000205461274f90919063ffffffff16565b600d60003373ffffffffffffffffffffffffffffffffffffffff1673ffffffffffffffffffffffffffffffffffffffff1681526020019081526020016000208190555080600060068110614956577f4e487b7100000000000000000000000000000000000000000000000000000000600052603260045260246000fd5b602002015173ffffffffffffffffffffffffffffffffffffffff163373ffffffffffffffffffffffffffffffffffffffff167f9f6beab2fd063736ecf6eb99e9e09cb267a7d96d15c910db489f9b460122a18e600a60003373ffffffffffffffffffffffffffffffffffffffff1673ffffffffffffffffffffffffffffffffffffffff16815260200190815260200160002060010154600a600086600060068110614a2a577f4e487b7100000000000000000000000000000000000000000000000000000000600052603260045260246000fd5b602002015173ffffffffffffffffffffffffffffffffffffffff1673ffffffffffffffffffffffffffffffffffffffff1681526020019081526020016000206001015488600860008b81526020019081526020016000205442604051614a9495949392919061560e565b60405180910390a3614ae760018583600060068110614adc577f4e487b7100000000000000000000000000000000000000000000000000000000600052603260045260246000fd5b602002015185612823565b5b5b5050505050565b600082821115614b29577f4e487b7100000000000000000000000000000000000000000000000000000000600052600160045260246000fd5b8183614b35919061578c565b905092915050565b6040518060c0016040528060001515815260200160008152602001600081526020016000815260200160008152602001606081525090565b828054828255906000526020600020908101928215614bee579160200282015b82811115614bed5782518260006101000a81548173ffffffffffffffffffffffffffffffffffffffff021916908373ffffffffffffffffffffffffffffffffffffffff16021790555091602001919060010190614b95565b5b509050614bfb9190614c21565b5090565b6040518060c00160405280600690602082028036833780820191505090505090565b5b80821115614c3a576000816000905550600101614c22565b5090565b600081359050614c4d816158eb565b92915050565b600081359050614c6281615902565b92915050565b600081359050614c7781615919565b92915050565b600081359050614c8c81615930565b92915050565b600060208284031215614ca457600080fd5b6000614cb284828501614c3e565b91505092915050565b60008060408385031215614cce57600080fd5b6000614cdc85828601614c53565b9250506020614ced85828601614c7d565b9150509250929050565b60008060408385031215614d0a57600080fd5b6000614d1885828601614c3e565b9250506020614d2985828601614c7d565b9150509250929050565b600060208284031215614d4557600080fd5b6000614d5384828501614c68565b91505092915050565b600060208284031215614d6e57600080fd5b6000614d7c84828501614c7d565b91505092915050565b60008060408385031215614d9857600080fd5b6000614da685828601614c7d565b9250506020614db785828601614c7d565b9150509250929050565b6000614dcd8383614dd9565b60208301905092915050565b614de2816157c0565b82525050565b614df1816157c0565b82525050565b6000614e0282615671565b614e0c8185615689565b9350614e1783615661565b8060005b83811015614e48578151614e2f8882614dc1565b9750614e3a8361567c565b925050600181019050614e1b565b5085935050505092915050565b614e5e816157e4565b82525050565b6000614e71600f8361569a565b91507f496e636f72726563742056616c756500000000000000000000000000000000006000830152602082019050919050565b6000614eb160158361569a565b91507f496e636f727265637420726566657272657220496400000000000000000000006000830152602082019050919050565b6000614ef1600e8361569a565b91507f6f6e6c7920666f72206f776e65720000000000000000000000000000000000006000830152602082019050919050565b6000614f31600a8361569a565b91507f55736572206578697374000000000000000000000000000000000000000000006000830152602082019050919050565b6000614f71600c8361569a565b91507f496e76616c6964205573657200000000000000000000000000000000000000006000830152602082019050919050565b6000614fb160148361569a565b91507f496e73756666696369656e742062616c616e63650000000000000000000000006000830152602082019050919050565b6000614ff160168361569a565b91507f427579207468652070726576696f7573206c6576656c000000000000000000006000830152602082019050919050565b6000615031600f8361569a565b91507f496e636f7272656374206c6576656c00000000000000000000000000000000006000830152602082019050919050565b6000615071600f8361569a565b91507f436f6e7472616374204c6f636b656400000000000000000000000000000000006000830152602082019050919050565b60006150b1600e8361569a565b91507f55736572206e6f742065786973740000000000000000000000000000000000006000830152602082019050919050565b60006150f160138361569a565b91507f5472616e73616374696f6e204661696c757265000000000000000000000000006000830152602082019050919050565b600061513160198361569a565b91507f6f6e6c7920666f72206f776e6572206f72206d616e61676572000000000000006000830152602082019050919050565b6000615171600f8361569a565b91507f496e76616c6964204164647265737300000000000000000000000000000000006000830152602082019050919050565b60006151b160108361569a565b91507f4e6f2046726565205265666572726572000000000000000000000000000000006000830152602082019050919050565b60006151f160118361569a565b91507f6f6e6c79204f776e65722057616c6c65740000000000000000000000000000006000830152602082019050919050565b600061523160108361569a565b91507f6f6e6c79204f776e657257616c6c6574000000000000000000000000000000006000830152602082019050919050565b6000615271604e8361569a565b91507f496e76616c6964205472616e73616374696f6e2e20496620617474656d70746960008301527f6e6720746f2073656e64206d6f6e65792c20706c65617365207265676973746560208301527f72206173206e657720757365722e0000000000000000000000000000000000006040830152606082019050919050565b6152f981615810565b82525050565b60006020820190506153146000830184614de8565b92915050565b600060208201905081810360008301526153348184614df7565b905092915050565b60006020820190506153516000830184614e55565b92915050565b600060a08201905061536c6000830188614e55565b61537960208301876152f0565b61538660408301866152f0565b61539360608301856152f0565b6153a060808301846152f0565b9695505050505050565b600060208201905081810360008301526153c381614e64565b9050919050565b600060208201905081810360008301526153e381614ea4565b9050919050565b6000602082019050818103600083015261540381614ee4565b9050919050565b6000602082019050818103600083015261542381614f24565b9050919050565b6000602082019050818103600083015261544381614f64565b9050919050565b6000602082019050818103600083015261546381614fa4565b9050919050565b6000602082019050818103600083015261548381614fe4565b9050919050565b600060208201905081810360008301526154a381615024565b9050919050565b600060208201905081810360008301526154c381615064565b9050919050565b600060208201905081810360008301526154e3816150a4565b9050919050565b60006020820190508181036000830152615503816150e4565b9050919050565b6000602082019050818103600083015261552381615124565b9050919050565b6000602082019050818103600083015261554381615164565b9050919050565b60006020820190508181036000830152615563816151a4565b9050919050565b60006020820190508181036000830152615583816151e4565b9050919050565b600060208201905081810360008301526155a381615224565b9050919050565b600060208201905081810360008301526155c381615264565b9050919050565b60006020820190506155df60008301846152f0565b92915050565b60006040820190506155fa60008301856152f0565b61560760208301846152f0565b9392505050565b600060a08201905061562360008301886152f0565b61563060208301876152f0565b61563d60408301866152f0565b61564a60608301856152f0565b61565760808301846152f0565b9695505050505050565b6000819050602082019050919050565b600081519050919050565b6000602082019050919050565b600082825260208201905092915050565b600082825260208201905092915050565b60006156b682615810565b91506156c183615810565b9250827fffffffffffffffffffffffffffffffffffffffffffffffffffffffffffffffff038211156156f6576156f561588d565b5b828201905092915050565b600061570c82615810565b915061571783615810565b925082615727576157266158bc565b5b828204905092915050565b600061573d82615810565b915061574883615810565b9250817fffffffffffffffffffffffffffffffffffffffffffffffffffffffffffffffff04831182151516156157815761578061588d565b5b828202905092915050565b600061579782615810565b91506157a283615810565b9250828210156157b5576157b461588d565b5b828203905092915050565b60006157cb826157f0565b9050919050565b60006157dd826157f0565b9050919050565b60008115159050919050565b600073ffffffffffffffffffffffffffffffffffffffff82169050919050565b6000819050919050565b600061582582615810565b915060008214156158395761583861588d565b5b600182039050919050565b600061584f82615810565b91507fffffffffffffffffffffffffffffffffffffffffffffffffffffffffffffffff8214156158825761588161588d565b5b600182019050919050565b7f4e487b7100000000000000000000000000000000000000000000000000000000600052601160045260246000fd5b7f4e487b7100000000000000000000000000000000000000000000000000000000600052601260045260246000fd5b6158f4816157c0565b81146158ff57600080fd5b50565b61590b816157d2565b811461591657600080fd5b50565b615922816157e4565b811461592d57600080fd5b50565b61593981615810565b811461594457600080fd5b5056fea26469706673582212202274f99538a93a096bfebc7b6cda1641d22cf915b66e6c64127de4bb0feee6ba64736f6c63430008000033",
  "immutableReferences": {},
  "source": "// SPDX-License-Identifier: UNLICENSED\r\npragma solidity ^0.8.0;\r\n\r\n\r\nlibrary SafeMath {\r\n\r\n  function mul(uint256 a, uint256 b) internal pure returns (uint256) {\r\n    uint256 c = a * b;\r\n    assert(a == 0 || c / a == b);\r\n    return c;\r\n  }\r\n\r\n  function div(uint256 a, uint256 b) internal pure returns (uint256) {\r\n    uint256 c = a / b;\r\n    return c;\r\n  }\r\n\r\n  function sub(uint256 a, uint256 b) internal pure returns (uint256) {\r\n    assert(b <= a);\r\n    return a - b;\r\n  }\r\n\r\n  function add(uint256 a, uint256 b) internal pure returns (uint256) {\r\n    uint256 c = a + b;\r\n    assert(c >= a);\r\n    return c;\r\n  }\r\n\r\n}\r\n\r\n\r\ncontract Ownable {\r\n\r\n  address public owner;\r\n  address public manager;\r\n  address public ownerWallet;\r\n\r\n  constructor() {\r\n    owner = msg.sender;\r\n    manager = msg.sender;\r\n    ownerWallet = msg.sender;\r\n  }\r\n\r\n  modifier onlyOwner() {\r\n    require(msg.sender == owner, \"only for owner\");\r\n    _;\r\n  }\r\n\r\n  modifier onlyOwnerOrManager() {\r\n     require((msg.sender == owner)||(msg.sender == manager), \"only for owner or manager\");\r\n      _;\r\n  }\r\n\r\n  function transferOwnership(address newOwner) public onlyOwner {\r\n    owner = newOwner;\r\n  }\r\n\r\n  function setManager(address _manager) public onlyOwnerOrManager {\r\n      manager = _manager;\r\n  }\r\n}\r\n\r\n\r\ncontract SpearheadProtocol is Ownable {\r\n    using SafeMath for uint256;\r\n\r\n    struct UserStruct {\r\n        bool isExist;\r\n        uint id;\r\n        uint referrerID;\r\n        uint currentLevel;\r\n        uint totalEarningEth;\r\n        address[] referral;\r\n    }\r\n    uint public adminFee = 16 ether;\r\n    uint public currentId = 0;\r\n    uint public PERIOD_LENGTH = 60 days;\r\n    uint referrer1Limit = 2;\r\n    bool public lockStatus;\r\n    \r\n    mapping (uint => uint) public LEVEL_PRICE;\r\n    mapping (address => mapping(uint => uint)) public levelExpired;\r\n    mapping (address => UserStruct) public users;\r\n    mapping (uint => address) public userList;\r\n    mapping (address => mapping (uint => uint)) public EarnedEth;\r\n    mapping (address => uint) public loopCheck;\r\n    mapping (address => uint) public createdDate;\r\n    \r\n    event regLevelEvent(address indexed UserAddress, address indexed ReferrerAddress, uint Time);\r\n    event buyLevelEvent(address indexed UserAddress, uint Levelno, uint Time);\r\n    event getMoneyForLevelEvent(address indexed UserAddress, uint UserId, address indexed ReferrerAddress, uint ReferrerId, uint Levelno, uint LevelPrice, uint Time);\r\n    event lostMoneyForLevelEvent(address indexed UserAddress, uint UserId, address indexed ReferrerAddress, uint ReferrerId, uint Levelno, uint LevelPrice, uint Time);    \r\n    \r\n    constructor() {\r\n\r\n        LEVEL_PRICE[1] = 0.03 ether;\r\n        LEVEL_PRICE[2] = 0.05 ether;\r\n        LEVEL_PRICE[3] = 0.1 ether;\r\n        LEVEL_PRICE[4] = 0.5 ether;\r\n        LEVEL_PRICE[5] = 1 ether;\r\n        LEVEL_PRICE[6] = 3 ether;\r\n        LEVEL_PRICE[7] = 7 ether;\r\n        LEVEL_PRICE[8] = 12 ether;\r\n        LEVEL_PRICE[9] = 15 ether;\r\n        LEVEL_PRICE[10] = 25 ether;\r\n        LEVEL_PRICE[11] = 30 ether;\r\n        LEVEL_PRICE[12] = 39 ether;\r\n\r\n        UserStruct memory userStruct;\r\n        currentId = currentId.add(1);\r\n\r\n        userStruct = UserStruct({\r\n            isExist: true,\r\n            id: currentId,\r\n            referrerID: 0,\r\n            currentLevel:1,\r\n            totalEarningEth:0,\r\n            referral: new address[](0)\r\n        });\r\n        users[ownerWallet] = userStruct;\r\n        userList[currentId] = ownerWallet;\r\n\r\n        for(uint i = 1; i <= 12; i++) {\r\n            users[ownerWallet].currentLevel = i;\r\n            levelExpired[ownerWallet][i] = 55555555555;\r\n        }\r\n    } \r\n\r\n    receive () external payable {\r\n        revert(\"Invalid Transaction. If attempting to send money, please register as new user.\");\r\n    }\r\n\r\n    /**\r\n     * @dev User registration\r\n     */ \r\n    function regUser(uint _referrerID) external payable {\r\n        require(lockStatus == false, \"Contract Locked\");\r\n        require(users[msg.sender].isExist == false, \"User exist\");\r\n        require(_referrerID > 0 && _referrerID <= currentId, \"Incorrect referrer Id\");\r\n        require(msg.value == LEVEL_PRICE[1], \"Incorrect Value\");\r\n        \r\n        /* \r\n            get address of user with referrerID passed in from userList \r\n            and find UserStruct Struct in users mapping with that address\r\n            look up length of that UserStruct's referral array length \r\n            and compare to referrer1Limit variable i.e. 2\r\n            if greater or equal to\r\n            call findFreeReferrer on address of referrer and return resulting UserStruct userId\r\n            set that to _referrerID to be used moving forward \r\n            since the user referring the registrant is out of referrals \r\n        */\r\n        if (users[userList[_referrerID]].referral.length >= referrer1Limit) \r\n            _referrerID = users[findFreeReferrer(userList[_referrerID])].id;\r\n\r\n        // create new Userstruct and increment currentId\r\n        UserStruct memory userStruct;\r\n        currentId = currentId.add(1);\r\n        \r\n        userStruct = UserStruct({\r\n            isExist: true,\r\n            id: currentId,\r\n            referrerID: _referrerID,\r\n            currentLevel: 1,\r\n            totalEarningEth:0,\r\n            referral: new address[](0)\r\n        });\r\n\r\n        // put new userStruct into users mapping assigning value to msg.sender \r\n        users[msg.sender] = userStruct;\r\n        // map currentId to senders address\r\n        userList[currentId] = msg.sender;\r\n        // set users level expiration period to current timestamp plus period length\r\n        levelExpired[msg.sender][1] = block.timestamp.add(PERIOD_LENGTH);\r\n        // add registrant to referrers userStruct referral array\r\n        users[userList[_referrerID]].referral.push(msg.sender);\r\n        loopCheck[msg.sender] = 0;\r\n        createdDate[msg.sender] = block.timestamp;\r\n\r\n        payForLevel(0, 1, msg.sender, ((LEVEL_PRICE[1].mul(adminFee)).div(10**20)));\r\n\r\n        emit regLevelEvent(msg.sender, userList[_referrerID], block.timestamp);\r\n    }\r\n    \r\n    /**\r\n     * @dev To buy the next level by User\r\n     */ \r\n    function buyLevel(uint256 _level) external payable {\r\n        require(lockStatus == false, \"Contract Locked\");\r\n        require(users[msg.sender].isExist, \"User not exist\"); \r\n        require(_level > 0 && _level <= 12, \"Incorrect level\");\r\n\r\n        // buy actions for purchase of level 1 \r\n        if (_level == 1) {\r\n            require(msg.value == LEVEL_PRICE[1], \"Incorrect Value\");\r\n            levelExpired[msg.sender][1] = levelExpired[msg.sender][1].add(PERIOD_LENGTH);\r\n            users[msg.sender].currentLevel = 1;\r\n        } else {\r\n            require(msg.value == LEVEL_PRICE[_level], \"Incorrect Value\");\r\n            // set current level in userStruct for sener to sent in level\r\n            users[msg.sender].currentLevel = _level;\r\n            // decrementing until 1 from level\r\n            for (uint i = _level - 1; i > 0; i--)\r\n                // require sender not expired at the level requested \r\n                require(levelExpired[msg.sender][i] >= block.timestamp, \"Buy the previous level\");\r\n            // assuming allowed to buy level check expiry is 0 \r\n            // and set to timestamp plus period length \r\n            // else add period length to timestamp\r\n            if (levelExpired[msg.sender][_level] == 0)\r\n                levelExpired[msg.sender][_level] = block.timestamp + PERIOD_LENGTH;\r\n            else \r\n                levelExpired[msg.sender][_level] += PERIOD_LENGTH;\r\n        }\r\n        loopCheck[msg.sender] = 0;\r\n        // pay for the level\r\n        payForLevel(0, _level, msg.sender, ((LEVEL_PRICE[_level].mul(adminFee)).div(10**20)));\r\n\r\n        emit buyLevelEvent(msg.sender, _level, block.timestamp);\r\n    }\r\n    \r\n    /**\r\n     * @dev Internal function for payment\r\n     */ \r\n    function payForLevel(uint _flag, uint _level, address _userAddress, uint _adminFee) internal {\r\n        address[6] memory referer;\r\n        \r\n        if (_flag == 0) {\r\n            /*\r\n                dictation for payments and referrer shuffling\r\n                _level = level being paid for\r\n                _userAddress = user paying for level\r\n                _referer[x] = address of referrer getting credited for the payment by _userAddress\r\n            */\r\n            if (_level == 1 || _level == 7) {\r\n                // set referer[0] to the address of the referrer of _userAddress\r\n                referer[0] = userList[users[_userAddress].referrerID];\r\n            } else if (_level == 2 || _level == 8) {\r\n                // set referer[1] to the address of the referrer of _userAddress\r\n                referer[1] = userList[users[_userAddress].referrerID];\r\n                // then set referer[0] to the address of the referrer of referer[1] i.e. the referrer of _userAddress\r\n                referer[0] = userList[users[referer[1]].referrerID];\r\n            } else if (_level == 3 || _level == 9) {\r\n                // set referer[1] to the address of the referrer of _userAddress\r\n                referer[1] = userList[users[_userAddress].referrerID];\r\n                // set referer[2] to the address of the referrer of referer[1] i.e the referrer of _userAddress\r\n                referer[2] = userList[users[referer[1]].referrerID];\r\n                // set referer[0] to the address of the referrer of referer[2] \r\n                // i.e. the referrer of referrer[1] who is now the referrer of _userAddress\r\n                referer[0] = userList[users[referer[2]].referrerID];\r\n            } else if (_level == 4 || _level == 10) {\r\n                referer[1] = userList[users[_userAddress].referrerID];\r\n                referer[2] = userList[users[referer[1]].referrerID];\r\n                referer[3] = userList[users[referer[2]].referrerID];\r\n                referer[0] = userList[users[referer[3]].referrerID];\r\n            } else if (_level == 5 || _level == 11) {\r\n                referer[1] = userList[users[_userAddress].referrerID];\r\n                referer[2] = userList[users[referer[1]].referrerID];\r\n                referer[3] = userList[users[referer[2]].referrerID];\r\n                referer[4] = userList[users[referer[3]].referrerID];\r\n                referer[0] = userList[users[referer[4]].referrerID];\r\n            } else if (_level == 6 || _level == 12) {\r\n                referer[1] = userList[users[_userAddress].referrerID];\r\n                referer[2] = userList[users[referer[1]].referrerID];\r\n                referer[3] = userList[users[referer[2]].referrerID];\r\n                referer[4] = userList[users[referer[3]].referrerID];\r\n                referer[5] = userList[users[referer[4]].referrerID];\r\n                referer[0] = userList[users[referer[5]].referrerID];\r\n            }\r\n        } else if (_flag == 1) {\r\n            referer[0] = userList[users[_userAddress].referrerID];\r\n        }\r\n        // if referrer doesn't exist then set the first downline address to be the referrer\r\n        if (!users[referer[0]].isExist) referer[0] = userList[1];\r\n        \r\n        if (loopCheck[msg.sender] >= 12) {\r\n            referer[0] = userList[1];\r\n        }\r\n        // check level expiry on referrer \r\n        if (levelExpired[referer[0]][_level] >= block.timestamp) {\r\n            // transactions \r\n            require(payable(referer[0]).send(LEVEL_PRICE[_level].sub(_adminFee)) \r\n                    && payable(ownerWallet).send(_adminFee), \"Transaction Failure\");\r\n\r\n            // track eth earnings\r\n            users[referer[0]].totalEarningEth = users[referer[0]].totalEarningEth.add(LEVEL_PRICE[_level]);\r\n            EarnedEth[referer[0]][_level] = EarnedEth[referer[0]][_level].add(LEVEL_PRICE[_level]);\r\n          \r\n            emit getMoneyForLevelEvent(msg.sender, users[msg.sender].id, referer[0], users[referer[0]].id, _level, LEVEL_PRICE[_level], block.timestamp);\r\n        } else {\r\n            if (loopCheck[msg.sender] < 12) {\r\n                loopCheck[msg.sender] = loopCheck[msg.sender].add(1);\r\n\r\n                emit lostMoneyForLevelEvent(msg.sender, users[msg.sender].id, referer[0], users[referer[0]].id, _level, LEVEL_PRICE[_level],block.timestamp);\r\n                \r\n                payForLevel(1, _level, referer[0], _adminFee);\r\n            }\r\n        }\r\n    }\r\n    \r\n    /**\r\n     * @dev Contract balance withdraw\r\n     */ \r\n    function failSafe(address payable _toUser, uint _amount) public returns (bool) {\r\n        require(msg.sender == ownerWallet, \"only Owner Wallet\");\r\n        require(_toUser != address(0), \"Invalid Address\");\r\n        require(address(this).balance >= _amount, \"Insufficient balance\");\r\n\r\n        (_toUser).transfer(_amount);\r\n        return true;\r\n    }\r\n            \r\n    /**\r\n     * @dev Update admin fee percentage\r\n     */ \r\n    function updateFeePercentage(uint256 _adminFee) public returns (bool) {\r\n        require(msg.sender == ownerWallet, \"only OwnerWallet\");\r\n\r\n        adminFee = _adminFee;\r\n        return true;  \r\n    }\r\n    \r\n    /**\r\n     * @dev Update level price\r\n     */ \r\n    function updatePrice(uint _level, uint _price) public returns (bool) {\r\n        require(msg.sender == ownerWallet, \"only OwnerWallet\");\r\n\r\n        LEVEL_PRICE[_level] = _price;\r\n        return true;\r\n    }\r\n\r\n    /**\r\n     * @dev Update contract status\r\n     */ \r\n    function contractLock(bool _lockStatus) public returns (bool) {\r\n        require(msg.sender == ownerWallet, \"Invalid User\");\r\n\r\n        lockStatus = _lockStatus;\r\n        return true;\r\n    }\r\n        \r\n    /**\r\n     * @dev View free Referrer Address\r\n     */ \r\n    function findFreeReferrer(address _userAddress) public view returns (address) {\r\n        // if _userAddress referrals length less than limit return _user\r\n        if (users[_userAddress].referral.length < referrer1Limit) \r\n            return _userAddress;\r\n\r\n        address[] memory referrals = new address[](254);\r\n        referrals[0] = users[_userAddress].referral[0];\r\n        referrals[1] = users[_userAddress].referral[1];\r\n\r\n        address freeReferrer;\r\n        bool noFreeReferrer = true;\r\n\r\n        // loop referrals array\r\n        for (uint i = 0; i < 254; i++) { \r\n            // check each of the referrals lengths see if any is equal to limit\r\n            if (users[referrals[i]].referral.length == referrer1Limit) {\r\n                if (i < 126) {\r\n                    referrals[(i+1)*2] = users[referrals[i]].referral[0];\r\n                    referrals[(i+1)*2+1] = users[referrals[i]].referral[1];\r\n                }\r\n            } else {\r\n                noFreeReferrer = false;\r\n                freeReferrer = referrals[i];\r\n                break;\r\n            }\r\n        }\r\n        require(!noFreeReferrer, \"No Free Referrer\");\r\n        return freeReferrer;\r\n    }\r\n    \r\n    /**\r\n     * @dev Total earned ETH\r\n     */\r\n    function getTotalEarnedEther() public view returns (uint) {\r\n        uint totalEth;\r\n        for (uint i = 1; i <= currentId; i++) {\r\n            totalEth = totalEth.add(users[userList[i]].totalEarningEth);\r\n        }\r\n        return totalEth;\r\n    }\r\n        \r\n    /**\r\n     * @dev View referrals\r\n     */ \r\n    function viewUserReferral(address _userAddress) external view returns (address[] memory) {\r\n        return users[_userAddress].referral;\r\n    }\r\n    \r\n    /**\r\n     * @dev View level expired time\r\n     */ \r\n    function viewUserLevelExpired(address _userAddress,uint _level) external view returns (uint) {\r\n        return levelExpired[_userAddress][_level];\r\n    }\r\n\r\n    /**\r\n     * @dev get user at address\r\n     */\r\n    function getUser(address _user) public view returns (bool, uint, uint, uint, uint) {\r\n        if(users[_user].isExist == false) {\r\n            return(false, currentId, 0, 0, 0);\r\n        } else {\r\n            return(users[_user].isExist, users[_user].id, users[_user].referrerID, users[_user].currentLevel, users[_user].totalEarningEth);\r\n        }\r\n    }\r\n\r\n    /**\r\n     * @dev get contract balance    \r\n     */\r\n    function getContractBalance() public view returns (uint) {\r\n        return address(this).balance;\r\n    }\r\n}",
  "sourcePath": "C:/Users/Andrew Dufresne/Desktop/Dev/Solidity/FU/f-u/contracts/Spearhead.sol",
  "compiler": {
    "name": "solc",
    "version": "0.8.0+commit.c7dfd78e.Emscripten.clang"
  },
  "schemaVersion": "3.4.1",
  "updatedAt": "2021-10-25T01:52:29.521Z",
  "devdoc": {
    "kind": "dev",
    "methods": {
      "buyLevel(uint256)": {
        "details": "To buy the next level by User"
      },
      "contractLock(bool)": {
        "details": "Update contract status"
      },
      "failSafe(address,uint256)": {
        "details": "Contract balance withdraw"
      },
      "findFreeReferrer(address)": {
        "details": "View free Referrer Address"
      },
      "getContractBalance()": {
        "details": "get contract balance    "
      },
      "getTotalEarnedEther()": {
        "details": "Total earned ETH"
      },
      "getUser(address)": {
        "details": "get user at address"
      },
      "regUser(uint256)": {
        "details": "User registration"
      },
      "updateFeePercentage(uint256)": {
        "details": "Update admin fee percentage"
      },
      "updatePrice(uint256,uint256)": {
        "details": "Update level price"
      },
      "viewUserLevelExpired(address,uint256)": {
        "details": "View level expired time"
      },
      "viewUserReferral(address)": {
        "details": "View referrals"
      }
    },
    "version": 1
  },
  "userdoc": {
    "kind": "user",
    "methods": {},
    "version": 1
  }
}